:020000040800F2
:1000000038520020E902000833270008B121000817
:100010003127000843050008652F00080000000094
:10002000000000000000000000000000290200089D
:100030007906000800000000850200086129000818
:100040000303000803030008030300080303000878
:100050000303000803030008030300080303000868
:100060000303000803030008030300080303000858
:10007000A5050008030300080303000803030008A4
:100080000303000803030008030300080303000838
:1000900045050008030300080303000803030008E4
:1000A0000303000803030008030300080303000818
:1000B0000303000803030008030300080303000808
:1000C00003030008030300080303000803030008F8
:1000D00003030008A52E000803030008B12E000842
:1000E00003030008030300080303000803030008D8
:1000F00003030008030300080303000803030008C8
:1001000003030008030300080303000803030008B7
:1001100003030008030300080303000803030008A7
:100120000303000803030008030300080303000897
:100130000303000803030008030300080303000887
:100140005105000803030008030300080303000827
:100150000303000803030008B105000803030008B7
:100160000303000803030008030300080303000857
:100170000303000803030008030300080000000055
:10018000030300080303000800F002F800F03CF845
:100190000AA090E8000C82448344AAF10107DA45E2
:1001A00001D100F031F8AFF2090EBAE80F0013F0F8
:1001B000010F18BFFB1A43F0010318477C420000EF
:1001C0009C420000103A24BF78C878C1FAD8520780
:1001D00024BF30C830C144BF04680C6070470000C1
:1001E0000023002400250026103A28BF78C1FBD840
:1001F000520728BF30C148BF0B6070471FB504F0DD
:10020000DAF81FBD10B510BD00F066F91146FFF712
:10021000F5FF03F01FF800F084F903B4FFF7F2FFD5
:1002200003BC00F087F900002C4B19680868B0E89F
:10023000F04F80F30988BFF36F8F4FF0000080F319
:10024000118870470000000008480068006880F3CB
:1002500008884FF0000080F3148862B661B6BFF3DF
:100260004F8FBFF36F8F00DF00BF00BF08ED00E0CE
:10027000DFF80C00016841F470010160704700BFB5
:1002800088ED00E0EFF30980BFF36F8F134B1A681E
:100290001EF0100F08BF20ED108A20E9F04F10600B
:1002A00009B44FF0500080F31188BFF34F8FBFF3B4
:1002B0006F8F03F06BFD4FF0000080F3118809BCD5
:1002C00019680868B0E8F04F1EF0100F08BFB0ECD6
:1002D000108A80F30988BFF36F8F70471C000020DD
:1002E000EFF3058070470000094880470948004740
:1002F000FEE7FEE7FEE7FEE7FEE7FEE7FEE7FEE7D6
:10030000FEE7FEE704480549054A064B7047000032
:100310000D2A000889010008384C002038520020BE
:10032000384E0020384E002053EA020C00F069805D
:100330002DE9F04B4FF00006002B1FBFB3FA83F5F9
:1003400003FA05F424FA05F65E4012BF1643B2FA2A
:1003500082F502FA05F4C5F120051EBF22FA05FC5C
:1003600044EA0C04203556EA044C4FEA144418BF02
:10037000641C4FF000084FF00009904271EB030C31
:1003800039D3002919BFB1FA81F701FA07F6B0FA9B
:1003900080F700FA07F6C7F120071EBF20FA07FC16
:1003A00046EA0C062037B6FBF4FCA7EB0507103F26
:1003B00007F01F0BCBF120060CFA0BFB2CFA06F60C
:1003C00044BFB3460026202FA4BF5E464FF0000B6B
:1003D0005BEA060C08BF4FF0010B19EB0B09ABFBF6
:1003E000027C48EB0608C01B06FB02CC0BFB03CCCF
:1003F00071EB0C01C1E70B46024641464846BDE899
:10040000F08B13B54FF000004FF00001AFF3008008
:10041000BDE81C40704710B5203AC0F00B80B1E831
:100420001850203AA0E81850B1E81850A0E8185029
:10043000BFF4F5AF5FEA027C24BFB1E81850A0E832
:10044000185044BF18C918C0BDE810405FEA827C4C
:1004500024BF51F8043B40F8043B08BF7047D20763
:1004600028BF31F8023B48BF11F8012B28BF20F804
:10047000023B48BF00F8012B70474FF0000200B567
:10048000134694469646203922BFA0E80C50A0E8B7
:100490000C50B1F12001BFF4F7AF090728BFA0E865
:1004A0000C5048BF0CC05DF804EB890028BF40F831
:1004B000042B08BF704748BF20F8022B11F0804F73
:1004C00018BF00F8012B7047704770477047000055
:1004D00000487047D44B00207546FFF7F9FFAE4641
:1004E00005006946534620F00700854618B020B540
:1004F000FFF708FFBDE820404FF000064FF000076F
:100500004FF000084FF0000B21F00701AC46ACE8BB
:10051000C009ACE8C009ACE8C009ACE8C0098D4628
:10052000704710B50446AFF300802046BDE8104088
:10053000FFF773BE01491820ABBEFEE7260002009C
:100540007047FEE7014800F00CBA0000E40200200A
:10055000014800F006BA00000C03002038B50E4C2C
:1005600040F2FF1525600025A560E560082525619E
:100570000A4C050A25706070080AA070E170100A24
:1005800020716271180AA071E3716B46224602491C
:10059000034800F086F838BD804300208500002025
:1005A000E4020020014800F039BD00006C04002086
:1005B000014800F033BD00000C040020016818233E
:1005C000CAB2103AB2FBF3F2054B6FF30901032AEA
:1005D0009B5CC36500D9091D816508467047000012
:1005E000F843000810B5014600208B698A6A4FF075
:1005F000C07453B1B3F5005F15D072B1012A0CD0AD
:10060000022A0AD0032A09D104E01AB1012A06D02D
:10061000022A03D1C96AC90100D5012010BDC96AE7
:10062000A142FAD010BD002AF7D0012AF2D0022A46
:10063000F3D0032AF3D010BD70B500244FF4FA753F
:1006400001210C4803F030FA284602F017FF02217E
:10065000084803F029FA284602F010FF0321054854
:1006600003F022FA284602F009FF641C022CE7DBA3
:1006700070BD00000C030020704772B6FEE790F8D2
:100680002020012A07D0022A05D0416A41F48021A6
:10069000416201207047006842690A4342610020BC
:1006A0007047F0B590F820500468A468012D05D07B
:1006B000022D03D0416A41F480214DE014F0406FD7
:1006C00001D1E50045D5C4F301640125A5401D60B5
:1006D0008D684FF4C0739DB1CE6835434E6845EACE
:1006E000C605066803EB0417F5514FF4C275076899
:1006F00005EB04150E697E51097D012905D009E03D
:100700000E88CD6845EA4655EBE701684E5946F438
:1007100080764E511179D2F805504FF4C67641EAF1
:100720000521056806EB0416A9511178D2F80120BD
:100730004FF4C47541EA0221026805EB04155151DA
:10074000006803EB0411425842F0010242500020BD
:10075000F0BD416A41F4001141620120F0BD00008A
:1007600010B590F82020012A07D0022A05D0416A4E
:1007700041F480214162012010BD3B48D0F80022A5
:1007800042F00102C0F80022D0F8002222F47C528C
:10079000C0F80022D0F800224B6A42EA0322C0F8D7
:1007A00000220A7D02F01F0301229A40D0F81C3279
:1007B0009343C0F81C32CB69B3B9D0F80C329343E1
:1007C000C0F80C328C894B6864F31F434C6900EB12
:1007D000C404C4F840320C890B6864F31F434C69AD
:1007E00000EBC404C4F84432CB69012B16D1D0F815
:1007F0000C321343C0F80C320C884B6864F31F436F
:100800004C6900EBC404C4F840320C89CB6864F333
:100810001F434C6900EBC404C4F844328B69002BBD
:10082000D0F804320ED01343C0F804320B69002B09
:10083000D0F8143208D01343C0F81432096A0129E1
:1008400004D008E09343EFE79343F5E7D0F81C1298
:100850001143C0F81C12D0F8001221F00101C0F8B9
:100860000012002010BD000000640040704770B509
:1008700090F82040012C05D0022C03D0416A41F4AD
:10088000802128E0046809B32469A40720D04FF42C
:10089000D874056804EB01142D5915F00405956012
:1008A00005682D591AD0ED08556005682C5904F0DB
:1008B0000204D4604FF4DA74056804EB01142E5975
:1008C00006F00F06082E0CD308250DE0E468DCE7DF
:1008D000416A41F400114162012070BD6D0D156047
:1008E000E3E72D5905F00F05156105682D59C5F38E
:1008F0000725956105682C59240C54614FF4DC726E
:10090000046802EB0112A4581C700468A458240A5D
:100910005C700468A458240C9C700468A258120EE1
:10092000DA704FF4DE72046802EB0112A4581C71F5
:100930000468A458240A5C710468A458240C9C71AF
:100940000468A258120EDA71006829B1016941F0F9
:1009500020010161002070BDC16841F02001C1602B
:10096000F8E72DE9F05F0546006800244669D0F8F5
:1009700004908768D0F80CB0D0F810A0D0F8188098
:10098000F10748D0F90714D001218160B80703D5D9
:10099000284600F0E2FA0CE0780702D54FF4006434
:1009A00007E0380702D54FF4805402E0284600F0F3
:1009B000D3FAF80516D529684FF480708860B80519
:1009C00003D5284600F0CBFA0CE0780502D544F4B4
:1009D000005407E0380502D544F4804402E028467C
:1009E00000F0BCFAF80316D529684FF4803088600F
:1009F000B80303D5284600F0B4FA0CE0780302D51A
:100A000044F4004407E0380302D544F4803402E0A3
:100A1000284600F0A5FA300707D55FEACB6004D579
:100A20002968102044F40074C86070074FF008076C
:100A300007D55FEA0B7004D52868C760284600F028
:100A400093F9B00706D52868C068800702D0284609
:100A500000F08CF9700607D55FEACA6004D52968F2
:100A6000102044F480640861B00607D55FEA0A707C
:100A700004D528680761284600F03EFAF00606D53E
:100A800028680069800702D0284600F036FAB003D3
:100A900008D55FEAC96005D5296810204860284656
:100AA00000F02CFAF00307D55FEA097004D5286836
:100AB0004760284600F056FA300446D55FEA497090
:100AC00040D5F00504D55FEAC87001D044F00104B8
:100AD000B00504D55FEA887001D544F002047005C2
:100AE00004D55FEA487001D544F00404300529D5E7
:100AF00018F0700F26D008F07000402815D006DCE2
:100B0000102809D020280AD0302816D10AE0502811
:100B10000ED0602811D10EE044F008040DE044F03E
:100B200010040AE044F0200407E044F0400404E02C
:100B300044F0800401E044F480742868816921F065
:100B400070018161296804204860002C05D0686A22
:100B5000204368622846FFF789FEBDE8F09F70B524
:100B6000040003D094F8200010B104E0012070BD0F
:100B7000204600F081F82068016841F00101016021
:100B800000F07EFC0546052604E000F079FC401BE1
:100B90000A2811D820684068C007F6D0206801688C
:100BA00021F00201016000F06BFC05460BE000F053
:100BB00067FC401B0A2806D9606A40F40030606276
:100BC00084F82060D2E7206840688007EFD4207E58
:100BD0000128206801683DD021F080010160607E1D
:100BE00001282068016838D021F040010160A07E12
:100BF00001282068016833D021F020010160E07EE7
:100C00000128206801682ED041F010010160207F8A
:100C100001282068016829D021F008010160607F67
:100C200001282068016824D021F004010160D4E982
:100C300002010843D4E90412114308436168491EC4
:100C400008432168C86100206062012084F8200008
:100C5000002070BD41F08001C0E741F04001C5E7D0
:100C600041F02001CAE721F01001CFE741F008016F
:100C7000D4E741F00401D9E7F0B587B00446142168
:100C80006846FFF7FAFB334B3348DFF8C4E01968D6
:100C9000D4F800C0304A032502260927103000246A
:100CA000491CF4451DD11960012907D1016841F0A3
:100CB00000710160006800F000700590106840F05D
:100CC000080010601068CDE9005600F00800CDE97A
:100CD000047069462148CDE9024500F0D9FA07B011
:100CE000F0BDDFF87CE0F445F9D1D0F800C04CF05D
:100CF000806CC0F800C0D0F800C001290CF0806CF6
:100D0000CDF814C0196007D1016841F0007101608D
:100D1000006800F000700590106840F0020010605C
:100D2000106802AB00F0020005906020CDE90006DB
:100D300083E8B00069460B4800F0AAFA00220521BA
:100D4000402000F00FFC402000F0FEFBC7E7000051
:100D5000006400400800002030380240000C0240CF
:100D600000680040000402407047000010B50446CF
:100D70002DED028B94B000685749884246D10BABE9
:100D80000DAA00212046FFF772FD0D98A0F5007016
:100D9000053805D05149FC281BD0FD2836D129E063
:100DA0004F49042008704F480246038D02F1280184
:100DB0001386BDF82C2052BA0285BDF82E0040BA29
:100DC0004880BDF8300040BA88809DF832008871B4
:100DD0001CE0BDF82C0040BA0880BDF82E0040BAD7
:100DE0004880BDF8300040BA8880BDF8320040BA73
:100DF000C8800BE0BDF82C0040BA0881BDF82E0079
:100E000040BA8872BDF8300040BA0873364920688D
:100E100088422CD102AB04AA00213448FFF727FDF9
:100E2000304804991038DFED328A9FED328A00F1A4
:100E3000580411291FD0122935D0132917D18168E0
:100E4000491C81609DF8080002A900F00F00C4F859
:100E5000F00004F1F00001F01AFA94ED430A84ED79
:100E60004B0AC0EE280A20EE880A84ED510A14B01D
:100E7000BDEC028B10BD0168491C01609DF80800A3
:100E800002A900F00F0020601648483001F0FFF979
:100E900094ED070A84ED0F0AC0EE280A20EE880AB6
:100EA00084ED150AE3E74168491C41609DF808009C
:100EB00002A900F00F00A0670A48C03001F0E7F96E
:100EC00094ED250A84ED2D0AC0EE280A20EE880A4A
:100ED00084ED330ACBE7000000640040C8430020E3
:100EE00084000020D0410020006800400C03002056
:100EF000DB0F4940000034437047704770470000E3
:100F000070B5044690F82000012804D0606A40F4CF
:100F10000020606218E0022084F820002068016848
:100F200021F00101016000F0ABFA05460EE000BFC0
:100F300000F0A6FA401B0A2808D9606A40F4003085
:100F40006062052084F82000012070BD20684068A0
:100F5000C007EDD1606270BD704770477047704741
:100F60007047704770472DE9F0410446876D00F0E7
:100F700087FA064694F835000025022806D080201E
:100F8000606584F834500120BDE8F0812068016874
:100F900021F0160101602068416921F08001416162
:100FA000206C08B9A06C20B12068016821F008010C
:100FB00001602068016821F0010101600CE000F08F
:100FC0005FFA801B052807D920206065032084F87C
:100FD000350084F83450D7E720680068C007EED1A8
:100FE00094F85C103F208840B860012084F83500F8
:100FF00084F834500020C7E790F83510022903D058
:101000008021416501207047052180F83510006876
:10101000016821F001010160002070472DE9F843CB
:1010200004464FF00009CDF8009063484FF4165184
:10103000A56D0068B0FBF1F72E6894F85C100820ED
:1010400000FA01F131420FD021680A6852070BD52E
:101050000A6822F004020A6094F85C108840A860D4
:10106000606D40F00100606594F85C104FF001087D
:1010700008FA01F0304208D021684969090604D510
:10108000A860606D40F00200606594F85C10042078
:101090008840304208D021680968890704D5A860D3
:1010A000606D40F00400606594F85C10102088408A
:1010B000304218D021680968090714D5A860206853
:1010C0000168490304D50068000308D5A16C07E056
:1010D0000168C90503D4016821F008010160216C91
:1010E00009B12046884794F85C102020884030429F
:1010F00031D021680968C9062DD5A86094F835005B
:1011000005282068016806D0490347D50068000318
:101110001DD4616C1CE021F016010160206841695A
:1011200021F080014161206C08B9A06C20B12068D9
:10113000016821F00801016094F85C103F208840AC
:10114000A86084F8358084F83490216D1FE0E16B4D
:1011500009B120468847606D00282BD0606DC0071C
:1011600014D0052084F835002068016821F00101C1
:1011700001600098401C0090B84203D820680068C5
:10118000C007F6D184F8358084F83490E16C0029EA
:1011900010D001B02046BDE8F04308470168C905FA
:1011A000D5D4016821F01001016084F8358084F8FD
:1011B0003490CCE7BDE8F883180000202DE9F04119
:1011C000044600F05DF906465CB1022084F8350063
:1011D000002584F834502068016821F00101016085
:1011E0000DE00120BDE8F08100F04AF9801B0528E0
:1011F00005D920206065032084F83500F2E72068D7
:101200000068C007F0D12268116820480140D4E985
:1012100001031843D4E90336334318436369184381
:10122000A3691843E3691843236A18430843616AB2
:10123000042903D1D4E90B13194308431060206833
:101240004069666A20F0070130460E4301270428F2
:101250000CD1A06A0643E06A40B12046FFF7C2F90C
:1012600020B14020606584F83570BAE72068466197
:101270002046FFF7A3F994F85C203F21914081605C
:10128000656584F835700020ACE700003F8010F001
:101290002DE9F84FDFF8BCA10022012503264FF00D
:1012A0000F090AF1040BAAF1040E00BF0B6805FA3E
:1012B00002F42340A34270D10F7907F00307012FF6
:1012C00001D0022F16D187684FEA420806FA08FCBF
:1012D00027EA0C07D1F80CC00CFA08FC4CEA070C02
:1012E000C0F808C04768A7430C79C4F300149440C1
:1012F0003C4344600C79E443A4070AD0C4684FEA35
:10130000420C06FA0CF7BC438F6807FA0CF7274328
:10131000C7600C7904F00304022C12D1D40800EB4E
:10132000840CDCF820405707FF0E09FA07F824EA7E
:101330000804D1F8108008FA07F848EA0408CCF845
:10134000208004684FEA420C06FA0CF7BC430F7980
:1013500007F0030707FA0CF7274307604C6814F4FB
:10136000403F70D03C4C276847F480472760246892
:1013700022F0030704F480440094384C07EB040C7B
:10138000DCF8084897074FEA177809FA08F7BC43D2
:10139000334FB84202D1002724E054E0314FB84225
:1013A00001D101271EE0304FB84201D1022719E0D8
:1013B0002E4FB84201D1032714E02D4FB84201D17E
:1013C00004270FE02B4FB84201D105270AE02A4F2E
:1013D000B84201D1062705E0284FB84201D10727BE
:1013E00000E0082707FA08F72743CCF80878DAF86E
:1013F00000405746D1F804C09C435FEACC2C00D58E
:101400001C433C60DBF800405F46D1F804C09C43BD
:101410005FEA8C2C00D51C433C60DEF80040774628
:10142000D1F804C09C435FEA8C3C00D51C433C606F
:10143000084F083F3C68D1F804C09C435FEACC3CAD
:1014400000D51C433C60521C102AFFF42FAFBDE8AE
:10145000F88F0000083C0140443802400030014051
:10146000000002400004024000080240000C02405C
:10147000001002400014024000180240001C02400C
:1014800001488068704700000C0000200248816815
:1014900002781144816070470C0000200B4810B5A1
:1014A000016841F400710160016841F480610160EC
:1014B000016841F480710160032000F073F80F208F
:1014C00000F006F800F024F8002010BD003C0240B7
:1014D00070B50D4D04464FF47A712878B1FBF0F0E9
:1014E0000A490968B1FBF0F000F010FB48B9102C74
:1014F00007D200222146501E00F034F800206C6014
:1015000070BD012070BD00000C00002018000020FC
:101510000C4882B0016841F480410160006800F429
:10152000804000900748001F016841F08051016031
:101530000068002200F0805000900F21901E02B041
:1015400000F010B844380240002809DB00F01F0208
:10155000012191404009800000F1E020C0F8001115
:1015600070470000F0B40E4B1B680C46C3F3022317
:10157000C3F10705042D00D90425191D072901D23F
:10158000002300E0DB1E012606FA05F1491E21407A
:1015900099409E40761E16403143F0BC01F0E3BCFA
:1015A0000CED00E0064900F0070208684FF6FF0363
:1015B000184040EA0220034A1043086070470000C8
:1015C0000CED00E00000FA052DE9F0470E4605009D
:1015D00065D0DFF81481D8F80000F7B200F00700FA
:1015E000B04207D288F80070D8F8000000F0070079
:1015F000B04254D128683D4C810712D5400703D52D
:10160000206840F4E05020602878000703D5206867
:1016100040F4604020602068A96820F0F000084392
:1016200020602878C0072DD0304968680839012823
:1016300012D0022813D0032811D009688907002985
:101640002DDA216821F0030101432160FFF718FF23
:10165000814641F2883A0EE009688903EFE709689C
:101660008901ECE7FFF70CFFA0EB0901514502D916
:101670000320BDE8F0872068696800F00C00B0EB3B
:10168000810FEFD1D8F80010404601F00701B142B8
:1016900007D90770006800F00700B04201D00120B0
:1016A000E7E72878400705D52068E96820F4E0508E
:1016B000084320602878000706D52068296920F4AF
:1016C000604040EAC100206000F038F82168084A14
:1016D000C1F30311515CC840064908600648006820
:1016E000FFF7F6FE0020C4E7003C02400838024045
:1016F000004400081800002010000020044805499C
:1017000000680968044AC1F38221515CC8407047EF
:101710001800002008380240104400080448054919
:1017200000680968044AC1F34231515CC8407047FF
:10173000180000200838024010440008154810B571
:10174000006810F00C02144813D01449042A0FD07A
:10175000082A0ED10F4C241F2268236802F03F0292
:101760005B0207D52068C0F38810A0FB010106E0EA
:10177000084610BD2168C1F38811A1FB00010023B8
:10178000FEF7D2FD2168C1F30141491C4900B0FBBD
:10179000F1F010BD083802400024F400001BB7002F
:1017A0002DE9F84F04006ED02078DFF84C93C00785
:1017B000A9F104054AD009F104000168C1F38101CF
:1017C000012908D00068C0F3810002280AD1D9F8A5
:1017D0000000400206D52868800337D560680028DD
:1017E000E1D033E06068B0F5803F10D0B0F5A02FB5
:1017F000286810D020F480302860286820F48020E9
:1018000028606068A8B1FFF73BFE06460DE0286837
:1018100040F48030F4E740F480202860F7E700BF10
:10182000FFF72EFE801B642873D828688003F7D545
:101830000CE0FFF725FE064605E000BFFFF720FE9F
:10184000801B6428F0D828688003F7D42078DFF85C
:10185000AC8280074FF0000A3ED5A748001D016802
:1018600011F00C0F08D00068C0F3810002280BD1E2
:10187000D9F80000400207D42868800716D5E06830
:10188000012800D112E033E1E068B8B10120C8F8C6
:101890000000FFF7F5FD064605E000BFFFF7F0FD8D
:1018A000801B0228C0D828688007F7D528682169DE
:1018B00020F0F80040EAC10028600DE0C8F800A060
:1018C000FFF7DEFD064604E0FFF7DAFD801B022885
:1018D0001FD828688007F7D42078000722D5864FC4
:1018E00087486169703771B101210160FFF7C8FD58
:1018F000064604E0FFF7C4FD801B022809D83868BB
:101900008007F7D50EE0C0F800A0FFF7B9FD064646
:1019100005E082E0FFF7B4FD801B02287DD838681F
:101920008007F7D42078400768D5DFF8CCB10027CE
:101930000BF13C0BDBF80000C0000BD4DBF800100F
:1019400041F08051CBF80010DBF80000012700F0D7
:10195000805000906B4E3068C00510D4306840F461
:1019600080703060FFF78CFD009005E0FFF788FD88
:101970000099401A022850D83068C005F6D55E4E4E
:10198000A0686C3601280FD00528306810D020F0F0
:1019900001003060306820F004003060A068B8B109
:1019A000FFF76EFD00900FE0306840F00100F4E7B3
:1019B00040F004003060F7E7FFF762FD0099411A3C
:1019C00041F28830814266D830688007F4D50EE055
:1019D000FFF756FD009007E0FFF752FD0099411A0E
:1019E00041F28830814256D830688007F4D42FB154
:1019F000DBF8001021F08051CBF80010A069C8B3CB
:101A00003D49091D0968C1F3810102294AD0022814
:101A1000504607D0C8F8600000E03CE0FFF730FD1A
:101A200004463BE04746C8F86000FFF729FD06463C
:101A300005E000BFFFF724FD801B02282BD8286893
:101A40008001F7D4D4E907010843A16A2E4A490866
:101A500002EB0141626A41EA8211084394F82C10BA
:101A600040EA0161C9F8001001203866FFF708FD5F
:101A7000044606E03EE000BFFFF702FD001B02281F
:101A800009D828688001F7D534E000BFFFF7F8FCDB
:101A9000001B022802D90320BDE8F88F28688001C6
:101AA000F4D427E00128F7D0D9F80000E26900F467
:101AB000800191421CD1226A00F03F01914217D16E
:101AC00047F6C071626A0140B1EB821F10D1A26A71
:101AD0004FF0FF3300F4403103EB5202B1EB024F01
:101AE00006D194F82C1000F07060B0EB016F01D0BB
:101AF0000120D1E70020CFE7043802400000474230
:101B0000800E4742007000400000FFFF10B5401EED
:101B1000B0F1807F01D3012010BD4FF0E02460615F
:101B20000F21601701F01FFA0020A061072020613B
:101B3000002010BD70B590F83C20012A32D001245D
:101B400080F83C40022280F83D2003685A689D6876
:101B500022F070060A6832435A60134B02689A42B8
:101B600014D0B2F1804F11D0104B9A420ED0104BCE
:101B70009A420BD00F4B9A4208D00F4B9A4205D095
:101B80000E4B9A4202D00E4B9A4204D1496825F07E
:101B900080031943916080F83D40002180F83C109B
:101BA000084670BD022070BD0000014000040040E6
:101BB00000080040000C00400004014000400140CB
:101BC0000018004010B586B0044614216846FEF7A0
:101BD00054FC0E492068884215D10D480021026846
:101BE00042F008020260006800F0080005904FF41F
:101BF000805000900220CDE90101CDE90310694633
:101C00000448FFF745FB06B010BD00000008004087
:101C100030380240000C024070B5044690F83C0099
:101C200000260D4601280FD0012084F83C006AB13F
:101C3000042A1DD0082A2FD00C2A3FD001260020CC
:101C400084F83C00304670BD022070BD206800F072
:101C500051FF2068816941F0080181612068816934
:101C600021F004018161206881692A69114311E032
:101C7000206800F06FFF2068816941F40061816194
:101C80002068816921F480618161206881692A6905
:101C900041EA02218161D2E7206800F091FF2068CB
:101CA000C16941F00801C1612068C16921F00401E6
:101CB000C1612068C1692A69114311E0206800F000
:101CC000B3FF2068C16941F40061C1612068C16946
:101CD00021F48061C1612068C1692A6941EA022159
:101CE000C161ACE710B5040003D094F83D0010B119
:101CF00007E0012010BD002084F83C00204600F0E1
:101D00001FF8022084F83D00211D206800F086FEA7
:101D1000012084F8460084F83E0084F83F0084F8EF
:101D2000400084F8410084F8420084F8430084F8BD
:101D3000440084F8450084F83D00002010BD0000F8
:101D400008B500680649884208D10648016841F094
:101D500004010160006800F00400009008BD00006C
:101D6000000800404038024070477047F8B50168ED
:101D700004460868CA684B6910F00F0F4FF0000561
:101D800059D003F0010602F49077374365D0C107BC
:101D900005D0D10503D5616C41F0010161644107B3
:101DA00005D5D90703D0616C41F002016164810758
:101DB00005D5D90703D0616C41F0040161640107C6
:101DC00007D502F02001314303D0616C41F00801D6
:101DD0006164616C00293AD0800604D5900602D572
:101DE000204600F078FF20684069616CC0F38010E5
:101DF000090700D460B3204600F046FF2068406920
:101E0000400621D52068143050E8001F21F0400121
:101E100040E80012002AF5D1E06BA8B16E490165D7
:101E2000E06BFFF7E9F8002811D0E06B016D01B01D
:101E3000BDE8F040084783060FD593060DD5204630
:101E4000BDE8F84000F047BF2046FFF78EFFF8BD21
:101E50002046FFF78AFF6564F8BD266B2023012E1C
:101E60007DD1C6067BD5D60679D50868486800902E
:101E700048694FF00206400641D5E16B08684068AA
:101E80000004000CE8D0A28D8242E5D9E085C86943
:101E9000B0F5807F2DD020680C3050E8001F21F471
:101EA000807140E80012002AF5D12068143050E813
:101EB000001F21F0010140E80012002AF5D120683E
:101EC000143050E8001F21F0400140E80012002AC1
:101ED000F5D184F84230256320680C3050E8001FAB
:101EE00021F0100140E80012002AF5D1E06BFFF765
:101EF0003AF86663A08DE18D401A81B22AE0A08D88
:101F0000E18D401A81B2E08D0028A5D00029A3D030
:101F100022680C3252E8000F20F4907042E800076B
:101F2000002FF5D12068143050E8002F22F0010274
:101F300040E80027002FF5D184F84230256320685F
:101F40000C3050E8002F22F0100240E80023002B54
:101F5000F5D166632046FFF707FFF8BDFFE70506EA
:101F60002BD5150629D594F841002128F5D1A06874
:101F7000B0F5805F01D12069B0B1206A411C2162B7
:101F8000216800784860E08C401E0004000CE0846A
:101F9000E3D12068C16821F08001C1602068C16878
:101FA00041F04001C160D8E7206A0088C0F3080012
:101FB0004860206A801C2062E5E74006CDD55006C7
:101FC000CBD5CA68204622F04002CA6084F841306E
:101FD00000F0EDF8C1E70000792C000870B50400AE
:101FE00004D094F84100002510B106E0012070BD36
:101FF00084F84050204600F023F8242084F8410063
:102000002068C16821F40051C160204600F0C4FE80
:102010002068016921F4904101612068416921F043
:102020002A0141612068C16841F40051C1606564C2
:10203000202084F8410084F842006563002070BDD0
:102040002DE9F04F87B0064614216846FEF715FAD1
:102050004D4B316800244D480225032207274FF0DD
:1020600000694FF4806A4FF4403B99424AD1474996
:1020700014310B6843F010030B60096801F0100184
:102080000591016841F002010160016801F002015F
:102090000591016841F0010101600068CDE902424B
:1020A00000F0010005908020CDE9000590466946CA
:1020B00004973748FFF7ECF82802CDE90005CDE991
:1020C0000248694604973348FFF7E2F8334D324837
:1020D000E5E802094020A5E81104304845F8144914
:1020E000AC61C5E9074B6C62FFF768F808B1FEF711
:1020F000C4FAB563002205212520AE63FFF732FA4A
:1021000025203BE0264B99423AD1204910310B68FB
:1021100043F480230B60096801F480210591016874
:1021200041F0040101600068CDE9024200F00400C2
:1021300005904FF44060CDE90005694604971948C1
:10214000FFF7A6F8154D184860352860C5E90194D9
:10215000C5E9034A80156C61C5E90640C5E908B4C4
:102160002846FFF72BF808B1FEF787FAF56300223F
:1021700005212720AE63FFF7F5F92720FFF7E4F9E3
:1021800007B0BDE8F08F0000001001403038024079
:102190000004024000000240B86402400C04002029
:1021A0000048004000080240286002407047704725
:1021B000FEE7000010B5054801F0A0F8034801F063
:1021C00073F8BDE81040052001F058B9E443002041
:1021D00010B5040036D084ED040A30EEC00AC4ED18
:1021E000030A04F1240084ED050AD4ED000A60EE30
:1021F000800AC4ED080AD4ED090AD4ED011A41EEB3
:10220000800AC4ED090A94ED020A20EE010A84ED69
:102210000A0A94ED070A00F008FF94ED080AD4EDCD
:10222000090A04F12C0030EE200AD4ED0A0A30EE3F
:10223000200A84ED0B0A94ED060A00F0F6FE94EDF8
:102240000B0A10BD9FED010A10BD00000000000048
:1022500010B504001AD094ED341AD4ED390A94ED77
:10226000380A04F15000FFF7B3FF84ED3B0AF0EEAB
:10227000400A94ED3A0A201D00F05CFA84ED3D0A14
:10228000BDEEC00A10EE100AA4F8F80010BD2DE94A
:10229000F0410446B1F801000D4646BA0879497983
:1022A00000F00F0041EA00272068012824D1287897
:1022B000102100096060F2EE090ABAEE090A304600
:1022C00001F024FC84ED070A0C21F3EE0C0ABBEEAE
:1022D0000C0A384601F01AFC84ED090AA87900EED0
:1022E000100AB8EE400A84ED0D0AE87900EE100AF3
:1022F000B8EE400A84ED0E0A2068022824D128781E
:10230000102100096060F2EE090ABAEE090A3046AF
:1023100001F0FCFB84ED070A0C21F3EE0C0ABBEE86
:102320000C0A384601F0F2FB84ED090AA87900EEA8
:10233000100AB8EE400A84ED0D0AE87900EE100AA2
:10234000B8EE400A84ED0E0A2068032824D12878CC
:10235000102100096060F2EE090ABAEE090A30465F
:1023600001F0D4FB84ED070A0C21F3EE0C0ABBEE5E
:102370000C0A384601F0CAFB84ED090AA87900EE80
:10238000100AB8EE400A84ED0D0AE87900EE100A52
:10239000B8EE400A84ED0E0A2068042824D128787B
:1023A000102100096060F2EE090ABAEE090A30460F
:1023B00001F0ACFB84ED070A0C21F3EE0C0ABBEE36
:1023C0000C0A384601F0A2FB84ED090AA87900EE58
:1023D000100AB8EE400A84ED0D0AE87900EE100A02
:1023E000B8EE400A84ED0E0ABDE8F081F0B50C4667
:1023F0002DED048BF0EE609AF0EE400A83B0B0EE63
:10240000428AF0EE618AB0EE419A0546BAEE090AB8
:1024100000F0C3FDF2EE090A00F0E3FD1020B2EE79
:10242000091AFAEE090A00F04DFE07460C20B2EE3A
:10243000041AFAEE040AB0EE690A00F043FEDFED7A
:10244000262A06460C209FED231AF0EE620AB0EE13
:10245000490A00F037FE03460C20B1EE041AF0EEF4
:10246000620AB0EE680A00F02DFE02460C20B3EEC0
:102470000C1AFBEE0C0AB0EE480A00F023FE1749D6
:102480000C6000248C60CC6008240C61390A8DF843
:1024900000108DF8017031098DF80210310141EA08
:1024A00013218DF803108DF8043011098DF80510F3
:1024B000110141EA10218DF806108DF80700012363
:1024C0006A4606492846FEF7ECF803B0BDEC048BDB
:1024D000F0BD00000000FA4300000000B0430020FF
:1024E0000F4810B50D4901600321416000214FF4F0
:1024F00010228160C0E903124FF40012426101769C
:1025000041768176C17601774177FEF728FB002876
:1025100003D0BDE81040FEF7B0B810BD0064004025
:10252000E40200200F4810B50D490160032141600D
:1025300000214FF410228160C0E903124FF4001211
:102540004261017641768176C17601774177FEF767
:1025500006FB002803D0BDE81040FEF78EB810BD82
:10256000006800400C030020114808B5016841F4E0
:1025700000110160016801F400110091016841F44B
:10258000800101600068002200F4800000900521B5
:102590000C20FEF7E7FF0C20FEF7D6FF00220521F6
:1025A0004620FEF7DFFFBDE808404620FEF7CCBF1F
:1025B0003038024010B58EB01C220B496846FDF73A
:1025C0002AFF0021684600F065FF084C06491C22DE
:1025D00020601C3107A8FDF71EFF002107A800F0AE
:1025E00059FF60600EB010BDC0430008000000201D
:1025F000154808B5016841F002010160016801F069
:1026000002010091016841F001010160016801F0DF
:1026100001010091016841F008010160016801F0C9
:1026200008010091016841F004010160016801F0B6
:1026300004010091016841F080010160006800F030
:102640008000009008BD00003038024010B58AB00C
:10265000002407941C2168460894FDF70EFF1648D5
:102660001449C0E900144FF6FF71C0E9024104614A
:102670008461FFF737FB08B1FDF7FFFF079407A957
:102680000D480894FFF756FA08B1FDF7F6FF6020F1
:10269000CDE9000402940022694607480494FFF73C
:1026A000BBFA08B1FDF7E9FF0348FFF78BFA0AB060
:1026B00010BD000000080040340300200C4810B595
:1026C0000A4901604FF4E1314160002181600C2230
:1026D000C160C0E904128161C161FFF77FFC00287D
:1026E00003D0BDE81040FDF7C8BF10BD0010014089
:1026F0007C0300200C4810B50A4901600B49416079
:10270000002181600C22C160C0E904128161C161B5
:10271000FFF764FC002803D0BDE81040FDF7ADBF13
:1027200010BD000000480040C4030020A086010046
:10273000FEE7FEE7A0B1D0ED101AC0ED111A90ED42
:102740000F1A80ED101AC0ED060A80ED070A30EE70
:10275000C00A80ED0F0A017829B101293BD078E049
:102760009FED3D0A7047D0ED010A60EE801AC0ED82
:10277000091AD0ED0A0A90ED022A42EE000A30EE64
:10278000410AC0ED0A0A90ED0D2A80ED0E2A90ED67
:102790000C2A80ED0D2A80ED0C0A90ED031A21EE33
:1027A000001A80ED0B1A90ED050AF4EEC00AF1EE66
:1027B00010FA09DCB1EE400AF4EEC00AF1EE10FAAC
:1027C00002D390ED0A0A01E080ED0A0A31EE800A98
:1027D00030EE010A2BE070EE410A90ED012A20EE66
:1027E000822A80ED092AD0ED020A60EE800AC0ED4F
:1027F0000A0AD0ED0D2A72EE200AC0ED0E2AD0EDA5
:102800000C2AC0ED0D2AF0EE002A01EE620A30EE2D
:10281000210A80ED0C0A90ED031A21EE000A80EDEA
:102820000B0A30EE800AD0ED080A30EE200A80ED67
:10283000080AD0ED040AB4EEE00AF1EE10FA06DC64
:10284000F1EE600AB4EEE00AF1EE10FA01D2C0ED4A
:10285000080A90ED080A704700000000002819D00F
:102860009FED0D0A80ED110A80ED100A80ED0F0A30
:1028700080ED0E0A80ED0D0A80ED0C0A80ED0B0A4A
:1028800080ED0A0A80ED090A80ED080A80ED060A4B
:1028900080ED070A7047000000000000002828D0E3
:1028A000002A26D0017092ED001A80ED011A92EDF7
:1028B000011A80ED021A92ED021A80ED031A80EDE2
:1028C000040A9FED0C0AC0ED050A80ED0E0A80EDAA
:1028D0000D0A80ED0C0A80ED080A80ED0B0A80EDF0
:1028E0000A0A80ED090A80ED110A80ED100A80EDD8
:1028F0000F0A70470000000030B5144B1C68656972
:1029000045F0400565611B68DC6844F01004DC603C
:102910000F4B1C68256825F0010525601C6825689B
:10292000ED07F7D11D680B4CAC601C68E0601868BF
:102930000161186842601868016841F480210160F3
:102940001868016841F00101016030BDC403002036
:102950006C04002004480040012000F08FFDFBE7DC
:1029600010B5FEF793FD01F027FB012803D0BDE869
:10297000104001F0B3BA10BD30B593B030216846B5
:10298000FDF77BFD14210CA8FDF777FD1D48002500
:10299000016841F080510160006800F080501190A2
:1029A0001948016841F4804101600068022400F484
:1029B0008040119001200090000401908001CDE939
:1029C000064006200890A820CDE9090404200B90B9
:1029D0006846FEF7E5FE08B172B6FEE70CA90F20C7
:1029E00081E831004FF4A0500F904FF480501090C8
:1029F00005210CA8FEF7E8FD002801D072B6FEE71D
:102A000013B030BD403802400070004002480168F9
:102A100041F470010160704788ED00E0F0B5026894
:102A2000294C2A4D2A4E2B4F2B4B4FF0804CA04265
:102A300009D0604507D0A84205D0B04203D0B842C3
:102A400001D0984204D122F0700E4A6842EA0E0288
:102A5000A0421BD0604519D0A84217D0B04215D073
:102A6000B84213D0984211D01C4DA8420ED01C4D34
:102A7000A8420BD01B4DA84208D01B4DA84205D040
:102A80001A4DA84202D01A4DA84203D122F4407533
:102A9000CA682A434D6922F080022A4302608A688C
:102AA000C2620A688262A04201D0984201D10969DB
:102AB0000163012141610169C90703D0016921F066
:102AC00001010161F0BD0000000001400004004070
:102AD00000080040000C004000040140004001409C
:102AE000004401400048014000180040001C004024
:102AF00000200040F0B5036A026A22F0010202627F
:102B000042688469124E24F073050C682C4323F04C
:102B100002058B682B430D4DA84201D0B04205D170
:102B200023F00807CB683B4323F00403A84201D0FD
:102B3000B04205D14D6922F4407215438A692A4397
:102B400042608461496841630362F0BD0000014056
:102B500000040140F0B5026A036A23F01003036227
:102B6000436884690D6824F4E64444EA05248D68CA
:102B700022F0200242EA05120F4D104EA84201D069
:102B8000B04206D1CF6822F0800242EA071222F05A
:102B90004002A84201D0B04207D14D6923F44063FE
:102BA00043EA85038D6943EA85034360846149688C
:102BB00081630262F0BD000000000140000401409A
:102BC000F0B5026A036A23F4807303624368C46940
:102BD00022F4007224F073050C68124E2C438D68A9
:102BE00042EA05220E4DA84201D0B04206D1CF687C
:102BF00022F4006242EA072222F48062A84201D055
:102C0000B04207D14D6923F4405343EA05138D695F
:102C100043EA05134360C4614968C1630262F0BDC1
:102C2000000001400004014030B5046A026A22F449
:102C3000805202624268C3690D6823F4E64343EAA6
:102C400005238D6824F4005444EA0534084DA84255
:102C500002D0084DA84204D14D6922F4804242EAD4
:102C600085124260C36149680164046230BD00009E
:102C7000000001400004014010B5806B0021C185B7
:102C8000C184FFF772F810BD01680C3151E8002FC4
:102C900022F4907241E80023002BF5D10168143131
:102CA00051E8002F22F0010241E80023002BF5D16A
:102CB000016B012909D101680C3151E8002F22F084
:102CC000100241E80023002BF5D1202180F84210AA
:102CD00000210163704708B590F84210222901D005
:102CE000022008BD82684FF480539A4201D10169E5
:102CF00021B1816A9A421BD04AB10AE00268816A16
:102D00005268C2F308020A80816A891C08E00269DD
:102D100072B10268526802F07F020A70816A491C2F
:102D20008162C18D491E0904090CC18503D01BE0D5
:102D300002685268F1E70168CA6822F02002CA609E
:102D40000168CA6822F48072CA6001684A6922F088
:102D500001024A61202180F8421000214163026B88
:102D6000012A03D0FFF722FA002008BD01630168A1
:102D70000C3151E8002F22F0100241E80023002B13
:102D8000F5D101680A68D20602D50A68496800913F
:102D9000818DFEF7E9FFE7E770B504460068016939
:102DA000E26821F44051114301612169A068E269A0
:102DB00008436169114308432168CA6849F20C63FA
:102DC0009A430243CA6020684169A26921F44071B4
:102DD0001143416131492068884202D0304988421C
:102DE00002D1FEF79BFC01E0FEF788FCE2690023BC
:102DF000192164253226B2F5004F626828D0A0FB65
:102E00000101930F9200FDF78FFA0146B0FBF5F038
:102E10006FF01802504301EB800006EB0010B0FB8E
:102E2000F5F000F0F002B1FBF5F002EB0012B1FB9F
:102E3000F5F06FF01803584301EB800006EB00102B
:102E4000B0FBF5F000F00F0021681044886070BD01
:102E5000A0FB010192185B41FDF766FA0146B0FB49
:102E6000F5F00201B1FBF5F06FF01803584301EBE8
:102E7000800006EBC000B0FBF5F000F0F80002EBBC
:102E80004002B1FBF5F0584301EB800006EBC000B7
:102E9000B0FBF5F000F00700D6E70000001001409D
:102EA000001401400148FEF761BF00007C030020D0
:102EB000264818B400680168890604D5016840688E
:102EC000009018BC704722490968C906F9D5016805
:102ED0004068204A0090106801684FF024030C03FA
:102EE0001D49046824F00104046016D41068446885
:102EF000C4F12404A4B20C8043601068016841F45A
:102F0000002101601068016841F001010160122C8C
:102F1000D7D1124901F1160015E014686068C0F1BC
:102F2000240080B2088063600D498B6A23F400237B
:102F30008B6211680A6842F001020A601228C0D14F
:102F4000064901F13A0018BC00F000BDC40300209E
:102F5000004800406C0400208E000020744B0020CC
:102F600000600240FEE70907090E002804DB00F1BB
:102F7000E02080F80014704700F00F0000F1E0201E
:102F800080F8141D70472DED020B019820F00040D1
:102F900001909DED000B02B0704710B52DED028B36
:102FA000B0EE608AF0EE408A18EE101A18EE900A21
:102FB00001F092F900F07040B0F1005F0CD018EE13
:102FC000100A20F00040C0F1FF40C00F02BFB0EE79
:102FD000480ABDEC028B10BDB0EE680ABDEC028B56
:102FE00010BD10B52DED028BB0EE608AF0EE408A78
:102FF00018EE101A18EE900A01F06EF900F0704009
:10300000B0F1004F0CD018EE100A20F00040C0F1D3
:10301000FF40C00F02BFB0EE480ABDEC028B10BDEE
:10302000B0EE680ABDEC028B10BDD0ED000AF4EEE4
:10303000C00AF1EE10FA06DCB1EE400AF4EEC00A66
:10304000F1EE10FA01D280ED000A704700B58BB0A6
:1030500000200121CDE90601089100900190029025
:1030600003900590049069460C48FDF779FB0B48E6
:10307000FDF746FF02210948FDF701FB0E200990EC
:10308000059069460648FDF76BFB0548FDF738FFDC
:1030900002210348FDF7F3FA0BB000BDE402002063
:1030A0000C030020B4EEE00AF1EE10FA02D2B0EE0A
:1030B000600A7047B4EEC10AF1EE10FAF9DDB0EE25
:1030C000410A704771EE601AB4EEE00AF1EE10FAB0
:1030D00002D2B0EE600A06E0B4EEC10AF1EE10FAD8
:1030E00001DDB0EE410A0121814001EE101A30EEFF
:1030F000600AB8EEC12A82EE211A21EE000ABDEE66
:10310000C00A10EE100A704700487047F8410020CE
:1031100010B542480B212DED048BB0F9022092FB33
:10312000F1F2513200EE102AB8EEC00A9FED3C1ABF
:10313000DFED3C0AFFF7B6FFDFED3B1A9FED3B2AC0
:103140003B4CC0EE210A9FED3B1A20EE820ADFEDD8
:103150003A0A84ED1A0AB0F9022092FBF1F2913298
:1031600000EE102AB8EEC00AFFF79CFFC0EE210A5D
:103170009FED321A20EE820ADFED310A84ED380A23
:10318000B0F9020090FBF1F0873000EE100AB8EEC3
:10319000C00AFFF787FFC0EE210A9FED2A8ADFED04
:1031A0002A8A9FED2A9AF0EE481AB0EE681A012199
:1031B000274820EE820AB8EE002AF0EE490A84ED94
:1031C000560A94ED1A0AFFF711F9022000F056F999
:1031D00094ED380AB8EE002AF0EE481AB0EE681AFC
:1031E000F0EE490A02211A48FFF700F9022000F028
:1031F00045F994ED560AB8EE002AF0EE481AB0EE02
:10320000681AF0EE490A03211148FFF7EFF8BDEC08
:10321000048B0220BDE8104000F030B9C843002004
:103220000000E2420000A24200003443DB0F49C02C
:1032300018420020000031430000114300002743E2
:10324000000007436666464000008642000000001A
:103250000C030020FEF722F9FFF78EFBFFF7C8F9F9
:10326000FFF782F9FFF73CF9FFF75CF9FFF7EEF99A
:10327000FFF740FAFFF722FA002205211420FEF79B
:1032800071F91420FEF760F9FFF7E0FE00F056FB3D
:10329000FFF790F900F0F9F8FEE7014600208429D5
:1032A00000D0C81C7047000010B500281ED0114A7D
:1032B0000F4900F29460B2F90020D1EDDD0A02EB73
:1032C0008202520000EE102AB8EEC00A30EE800AE8
:1032D00081EDDE0AFEF7BCFF074800231A46B0F96D
:1032E0008C07BDE810401946FDF738B910BD000045
:1032F000E4470020C8430020E443002000284AD0CF
:10330000D0F8941600F58060B1F9022000EE102A82
:10331000B8EEC00A80EDDF0AD0EDDB0AC0EDDC0AB2
:10332000098800EE101AB8EE400A80EDDB0A30EE94
:10333000600ABDEEC00A10EE101A9FED170A0029B0
:1033400010DD4FF48052914210DB914223DD00EEFC
:10335000901A90EDDD1AF8EEE00A71EE200A30EED8
:10336000C00A16E017DA0D4A914206DD00EE101A87
:10337000D0EDDD0AB8EEC00A09E091420BDA00EEAA
:10338000901A90EDDD1AF8EEE00A71EE200A30EEA8
:10339000800A80EDDD0A70470000004600F0FFFF64
:1033A00070B52F4A04462DED028B84B007CA8DE814
:1033B0000700FFF7A9FEC4F8940640F2E460001984
:1033C000DFED280A9FED280A9FED288A0546B2EE18
:1033D000081AF1EE0C1A0FD080ED001AB0EE481A60
:1033E00080ED011AC0ED021A80ED058A80ED048A95
:1033F00080ED070AC5ED060A04F5D360DFED1C0A6F
:103400009FED1C0A6A4600210646FFF747FA304640
:10341000FFF724FA6DB185ED048A85ED038A85ED09
:10342000058A85ED0A8A85ED098A85ED088A85ED8C
:103430000B8A1148FFF762FF04F58060002190EDD0
:10344000DF0A80EDE00AC4F85C17C4F8601780ED6D
:10345000DD8A80EDDE8A04B0BDEC028B70BD000019
:10346000184400080060EA4600409C460000000046
:1034700000007A4500C05A46E443002010B500B968
:10348000012000F01FFC002010BD10B500F040FC32
:10349000002010BD7FB50D4604464169B0F9080013
:1034A00081B1A16971B1FFF7F8FED4E905128DE889
:1034B0000700D4E900102B46226900F052FD03906A
:1034C00004B070BDFFF7E9FE03A9CDE90001208A31
:1034D0002B4682B2D4E9001000F016FD012801D07D
:1034E0000020EDE70398EBE72DE9F041184C0F467B
:1034F0000546E6682068001D00F01CFB38B920680E
:1035000090F82C1001208840216981432161681CBA
:1035100007D137B12168BDE8F0410E48091D00F020
:103520004DBB20683544B5424560216805D2A06B8B
:10353000BDE8F041091D00F029BB606B091D00F0DA
:1035400025FBA06A854200D2A562BDE8F08100009B
:103550001C000020A80500202DE9F041054600F0E0
:1035600039FB2E4CA068401CA06020682C4F10B185
:10357000606940B32DE02560A068012829D10026AC
:1035800006EB860007EB800000F0F2FA761C072EAF
:10359000F6D323488C3000F0EBFA2148A03000F03D
:1035A000E7FA1F48B43000F0E3FA1D48C83000F0D5
:1035B000DFFA1B48DC3000F0DBFA19488C3060631E
:1035C0001430A06305E02068E96AC06A884200D828
:1035D0002560606A401C6062E96A012022698840B7
:1035E0001043206101EB810007EB8000291D00F0F2
:1035F000E5FA00F00FFB606900280CD02068E96A4A
:10360000C06A884207D207494FF080500860BFF374
:103610004F8FBFF36F8FBDE8F08100001C000020CA
:10362000CC04002004ED00E010B5044690F85100F1
:1036300058B101280CD002280FD0502080F31188F7
:10364000BFF34F8FBFF36F8FFEE7206B00F0F6FAEA
:103650002046BDE8104000F0F1BA10BD10484FF40C
:103660007051420706D0C01D0D4920F00700411AD5
:10367000C1F570510B4A00230144C2E90003083927
:10368000183A21F0070111604B600B600B1AC0E97A
:10369000001393604FF0004053605061704700008A
:1036A000BC05002070000020144E154CA6F1C80780
:1036B0004FF08058DFF84C9012E000BF00F08AFA1B
:1036C000F068C568281D00F035FAA068401EA060AB
:1036D0006068401E606000F09DFA2846FFF7A4FF76
:1036E00060680028EAD138680128F9D9C9F8008053
:1036F000BFF34F8FBFF36F8FF2E7000094050020F8
:103700001C00002004ED00E02DE9F0479A46DDE9B9
:10371000098481466FF00303206B03EB820210449F
:10372000089E20F00707780707D0502080F3118803
:10373000BFF34F8FBFF36F8FFEE7002561B100200D
:1037400023180A5C83F834200A5C12B1401C10284C
:10375000F6D384F8435001E084F83450072E00D3A8
:103760000626E662C4E91165201D00F00CFA04F19A
:10377000180000F008FA2461C6F107006462A06135
:10378000E56484F8505052464946384600F0C0F887
:103790002060B8F1000F01D0C8F80040BDE8F08704
:1037A00030B5114900E011460A688242FBD34B68EC
:1037B0005C18844203D14068184448600846436856
:1037C0001C18944209D1084C183C2468A24209D024
:1037D00052681A4442600A6812680260814200D04E
:1037E000086030BD0460F9E7700000200648416BB6
:1037F000096829B1416BC968C96849688162704725
:103800004FF0FF31FAE700001C0000200848406834
:10381000401C4FF0500080F3118804D0BFF34F8F4D
:10382000BFF36F8FFEE7BFF34F8FBFF36F8FFEE7DE
:10383000780000202DE9F0410546002700F09EFAAF
:10384000324E306808B9FFF709FF706905424ED162
:10385000C5B3083568070ED005F00700C0F10800B1
:103860000544680707D0502080F31188BFF34F8FBD
:10387000BFF36F8FFEE72DB37068854237D82348BA
:10388000183001460C6801E020460C466168A942E8
:1038900002D221680029F7D131688C4227D007680D
:1038A0002168016060680837411B10290FD9601931
:1038B000420708D0502080F31188BFF34F8FBFF329
:1038C0006F8FFEE713E041606560FFF769FF616895
:1038D0007068401A7060B268904200D2B06070693F
:1038E00001430020C4E90001F068401CF06000F0D2
:1038F000D7FB780707D0502080F31188BFF34F8F94
:10390000BFF36F8FFEE73846BDE8F0815800002016
:1039100010B5031F4FF080741C601B1F21F00101C4
:103920001960191F044B0B6014390A60091F6FF0EE
:10393000020244380A6010BD0D38000802492422F2
:10394000A1F12400FEF7D8BFAE4B00202DE9F041D5
:103950000C462DED028B00287ED09FED518B00256B
:10396000002C79D00178427841EA0221C1F30A01A2
:10397000218042788378D20842EA4312C2F30A07D0
:1039800067808278C378920942EA8302037942EA27
:103990008322C2F30A06A68002794379520842EADA
:1039A000C312C2F30A03E3804279C2F30112A27286
:1039B00042799209E272827990F807C042EA0C22B9
:1039C000A281027A90F809C042EA0C22E281827A4E
:1039D00090F80BC042EA0C222282027BA274427B46
:1039E000E274827B90F80FC042EA0C22A282027C31
:1039F000407CA1F580612180A7F5806742EA002222
:103A00006780A6F58066A680A3F58063E380A2F5B3
:103A100080622281084600F0B1FB41EC100BFFF7F9
:103A2000B2FA53EC182B51EC100B00F0BFFB00D294
:103A30002580B4F9020000F0A1FB41EC100BFFF768
:103A4000A2FA53EC182B51EC100B00F0AFFB00D294
:103A50006580B4F9040000E01DE000F08FFB41EC4C
:103A6000100BFFF790FA53EC182B51EC100B00F0F1
:103A70009DFB00D2A580B4F9060000F07FFB41EC6D
:103A8000100BFFF780FA53EC182B51EC100B00F0E1
:103A90008DFB00D2E580BDEC028BBDE8F08100001B
:103AA00000000000000034401CB50F4A01231160E3
:103AB00000219160D16008211161FF218DF8001073
:103AC0008DF801108DF804108DF802108DF8051096
:103AD0008DF803108DF80610FC218DF807106A464A
:103AE0000149FCF7DEFD1CBD98430020FCF7A4FD56
:103AF0000548FFF755FC00BFFFF70AFBFEF75AFB2E
:103B00000220FFF7BBFCF7E7E443002001EE100AB8
:103B100070EEC00A0120B8EEC11A8840401E21EEA6
:103B2000201A00EE900AF8EEE01AC1EE210A30EEFB
:103B3000800A7047D0E9013201699A60D0E9012317
:103B40005A604A68824201D182684A60002202615A
:103B50000868401E0860086870470000034B036057
:103B600003F154000860802010607047900000202E
:103B700000F108014FF0FF32C0E90112C16001619C
:103B800000210160704700210161704730B50B686A
:103B90005A1C02D000F1080202E0026904E0224649
:103BA000546825689D42FAD953684B6099608A60D1
:103BB000516008610168491C016030BD42684A607B
:103BC00093688B6093685960916008610168491C33
:103BD00001607047502080F31188BFF34F8FBFF30F
:103BE0006F8F0A494868401C486001280CD108487A
:103BF000006810F0FF0F07D0502080F31188BFF34A
:103C00004F8FBFF36F8FFEE77047000078000020F2
:103C100004ED00E00849486828B1401E486001D121
:103C200080F311887047502080F31188BFF34F8FC5
:103C3000BFF36F8FFEE700007800002070B500280A
:103C40002AD0164DA0F1080460686969084207D1BE
:103C5000502080F31188BFF34F8FBFF36F8FFEE7C3
:103C600022683AB1502080F31188BFF34F8FBFF321
:103C70006F8FFEE78843606000F080F860686968D5
:103C8000084468602046FFF78BFD2869401C2861C6
:103C9000BDE8704000F004BA70BD0000580000207C
:103CA0004FF0E02000210161816105494FF47A72F3
:103CB0000968B1FBF2F1491E4161072101617047BA
:103CC0001800002010B5020014D00F48006B38B166
:103CD000502080F31188BFF34F8FBFF36F8FFEE743
:103CE00000F04CF800211046FFF7FEFB00F0D8F979
:103CF000002807D105494FF080500860BFF34F8F6F
:103D0000BFF36F8F10BD00001C00002004ED00E029
:103D100010B586B00024039405AA04A903A804944E
:103D2000FFF71CFFDDE903010094CDE9011000233A
:103D30000EA11048059A00F014F90F490028C86236
:103D400011D0502080F31188BFF34F8FBFF36F8FD6
:103D50004FF0FF30886201204861CC6006B0BDE8BA
:103D6000104000F041B806B010BD000049444C4579
:103D700000000000A93600081C0000200248016B6A
:103D8000491C0163704700001C0000201448016BAF
:103D900011B10121C16170470021C1610169B1FA0E
:103DA00081F1C1F11F0101EB81020E4951F822306E
:103DB0006BB101EB820101F108034A6852684A6065
:103DC0009A4201D152684A60D16801607047502020
:103DD00080F31188BFF34F8FBFF36F8FFEE70000B2
:103DE0001C000020CC0400201CB537480168374A6D
:103DF000914207D1502080F31188BFF34F8FBFF35A
:103E00006F8FFEE700683149491E884207D1502074
:103E100080F31188BFF34F8FBFF36F8FFEE72C49FC
:103E200008780190FF20087008788DF800009DF850
:103E300000009DF8002000F0F000904207D05020D4
:103E400080F31188BFF34F8FBFF36F8FFEE79DF8AC
:103E50000000204C00F0500020700720A06005E01A
:103E60009DF8002052008DF80020401E9DF8002093
:103E70001206F5D4A060032807D0502080F31188E3
:103E8000BFF34F8FBFF36F8FFEE74FF44070A0601A
:103E9000019808700C482030016841F470010160FD
:103EA000016841F070410160FFF7FAFE0020606098
:103EB000FCF7DEF90848016841F040410160FCF779
:103EC000C3F900201CBD000000ED00E071C20F41ED
:103ED00000E400E07800002034EF00E010B550204E
:103EE00080F31188BFF34F8FBFF36F8F00F072F82C
:103EF00018B104494FF080500860002080F3118809
:103F000010BD000004ED00E02DE9FF5F8346DDE910
:103F10000E87994616468A469000FFF78BFC0500EF
:103F20001CD05420FFF786FC040014D00020256329
:103F300084F85100CDE90240CDE900874B46324676
:103F400051465846FFF7E0FB2046FFF705FB0120EE
:103F500004B0BDE8F09F2846FFF770FE4FF0FF3039
:103F6000F6E7F0B585B0DDE90B640A9DA6B1DCB1DA
:103F7000542700972663022684F85160002604AF78
:103F8000CDE90246CDE90057FFF7BEFB2046FFF71B
:103F9000E3FA049805B0F0BD502080F31188BFF318
:103FA0004F8FBFF36F8FFEE7502080F31188BFF370
:103FB0004F8FBFF36F8FFEE70548416919B1006B62
:103FC00018B10020704701207047022070470000A0
:103FD0001C0000202DE9F0412F4C0026206B28B159
:103FE000A069401CA0613046BDE8F081E5686D1C09
:103FF000E56013D1606B006838B1502080F3118800
:10400000BFF34F8FBFF36F8FFEE7606BA16B6163F0
:10401000A063206A401C2062FFF7E8FBA06ADFF87B
:104020007C80854209D3606B0068A0B1606BC0687A
:10403000C7687868854211D2A0622068C06A00EB28
:10404000800158F82100012800D90126E0690028E4
:10405000C9D00126C7E74FF0FF30EDE7381DFFF765
:1040600069FDB86A18B107F11800FFF763FDF96A36
:104070000120226988401043206101EB810108EB97
:104080008100391DFFF79AFDF86A2168C96A8842E4
:10409000C9D30126C7E700001C000020CC04002083
:1040A0002DE9F0472C4D00242746286B38B1FFF747
:1040B00091FD286B401E2863286B40B146E05020DC
:1040C00080F31188BFF34F8FBFF36F8FFEE7A968AE
:1040D000224E0120D1B3A6F1B40980463068E8B180
:1040E000F068C46804F11800FFF724FD201DFFF7F5
:1040F00021FDE06A2A6908FA00F11143296100EB09
:10410000800109EB8100211DFFF758FDE06A296855
:10411000C96A8842E2D3C5F81C80DFE70CB1FFF71B
:1041200065FBAC6944B14646FFF754FF00B1EE6150
:10413000641EF9D10020A861E86938B10849012757
:1041400038070860BFF34F8FBFF36F8FFFF762FD33
:104150003846BDE8F08700001C00002080050020E4
:1041600004ED00E0491058BFC1F140415B1058BF59
:10417000C3F140438B42EFF30080704710F00042E0
:1041800048BF4042B0FA80F310FA03F10AD0C3F1FD
:104190001D0303F580634FEA415002EB035202EB2B
:1041A000D12170474FF000007047000051EA030C26
:1041B00017D41CF5801F58BFBCF5801F00F1068086
:1041C000994218BF704708BF9042704707D711F552
:1041D000801F58BF13F5801F19D499427047894238
:1041E00070471CF5801F08D5BCF5801FF7D58B42A2
:1041F00018BF704708BF824270474FF4001C1CEB89
:10420000410F38BF1CEB430F01D28B42704770B592
:1042100000F008F8922449004FF000514FF080530D
:10422000FFF7A0BF0EF1020E2EF0030E5EF8046B36
:10423000364205D4012A43EB030515F5001F12D8B9
:10424000012841EB010C1CF5001F0CD80ED14FEAE0
:10425000D17C15F5001F0CEB4C0C0CF1020C08BFC7
:104260004CEBD37C04E04FF0080C01E04FEAD37C28
:104270000CEB4C0526FA05F606F00706B6F1040C21
:1042800006D20EEB860CBDE870404CF0010C604786
:10429000DFE80CF0090B02024FF000414FF0000084
:1042A000A1F5002170BD19461046012851EB01040B
:1042B00018BFD4F5001484BF002001F0004170BD88
:1042C00000EE100A00EE901AB4EE600AF1EE10FA59
:1042D00078BF704700F00DB810B5FFF7F1FFEFF3AE
:1042E000008020F0104038BF40F0004080F300888C
:1042F00010BDBDE8104010B500F017F8000000092F
:1043000000F007B84FF0404010F1004FEFF300808D
:104310007047401058BFC0F14040491058BFC1F12C
:1043200040418142EFF3008070470EF1020E2EF003
:10433000030E5EF8044B244204D44FEA4102B2F16A
:104340007F4F11D84FEA4003B3F17F4F0CD80ED105
:104350004FEAD07CB2F17F4F0CEB4C0C0CF1020C0D
:1043600008BF4CEBD17C04E04FF0080C01E04FEAB1
:10437000D17C0CEB4C0324FA03F404F00704B4F1F1
:10438000040C06D20EEB840CBDE810404CF0010C7E
:104390006047DFE80CF0070802024FF00040A0F58C
:1043A000800010BD0846420018BFD2F1807288BF5D
:1043B00000F0004010BD4FF04070E1EE100A704771
:1043C0002C440008592900080000000000000000EB
:1043D00080000000000000000000000024440008ED
:1043E000ED3A000802000000000000000004000098
:1043F0000000000000000000000610160006101665
:104400000000000000000000010203040607080984
:1044100000000000010203040000803F00000000D3
:1044200000000000746F705461736B006465666116
:10443000756C745461736B005844000800000020D0
:1044400090000000C4010008E8440008900000202B
:10445000A8510000E001000800000000000000007A
:10446000000000000100000010000000000000003B
:104470000024F40000000000000000000000000024
:10448000000000000000000000000000000000002C
:10449000000000000000000000000000000000001C
:1044A000000000000000000000000000000000000C
:1044B00000000000000000000000000000000000FC
:1044C00000000000000000000000000000000000EC
:1044D00000000000AAAAAAAA000000000000000034
:0844E0000000000000000000D4
:040000050800018965
:00000001FF
