:020000040800F2
:100000004853002095030008E34000083D3C0008E9
:10001000E1400008F71D0008A148000800000000AA
:10002000000000000000000000000000D5020008F1
:100030000D1F00080000000031030008E94100081E
:10004000AF030008AF030008AF030008AF030008C8
:10005000AF030008AF030008AF030008AF030008B8
:10006000AF030008AF030008AF030008AF030008A8
:10007000111E0008AF030008AF030008AF0300081B
:10008000AF030008AF030008AF030008AF03000888
:10009000F91D0008AF030008AF030008AF03000814
:1000A000AF030008AF030008AF030008AF03000868
:1000B000AF030008AF030008AF030008AF03000858
:1000C000AF030008AF030008AF030008AF03000848
:1000D000AF030008E1470008AF030008ED47000840
:1000E000AF030008AF030008AF030008AF03000828
:1000F000AF030008AF030008AF030008AF03000818
:10010000AF030008AF030008AF030008AF03000807
:10011000AF030008AF030008AF030008AF030008F7
:10012000AF030008AF030008AF030008AF030008E7
:10013000AF030008AF030008AF030008AF030008D7
:10014000051E0008AF030008AF030008AF03000856
:10015000AF030008AF0300081D1E0008AF0300082E
:10016000AF030008AF030008AF030008AF030008A7
:10017000AF030008AF030008AF0300080000000051
:10018000AF030008AF03000800F002F800F092F897
:100190000AA090E8000C82448344AAF10107DA45E2
:1001A00001D100F087F8AFF2090EBAE80F0013F0A2
:1001B000010F18BFFB1A43F001031847D05C000081
:1001C000F05C0000103A24BF78C878C1FAD8520712
:1001D00024BF30C830C144BF04680C6070470000C1
:1001E0000023002400250026103A28BF78C1FBD840
:1001F000520728BF30C148BF0B6070476E2900F01E
:100200006D82702900F0AF83662905F0818565292C
:1002100005F07E85672905F07B85612905F07A85E3
:1002200003681B0A28BF41F08001692900F01A8287
:10023000642900F01782752900F014826F2900F0FC
:100240003C83782900F07B83E92900F0D782E429F8
:1002500000F0D482F52900F0D182EF2900F0398333
:10026000F82900F07A830368DB0928BF41F0800198
:10027000632901F07D80732901F08280E32901F078
:100280008D80F32901F09280002070471FB505F0A2
:100290003AFD01F0E1F804000020002105F0C2FB66
:1002A000401C60600020002105F0A6FBE0601FBD3F
:1002B00010B510BD01F0A2F81146FFF7E7FF04F0FA
:1002C00087FC01F07FF903B4FFF7F2FF03BC01F0F4
:1002D000C3F900002C4B19680868B0E8F04F80F3B0
:1002E0000988BFF36F8F4FF0000080F311887047CB
:1002F0000000000008480068006880F308884FF09C
:10030000000080F3148862B661B6BFF34F8FBFF36D
:100310006F8F00DF00BF00BF08ED00E0DFF80C00CA
:10032000016841F470010160704700BF88ED00E092
:10033000EFF30980BFF36F8F134B1A681EF0100F95
:1003400008BF20ED108A20E9F04F106009B44FF08B
:10035000500080F31188BFF34F8FBFF36F8F05F00C
:100360005FF94FF0000080F3118809BC1968086834
:10037000B0E8F04F1EF0100F08BFB0EC108A80F309
:100380000988BFF36F8F70471C000020EFF30580D2
:10039000704700000948804709480047FEE7FEE72C
:1003A000FEE7FEE7FEE7FEE7FEE7FEE7FEE7FEE725
:1003B00004480549054A064B70470000954200086D
:1003C00089010008484D002048530020484F002074
:1003D000484F002053EA020C00F069802DE9F04BF1
:1003E0004FF00006002B1FBFB3FA83F503FA05F4A4
:1003F00024FA05F65E4012BF1643B2FA82F502FAFD
:1004000005F4C5F120051EBF22FA05FC44EA0C04E0
:10041000203556EA044C4FEA144418BF641C4FF0D0
:1004200000084FF00009904271EB030C39D300290A
:1004300019BFB1FA81F701FA07F6B0FA80F700FAAE
:1004400007F6C7F120071EBF20FA07FC46EA0C0694
:100450002037B6FBF4FCA7EB0507103F07F01F0B96
:10046000CBF120060CFA0BFB2CFA06F644BFB34680
:100470000026202FA4BF5E464FF0000B5BEA060C5F
:1004800008BF4FF0010B19EB0B09ABFB027C48EBEB
:100490000608C01B06FB02CC0BFB03CC71EB0C0166
:1004A000C1E70B46024641464846BDE8F08B13B50E
:1004B0004FF000004FF00001AFF30080BDE81C409A
:1004C000704700001CB50C46064B7B446946009003
:1004D000204600F01CF904460020694600F02AF985
:1004E00020461CBD6702000010B5203AC0F00B800A
:1004F000B1E81850203AA0E81850B1E81850A0E828
:100500001850BFF4F5AF5FEA027C24BFB1E8185081
:10051000A0E8185044BF18C918C0BDE810405FEAF1
:10052000827C24BF51F8043B40F8043B08BF70476D
:10053000D20728BF31F8023B48BF11F8012B28BF72
:1005400020F8023B48BF00F8012B70474FF0000233
:1005500000B5134694469646203922BFA0E80C50B9
:10056000A0E80C50B1F12001BFF4F7AF090728BF94
:10057000A0E80C5048BF0CC05DF804EB890028BF10
:1005800040F8042B08BF704748BF20F8022B11F039
:10059000804F18BF00F8012B7047704770477047B5
:1005A00070B5044685690068C10601D5302600E0B3
:1005B0002026C00707D070BDD4E9012130469047FE
:1005C000206A401C20626D1EF6D570BD70B50446D1
:1005D00085690078C00707D170BDD4E901212020CA
:1005E0009047206A401C20626D1EF6D570BD0968D8
:1005F0004A0501D540B27047C905FCD500B2704725
:1006000009684A0501D5C0B27047C905FCD580B25A
:10061000704770B50C460546012A05D0287880063B
:1006200000D5EA69002302E0012305E05B1C934248
:1006300002D2E05C0028F9D1A869E618C01AA861C6
:10064000286A184428622846FFF7AAFF04E0D5E983
:10065000012114F8010B9047B442F8D32846FFF764
:10066000B5FF70BD2DE9F0410646002410687529DC
:10067000314616A510D0FFF7BAFF002802DA404233
:1006800013A507E031688A0701D512A502E04907E2
:1006900004D511A5012401E0FFF7B2FF00210A22D1
:1006A00006F1240709E0B0FBF2FCB0FBF2F302FB19
:1006B0001C00303078541846491C0028F3D12346DA
:1006C0002A463046BDE8F04100F061BA0000000063
:1006D0002D0000002B0000002000000011680268BF
:1006E000006A530501D508700AE0D30501D50880DA
:1006F00006E0130603D5C217C1E9000200E0086056
:100700000120704701694A1C02610878704700B5F2
:100710008FB0CDE901310021059105497944CDE93A
:1007200003101146684600F029F90FB000BD000023
:10073000E5FFFFFF0A6802F8010B0A60704700003E
:100740002DE9FF5F15468A460446DFF8AC80F84481
:100750000027D8E900103E46CDE9001010E03AF835
:1007600016106A4602A800F025FE411C07D0217829
:10077000890603D5E269391891420DD80744761CE1
:100780002078800602D5E069B84205DDAE42E6DB9E
:100790003AF816000028E2D1A069C01BA0612046EB
:1007A000FFF7FEFED8E90010CDE90010002017E0A9
:1007B0003AF818106A4602A800F0FCFDB0F1FF3FBD
:1007C00081460BD000250DF1080B05E0D4E901218D
:1007D0001BF8050090476D1C4D45F7D308F101004B
:1007E000B0428046E4DB206A384420622046FFF7AE
:1007F000EDFEBDE8FF9F00002A5600002DE9F04104
:100800008046D21D22F007020025D2E90002F52918
:1008100015A614D0011E72F1000106DA0023D0EBF8
:10082000030063EB020211A608E0D8F800108B0762
:1008300001D50FA602E0490701D50EA601251146F4
:10084000002408F1240704E000F05CF930323A5546
:10085000641C50EA0102F7D12B463246214640463D
:10086000BDE8F04100F093B9000000002D00000049
:100870002B0000002000000030B4002100F124040F
:1008800008E002F00705D208303542EA4372DB087F
:100890006554491C52EA0305F3D10468002310A2F1
:1008A000250707D5A40600D421B1C46901230DA2F0
:1008B000641EC46130BC00F06AB910B5044621461C
:1008C0001068FFF79DFE02462046BDE81040002359
:1008D000D2E7D21D22F00701D1E90023CCE70000C6
:1008E0000000000030000000F0B40D46018809054A
:1008F00002D5214C7C4402E01F4C7C440E34002184
:1009000000F1240608E002F00F071209E75D42EA51
:1009100003721B097754491C52EA0307F3D102788A
:100920000023120704D5702D06D009B1022311341B
:100930002246F0BC00F02BB901231034F8E770B563
:1009400004460D4621461068FFF75AFE0246294626
:100950002046BDE870400023C6E7D21D22F0070301
:10096000D3E90023C0E70368126843F02003036063
:100970000823C3610023B7E78C5400002DE9F05F22
:10098000894604464FF0000ADFF874B1FB44C0F812
:1009900020A02046E1688847002874D0252806D08A
:1009A000D4E901219047206A401C2062F1E700262B
:1009B0005F462046E16888472028054607DB312D41
:1009C00005D2781910F8200C08B10643F1E7B007FA
:1009D00001D526F00406C4F81CA00027C4F818A00E
:1009E0002A2D09D0284603F0D6FF38B304EB870838
:1009F000303DC8F8185019E059F8041B204604EBA4
:100A000087029161E1688847012F054618D1E069A6
:100A1000002820DA26F020061DE0D8F8180000EBA8
:100A2000800005EB40003038C8F818002046E16827
:100A30008847054603F0AFFF0028EED1012F0AD00A
:100A40002E2D08D12046E16888477F1C0546022FDD
:100A500046F02006C4DBA069002803DA404246F0D5
:100A60000106A061F00701D026F010066C2D0BD016
:100A7000682D09D04C2D39D06A2D35D0742D35D044
:100A80007A2D33D016E038E0E1682F4620468847BB
:100A9000B842054609D16C2F26D04FF48060E1683A
:100AA000064320468847054604E06C2F1AD04FF4D1
:100AB000807006430DB3A5F14100192802D82035F6
:100AC00046F400664A462946204626604E46FFF711
:100AD00095FB80B101280BD0F61D26F0070000F130
:100AE000080956E74020E4E78020D8E70020D6E751
:100AF00006F104094DE7284652E7206ABDE8F09F59
:100B00001C54000030B5B0F10A024FEA900E71F1AA
:100B100000034EEA817EB0EB0E0061EB91014FEADB
:100B2000101E4EEA017E10EB0E0041EB11114FEA50
:100B3000102E4EEA016E10EB0E0041EB11214FEA30
:100B4000104E4EEA014E10EB0E0041EB11414018E1
:100B500041F100014FEAD00040EA41704FEAD10173
:100B600010EB80054FEA810444EA907444EB0104E1
:100B70006D1944EB0404521BA3414FF0000348BF1E
:100B80000A3200D530BD401C41F1000130BD2DE9D5
:100B9000F0470D4699469246044600F12408016844
:100BA000880604D5E06921F01001216000E00120F1
:100BB000A84201DD471B00E00027A1697A1902EB7A
:100BC0000900081AA0612078C00602D42046FFF769
:100BD000E7FC002608E0D4E901211AF80600904756
:100BE000206A401C761C20624E45F4DB2078C0064B
:100BF0000AD52046FFF7D4FC06E0D4E901213020D5
:100C00009047206A401C2062381EA7F10107F4DCDF
:100C100007E0D4E9012118F805009047206A401C3C
:100C20002062281EA5F10105F3DC2046FFF7CEFC6B
:100C30002078000602D50220BDE8F0870120FBE7FE
:100C400070472DE9FF4F0C461E464FF0FF378BB023
:100C5000D2E90001DDF860800A908A46C1F30A55A6
:100C600005B93D46002108464FF00000BAF1000FDB
:100C700000F4400005DA00EB80004FF4400101EA87
:100C800050004FEA9059B9F1010F00DDB9460A98BA
:100C900050EA4A000ED044F61050A5F2FF35454305
:100CA0002F14B8F1000F1ED07542291E1EDDC9F1A8
:100CB00000021CE0B8F1010F4FF0000001D030211C
:100CC00003E0F24305E02154401CB042FBDB304618
:100CD0000022002121540B99C1F80880C1E90020AD
:100CE0000FB0BDE8F08FBD1B6D1CDEE74A4600DA91
:100CF000694206A800F0F4FB06AB93E8070003ABDB
:100D000083E8070050460A9900F0ADFC8DE8070023
:100D1000A0F500501F3800900398002D0ADD42F224
:100D20001F014A460844002303A90390684600F0C7
:100D300016FF09E0A0F500504A461F38002303A91A
:100D40000390684600F020FF8DE807000004000CC7
:100D500003D04FF0FF30410800E01046B8F1000F1B
:100D600003D00022009215461EE0751E05D4FFF741
:100D7000C9FE303262556D1EF9D5B34601220843D3
:100D800002D000227F1C04E02078302801D100220C
:100D90007F1E002A099784D01DE0112D07DAFFF786
:100DA000B1FE303262556D1C50EA0102F5D10843A4
:100DB00002D00098C8B10EE00021681E05E0235C57
:100DC000625C63542254401E491C8142F7DBAB46EF
:100DD000A81B401E0990002004F80B000B98099AEC
:100DE000C0F80880C0E9002B7AE711264FF0000810
:100DF00057E72DE9F04F88460446D21D22F007013F
:100E000091B0D1E90001CDE90A0103F04AFD0246A3
:100E10000B98C00F01D02D2007E02068810701D575
:100E20002B2002E0202101EAC000032A099001D012
:100E3000072A05DB03464146204600F011FB0BE183
:100E40002078800601D5E06900E00620B8F1650F42
:100E5000814606D0B8F1660F18D0B8F1670F70D18F
:100E600031E00020B9F1110F009001DB112301E006
:100E700009F101030AAA01A90CA8FFF7E2FEDDE9C6
:100E80000C70002609F10105834647E001204B461E
:100E900000904FF000470AAA01A90CA8FFF7D1FE65
:100EA000DDE90DB00C995D46002610B909F101008D
:100EB0000D18B9EB050003D4C0F1FF3609F10105A7
:100EC000A5EB09002BE0B9F1010F01DA4FF00109A0
:100ED0000020B9F1110F0090484601DD112300E018
:100EE00003460AAA01A90CA8FFF7ABFEDDE90C70C6
:100EF0004D4600268346207800070AD4AB4500DA29
:100F00005D4601A8012D04DD411911F8011C3029AD
:100F100007D04F4502DA17F1040F04DA01208246A8
:100F20000FE06D1EEEE7002F02DCED1B3E4403E0F8
:100F3000781CA84200DD7D1CB81B00F1010A4FF0AF
:100F400000472078000703D4AA4501DB4FF0FF3AA1
:100F50000021B7F1004F0DF143088DF8431024D064
:100F600002202B23002F01DA7F422D230A21021EAB
:100F7000A0F1010000DC5FB197FBF1FC97FBF1F2FF
:100F800001FB1C7C17460CF1300C08F801CDEEE794
:100F9000A8F1010003702188090501D5452100E071
:100FA0006521A0F1010800F8011C09980FA9A1EB27
:100FB0000807FF1D00B10120411901EBEA70A1698A
:100FC0003844081A401EA0612078C00602D420468A
:100FD000FFF7E6FA099828B1D4E901219047206A81
:100FE000401C20622078C00622D52046FFF7D8FAA0
:100FF0001EE0002E04DBB34502DD01A8805D00E0A9
:101000003020D4E901219047206A401C2062761CE0
:10101000AAF101005FEA000A0AD100F01DFAC068D7
:101020000168405CD4E901219047206A401C20629D
:10103000281EA5F10105DCDC07E0D4E9012118F840
:10104000010B9047206A401C2062381EA7F101075F
:10105000F3DC2046FFF7BAFA032011B041E60000A6
:101060002DE9F04F04460D46D21D22F0070089B04D
:10107000D0E900974846394603F013FC0246F80FC2
:1010800001D02D2307E02068810701D52B2302E042
:10109000202101EAC0038DF820300BB1012000E0CF
:1010A0000020032A824601D0072A04DB2946204675
:1010B00000F0D6F93FE12078800601D40D2500E04C
:1010C000E569C7F30A560D2D49DA00214FEA175B8F
:1010D00008464FF00000002F00F4400007DA00EB54
:1010E00080004FF4400100EBD07001EA60008115F0
:1010F000012901DD4FF0FF3100224FEA850CBCF1E0
:10110000180F06D31346ACF118004FF08052C240BE
:1011100003E04FF4801323FA0CF30CF10C0CBCF138
:10112000200F04D3ACF1200C09FA0CF001E007FA0F
:101130000CF000294FF0004801DD18B90FE00ED186
:1011400040450CD319EB02095F4121B9404502D15A
:101150009F4329EA0209BBEB175F00D0761C208869
:10116000000502D57B48784402E07A487844193873
:1011700008AA302302F80A30037C0AF10101002E8C
:101180000AF1020A53546A4602DC4FF0300101E0D2
:101190004FF031014FF001088DF8001002D0A6F297
:1011A000FF3603E059EA470100D06B4E002D02DC08
:1011B0002178090704D54FF002082E218DF801107F
:1011C000C44600210BE0C7F303433F01C35C491C45
:1011D0006D1E02F80830052908F1010801DA002D1A
:1011E000F1DC00210CE000EB1973491C1B786D1E2B
:1011F000082902F808304FEA091908F1010801DA54
:10120000002DF0DC21688B0602D516E0A8F101085C
:10121000E04505DD02EB080313F8013C302BF5D067
:10122000B8F1000F09DD02EB080313F8013C2E2B87
:1012300003D1090701D4A8F10108002D05DD3E21E5
:1012400002F808106D1E08F10108407C002E02F81B
:10125000080008F1010804DA2D20764202F808009F
:1012600002E02B2002F808000A214FF47A7086422F
:1012700008F101080BDB96FBF0F3303302F808307D
:1012800096FBF0F308F1010800FB136601E0642E01
:101290000CDB642096FBF0F3303302F8083096FB49
:1012A000F0F308F1010800FB136601E00A2E06DBEB
:1012B00096FBF1F0303002F8080008F1010896FBC7
:1012C000F1F001FB1060303002F80800A16908F16C
:1012D000010808EB050202EB0A00081AA061207859
:1012E000C00602D42046FFF75BF9216A08AE01EB85
:1012F0000A00206204E0D4E9012116F8010B9047AE
:10130000BAF1010AF7D22078C00602D52046FFF7CD
:1013100047F96E4609E016F8010B3E280FD0D4E9D4
:1013200001219047206A401C2062B8F10108F2D2E6
:101330002046FFF74BF909B00320BDE8F08F206A83
:101340002844206203E0D4E90121302090476D1E3B
:10135000EBD3F8E7664C000002FCFFFF10B54369D1
:1013600013B1AFF3008001E0FFF753F9012010BD86
:10137000127800F124010A7000224A700122EDE780
:1013800011684FF0FF32E9E710B5436913B1AFF3CD
:10139000008001E0FFF7D4F9012010BD128800F1B0
:1013A000240182840022C2840122EDE711684FF0FB
:1013B000FF32E9E770B516460C46054600F044F8E2
:1013C000036893F80101012806D0FF2C0FD8185D9F
:1013D00068B101202C7070BDD3F807013246214658
:1013E00003F2071303442846BDE8704018474FF046
:1013F000FF3070BD00487047E44C00207546FFF791
:10140000F9FFAE4605006946534620F007008546C1
:1014100018B020B5FEF7CCFFBDE820404FF0000625
:101420004FF000074FF000084FF0000B21F00701CC
:10143000AC46ACE8C009ACE8C009ACE8C009ACE80F
:10144000C0098D467047000010B500F005F8001D7A
:1014500010BD00BFD145000000487047044D00207A
:101460002DE9F0411F46044603260168072A01F4CE
:10147000006004DB08B116A505E016A503E008B17D
:1014800015A500E015A521F010002060A069C01E80
:10149000A0610FB1401EA0612046FFF781F84FB157
:1014A000D4E9012138469047206A401C2062C01CC4
:1014B000206206E0206AFAE7D4E9012115F8010B61
:1014C0009047761EF8D22046FFF780F8BDE8F081FD
:1014D0004E414E006E616E00494E4600696E6600D8
:1014E0002DE9F047814616468AB0354878440DC844
:1014F0008DE80D0032487844801C03AC0DC884E8A8
:101500000D0041F69B300844372190FBF1F290FB2F
:10151000F1F5A5F1800501FB12041B3C02D56442E4
:10152000012000E00020DFF898A080460027FA4460
:10153000AAF1BE0A0EE0E0070AD03246684607EB81
:10154000470101230AEB810100F01EFB8DE8070033
:1015500064107F1C002CEED1194F7F44AE3F19E080
:10156000E80715D007EB04100DF1180A90E80E00FB
:101570008AE80E00C068F04201D1981908903246FE
:10158000012306A903A800F0FFFA03AB83E80700D4
:101590006D10641C002DE3D14FF001033246694603
:1015A000B8F1000F03A802D000F0D9FA01E000F072
:1015B000EBFAC9E90001C9F808200AB0BDE8F087D4
:1015C0007049000010B50446AFF300802046BDE826
:1015D0001040FEF778BE00004FF0013C50F8042B9D
:1015E00051F8043B9A4221D1A2EB0C03934313EA36
:1015F000CC1317D150F8042B51F8043B9A4215D163
:10160000A2EB0C03934313EACC130BD150F8042B39
:1016100051F8043B9A4209D1A2EB0C03934313EA1D
:10162000CC13DBD04FF00000704700BFD01A01BAD6
:10163000B1FA81F101F0180122FA01F0CB40C1F1B9
:101640002001DBB2C0B2C01A2CFA01F3D11A9143C7
:1016500011EAC311E6D1704701491820ABBEFEE77D
:101660002600020070475FEA400C08BF91F0000FAF
:101670004FEA8C234FEAC12243EA51514FEA1C50F2
:1016800018BF00F5F0404FEA300018BF41F00041AC
:101690005FEA6C5C00F02980BCF1FF3F08BF40F0BE
:1016A00080407047130C06BF12044FF0100C4FF02F
:1016B000000C130E04BF12020CF1080C130F04BF30
:1016C00012010CF1040C930F04BF92000CF1020CF8
:1016D000D30F04BF52000CF1010C11464FF0000271
:1016E000A0F11F00A0EB0C00704711F0004F08BFE5
:1016F000704731F000413FF4D5AF0B0C06BF090431
:101700004FF0100C4FF0000C0B0E04BF09020CF14F
:10171000080C0B0F04BF09010CF1040C8B0F04BF64
:1017200089000CF1020CCB0F04BF49000CF1010C35
:10173000CCF12003A0EB0C0022FA03F302FA0CF226
:1017400041EA030100F10100704720F07F4C80EA7C
:10175000030023F07F47ACEB070303F57C5300F055
:10176000004003F1FF032DE980494FEA154B09B40E
:101770004FEA144325EA0B4E24EA03480FF20426ED
:1017800006EB132749083E785FEA320203FB06673F
:10179000C7F5000707FB06F64FEA54374FEAD6466F
:1017A00006F1020607FB066CCCF1005C4FEA1C4711
:1017B0002CEA074C07FB06F40CFB06F504EB154678
:1017C0004FEA961634BF00204FF000404FEAD13761
:1017D00006FB07FC4FEA1C4C0CFB0BF7D21B03FB70
:1017E0000CF761EB07010CFB0EF7B0EB074072EB57
:1017F00017420CFB08F734BFA2EB0742B2EB0742DB
:1018000061EB17414FEA0C444FEA910706FB07FCD6
:101810004FEA1C4C0CFB0BF7B0EBC74072EB573296
:1018200003FB0CF734BFA2EBC742B2EBC74261EB3C
:1018300057310CFB0EF7B0EBC70072EB57720CFB85
:1018400008F734BFA2EBC702B2EBC70261EB5771D6
:10185000039F4FEA816141EA921104EBCC044FEA05
:10186000D1374FEA826206FB07FC42EA90124FEA48
:1018700080604FEA1C4C0CFB0BF7D21B03FB0CF7F0
:1018800061EB07010CFB0EF7B0EB074072EB174260
:101890000CFB08F734BFA2EB0742B2EB074261EB47
:1018A00017414FEA8C554FEA910704EB9C2406FB45
:1018B00007FC4FEA1C4C0CFB0BF7B0EBC74072EB7C
:1018C000573203FB0CF734BFA2EBC742B2EBC7425F
:1018D00061EB57310CFB0EF7B0EBC70072EB5772A0
:1018E0000CFB08F734BFA2EBC702B2EBC70261EBF7
:1018F000577115EB4C254FEA816141EA92114FEA8D
:1019000082624FEAD13742EA901206FB07FC44F1AB
:1019100000044FEA80604FEA1C4C0CFB0BF7D21B13
:1019200003FB0CF761EB07010CFB0EF7B0EB074074
:1019300072EB17420CFB08F734BFA2EB0742B2EB85
:10194000074261EB174115EB1C154FEA813141EA63
:1019500092414FEA823242EA90424FEA80304FEAA7
:101960000C7644F1000448EA03434EEA0B484FF07A
:10197000000EB2EB080C71EB030724BF6246394638
:101980004EEB0E0E4FF0000B0018524149414BEB4D
:101990000B0BB2EB080C71EB03077BF1000B24BFC0
:1019A000624639464EEB0E0E4FF0000B00185241C6
:1019B00049414BEB0B0BB2EB080C71EB03077BF1CE
:1019C000000B24BF624639464EEB0E0E51EA020769
:1019D00018BF46F0010616EB0E7655F1000254F1E1
:1019E000000103D5BDE88901BDE80088BDE8890193
:1019F000BDE80048B619524141EB0101A3F10103D2
:101A0000704780807F7E7D7C7B7A7978777676756B
:101A10007473727171706F6E6E6D6C6C6B6A6A69E3
:101A20006868676666656464636362616160605F7D
:101A30005F5E5E5D5D5C5C5B5B5A5A5959585857F6
:101A4000575656555555545453535252525151505E
:101A500050504F4F4F4E4E4D4D4D4C4C4C4B4B4BB1
:101A60004A4A4A49494948484847474747464646F7
:101A70004545454444444443434343424242424132
:101A80004141002B9C4630D477002BD01CB54FEA47
:101A9000370703B44FF010004FF01001BAF1000FF8
:101AA00006D0BCF1000FDCBF40F0080040F0080198
:101AB0004FF000000FBCBDE810400BF1010BBBF173
:101AC000010F08BF5FEA170722BF12F1010211F1EF
:101AD00001014FF0004143F1000300F0004043EAF0
:101AE00000007047F9D35708D0E746EA064613F1DD
:101AF000400F4FEA16461FDD13F1200FDFBF1643DC
:101B00000A46002120335B42BED0C3F1200746EADB
:101B1000064602FA07F74FEA164646EA0706C3F1F9
:101B2000200722FA03F201FA07F721FA03F14FF036
:101B3000000342EA0702A7E746EA020646EA06462B
:101B40004FEA164646EA0106BCBF46EA0646360C90
:101B50004FF000034FF000024FF0000194E72DE931
:101B6000804C9A46934670B491E8380007C831EA31
:101B7000400C48BF34EA430C03D5FFF7E6FDFFF7FE
:101B800080FFF0BCBDE8008C2DE9804C9A4693465E
:101B900070B491E8380007C810F0804F08BF13F008
:101BA000804F03D100F005F8FFF76BFFF0BCBDE8F4
:101BB000008C20F07F4780EA030023F07F4C07EB86
:101BC0000C03A3F57C5300F00040A3F1FE0392F058
:101BD000000F00F0B38095F0000F00F077802DE942
:101BE00001494FEA11404FEA144621EA004800FB40
:101BF00006FC24EA064708FB06F607FB08F800FB8C
:101C000007F718EB06484CEB164C4FEA124B18EB53
:101C100007484FEA15464CEB174022EA0B4E0BFBE8
:101C200006FC25EA06470EFB06F607FB0EFE0BFB3D
:101C300007F71EEB064E4CEB164C4FF000061EEB62
:101C4000074E4CEB174B18EB0B0840F1000018EB5C
:101C50000E0B58EB000840F100008F1A4FF0000106
:101C60003CBFC943661B14BFB5EB040C00213CBF4D
:101C7000C943F61B4FEA17444EEA8E0E27EA044585
:101C80004FEA1C4704FB07622CEA074C05FB07F7E9
:101C90000CFB05F604FB0CFC16EB074642EB174267
:101CA00016EB0C4642EB1C421BEB060658EB0202FD
:101CB000414146EA9E0601D5BDE80189B619524167
:101CC00041EB0101A3F10103BDE801894FEA14458D
:101CD0004FEA114724EA054621EA074C05FB07F4C1
:101CE00006FB07F70CFB06F105FB0CFC11EB0741AB
:101CF00044EB17444FEA124711EB0C4144EB1C44F0
:101D000022EA074C05FB07F206FB07F70CFB06F679
:101D100005FB0CFC16EB074642EB174216EB0C4694
:101D200042EB1C456A1854F1000148BF7047B619D0
:101D3000524141EB0101A3F10103704795F0000FFF
:101D400037D04FEA11424FEA144721EA024624EA0B
:101D5000074C02FB07F106FB07F70CFB06F402FB3E
:101D60000CFC14EB074441EB17414FEA154714EB09
:101D70000C4441EB1C4125EA074C02FB07F506FB2E
:101D800007F70CFB06F602FB0CFC16EB074645EBCF
:101D9000174516EB0C4645EB1C42121951F1000198
:101DA00048BF7047B619524141EB0101A3F101034D
:101DB00070474FEA14454FEA114724EA054621EAE5
:101DC000074C05FB07F106FB07F70CFB06F24FF08B
:101DD000000605FB0CFC12EB074241EB174112EB2E
:101DE0000C4251EB1C4148BF7047921841EB010176
:101DF000A3F101037047FEE7014800F0FCB90000C1
:101E0000F0020020014800F0F6B90000180300209D
:101E1000014800F0D3BD000078040020014800F024
:101E2000CDBD00001804002001681823CAB2103A82
:101E3000B2FBF3F2054B6FF30901032A9B5CC36508
:101E400000D9091D8165084670470000505D0008F3
:101E500010B5014600208B698A6A4FF0C07453B1F7
:101E6000B3F5005F15D072B1012A0CD0022A0AD056
:101E7000032A09D104E01AB1012A06D0022A03D1AB
:101E8000C96AC90100D5012010BDC96AA142FAD0B2
:101E900010BD002AF7D0012AF2D0022AF3D0032A7B
:101EA000F3D010BD30B50468256825F48025256081
:101EB000046863608368402B036803D099600068FE
:101EC000C26030BD9A600068C16030BD70B500244A
:101ED0004FF4FA7501210C4803F016FA284602F077
:101EE000FDFE0221084803F00FFA284602F0F6FE34
:101EF0000321054803F008FA284602F0EFFE641CAF
:101F0000022CE7DB70BD000018030020704772B69A
:101F1000FEE790F82020012A07D0022A05D0416A66
:101F200041F48021416201207047006842690A4300
:101F3000426100207047F0B590F820500468A46812
:101F4000012D05D0022D03D0416A41F480214DE0DE
:101F500014F0406F01D1E50045D5C4F301640125BB
:101F6000A5401D608D684FF4C0739DB1CE683543A8
:101F70004E6845EAC605066803EB0417F5514FF4B1
:101F8000C275076805EB04150E697E51097D0129AC
:101F900005D009E00E88CD6845EA4655EBE70168B3
:101FA0004E5946F480764E511179D2F805504FF4CF
:101FB000C67641EA0521056806EB0416A951117899
:101FC000D2F801204FF4C47541EA0221026805EB02
:101FD00004155151006803EB0411425842F001020C
:101FE00042500020F0BD416A41F4001141620120DD
:101FF000F0BD000010B590F82020012A07D0022A79
:1020000005D0416A41F480214162012010BD3B4866
:10201000D0F8002242F00102C0F80022D0F80022DD
:1020200022F47C52C0F80022D0F800224B6A42EA27
:102030000322C0F800220A7D02F01F0301229A4009
:10204000D0F81C329343C0F81C32CB69B3B9D0F836
:102050000C329343C0F80C328C894B6864F31F43F5
:102060004C6900EBC404C4F840320C890B6864F37B
:102070001F434C6900EBC404C4F84432CB69012B04
:1020800016D1D0F80C321343C0F80C320C884B68D0
:1020900064F31F434C6900EBC404C4F840320C895C
:1020A000CB6864F31F434C6900EBC404C4F84432AA
:1020B0008B69002BD0F804320ED01343C0F80432E1
:1020C0000B69002BD0F8143208D01343C0F8143237
:1020D000096A012904D008E09343EFE79343F5E749
:1020E000D0F81C121143C0F81C12D0F8001221F0D5
:1020F0000101C0F80012002010BD00000064004083
:10210000704770B590F82040012C05D0022C03D008
:10211000416A41F4802128E0046809B32469A407D6
:1021200020D04FF4D874056804EB01142D5915F034
:102130000405956005682D591AD0ED0855600568AD
:102140002C5904F00204D4604FF4DA74056804EBEF
:1021500001142E5906F00F06082E0CD308250DE0A9
:10216000E468DCE7416A41F400114162012070BD7E
:102170006D0D1560E3E72D5905F00F051561056834
:102180002D59C5F30725956105682C59240C546118
:102190004FF4DC72046802EB0112A4581C7004684E
:1021A000A458240A5C700468A458240C9C70046829
:1021B000A258120EDA704FF4DE72046802EB0112BC
:1021C000A4581C710468A458240A5C710468A458BB
:1021D000240C9C710468A258120EDA71006829B1AF
:1021E000016941F020010161002070BDC16841F02A
:1021F0002001C160F8E72DE9F05F05460068002482
:102200004669D0F804908768D0F80CB0D0F810A0D8
:10221000D0F81880F10748D0F90714D00121816067
:10222000B80703D5284600F068FB0CE0780702D514
:102230004FF4006407E0380702D54FF4805402E001
:10224000284600F059FBF80516D529684FF4807030
:102250008860B80503D5284600F051FB0CE07805EE
:1022600002D544F4005407E0380502D544F4804414
:1022700002E0284600F042FBF80316D529684FF427
:1022800080308860B80303D5284600F03AFB0CE0A4
:10229000780302D544F4004407E0380302D544F43F
:1022A000803402E0284600F02BFB300707D55FEAB8
:1022B000CB6004D52968102044F40074C86070070E
:1022C0004FF0080707D55FEA0B7004D52868C76090
:1022D000284600F093F9B00706D52868C068800743
:1022E00002D0284600F08CF9700607D55FEACA6074
:1022F00004D52968102044F480640861B00607D52D
:102300005FEA0A7004D528680761284600F0C4FA1D
:10231000F00606D528680069800702D0284600F03C
:10232000BCFAB00308D55FEAC96005D5296810205A
:102330004860284600F0B2FAF00307D55FEA09705A
:1023400004D528684760284600F0DCFA300446D5FA
:102350005FEA497040D5F00504D55FEAC87001D046
:1023600044F00104B00504D55FEA887001D544F05B
:102370000204700504D55FEA487001D544F00404F6
:10238000300529D518F0700F26D008F070004028CD
:1023900015D006DC102809D020280AD0302816D104
:1023A0000AE050280ED0602811D10EE044F0080455
:1023B0000DE044F010040AE044F0200407E044F08B
:1023C000400404E044F0800401E044F48074286890
:1023D000816921F070018161296804204860002C26
:1023E00005D0686A204368622846FFF789FEBDE889
:1023F000F09F70B5040003D094F8200010B104E001
:10240000012070BD204600F081F82068016841F08D
:102410000101016000F03CFD0546052604E000F0E6
:1024200037FD401B0A2811D820684068C007F6D045
:102430002068016821F00201016000F029FD0546D5
:102440000BE000F025FD401B0A2806D9606A40F425
:102450000030606284F82060D2E72068406880071E
:10246000EFD4207E0128206801683DD021F0800152
:102470000160607E01282068016838D021F04001A9
:102480000160A07E01282068016833D021F020017E
:102490000160E07E0128206801682ED041F0100123
:1024A0000160207F01282068016829D021F00801FF
:1024B0000160607F01282068016824D021F00401B8
:1024C0000160D4E902010843D4E90412114308432E
:1024D0006168491E08432168C861002060620120CC
:1024E00084F82000002070BD41F08001C0E741F079
:1024F0004001C5E741F02001CAE721F01001CFE714
:1025000041F00801D4E741F00401D9E7F0B587B004
:10251000044614216846FEF719F8334B3348DFF8B8
:10252000C4E01968D4F800C0304A03250226092700
:1025300010300024491CF4451DD11960012907D130
:10254000016841F000710160006800F000700590C2
:10255000106840F0080010601068CDE9005600F0E7
:102560000800CDE9047069462148CDE9024500F034
:1025700097FB07B0F0BDDFF87CE0F445F9D1D0F867
:1025800000C04CF0806CC0F800C0D0F800C0012939
:102590000CF0806CCDF814C0196007D1016841F0CF
:1025A00000710160006800F000700590106840F054
:1025B00002001060106802AB00F00200059060207D
:1025C000CDE9000683E8B00069460B4800F068FBDF
:1025D00000220521402000F0CDFC402000F0BCFC92
:1025E000C7E70000006400400800002030380240C7
:1025F000000C0240006800400004024070470000E8
:10260000F0B504462DED048B95B0006898498842DA
:102610002BD112AB04AA00212046FFF772FD0498CB
:102620009449A0F54070013802D001281DD110E076
:10263000BDF8480040BA0880BDF84A0040BA48805A
:10264000BDF84C0040BA8880BDF84E0040BAC88042
:102650000BE0BDF8480040BA0881BDF84A0040BA16
:102660008872BDF84C0040BA0873834920688842DC
:1026700039D102AB0BAA00218048FFF742FD844DFF
:102680000B987F4E7F4F9FED808ADFED808AB3EEFF
:10269000099A05F15804112829D0122866D0132868
:1026A0007ED0A0F5007005381DD104987949401EF0
:1026B000C0B2087000EB8001A4F1480202EB4100B7
:1026C00032F811300381BDF808305BBA22F81130BE
:1026D000BDF80A1049BA4180BDF80C1049BA818092
:1026E0009DF80E10817115B0BDEC048BF0BD28680B
:1026F00002A9401C28609DF8080000F00F0020602F
:102700006348583001F09BFA94ED070AC0EE090ABD
:10271000C4ED0A0AD4ED0F0A70EE600A10EE900ABA
:10272000B04205DDD4E91001401E41F1FF3108E05F
:1027300010EE900AB84206D9D4E91001401C41F1CC
:102740000001C4E9100128680A2802DC0020C4E95D
:10275000100084ED0F0AD4ED130AC4ED140AC0EE84
:10276000080A20EEA80A84ED150ABCE7686802A9E9
:10277000401C68609DF8080000F00F00A067444806
:10278000D03001F05CFA94ED250AC0EE090AC4EDE0
:10279000280AD4ED2D0A70EE600A10EE900A00E0CF
:1027A00025E0B04205DDF4E92E01401E41F1FF3184
:1027B00008E010EE900AB84206D9F4E92E01401C58
:1027C00041F1000164E82E0168680A2802DC00205B
:1027D000C4E92E0084ED2D0AD4ED310AC4ED320A8D
:1027E000C0EE080A20EEA80A84ED330A7BE7A86849
:1027F00002A9401CA8609DF8080000F00F00C4F872
:10280000F0001C48C03801F01AFA94ED430AC0EEFB
:10281000090AC4ED460AD4ED4B0A70EE600A10EEC8
:10282000900AB04205DDD4E94C01401E41F1FF3170
:1028300008E010EE900AB84206D9D4E94C01401CD9
:1028400041F10001C4E94C01A8680A2802DC00201B
:10285000C4E94C0084ED4B0AD4ED4F0AC4ED500A94
:10286000C0EE080A20EEA80A84ED510A3BE70000FA
:10287000006400405045002000680040180300201C
:1028800000409C4600409CC6DB0F4940000034439A
:1028900048430020900000207047704770470000B8
:1028A00070B5044690F82000012804D0606A40F416
:1028B0000020606218E0022084F82000206801688F
:1028C00021F00101016000F0E3FA05460EE000BFCF
:1028D00000F0DEFA401B0A2808D9606A40F4003094
:1028E0006062052084F82000012070BD20684068E7
:1028F000C007EDD1606270BD704770477047704788
:102900007047704770472DE9F0410446876D00F02D
:10291000BFFA064694F835000025022806D080202C
:10292000606584F834500120BDE8F08120680168BA
:1029300021F0160101602068416921F080014161A8
:10294000206C08B9A06C20B12068016821F0080152
:1029500001602068016821F0010101600CE000F0D5
:1029600097FA801B052807D920206065032084F88A
:10297000350084F83450D7E720680068C007EED1EE
:1029800094F85C103F208840B860012084F835003E
:1029900084F834500020C7E790F83510022903D09E
:1029A0008021416501207047052180F835100068BD
:1029B000016821F001010160002070472DE9F84312
:1029C00004464FF00009CDF8009063484FF41651CB
:1029D000A56D0068B0FBF1F72E6894F85C10082034
:1029E00000FA01F131420FD021680A6852070BD575
:1029F0000A6822F004020A6094F85C108840A8601B
:102A0000606D40F00100606594F85C104FF00108C3
:102A100008FA01F0304208D021684969090604D556
:102A2000A860606D40F00200606594F85C100420BE
:102A30008840304208D021680968890704D5A86019
:102A4000606D40F00400606594F85C1010208840D0
:102A5000304218D021680968090714D5A860206899
:102A60000168490304D50068000308D5A16C07E09C
:102A70000168C90503D4016821F008010160216CD7
:102A800009B12046884794F85C10202088403042E5
:102A900031D021680968C9062DD5A86094F83500A1
:102AA00005282068016806D0490347D5006800035F
:102AB0001DD4616C1CE021F01601016020684169A1
:102AC00021F080014161206C08B9A06C20B1206820
:102AD000016821F00801016094F85C103F208840F3
:102AE000A86084F8358084F83490216D1FE0E16B94
:102AF00009B120468847606D00282BD0606DC00763
:102B000014D0052084F835002068016821F0010107
:102B100001600098401C0090B84203D8206800680B
:102B2000C007F6D184F8358084F83490E16C002930
:102B300010D001B02046BDE8F04308470168C90540
:102B4000D5D4016821F01001016084F8358084F843
:102B50003490CCE7BDE8F883180000202DE9F0415F
:102B6000044600F095F906465CB1022084F8350071
:102B7000002584F834502068016821F001010160CB
:102B80000DE00120BDE8F08100F082F9801B0528EE
:102B900005D920206065032084F83500F2E720681D
:102BA0000068C007F0D12268116820480140D4E9CC
:102BB00001031843D4E903363343184363691843C8
:102BC000A3691843E3691843236A18430843616AF9
:102BD000042903D1D4E90B1319430843106020687A
:102BE0004069666A20F0070130460E430127042839
:102BF0000CD1A06A0643E06A40B12046FFF728F9ED
:102C000020B14020606584F83570BAE720684661DD
:102C10002046FFF709F994F85C203F21914081603C
:102C2000656584F835700020ACE700003F8010F047
:102C30002DE9F0410446866D90F834000025012806
:102C40000DD0012084F8340094F835700020012F55
:102C500007D084F8340002252846BDE8F081022020
:102C6000FBE7022784F8357060652046FFF71AF904
:102C700094F85C103F208840B0602068016841F003
:102C800016010160206C20B12068016841F0080144
:102C900001602068016841F001010160DCE700008B
:102CA0002DE9F84FDFF8BCA10022012503264FF0E3
:102CB0000F090AF1040BAAF1040E00BF0B6805FA14
:102CC00002F42340A34270D10F7907F00307012FCC
:102CD00001D0022F16D187684FEA420806FA08FC95
:102CE00027EA0C07D1F80CC00CFA08FC4CEA070CD8
:102CF000C0F808C04768A7430C79C4F30014944097
:102D00003C4344600C79E443A4070AD0C4684FEA0A
:102D1000420C06FA0CF7BC438F6807FA0CF72743FE
:102D2000C7600C7904F00304022C12D1D40800EB24
:102D3000840CDCF820405707FF0E09FA07F824EA54
:102D40000804D1F8108008FA07F848EA0408CCF81B
:102D5000208004684FEA420C06FA0CF7BC430F7956
:102D600007F0030707FA0CF7274307604C6814F4D1
:102D7000403F70D03C4C276847F480472760246868
:102D800022F0030704F480440094384C07EB040C51
:102D9000DCF8084897074FEA177809FA08F7BC43A8
:102DA000334FB84202D1002724E054E0314FB842FB
:102DB00001D101271EE0304FB84201D1022719E0AE
:102DC0002E4FB84201D1032714E02D4FB84201D154
:102DD00004270FE02B4FB84201D105270AE02A4F04
:102DE000B84201D1062705E0284FB84201D1072794
:102DF00000E0082707FA08F72743CCF80878DAF844
:102E000000405746D1F804C09C435FEACC2C00D563
:102E10001C433C60DBF800405F46D1F804C09C4393
:102E20005FEA8C2C00D51C433C60DEF800407746FE
:102E3000D1F804C09C435FEA8C3C00D51C433C6045
:102E4000084F083F3C68D1F804C09C435FEACC3C83
:102E500000D51C433C60521C102AFFF42FAFBDE884
:102E6000F88F0000083C0140443802400030014027
:102E7000000002400004024000080240000C024032
:102E8000001002400014024000180240001C0240E2
:102E900001488068704700000C00002002488168EB
:102EA00002781144816070470C0000200B4810B577
:102EB000016841F400710160016841F480610160C2
:102EC000016841F480710160032000F073F80F2065
:102ED00000F006F800F024F8002010BD003C02408D
:102EE00070B50D4D04464FF47A712878B1FBF0F0BF
:102EF0000A490968B1FBF0F000F010FB48B9102C4A
:102F000007D200222146501E00F034F800206C60E9
:102F100070BD012070BD00000C00002018000020D2
:102F20000C4882B0016841F480410160006800F4FF
:102F3000804000900748001F016841F08051016007
:102F40000068002200F0805000900F21901E02B017
:102F500000F010B844380240002809DB00F01F02DE
:102F6000012191404009800000F1E020C0F80011EB
:102F700070470000F0B40E4B1B680C46C3F30223ED
:102F8000C3F10705042D00D90425191D072901D215
:102F9000002300E0DB1E012606FA05F1491E214050
:102FA00099409E40761E16403143F0BC01F091BC22
:102FB0000CED00E0064900F0070208684FF6FF0339
:102FC000184040EA0220034A10430860704700009E
:102FD0000CED00E00000FA052DE9F0470E46050073
:102FE00065D0DFF81481D8F80000F7B200F00700D0
:102FF000B04207D288F80070D8F8000000F007004F
:10300000B04254D128683D4C810712D5400703D502
:10301000206840F4E05020602878000703D520683D
:1030200040F4604020602068A96820F0F000084368
:1030300020602878C0072DD03049686808390128F9
:1030400012D0022813D0032811D00968890700295B
:103050002DDA216821F0030101432160FFF718FFF9
:10306000814641F2883A0EE009688903EFE7096872
:103070008901ECE7FFF70CFFA0EB0901514502D9EC
:103080000320BDE8F0872068696800F00C00B0EB11
:10309000810FEFD1D8F80010404601F00701B1428E
:1030A00007D90770006800F00700B04201D0012086
:1030B000E7E72878400705D52068E96820F4E05064
:1030C000084320602878000706D52068296920F485
:1030D000604040EAC100206000F038F82168084AEA
:1030E000C1F30311515CC8400649086006480068F6
:1030F000FFF7F6FE0020C4E7003C0240083802401B
:10310000585D000818000020100000200448054900
:1031100000680968044AC1F38221515CC8407047C5
:103120001800002008380240685D0008044805497E
:1031300000680968044AC1F34231515CC8407047D5
:103140001800002008380240685D0008154810B5D6
:10315000006810F00C02144813D01449042A0FD050
:10316000082A0ED10F4C241F2268236802F03F0268
:103170005B0207D52068C0F38810A0FB010106E0C0
:10318000084610BD2168C1F38811A1FB000100238E
:10319000FDF720F92168C1F30141491C4900B0FB4A
:1031A000F1F010BD083802400024F400001BB70005
:1031B0002DE9F84F04006ED02078DFF84C93C0075B
:1031C000A9F104054AD009F104000168C1F38101A5
:1031D000012908D00068C0F3810002280AD1D9F87B
:1031E0000000400206D52868800337D560680028B3
:1031F000E1D033E06068B0F5803F10D0B0F5A02F8B
:10320000286810D020F480302860286820F48020BE
:1032100028606068A8B1FFF73BFE06460DE028680D
:1032200040F48030F4E740F480202860F7E700BFE6
:10323000FFF72EFE801B642873D828688003F7D51B
:103240000CE0FFF725FE064605E000BFFFF720FE75
:10325000801B6428F0D828688003F7D42078DFF832
:10326000AC8280074FF0000A3ED5A748001D0168D8
:1032700011F00C0F08D00068C0F3810002280BD1B8
:10328000D9F80000400207D42868800716D5E06806
:10329000012800D112E033E1E068B8B10120C8F89C
:1032A0000000FFF7F5FD064605E000BFFFF7F0FD63
:1032B000801B0228C0D828688007F7D528682169B4
:1032C00020F0F80040EAC10028600DE0C8F800A036
:1032D000FFF7DEFD064604E0FFF7DAFD801B02285B
:1032E0001FD828688007F7D42078000722D5864F9A
:1032F00087486169703771B101210160FFF7C8FD2E
:10330000064604E0FFF7C4FD801B022809D8386890
:103310008007F7D50EE0C0F800A0FFF7B9FD06461C
:1033200005E082E0FFF7B4FD801B02287DD83868F5
:103330008007F7D42078400768D5DFF8CCB10027A4
:103340000BF13C0BDBF80000C0000BD4DBF80010E5
:1033500041F08051CBF80010DBF80000012700F0AD
:10336000805000906B4E3068C00510D4306840F437
:1033700080703060FFF78CFD009005E0FFF788FD5E
:103380000099401A022850D83068C005F6D55E4E24
:10339000A0686C3601280FD00528306810D020F0C6
:1033A00001003060306820F004003060A068B8B1DF
:1033B000FFF76EFD00900FE0306840F00100F4E789
:1033C00040F004003060F7E7FFF762FD0099411A12
:1033D00041F28830814266D830688007F4D50EE02B
:1033E000FFF756FD009007E0FFF752FD0099411AE4
:1033F00041F28830814256D830688007F4D42FB12A
:10340000DBF8001021F08051CBF80010A069C8B3A0
:103410003D49091D0968C1F3810102294AD00228EA
:10342000504607D0C8F8600000E03CE0FFF730FDF0
:1034300004463BE04746C8F86000FFF729FD064612
:1034400005E000BFFFF724FD801B02282BD8286869
:103450008001F7D4D4E907010843A16A2E4A49083C
:1034600002EB0141626A41EA8211084394F82C1090
:1034700040EA0161C9F8001001203866FFF708FD35
:10348000044606E03EE000BFFFF702FD001B0228F5
:1034900009D828688001F7D534E000BFFFF7F8FCB1
:1034A000001B022802D90320BDE8F88F286880019C
:1034B000F4D427E00128F7D0D9F80000E26900F43D
:1034C000800191421CD1226A00F03F01914217D144
:1034D00047F6C071626A0140B1EB821F10D1A26A47
:1034E0004FF0FF3300F4403103EB5202B1EB024FD7
:1034F00006D194F82C1000F07060B0EB016F01D091
:103500000120D1E70020CFE7043802400000474205
:10351000800E4742007000400000FFFF10B5401EC3
:10352000B0F1807F01D3012010BD4FF0E024606135
:103530000F21601701F0CDF90020A0610720206164
:10354000002010BD70B590F83C20012A32D0012433
:1035500080F83C40022280F83D2003685A689D684C
:1035600022F070060A6832435A60134B02689A428E
:1035700014D0B2F1804F11D0104B9A420ED0104BA4
:103580009A420BD00F4B9A4208D00F4B9A4205D06B
:103590000E4B9A4202D00E4B9A4204D1496825F054
:1035A00080031943916080F83D40002180F83C1071
:1035B000084670BD022070BD0000014000040040BC
:1035C00000080040000C00400004014000400140A1
:1035D0000018004010B586B0044614216846FCF778
:1035E000B5FF0E492068884215D10D4800210268B8
:1035F00042F008020260006800F0080005904FF4F5
:10360000805000900220CDE90101CDE90310694608
:103610000448FFF745FB06B010BD0000000800405D
:1036200030380240000C024070B5044690F83C006F
:1036300000260D4601280FD0012084F83C006AB115
:10364000042A1DD0082A2FD00C2A3FD001260020A2
:1036500084F83C00304670BD022070BD206800F048
:103660008DFE2068816941F00801816120688169CF
:1036700021F004018161206881692A69114311E008
:10368000206800F0ABFE2068816941F4006181612F
:103690002068816921F480618161206881692A69DB
:1036A00041EA02218161D2E7206800F0CDFE206866
:1036B000C16941F00801C1612068C16921F00401BC
:1036C000C1612068C1692A69114311E0206800F0D6
:1036D000EFFE2068C16941F40061C1612068C169E1
:1036E00021F48061C1612068C1692A6941EA02212F
:1036F000C161ACE710B5040003D094F83D0010B1EF
:1037000007E0012010BD002084F83C00204600F0B6
:103710001FF8022084F83D00211D206800F0C2FD42
:10372000012084F8460084F83E0084F83F0084F8C5
:10373000400084F8410084F8420084F8430084F893
:10374000440084F8450084F83D00002010BD0000CE
:1037500008B500680649884208D10648016841F06A
:1037600004010160006800F00400009008BD000042
:10377000000800404038024070477047F8B50168C3
:1037800004460868CA684B6910F00F0F4FF0000537
:1037900059D003F0010602F49077374365D0C10792
:1037A00005D0D10503D5616C41F001016164410789
:1037B00005D5D90703D0616C41F00201616481072E
:1037C00005D5D90703D0616C41F00401616401079C
:1037D00007D502F02001314303D0616C41F00801AC
:1037E0006164616C00293AD0800604D5900602D548
:1037F000204600F00DFF20684069616CC0F3801026
:10380000090700D460B3204600F0CDFE206840696F
:10381000400621D52068143050E8001F21F04001F7
:1038200040E80012002AF5D1E06BA8B16E490165AD
:10383000E06BFFF7B1F8002811D0E06B016D01B02B
:10384000BDE8F040084783060FD593060DD5204606
:10385000BDE8F84000F0DCBE2046FFF78EFFF8BD63
:103860002046FFF78AFF6564F8BD266B2023012EF2
:103870007DD1C6067BD5D60679D508684868009004
:1038800048694FF00206400641D5E16B0868406880
:103890000004000CE8D0A28D8242E5D9E085C86919
:1038A000B0F5807F2DD020680C3050E8001F21F447
:1038B000807140E80012002AF5D12068143050E8E9
:1038C000001F21F0010140E80012002AF5D1206814
:1038D000143050E8001F21F0400140E80012002A97
:1038E000F5D184F84230256320680C3050E8001F81
:1038F00021F0100140E80012002AF5D1E06BFFF73B
:1039000002F86663A08DE18D401A81B22AE0A08D95
:10391000E18D401A81B2E08D0028A5D00029A3D006
:1039200022680C3252E8000F20F4907042E8000741
:10393000002FF5D12068143050E8002F22F001024A
:1039400040E80027002FF5D184F842302563206835
:103950000C3050E8002F22F0100240E80023002B2A
:10396000F5D166632046FFF707FFF8BDFFE70506C0
:103970002BD5150629D594F841002128F5D1A0684A
:10398000B0F5805F01D12069B0B1206A411C21628D
:10399000216800784860E08C401E0004000CE08440
:1039A000E3D12068C16821F08001C1602068C1684E
:1039B00041F04001C160D8E7206A0088C0F30800E8
:1039C0004860206A801C2062E5E74006CDD550069D
:1039D000CBD5CA68204622F04002CA6084F8413044
:1039E00000F02AF9C1E700000145000870B50400A5
:1039F00004D094F84100002510B106E0012070BD0C
:103A000084F84050204600F023F8242084F8410038
:103A10002068C16821F40051C160204600F05AFEC0
:103A20002068016921F4904101612068416921F019
:103A30002A0141612068C16841F40051C160656498
:103A4000202084F8410084F842006563002070BDA6
:103A50002DE9F04F87B0064614216846FCF776FD45
:103A60004D4B316800244D480225032207274FF0B3
:103A700000694FF4806A4FF4403B99424AD147496C
:103A800014310B6843F010030B60096801F010015A
:103A90000591016841F002010160016801F0020135
:103AA0000591016841F0010101600068CDE9024221
:103AB00000F0010005908020CDE9000590466946A0
:103AC00004973748FFF7ECF82802CDE90005CDE967
:103AD0000248694604973348FFF7E2F8334D32480D
:103AE000E5E802094020A5E81104304845F81449EA
:103AF000AC61C5E9074B6C62FFF730F808B1FEF71F
:103B000006FAB563002205212520AE63FFF732FADD
:103B100025203BE0264B99423AD1204910310B68D1
:103B200043F480230B60096801F48021059101684A
:103B300041F0040101600068CDE9024200F0040098
:103B400005904FF44060CDE9000569460497194897
:103B5000FFF7A6F8154D184860352860C5E90194AF
:103B6000C5E9034A80156C61C5E90640C5E908B49A
:103B70002846FEF7F3FF08B1FEF7C9F9F563002206
:103B800005212720AE63FFF7F5F92720FFF7E4F9B9
:103B900007B0BDE8F08F000000100140303802404F
:103BA0000004024000000240B864024018040020F3
:103BB00000480040000802402860024070470000B2
:103BC00070B5044690F84100202801D0022070BD55
:103BD00049B342B32162A284E284002060642123BD
:103BE00084F84130A56B114BEB63A56B104B2B6434
:103BF000A56B104BEB64A36B1865256813462A1D53
:103C0000A06BFFF715F821686FF04000086020688E
:103C1000143050E8001F41F0800140E80012002AF3
:103C2000F5D1002070BD012070BD00005B4500088B
:103C30009D4500081145000870477047FEE72DE9D3
:103C4000F0410446B1F801000D4646BA08794979B9
:103C500000F00F0041EA00272068012824D12878CD
:103C6000102100096060F2EE090ABAEE090A304636
:103C700001F096FB84ED070A0C21F3EE0C0ABBEE73
:103C80000C0A384601F08CFB84ED090AA87900EE95
:103C9000100AB8EE400A84ED0D0AE87900EE100A29
:103CA000B8EE400A84ED0E0A2068022824D1287854
:103CB000102100096060F2EE090ABAEE090A3046E6
:103CC00001F06EFB84ED070A0C21F3EE0C0ABBEE4B
:103CD0000C0A384601F064FB84ED090AA87900EE6D
:103CE000100AB8EE400A84ED0D0AE87900EE100AD9
:103CF000B8EE400A84ED0E0A2068032824D1287803
:103D0000102100096060F2EE090ABAEE090A304695
:103D100001F046FB84ED070A0C21F3EE0C0ABBEE22
:103D20000C0A384601F03CFB84ED090AA87900EE44
:103D3000100AB8EE400A84ED0D0AE87900EE100A88
:103D4000B8EE400A84ED0E0A2068042824D12878B1
:103D5000102100096060F2EE090ABAEE090A304645
:103D600001F01EFB84ED070A0C21F3EE0C0ABBEEFA
:103D70000C0A384601F014FB84ED090AA87900EE1C
:103D8000100AB8EE400A84ED0D0AE87900EE100A38
:103D9000B8EE400A84ED0E0ABDE8F081F0B50C469D
:103DA0002DED048BF0EE609AF0EE400A83B0B0EE99
:103DB000428AF0EE618AB0EE419A0546BAEE090AEF
:103DC00000F0A1FDF2EE090A00F0C1FD1020B2EEF4
:103DD000091AFAEE090A00F021FE07460C20B2EE9D
:103DE000041AFAEE040AB0EE690A00F017FEDFEDDD
:103DF000262A06460C209FED231AF0EE620AB0EE4A
:103E0000490A00F00BFE03460C20B1EE041AF0EE56
:103E1000620AB0EE680A00F001FE02460C20B3EE22
:103E20000C1AFBEE0C0AB0EE480A00F0F7FD174939
:103E30000C6000248C60CC6008240C61390A8DF879
:103E400000108DF8017031098DF80210310141EA3E
:103E500013218DF803108DF8043011098DF8051029
:103E6000110141EA10218DF806108DF80700012399
:103E70006A4606492846FEF75EF803B0BDEC048B9F
:103E8000F0BD00000000FA430000000038450020AB
:103E90000F4810B50D4901600321416000214FF426
:103EA00010228160C0E903124FF4001242610176D2
:103EB00041768176C17601774177FEF79AFA00283C
:103EC00003D0BDE81040FEF722B810BD00640040EA
:103ED000F00200200F4810B50D4901600321416038
:103EE00000214FF410228160C0E903124FF4001248
:103EF0004261017641768176C17601774177FEF79E
:103F000078FA002803D0BDE81040FEF700B810BDD5
:103F10000068004018030020114808B5016841F40A
:103F200000110160016801F400110091016841F481
:103F3000800101600068002200F4800000900521EB
:103F40000C20FFF717F80C20FFF706F800220521D8
:103F50004620FFF70FF8BDE808404620FEF7FCBFFB
:103F60003038024010B58EB01C220B496846FCF771
:103F7000BBFA0021684600F0BDFE084C06491C2231
:103F800020601C3107A8FCF7AFFA002107A800F059
:103F9000B1FE60600EB010BD185D0008000000208A
:103FA000154808B5016841F002010160016801F09F
:103FB00002010091016841F001010160016801F016
:103FC00001010091016841F008010160016801F000
:103FD00008010091016841F004010160016801F0ED
:103FE00004010091016841F080010160006800F067
:103FF0008000009008BD00003038024010B58AB043
:10400000002407941C2168460894FCF79FFA164880
:104010001449C0E900144FF6FF71C0E90241046180
:104020008461FFF767FB08B1FDF771FF079407A9EB
:104030000D480894FFF786FA08B1FDF768FF602085
:10404000CDE9000402940022694607480494FFF772
:10405000EBFA08B1FDF75BFF0348FFF7BBFA0AB0C4
:1040600010BD000000080040400300200C4810B5BF
:104070000A4901604FF4E1314160002181600C2266
:10408000C160C0E904128161C161FFF7AFFC002883
:1040900003D0BDE81040FDF73ABF10BD001001404D
:1040A000880300200C4810B50A4901600B494160A3
:1040B000002181600C22C160C0E904128161C161EC
:1040C000FFF794FC002803D0BDE81040FDF71FBFA8
:1040D00010BD000000480040D0030020A086010071
:1040E000FEE7FEE7002819D09FED0D0A80ED110ACA
:1040F00080ED100A80ED0F0A80ED0E0A80ED0D0AAA
:1041000080ED0C0A80ED0B0A80ED0A0A80ED090AA9
:1041100080ED080A80ED060A80ED070A704700006E
:1041200000000000002828D0002A26D0017092ED5F
:10413000001A80ED011A92ED011A80ED021A92ED3B
:10414000021A80ED031A80ED040A9FED0C0AC0EDFF
:10415000050A80ED0E0A80ED0D0A80ED0C0A80ED57
:10416000080A80ED0B0A80ED0A0A80ED090A80ED4D
:10417000110A80ED100A80ED0F0A70470000000060
:1041800030B5144B1C68656945F0400565611B68D6
:10419000DC6844F01004DC600F4B1C68256825F0D7
:1041A000010525601C682568ED07F7D11D680B4CDB
:1041B000AC601C68E06018680161186842601868AB
:1041C000016841F4802101601868016841F0010133
:1041D000016030BDD0030020780400200448004076
:1041E000012000F07BFDFBE710B5FEF757FE01F064
:1041F0002DFB012803D0BDE8104001F0B9BA10BD75
:1042000030B593B030216846FCF7A0F914210CA812
:10421000FCF79CF91D480025016841F080510160C0
:10422000006800F0805011901948016841F4804105
:1042300001600068022400F4804011900120009089
:10424000000401908001CDE9064006200890A820D6
:10425000CDE9090404200B906846FEF7A9FF08B1D8
:1042600072B6FEE70CA90F2081E831004FF4A05090
:104270000F904FF48050109005210CA8FEF7ACFE73
:10428000002801D072B6FEE713B030BD40380240BE
:10429000007000400248016841F4700101607047FD
:1042A00088ED00E0F0B50268294C2A4D2A4E2B4FCC
:1042B0002B4B4FF0804CA04209D0604507D0A8425C
:1042C00005D0B04203D0B84201D0984204D122F0C8
:1042D000700E4A6842EA0E02A0421BD0604519D017
:1042E000A84217D0B04215D0B84213D0984211D08E
:1042F0001C4DA8420ED01C4DA8420BD01B4DA8420D
:1043000008D01B4DA84205D01A4DA84202D01A4D24
:10431000A84203D122F44075CA682A434D6922F0AD
:1043200080022A4302608A68C2620A688262A042EE
:1043300001D0984201D109690163012141610169FC
:10434000C90703D0016921F001010161F0BD00003E
:10435000000001400004004000080040000C004044
:104360000004014000400140004401400048014079
:1043700000180040001C004000200040F0B5036A17
:10438000026A22F00102026242688469124E24F03D
:1043900073050C682C4323F002058B682B430D4DED
:1043A000A84201D0B04205D123F00807CB683B43B7
:1043B00023F00403A84201D0B04205D14D6922F494
:1043C000407215438A692A434260846149684163A7
:1043D0000362F0BD0000014000040140F0B5026A34
:1043E000036A23F010030362436884690D6824F4B0
:1043F000E64444EA05248D6822F0200242EA0512D0
:104400000F4D104EA84201D0B04206D1CF6822F025
:10441000800242EA071222F04002A84201D0B042D4
:1044200007D14D6923F4406343EA85038D6943EA6C
:10443000850343608461496881630262F0BD0000C6
:104440000000014000040140F0B5026A036A23F451
:10445000807303624368C46922F4007224F0730518
:104460000C68124E2C438D6842EA05220E4DA8427C
:1044700001D0B04206D1CF6822F4006242EA07229E
:1044800022F48062A84201D0B04207D14D6923F4E2
:10449000405343EA05138D6943EA05134360C46141
:1044A0004968C1630262F0BD0000014000040140A0
:1044B00030B5046A026A22F4805202624268C3691B
:1044C0000D6823F4E64343EA05238D6824F4005481
:1044D00044EA0534084DA84202D0084DA84204D150
:1044E0004D6922F4804242EA85124260C361496804
:1044F0000164046230BD000000000140000401407E
:1045000010B5806B0021C185C184FFF736F910BD5D
:1045100070B5846B2068406994F84110C0F3C010F6
:104520000025212904D118B1E584204600F062F865
:104530002068406994F84210C0F38010222904D109
:1045400018B1E585204600F02EF8606C40F01000B0
:1045500060642046FFF711F970BD10B50146806B0D
:1045600009680968C90516D40021C184016814319D
:1045700051E8002F22F0800241E80023002BF5D102
:1045800001680C3151E8002F42F0400241E800235D
:10459000002BF5D110BDFFF74FFB10BD10B5806BA0
:1045A000FFF74BFB10BD01680C3151E8002F22F4DE
:1045B000907241E80023002BF5D10168143151E8D5
:1045C000002F22F0010241E80023002BF5D1016BFE
:1045D000012909D101680C3151E8002F22F01002A5
:1045E00041E80023002BF5D1202180F84210002162
:1045F0000163704701680C3151E8002F22F0C002BE
:1046000041E80023002BF5D1202180F841107047AC
:1046100008B590F84210222901D0022008BD826816
:104620004FF480539A4201D1016921B1816A9A42C3
:104630001BD04AB10AE00268816A5268C2F30802DC
:104640000A80816A891C08E0026972B102685268B6
:1046500002F07F020A70816A491C8162C18D491E85
:104660000904090CC18503D01BE002685268F1E718
:104670000168CA6822F02002CA600168CA6822F490
:104680008072CA6001684A6922F001024A612021F1
:1046900080F8421000214163026B012A03D0FFF72A
:1046A0008DFA002008BD016301680C3151E8002F2C
:1046B00022F0100241E80023002BF5D101680A68BE
:1046C000D20602D50A6849680091818DFFF754F837
:1046D000E7E7000070B5044600680169E26821F46C
:1046E0004051114301612169A068E2690843616991
:1046F000114308432168CA6849F20C639A43024394
:10470000CA6020684169A26921F440711143416186
:1047100031492068884202D03049884202D1FEF7F0
:1047200005FD01E0FEF7F2FCE26900231921642592
:104730003226B2F5004F626828D0A0FB0101930F2A
:104740009200FBF747FE0146B0FBF5F06FF0180250
:10475000504301EB800006EB0010B0FBF5F000F0D9
:10476000F002B1FBF5F002EB0012B1FBF5F06FF0D7
:104770001803584301EB800006EB0010B0FBF5F086
:1047800000F00F0021681044886070BDA0FB01019B
:1047900092185B41FBF71EFE0146B0FBF5F00201EB
:1047A000B1FBF5F06FF01803584301EB800006EB06
:1047B000C000B0FBF5F000F0F80002EB4002B1FBE6
:1047C000F5F0584301EB800006EBC000B0FBF5F0BC
:1047D00000F00700D6E7000000100140001401407F
:1047E0000148FEF7CBBF000088030020264818B41C
:1047F00000680168890604D501684068009018BC0B
:10480000704722490968C906F9D501684068204AFD
:104810000090106801684FF024030C031D490468E0
:1048200024F00104046016D410684468C4F1240420
:10483000A4B20C8043601068016841F4002101605B
:104840001068016841F001010160122CD7D11249B2
:1048500001F1160015E014686068C0F1240080B210
:10486000088063600D498B6A23F400238B62116812
:104870000A6842F001020A601228C0D1064901F11B
:104880003A0018BC00F092BCD00300200048004061
:10489000780400209A000020844C00200060024030
:1048A000FEE703B401984100009850EAC12018BF08
:1048B00004204A0D18BF40F0010040F2FF72B2EB35
:1048C000515F08BF40F00200012808BF052002B078
:1048D00070470907090E002804DB00F1E02080F88A
:1048E0000014704700F00F0000F1E02080F8141D64
:1048F00070472DED020B019820F0004001909DEDD6
:10490000000B02B0704710B52DED028BB0EE608A3F
:10491000F0EE408A18EE101A18EE900A01F084F9B1
:1049200000F07040B0F1005F0CD018EE100A20F0DB
:104930000040C0F1FF40C00F02BFB0EE480ABDEC1E
:10494000028B10BDB0EE680ABDEC028B10BD10B535
:104950002DED028BB0EE608AF0EE408A18EE101A50
:1049600018EE900A01F060F900F07040B0F1004FCD
:104970000CD018EE100A20F00040C0F1FF40C00F2C
:1049800002BFB0EE480ABDEC028B10BDB0EE680A63
:10499000BDEC028B10BD30380A2801D201207047CF
:1049A0000020704700B58BB000200121CDE9060141
:1049B0000891009001900290039005900490694640
:1049C0000C48FDF717FB0B48FDF76AFF0221094869
:1049D000FDF79FFA0E200990059069460648FDF7FD
:1049E00009FB0548FDF75CFF02210348FDF791FA3A
:1049F0000BB000BDF002002018030020B4EEE00A66
:104A0000F1EE10FA02D2B0EE600A7047B4EEC10ABD
:104A1000F1EE10FAF9DDB0EE410A704771EE601A5E
:104A2000B4EEE00AF1EE10FA02D2B0EE600A06E04F
:104A3000B4EEC10AF1EE10FA01DDB0EE410A012137
:104A4000814001EE101A30EE600AB8EEC12A82EE03
:104A5000211A21EE000ABDEEC00A10EE100A7047BE
:104A600000487047804300202DE9F04143480B2166
:104A70002DED048B84B0B0F9022092FBF1F251329B
:104A800000EE102AB8EEC00A9FED3D1ADFED3D0A98
:104A9000FFF7B4FFDFED3C1A9FED3C2A3C4DC0EE22
:104AA000210A9FED3C1A20EE820ADFED3B0A85EDDC
:104AB0001A0AB0F9022092FBF1F2913200EE102AAC
:104AC000B8EEC00AFFF79AFFC0EE210A9FED331A35
:104AD00020EE820ADFED320A85ED380AB0F90200D5
:104AE00090FBF1F0873000EE100AB8EEC00AFFF735
:104AF00085FFC0EE210A9FED2B8ADFED2B8A9FED0B
:104B00002B9A012420EE820A85ED560AC4EB04108C
:104B100005EBC000B8EE002A10ED040AF0EE481ACA
:104B2000B0EE681AF0EE490A21462148FFF736F93F
:104B3000022000F0D3F8641C042CE7DBA846D5F86B
:104B4000440101F039F806460F46D8F8CC0001F0D0
:104B500033F804460D46D8F8540001F02DF841EC26
:104B6000100B8DE8F00053EC102B12A1174800F049
:104B7000FBFB04B0BDEC048BBDE8F0815045002088
:104B80000000E2420000A24200003443DB0F49C0B3
:104B9000A0430020000031430000114300002743E0
:104BA00000000743666646400000864200000000A1
:104BB0001803002025342E3366202C25342E33662E
:104BC000202C25342E33660A0000000088030020C4
:104BD000FEF76CF9FFF714FBFFF7E2F9FFF79CF91A
:104BE000FFF756F9FFF776F9FFF708FAFFF75AFAD9
:104BF000FFF73CFA002205211420FEF7BBF9142030
:104C0000FEF7AAF9FFF7CEFE00F0C8FAFFF7AAF9FF
:104C100000F06BF8FEE701460020842900D0C81C94
:104C2000704700280BD0D0F8341600F58060B1F939
:104C3000021000EE101AB8EEC00A80EDC10A7047EB
:104C40003EB51F4A044607CA8DE80700FFF708FF74
:104C5000C4F8340640F284609FED1A0A9FED1A1AD8
:104C6000DFED1A0A0019F1EE0C1A11D0B0EE402A4D
:104C700080ED002AB0EE602A80ED012AC0ED021A14
:104C8000C0ED050AC0ED040A80ED071A80ED060AA2
:104C900004F5C760DFED0E0A9FED0E0A6A4600219B
:104CA0000546FFF73FFA2846FFF71CFA0A48FFF7C8
:104CB000B8FF04F5806494EDC10A84EDC20A3EBDDC
:104CC000705D00080060EA4600409C46000000005D
:104CD00000007A4500C05A466C45002010B500B966
:104CE000012000F039FC002010BD10B500F05AFC86
:104CF000002010BD7FB50D4604464169B0F908009B
:104D000081B1A16971B1FFF786FFD4E905128DE881
:104D10000700D4E900102B46226900F06CFD0390D7
:104D200004B070BDFFF777FF03A9CDE90001208A29
:104D30002B4682B2D4E9001000F030FD012801D0EA
:104D40000020EDE70398EBE72DE9F041184C0F4602
:104D50000546E6682068001D00F036FB38B920687B
:104D600090F82C1001208840216981432161681C42
:104D700007D137B12168BDE8F0410E48091D00F0A8
:104D800067BB20683544B5424560216805D2A06BF9
:104D9000BDE8F041091D00F043BB606B091D00F048
:104DA0003FFBA06A854200D2A562BDE8F081000009
:104DB0001C000020B40500202DE9F041054600F05C
:104DC00053FB2E4CA068401CA06020682C4F10B1F3
:104DD000606940B32DE02560A068012829D1002634
:104DE00006EB860007EB800000F00CFB761C072E1C
:104DF000F6D323488C3000F005FB2148A03000F0AA
:104E000001FB1F48B43000F0FDFA1D48C83000F027
:104E1000F9FA1B48DC3000F0F5FA19488C30606371
:104E20001430A06305E02068E96AC06A884200D8AF
:104E30002560606A401C6062E96A0120226988403E
:104E40001043206101EB810007EB8000291D00F079
:104E5000FFFA00F029FB606900280CD02068E96A9D
:104E6000C06A884207D207494FF080500860BFF3FC
:104E70004F8FBFF36F8FBDE8F08100001C00002052
:104E8000D804002004ED00E010B5044690F851006D
:104E900058B101280CD002280FD0502080F311887F
:104EA000BFF34F8FBFF36F8FFEE7206B00F010FB57
:104EB0002046BDE8104000F00BBB10BD10484FF479
:104EC0007051420706D0C01D0D4920F00700411A5D
:104ED000C1F570510B4A00230144C2E900030839AF
:104EE000183A21F0070111604B600B600B1AC0E902
:104EF000001393604FF00040536050617047000012
:104F0000C805002070000020144E154CA6F1C807FB
:104F10004FF08058DFF84C9012E000BF00F0A4FA88
:104F2000F068C568281D00F04FFAA068401EA06018
:104F30006068401E606000F0B7FA2846FFF7A4FFE3
:104F400060680028EAD138680128F9D9C9F80080DA
:104F5000BFF34F8FBFF36F8FF2E70000A005002073
:104F60001C00002004ED00E02DE9F0479A46DDE941
:104F7000098481466FF00303206B03EB8202104427
:104F8000089E20F00707780707D0502080F311888B
:104F9000BFF34F8FBFF36F8FFEE7002561B1002095
:104FA00023180A5C83F834200A5C12B1401C1028D4
:104FB000F6D384F8435001E084F83450072E00D330
:104FC0000626E662C4E91165201D00F026FA04F108
:104FD000180000F022FA2461C6F107006462A061A3
:104FE000E56484F8505052464946384600F0C0F80F
:104FF0002060B8F1000F01D0C8F80040BDE8F0878C
:1050000030B5114900E011460A688242FBD34B6873
:105010005C18844203D140681844486008464368DD
:105020001C18944209D1084C183C2468A24209D0AB
:1050300052681A4442600A6812680260814200D0D5
:10504000086030BD0460F9E7700000200648416B3D
:10505000096829B1416BC968C968496881627047AC
:105060004FF0FF31FAE700001C00002008484068BC
:10507000401C4FF0500080F3118804D0BFF34F8FD5
:10508000BFF36F8FFEE7BFF34F8FBFF36F8FFEE766
:10509000780000202DE9F0410546002700F0B8FA1D
:1050A000324E306808B9FFF709FF706905424ED1EA
:1050B000C5B3083568070ED005F00700C0F1080039
:1050C0000544680707D0502080F31188BFF34F8F45
:1050D000BFF36F8FFEE72DB37068854237D8234842
:1050E000183001460C6801E020460C466168A94270
:1050F00002D221680029F7D131688C4227D0076895
:105100002168016060680837411B10290FD96019B8
:10511000420708D0502080F31188BFF34F8FBFF3B0
:105120006F8FFEE713E041606560FFF769FF61681C
:105130007068401A7060B268904200D2B0607069C6
:1051400001430020C4E90001F068401CF06000F059
:10515000F1FB780707D0502080F31188BFF34F8F01
:10516000BFF36F8FFEE73846BDE8F081580000209E
:1051700010B5031F4FF080741C601B1F21F001014C
:105180001960191F044B0B6014390A60091F6FF076
:10519000020244380A6010BD6D5000080249242202
:1051A000A1F12400FEF7ECBFBE4C00202DE9F04138
:1051B0000C462DED028B00287ED09FED518B0025F3
:1051C000002C79D00178427841EA0221C1F30A012A
:1051D000218042788378D20842EA4312C2F30A0758
:1051E00067808278C378920942EA8302037942EAAF
:1051F0008322C2F30A06A68002794379520842EA62
:10520000C312C2F30A03E3804279C2F30112A2720D
:1052100042799209E272827990F807C042EA0C2240
:10522000A281027A90F809C042EA0C22E281827AD5
:1052300090F80BC042EA0C222282027BA274427BCD
:10524000E274827B90F80FC042EA0C22A282027CB8
:10525000407CA1F580612180A7F5806742EA0022A9
:105260006780A6F58066A680A3F58063E380A2F53B
:1052700080622281084600F0F7FB41EC100BFFF73B
:1052800038FB53EC182B51EC100B00F005FC00D24E
:105290002580B4F9020000F0E7FB41EC100BFFF7AA
:1052A00028FB53EC182B51EC100B00F0F5FB00D24F
:1052B0006580B4F9040000E01DE000F0D5FB41EC8E
:1052C000100BFFF716FB53EC182B51EC100B00F0F2
:1052D000E3FB00D2A580B4F9060000F0C5FB41EC69
:1052E000100BFFF706FB53EC182B51EC100B00F0E2
:1052F000D3FB00D2E580BDEC028BBDE8F08100005D
:1053000000000000000034401CB50F4A012311606A
:1053100000219160D16008211161FF218DF80010FA
:105320008DF801108DF804108DF802108DF805101D
:105330008DF803108DF80610FC218DF807106A46D1
:105340000149FCF7F8FD1CBD20450020FCF7BEFD1F
:105350000448FFF775FC00BFFFF786FB0220FFF74C
:10536000BDFCF9E76C4500200FB470B50A4C06AAE5
:1053700005462260A4F1080608480599FBF7A2F843
:1053800082B2064972800020206088542846FEF7C9
:1053900017FC70BC5DF814FB8C000020C842002094
:1053A00001EE100A70EEC00A0120B8EEC11A884062
:1053B000401E21EE201A00EE900AF8EEE01AC1EE2F
:1053C000210A30EE800A7047D0E9013201699A6003
:1053D000D0E901235A604A68824201D182684A605A
:1053E000002202610868401E0860086870470000DB
:1053F000034B036003F15400086080201060704785
:105400009C00002000F108014FF0FF32C0E90112BA
:10541000C160016100210160704700210161704796
:1054200030B50B685A1C02D000F1080202E0026994
:1054300004E02246546825689D42FAD953684B60BF
:1054400099608A60516008610168491C016030BD43
:1054500042684A6093688B60936859609160086104
:105460000168491C01607047502080F31188BFF328
:105470004F8FBFF36F8F0A494868401C486001286E
:105480000CD10848006810F0FF0F07D0502080F3BF
:105490001188BFF34F8FBFF36F8FFEE77047000097
:1054A0007800002004ED00E00849486828B1401E5B
:1054B000486001D180F311887047502080F3118833
:1054C000BFF34F8FBFF36F8FFEE70000780000201F
:1054D00070B500282AD0164DA0F1080460686969EB
:1054E000084207D1502080F31188BFF34F8FBFF3DC
:1054F0006F8FFEE722683AB1502080F31188BFF326
:105500004F8FBFF36F8FFEE78843606000F080F835
:1055100060686968084468602046FFF771FD286983
:10552000401C2861BDE8704000F004BA70BD000066
:10553000580000204FF0E020002101618161054901
:105540004FF47A720968B1FBF2F1491E41610721FB
:10555000016170471800002010B5020014D00F48F8
:10556000006B38B1502080F31188BFF34F8FBFF329
:105570006F8FFEE700F04CF800211046FFF7E4FBC8
:1055800000F0D8F9002807D105494FF08050086095
:10559000BFF34F8FBFF36F8F10BD00001C000020C2
:1055A00004ED00E010B586B00024039405AA04A918
:1055B00003A80494FFF71CFFDDE903010094CDE983
:1055C000011000230EA11048059A00F014F90F49AC
:1055D0000028C86211D0502080F31188BFF34F8F8C
:1055E000BFF36F8F4FF0FF30886201204861CC60BD
:1055F00006B0BDE8104000F041B806B010BD000094
:1056000049444C4500000000094F00081C000020E0
:105610000248016B491C0163704700001C00002018
:105620001448016B11B10121C16170470021C161B2
:105630000169B1FA81F1C1F11F0101EB81020E494B
:1056400051F822306BB101EB820101F108034A6885
:1056500052684A609A4201D152684A60D16801603A
:105660007047502080F31188BFF34F8FBFF36F8FC7
:10567000FEE700001C000020D80400201CB53748BD
:105680000168374A914207D1502080F31188BFF357
:105690004F8FBFF36F8FFEE700683149491E884284
:1056A00007D1502080F31188BFF34F8FBFF36F8F66
:1056B000FEE72C4908780190FF20087008788DF8E3
:1056C00000009DF800009DF8002000F0F0009042DE
:1056D00007D0502080F31188BFF34F8FBFF36F8F37
:1056E000FEE79DF80000204C00F0500020700720DD
:1056F000A06005E09DF8002052008DF80020401EBB
:105700009DF800201206F5D4A060032807D0502091
:1057100080F31188BFF34F8FBFF36F8FFEE74FF415
:105720004070A060019808700C482030016841F476
:1057300070010160016841F070410160FFF7FAFEFD
:1057400000206060FAF7EAFD0848016841F0404136
:105750000160FAF7CFFD00201CBD000000ED00E065
:1057600071C20F4100E400E07800002034EF00E057
:1057700010B5502080F31188BFF34F8FBFF36F8FA8
:1057800000F072F818B104494FF080500860002012
:1057900080F3118810BD000004ED00E02DE9FF5FEB
:1057A0008346DDE90E87994616468A469000FFF744
:1057B00071FC05001CD05420FFF76CFC040014D0D1
:1057C0000020256384F85100CDE90240CDE900872F
:1057D0004B46324651465846FFF7C6FB2046FFF778
:1057E000EBFA012004B0BDE8F09F2846FFF770FEF9
:1057F0004FF0FF30F6E7F0B585B0DDE90B640A9DA8
:10580000A6B1DCB1542700972663022684F85160C4
:10581000002604AFCDE90246CDE90057FFF7A4FB0F
:105820002046FFF7C9FA049805B0F0BD502080F378
:105830001188BFF34F8FBFF36F8FFEE7502080F3C7
:105840001188BFF34F8FBFF36F8FFEE705484169A3
:1058500019B1006B18B10020704701207047022079
:10586000704700001C0000202DE9F0412F4C00265D
:10587000206B28B1A069401CA0613046BDE8F081D2
:10588000E5686D1CE56013D1606B006838B150208D
:1058900080F31188BFF34F8FBFF36F8FFEE7606B0C
:1058A000A16B6163A063206A401C2062FFF7CEFBFE
:1058B000A06ADFF87C80854209D3606B0068A0B1E4
:1058C000606BC068C7687868854211D2A0622068A2
:1058D000C06A00EB800158F82100012800D9012698
:1058E000E0690028C9D00126C7E74FF0FF30EDE797
:1058F000381DFFF769FDB86A18B107F11800FFF706
:1059000063FDF96A0120226988401043206101EBA0
:10591000810108EB8100391DFFF79AFDF86A2168C3
:10592000C96A8842C9D30126C7E700001C000020CD
:10593000D80400202DE9F0472C4D00242746286B81
:1059400038B1FFF791FD286B401E2863286B40B1EA
:1059500046E0502080F31188BFF34F8FBFF36F8F65
:10596000FEE7A968224E0120D1B3A6F1B409804612
:105970003068E8B1F068C46804F11800FFF724FD4E
:10598000201DFFF721FDE06A2A6908FA00F11143A2
:10599000296100EB800109EB8100211DFFF758FD13
:1059A000E06A2968C96A8842E2D3C5F81C80DFE74B
:1059B0000CB1FFF74BFBAC6944B14646FFF754FF0F
:1059C00000B1EE61641EF9D10020A861E86938B128
:1059D0000849012738070860BFF34F8FBFF36F8F67
:1059E000FFF762FD3846BDE8F08700001C0000208C
:1059F0008C05002004ED00E010B500290AD00878DD
:105A0000002807D005487844FBF7E6FD002801D0C0
:105A1000002010BD0248784410BD0000A60400001C
:105A20009E04000010B500290AD00878002807D08D
:105A300005487844FBF7D0FD002801D0002010BDB8
:105A40000248784410BD0000960400008E04000057
:105A5000491058BFC1F140415B1058BFC3F14043EA
:105A60008B42EFF30080704710F0004248BF404285
:105A7000B0FA80F310FA03F10AD0C3F11D0303F565
:105A800080634FEA415002EB035202EBD121704791
:105A90004FF000007047000051EA030C17D41CF5CA
:105AA000801F58BFBCF5801F00F10680994218BFC7
:105AB000704708BF9042704707D711F5801F58BF45
:105AC00013F5801F19D499427047894270471CF51D
:105AD000801F08D5BCF5801FF7D58B4218BF7047D3
