:020000040800F2
:100000008089002029030008AB3000081D2B000860
:10001000A93000089F050008E15300080000000017
:10002000000000000000000000000000690200085D
:100030008D08000800000000C502000863340008B5
:100040004303000843030008430300084303000878
:100050004303000843030008430300084303000868
:100060004303000843030008430300084303000858
:10007000B1060008430300084303000843030008D7
:100080004303000843030008430300084303000838
:10009000E905000843030008430300084303000880
:1000A0004303000843030008430300084303000818
:1000B0004303000843030008430300084303000808
:1000C00043030008430300084303000843030008F8
:1000D000430300084303000843030008893800086D
:1000E00043030008430300084303000843030008D8
:1000F00043030008430300084303000843030008C8
:1001000043030008430300084303000843030008B7
:1001100043030008430300084303000843030008A7
:100120004303000843030008430300084303000897
:100130004303000843030008430300084303000887
:10014000F50500084303000843030008AD3000082C
:100150004303000843030008BD06000843030008EA
:100160004303000843030008430300084303000857
:100170004303000843030008430300080000000095
:10018000430300084303000800F002F800F05CF8A5
:100190000AA090E8000C82448344AAF10107DA45E2
:1001A00001D100F051F8AFF2090EBAE80F0013F0D8
:1001B000010F18BFFB1A43F001031847547F0000DA
:1001C000747F00000A444FF0000C10F8013B13F05C
:1001D000070408BF10F8014B1D1108BF10F8015BA0
:1001E000641E05D010F8016B641E01F8016BF9D193
:1001F00013F0080F1EBF10F8014BAD1C0C1B09D1EA
:100200006D1E58BF01F801CBFAD505E014F8016B5B
:1002100001F8016B6D1EF9D59142D6D370470000ED
:100220000023002400250026103A28BF78C1FBD8FF
:10023000520728BF30C148BF0B6070471FB507F099
:10024000BCFE1FBD10B510BD00F074F91146FFF7DC
:10025000F5FF06F0B9F800F092F903B4FFF7F2FFEA
:1002600003BC00F095F900002C4B19680868B0E851
:10027000F04F80F30988BFF36F8F4FF0000080F3D9
:10028000118870470000000008480068006880F38B
:1002900008884FF0000080F3148862B661B6BFF39F
:1002A0004F8FBFF36F8F00DF00BF00BF08ED00E08E
:1002B000DFF80C00016841F470010160704700BF75
:1002C00088ED00E0EFF30980BFF36F8F134B1A68DE
:1002D0001EF0100F08BF20ED108A20E9F04F1060CB
:1002E00009B44FF0500080F31188BFF34F8FBFF374
:1002F0006F8F06F03BFE4FF0000080F3118809BCC1
:1003000019680868B0E8F04F1EF0100F08BFB0EC95
:10031000108A80F30988BFF36F8F70472000002098
:10032000EFF30580704700000948804709480047FF
:10033000FEE7FEE7FEE7FEE7FEE7FEE7FEE7FEE795
:10034000FEE7FEE704480549054A064B70470000F2
:10035000113500088901000880690020808900208B
:10036000807900208079002053EA020C00F0698037
:100370002DE9F04B4FF00006002B1FBFB3FA83F5B9
:1003800003FA05F424FA05F65E4012BF1643B2FAEA
:1003900082F502FA05F4C5F120051EBF22FA05FC1C
:1003A00044EA0C04203556EA044C4FEA144418BFC2
:1003B000641C4FF000084FF00009904271EB030CF1
:1003C00039D3002919BFB1FA81F701FA07F6B0FA5B
:1003D00080F700FA07F6C7F120071EBF20FA07FCD6
:1003E00046EA0C062037B6FBF4FCA7EB0507103FE6
:1003F00007F01F0BCBF120060CFA0BFB2CFA06F6CC
:1004000044BFB3460026202FA4BF5E464FF0000B2A
:100410005BEA060C08BF4FF0010B19EB0B09ABFBB5
:10042000027C48EB0608C01B06FB02CC0BFB03CC8E
:1004300071EB0C01C1E70B46024641464846BDE858
:10044000F08B13B54FF000004FF00001AFF30080C8
:10045000BDE81C40704710B5203AC0F00B80B1E8F1
:100460001850203AA0E81850B1E81850A0E81850E9
:10047000BFF4F5AF5FEA027C24BFB1E81850A0E8F2
:10048000185044BF18C918C0BDE810405FEA827C0C
:1004900024BF51F8043B40F8043B08BF7047D20723
:1004A00028BF31F8023B48BF11F8012B28BF20F8C4
:1004B000023B48BF00F8012B70474FF0000200B527
:1004C000134694469646203922BFA0E80C50A0E877
:1004D0000C50B1F12001BFF4F7AF090728BFA0E825
:1004E0000C5048BF0CC05DF804EB890028BF40F8F1
:1004F000042B08BF704748BF20F8022B11F0804F33
:1005000018BF00F8012B704770477047704710B54F
:1005100000F008F8006810BD10B5044600F002F8BD
:10052000046010BD004870472069002000487047F3
:10053000206900207546FFF7F9FFAE4605006946C1
:10054000534620F00700854618B020B5FFF7FAFEA5
:10055000BDE820404FF000064FF000074FF00008C4
:100560004FF0000B21F00701AC46ACE8C009ACE845
:10057000C009ACE8C009ACE8C0098D46704710B5A9
:100580000446AFF300802046BDE81040FFF765BE8B
:1005900001491820ABBEFEE7260002007047FEE7C7
:1005A000F0B5DC7A9D7A9E7945EA04245D7A9F78DD
:1005B00045EA04241D7A45EA0424DD7946EA052546
:1005C0005E7946EA05251E7946EA0525DE7847EA82
:1005D00006265F781B7847EA062643EA062303606F
:1005E0000D601460F0BD0000014800F0D6BA0000B4
:1005F000DC030020014800F0D0BA00000404002011
:10060000002070470020704710B5002204490548BB
:1006100003F074FB0449034803F063FB002010BDA2
:100620001C5A0020404D00201C52002010B50446EA
:100630000146074803F055FB054803F02BFB054A2C
:100640002346111F081FFFF7ABFF002010BD00005D
:10065000404D0020D44C0020002070470F489FEDF3
:100660000E0A114C80ED000A9FED0D0A80ED010A83
:100670009FED0C0A80ED020A022005F091FFA07A9E
:100680000328F9D1207B0328F6D1084805F0E6FCC1
:10069000022005F085FFEFE70000A043CC4C0020CE
:1006A0000000704300000000C0440020DC03002074
:1006B000014800F073BD000064050020014800F00F
:1006C0006DBD00000405002001681823CAB2103A6D
:1006D000B2FBF3F2054B6FF30901032A9B5CC36580
:1006E00000D9091D81650846704700002480000874
:1006F00010B5014600208B698A6A4FF0C07453B16F
:10070000B3F5005F15D072B1012A0CD0022A0AD0CD
:10071000032A09D104E01AB1012A06D0022A03D122
:10072000C96AC90100D5012010BDC96AA142FAD029
:1007300010BD002AF7D0012AF2D0022AF3D0032AF2
:10074000F3D010BD70B500242DED048B4FF4FA7575
:100750000121414806F071FA284605F021FF0221E7
:100760003D4806F06AFA284605F01AFF03213A4888
:1007700006F063FA284605F013FF641C032CE7DB40
:100780009FED370A9FED351AF0EE400A05F08EFC1A
:10079000DFED341A9FED342A344CC0EE210A9FED70
:1007A000341A20EE820A84ED1A0A9FED320AF0EE26
:1007B000400A05F07BFCC0EE210A9FED2F1A20EEC7
:1007C000820A84ED380A9FED2D0AF0EE400A05F00A
:1007D0006DFCC0EE210A9FED2A8ADFED2A8A9FED8B
:1007E0002A9AF0EE481AB0EE681A01211A4820EE53
:1007F000820AB8EE002AF0EE490A84ED560A94ED1A
:100800001A0A02F059FA022005F0CAFE94ED380ADD
:10081000B8EE002AF0EE481AB0EE681AF0EE490A77
:1008200002210D4802F048FA022005F0B9FE94EDCD
:10083000560AB8EE002AF0EE481AB0EE681AF0EE4A
:10084000490A0321044802F037FABDEC048B022068
:10085000BDE8704005F0A4BE040400200000E242A0
:100860000000A24200003443DB0F49C010430020C7
:1008700000003143000011430000274300000843FB
:10088000666646400000864200000000704772B66F
:10089000FEE710EE102A10EE901A0270130A437051
:1008A000130C8370120EC27001710A0A42710A0C95
:1008B0008271090EC171704790F82020012A07D07B
:1008C000022A05D0416A41F480214162012070472B
:1008D000006842690A43426100207047F0B590F811
:1008E00020500468A468012D05D0022D03D0416A70
:1008F00041F480214DE014F0406F01D1E50045D571
:10090000C4F301640125A5401D608D684FF4C073D8
:100910009DB1CE6835434E6845EAC605066803EBCF
:100920000417F5514FF4C275076805EB04150E69FD
:100930007E51097D012905D009E00E88CD6845EA80
:100940004655EBE701684E5946F480764E511179D1
:10095000D2F805504FF4C67641EA0521056806EB4A
:100960000416A9511178D2F801204FF4C47541EA58
:100970000221026805EB04155151006803EB0411D4
:10098000425842F0010242500020F0BD416A41F459
:10099000001141620120F0BD10B590F82020012A1D
:1009A00007D0022A05D0416A41F48021416201202A
:1009B00010BD3B48D0F8002242F00102C0F80022EE
:1009C000D0F8002222F47C52C0F80022D0F8002295
:1009D0004B6A42EA0322C0F800220A7D02F01F039C
:1009E00001229A40D0F81C329343C0F81C32CB69E4
:1009F000B3B9D0F80C329343C0F80C328C894B68F1
:100A000064F31F434C6900EBC404C4F840320C8902
:100A10000B6864F31F434C6900EBC404C4F8443210
:100A2000CB69012B16D1D0F80C321343C0F80C322D
:100A30000C884B6864F31F434C6900EBC404C4F892
:100A400040320C89CB6864F31F434C6900EBC4044B
:100A5000C4F844328B69002BD0F804320ED0134313
:100A6000C0F804320B69002BD0F8143208D01343BD
:100A7000C0F81432096A012904D008E09343EFE773
:100A80009343F5E7D0F81C121143C0F81C12D0F8BC
:100A9000001221F00101C0F80012002010BD00007A
:100AA00000640040704770B590F82040012C05D0DC
:100AB000022C03D0416A41F4802128E0046809B384
:100AC0002469A40720D04FF4D874056804EB0114FE
:100AD0002D5915F00405956005682D591AD0ED08BB
:100AE000556005682C5904F00204D4604FF4DA74A0
:100AF000056804EB01142E5906F00F06082E0CD3DE
:100B000008250DE0E468DCE7416A41F40011416228
:100B1000012070BD6D0D1560E3E72D5905F00F053F
:100B2000156105682D59C5F30725956105682C5990
:100B3000240C54614FF4DC72046802EB0112A458D7
:100B40001C700468A458240A5C700468A458240C1F
:100B50009C700468A258120EDA704FF4DE720468BA
:100B600002EB0112A4581C710468A458240A5C7199
:100B70000468A458240C9C710468A258120EDA71FF
:100B8000006829B1016941F020010161002070BDB8
:100B9000C16841F02001C160F8E72DE9F05F05462A
:100BA000006800244669D0F804908768D0F80CB03B
:100BB000D0F810A0D0F81880F10748D0F90714D069
:100BC00001218160B80703D5284600F0E0FA0CE067
:100BD000780702D54FF4006407E0380702D54FF4D8
:100BE000805402E0284600F0D1FAF80516D52968AD
:100BF0004FF480708860B80503D5284600F0C9FA24
:100C00000CE0780502D544F4005407E0380502D51D
:100C100044F4804402E0284600F0BAFAF80316D5FE
:100C200029684FF480308860B80303D5284600F067
:100C3000B2FA0CE0780302D544F4004407E038032C
:100C400002D544F4803402E0284600F0A3FA3007CD
:100C500007D55FEACB6004D52968102044F40074FE
:100C6000C86070074FF0080707D55FEA0B7004D51E
:100C70002868C760284600F093F9B00706D52868B1
:100C8000C068800702D0284600F08CF9700607D5AE
:100C90005FEACA6004D52968102044F480640861C2
:100CA000B00607D55FEA0A7004D5286807612846B0
:100CB00000F03CFAF00606D528680069800702D0EB
:100CC000284600F034FAB00308D55FEAC96005D5BC
:100CD000296810204860284600F02AFAF00307D55A
:100CE0005FEA097004D528684760284600F054FA86
:100CF000300446D55FEA497040D5F00504D55FEA77
:100D0000C87001D044F00104B00504D55FEA8870D2
:100D100001D544F00204700504D55FEA487001D59E
:100D200044F00404300529D518F0700F26D008F0DF
:100D30007000402815D006DC102809D020280AD0E1
:100D4000302816D10AE050280ED0602811D10EE0CC
:100D500044F008040DE044F010040AE044F02004DC
:100D600007E044F0400404E044F0800401E044F46F
:100D700080742868816921F07001816129680420EC
:100D80004860002C05D0686A204368622846FFF757
:100D900089FEBDE8F09F70B5040003D094F82000F0
:100DA00010B104E0012070BD204600F081F82068F9
:100DB000016841F00101016000F03AFC054605269A
:100DC00004E000F035FC401B0A2811D82068406878
:100DD000C007F6D02068016821F00201016000F030
:100DE00027FC05460BE000F023FC401B0A2806D92F
:100DF000606A40F40030606284F82060D2E72068C6
:100E000040688007EFD4207E0128206801683DD02B
:100E100021F080010160607E01282068016838D0DF
:100E200021F040010160A07E01282068016833D0D4
:100E300021F020010160E07E0128206801682ED0A9
:100E400041F010010160207F01282068016829D04D
:100E500021F008010160607F01282068016824D02A
:100E600021F004010160D4E902010843D4E904122D
:100E7000114308436168491E08432168C861002086
:100E80006062012084F82000002070BD41F08001E4
:100E9000C0E741F04001C5E741F02001CAE721F079
:100EA0001001CFE741F00801D4E741F00401D9E790
:100EB000F0B587B0044614216846FFF7FEFA334BBD
:100EC0003348DFF8C4E01968D4F800C0304A03257D
:100ED0000226092710300024491CF4451DD1196051
:100EE000012907D1016841F000710160006800F03C
:100EF00000700590106840F0080010601068CDE99F
:100F0000005600F00800CDE9047069462148CDE99B
:100F1000024500F08FFA07B0F0BDDFF87CE0F44541
:100F2000F9D1D0F800C04CF0806CC0F800C0D0F807
:100F300000C001290CF0806CCDF814C0196007D1F5
:100F4000016841F000710160006800F000700590D8
:100F5000106840F002001060106802AB00F0020060
:100F600005906020CDE9000683E8B00069460B4893
:100F700000F060FA00220521402000F0CBFB402069
:100F800000F0BAFBC7E70000006400400C0000203E
:100F900030380240000C024000680040000402406B
:100FA0007047000010B504462DED028B94B0006828
:100FB0005649884244D10BAB0DAA00212046FFF7C9
:100FC00072FD0D98A0F50070053805D05049FC2839
:100FD0001BD0FD2834D129E04E49042008704E482A
:100FE0000246038D02F128011386BDF82C2052BA67
:100FF0000285BDF82E0040BA4880BDF8300040BAE6
:1010000088809DF8320088711AE0BDF82C0040BA43
:101010000880BDF82E0040BA4880BDF8300040BAC4
:101020008880BDF8320040BAC88009E0BDF82C00C5
:1010300040BA08819DF82E0088729DF82F00087331
:101040003649206888422CD102AB04AA00213448DA
:10105000FFF729FD304804991038DFED328A9FED03
:10106000328A00F1580411291FD0122935D01329D2
:1010700017D18168491C81609DF8080002A900F021
:101080000F00C4F8F00004F1F00001F065FD94EDEC
:10109000430A84ED4B0AC0EE280A20EE880A84ED4C
:1010A000510A14B0BDEC028B10BD0168491C0160EF
:1010B0009DF8080002A900F00F0020601648483093
:1010C00001F04AFD94ED070A84ED0F0AC0EE280AEC
:1010D00020EE880A84ED150AE3E74168491C416067
:1010E0009DF8080002A900F00F00A0670A48C03070
:1010F00001F032FD94ED250A84ED2D0AC0EE280A98
:1011000020EE880A84ED330ACBE70000006400403B
:10111000C044002088000020C84200200068004031
:1011200004040020DB0F494000003443704770473F
:101130007047000070B5044690F82000012804D0E4
:10114000606A40F40020606218E0022084F8200009
:101150002068016821F00101016000F069FA05468C
:101160000EE000BF00F064FA401B0A2808D9606A4C
:1011700040F400306062052084F82000012070BD3A
:1011800020684068C007EDD1606270BD704770474D
:101190007047704770477047704700002DE9F8436B
:1011A00004464FF00009CDF8009063484FF4165103
:1011B000A56D0068B0FBF1F72E6894F85C1008206C
:1011C00000FA01F131420FD021680A6852070BD5AD
:1011D0000A6822F004020A6094F85C108840A86053
:1011E000606D40F00100606594F85C104FF00108FC
:1011F00008FA01F0304208D021684969090604D58F
:10120000A860606D40F00200606594F85C100420F6
:101210008840304208D021680968890704D5A86051
:10122000606D40F00400606594F85C101020884008
:10123000304218D021680968090714D5A8602068D1
:101240000168490304D50068000308D5A16C07E0D4
:101250000168C90503D4016821F008010160216C0F
:1012600009B12046884794F85C102020884030421D
:1012700031D021680968C9062DD5A86094F83500D9
:1012800005282068016806D0490347D50068000397
:101290001DD4616C1CE021F01601016020684169D9
:1012A00021F080014161206C08B9A06C20B1206858
:1012B000016821F00801016094F85C103F2088402B
:1012C000A86084F8358084F83490216D1FE0E16BCC
:1012D00009B120468847606D00282BD0606DC0079B
:1012E00014D0052084F835002068016821F0010140
:1012F00001600098401C0090B84203D82068006844
:10130000C007F6D184F8358084F83490E16C002968
:1013100010D001B02046BDE8F04308470168C90578
:10132000D5D4016821F01001016084F8358084F87B
:101330003490CCE7BDE8F8831C0000202DE9F04193
:10134000044600F075F906465CB1022084F83500C9
:10135000002584F834502068016821F00101016003
:101360000DE00120BDE8F08100F062F9801B052846
:1013700005D920206065032084F83500F2E7206855
:101380000068C007F0D12268116820480140D4E904
:1013900001031843D4E90336334318436369184300
:1013A000A3691843E3691843236A18430843616A31
:1013B000042903D1D4E90B131943084310602068B2
:1013C0004069666A20F0070130460E430127042871
:1013D0000CD1A06A0643E06A40B12046FFF788F9C5
:1013E00020B14020606584F83570BAE72068466116
:1013F0002046FFF769F994F85C203F219140816015
:10140000656584F835700020ACE700003F8010F07F
:1014100070B5044600F00CF90546601C02D0044883
:101420000078044400F004F9401BA042FAD370BDD8
:10143000100000202DE9F84FDFF8BCA100220125A3
:1014400003264FF00F090AF1040BAAF1040E00BFA6
:101450000B6805FA02F42340A34270D10F7907F01C
:101460000307012F01D0022F16D187684FEA4208E7
:1014700006FA08FC27EA0C07D1F80CC00CFA08FCA5
:101480004CEA070CC0F808C04768A7430C79C4F3BE
:10149000001494403C4344600C79E443A4070AD010
:1014A000C4684FEA420C06FA0CF7BC438F6807FA8F
:1014B0000CF72743C7600C7904F00304022C12D107
:1014C000D40800EB840CDCF820405707FF0E09FA23
:1014D00007F824EA0804D1F8108008FA07F848EA67
:1014E0000408CCF8208004684FEA420C06FA0CF796
:1014F000BC430F7907F0030707FA0CF7274307608F
:101500004C6814F4403F70D03C4C276847F4804747
:101510002760246822F0030704F480440094384CC8
:1015200007EB040CDCF8084897074FEA177809FA2C
:1015300008F7BC43334FB84202D1002724E054E0FF
:10154000314FB84201D101271EE0304FB84201D1DE
:10155000022719E02E4FB84201D1032714E02D4F86
:10156000B84201D104270FE02B4FB84201D1052723
:101570000AE02A4FB84201D1062705E0284FB842B9
:1015800001D1072700E0082707FA08F72743CCF81E
:101590000878DAF800405746D1F804C09C435FEA67
:1015A000CC2C00D51C433C60DBF800405F46D1F8F2
:1015B00004C09C435FEA8C2C00D51C433C60DEF8E1
:1015C00000407746D1F804C09C435FEA8C3C00D5CC
:1015D0001C433C60084F083F3C68D1F804C09C4362
:1015E0005FEACC3C00D51C433C60521C102AFFF43F
:1015F0002FAFBDE8F88F0000083C0140443802409E
:101600000030014000000240000402400008024097
:10161000000C02400010024000140240001802407A
:10162000001C02400AB1816170470904FBE7000019
:10163000014880687047000010000020024881685F
:101640000278114481607047100000200B4810B5EB
:10165000016841F400710160016841F4806101603A
:10166000016841F480710160032000F073F80F20DD
:1016700000F006F800F024F8002010BD003C024005
:1016800070B50D4D04464FF47A712878B1FBF0F037
:101690000A490968B1FBF0F001F030F848B9102CA4
:1016A00007D200222146501E00F034F800206C6062
:1016B00070BD012070BD0000100000201C00002043
:1016C0000C4882B0016841F480410160006800F478
:1016D000804000900748001F016841F08051016080
:1016E0000068002200F0805000900F21901E02B090
:1016F00000F010B844380240002809DB00F01F0257
:10170000012191404009800000F1E020C0F8001163
:1017100070470000F0B40E4B1B680C46C3F3022365
:10172000C3F10705042D00D90425191D072901D28D
:10173000002300E0DB1E012606FA05F1491E2140C8
:1017400099409E40761E16403143F0BC03F061BEC6
:101750000CED00E0064900F0070208684FF6FF03B1
:10176000184040EA0220034A104308607047000016
:101770000CED00E00000FA057047006841620020AF
:101780007047F0B50368586A39B19C6A4FF48276A5
:1017900000EB144400204D1E0AE040EA024098622B
:1017A0000FE006EB8007DF59401C04EB1744C0B282
:1017B000A842F6D344EA02404FF4807202EB810162
:1017C00058500020F0BDD0F8E00402F06DBD01EBF0
:1017D000C10200EB8202D0F8E004126A02F0C2BC3F
:1017E00001EBC10200EB8202D0F8E004D2F86022E3
:1017F00002F013BDD0F8E00402F058BD0A0601F073
:101800000F0101EBC10100EB810101D5143101E0B1
:1018100001F51571006803F031BC70B504460B0684
:1018200001F00F0000EBC00104EB81014FF0010259
:101830004FF0000502D54A75143103E081F8555286
:1018400001F51571087094F89404012808D084F803
:101850009424206803F030F984F89454002070BD7B
:10186000022070BD70B5044601F00F00227990424D
:1018700001D9012070BD0B0601F00F0101EBC10180
:1018800004EB81014FF001024FF0000502D54A75CB
:10189000143103E081F8555201F515718D7008700F
:1018A00094F89404012808D084F89424206803F064
:1018B00075FA84F89454002070BD022070BD01F0C8
:1018C0000F0101EBC10100EB8100D0F86802704705
:1018D0002DE9F04104460F0601F00F0000EBC001B6
:1018E00004EB81014FF001064FF0000502D54E7563
:1018F000143103E081F8555201F5157108708A60C2
:101900000B714A7802B14883022B00D14D7194F8D3
:101910009404012809D084F89464206803F01EF828
:10192000284684F89454BDE8F0810220FBE710B506
:1019300001F00F0404EBC40100EB8101C1E998231D
:101940000023C1F8683281F8553281F85442837916
:1019500001F51571012B00D1CA618279006803F08D
:1019600075FA002010BD70B504460D4601F00F0059
:101970002179884201D9012070BD29064FF0000667
:101980004FF0010206D500EBC00104EB81014A755E
:10199000143107E005EBC50104EB810181F85562C4
:1019A00001F515718A70087094F89404012807D025
:1019B00084F89424206803F01DFA280702D007E079
:1019C000022070BDA17904F29C42206803F0BAF9AC
:1019D00084F89464002070BD10B501F00F0404EB8E
:1019E000C40100EB8101C1E9082300238B620123BC
:1019F0004B7501F8144F8379012B00D1CA618279AC
:101A0000006803F023FA002010BD00002DE9FC5F00
:101A100005680446284603F0CDFB00287DD12068E8
:101A200003F0F4FB002878D0D5F80808C0F30D20A7
:101A3000C4F8D404206803F0E9FB800704D52068CB
:101A4000416901F002014161206803F0DFFBC1063A
:101A500004F29C40009034D52068816921F0100187
:101A600081612F6A07F00F0000EBC00004EB8006D5
:101A7000C7F3434006F51576022802D0062811D098
:101A80001AE047F6F070074216D0C7F30A1217465D
:101A90002846F16803F0BEFBF0683844F0607069D6
:101AA000384408E008222846009903F0B3FB706927
:101AB000C7F30A11084470612068816941F0100180
:101AC0008161206803F0A2FB00034FF0080B4FF088
:101AD000000A4FF001097CD50026206803F075FB51
:101AE000074674E0F80770D0F1B2206803F086FB77
:101AF0008046C00707D005EB4611C1F8089B314668
:101B0000204601F0D9FA5FEA087024D505EB4611AA
:101B1000C1F808BB2068016C00E023E200EB46102E
:101B20000191D0F8082BFB4B994205D9110403D53C
:101B30004FF40041C0F8081B204600F0F6FAF549C2
:101B40000198884207D9A079012804D12068012191
:101B5000009A03F0F7F85FEAC86004D505EB461178
:101B60001020C1F8080B5FEA88701DD5686900066F
:101B700005D5D5F8040840F48061C5F8041806EBD3
:101B8000C60004EB800090F8571200F5157001298B
:101B900005D180F803A0F1B2204600F0E9F905EB89
:101BA00046110220C1F8080B5FEA886004D505EBF6
:101BB00046102021C0F8081B5FEA884005D505EBD8
:101BC00046104FF40051C0F8081B7F08761C002F08
:101BD00088D1206803F01AFB40036ED5206803F01B
:101BE000EDFA0746002666E0F80762D0F1B22068F9
:101BF00003F0F2FA8046C00723D006F00F01D5F8B3
:101C0000342809FA01F18A43C5F8342805EB461156
:101C1000C1F80899A07901280FD106EBC60004EBA2
:101C20008000D0E907211144016236B9606A20B909
:101C300020680121009A03F085F8F1B22046FFF7F1
:101C4000C6FD5FEA087003D505EB4611C1F808B977
:101C50005FEAC86004D505EB46111020C1F80809F9
:101C60005FEA486004D505EB46104021C0F808192A
:101C70005FEA887016D53146284603F070FA06EB05
:101C8000C60004EB8000C17D1430012905D180F825
:101C900003A0F1B2204600F067F905EB46110220DF
:101CA000C1F808095FEA086003D53146204601F013
:101CB00069FA7F08761C002F96D1206803F0A6FAF7
:101CC000002811DAD5F8040820F00101C5F804183D
:101CD00094F8CC0401282BD0204600F00BFA2068A1
:101CE000416901F000414161206803F08FFA00056D
:101CF0000BD5D5F80808C00702D0204600F03EFA00
:101D00002068416901F400614161206803F07EFAB6
:101D1000C00467D5D5F8040820F00100C5F8040810
:101D20001021206803F01BFA00214FF67F3220E0DB
:101D300084F8CCA400212046FFF71EFDCFE700BFAA
:101D400005EB4110C0F80829D0F8003923F400133E
:101D5000C0F80039C0F8082BD0F8003B23F400137A
:101D6000C0F8003BD0F8003B43F00063C0F8003BF4
:101D7000491C20798842E3D8D5F81C0840F00111AD
:101D8000C5F81C18E07B002828460DD0D0F8840840
:101D900040F00B01C5F88418D5F8440840F00B0159
:101DA0002846C5F844180DE0D0F8140842F22B017B
:101DB0000843C5F81408D5F8100840F00B01284670
:101DC000C5F81018D0F8000820F4FE61C5F8001816
:101DD000A1792068009A02F0B5FF2068416901F4FA
:101DE00080514161206803F011FA800415D5206804
:101DF00002F0F4FD206803F0D0F9E07100F070FA11
:101E00000146E279206803F063FA204600F05CF9AD
:101E10002068416901F400514161206803F0F6F93E
:101E2000000707D5204600F069F92068416901F0F4
:101E300008014161206803F0E9F9000616D5A86998
:101E400020F08001A96101260DE000BF06EBC6006D
:101E500004EB800090F85702012803D1F1B220462C
:101E6000FFF7CCFC761C2079B042EFD8206803F055
:101E7000CDF9C0021FD501264F4614E005EB4610F0
:101E8000D0F8001906EBC60004EB8002107E012892
:101E900008D1002906DAF0B240F08001D77520465B
:101EA000FFF7ACFC761C2079B042E7D82068416986
:101EB00001F480114161206803F0A8F9800234D553
:101EC00001204A4629E000BF05EB4011D1F8001B74
:101ED00000EBC00304EB830393F85862012E1BD17F
:101EE000002919DA94F8D46401F4803106F001066F
:101EF000B14211D183F85722A96941F08003AB6147
:101F00006969090608D4D5F8040840F40070C5F8DA
:101F1000040805E00A30544F401C21798142D3D88F
:101F20002068416901F400114161206803F06EF9F5
:101F3000400007D52046FFF746FC2068416901F0C4
:101F400080414161206803F061F940070AD52068AB
:101F50004568680702D52046FFF74CFC20684168B9
:101F600029434160BDE8FC9FD0F8E00402F0F1B9DC
:101F7000D0F8E00402F001BAF8B5040005D094F8F6
:101F800095042668002510B106E00120F8BD84F80C
:101F90009454204600F056F8032084F89504B6F1D6
:101FA000A04F00D1A571206802F0C6FE207C8DF8FC
:101FB000000094E80F0002F01FFD0226B8BB0021CC
:101FC000206803F046F990BB002001270DE000BF18
:101FD00000EBC00104EB81014F750875C8850D76D3
:101FE000CD610D62401CC0B24D6221798142EFD8B3
:101FF000002011E000EBC00104EB810181F8555293
:1020000081F8540281F85852C1F85C52C1F860520C
:10201000401CC0B2C1F8645221798142EAD8207CC8
:102020008DF8000094E80F0002F0C8FD10B184F8AC
:102030009564AAE7657484F89574206802F0B0FD91
:102040000020F8BD10B586B0044614216846FEF79E
:1020500034FA2068B0F1A04F2FD11948002102684E
:1020600042F001020260006800F0010005904FF4A8
:10207000C05000900220CDE90101032003900A2006
:10208000049069460F48FFF7D5F90D48001D016817
:1020900041F0800101600A481430016841F4804138
:1020A00001600068002200F4804005900521432073
:1020B000FFF730FB4320FFF71FFB06B010BD000009
:1020C000303802400000024070B50446C079012556
:1020D00070B1022801D0FEF7DAFB2946D4F8E004FB
:1020E00002F0B9F9D4F8E004BDE8704002F06EB92E
:1020F0000025F2E7D0F8E00402F096B9D0F8E00449
:1021000002F09CB910B5044690F8940401280AD056
:10211000012084F894046174206803F0C8F800205A
:1021200084F8940410BD022010BDD0F8E02400F221
:102130009C41104602F09BB910B50446006894F823
:102140009414012909D0012184F89414C168490626
:1021500009D5617B012902D005E0022010BD816B09
:1021600041F480318163206802F0D7FF206802F0DB
:1021700009FD002084F8940410BD000010B5044649
:10218000D0F8E00402F0B5F92068D0F8001E41F064
:102190000101C0F8001EE07A002804D0024801685E
:1021A00041F00601016010BD10ED00E02DE9F0479F
:1021B0000E46050065D0DFF81481D8F80000F7B2AC
:1021C00000F00700B04207D288F80070D8F800008D
:1021D00000F00700B04254D128683D4C810712D569
:1021E000400703D5206840F4E050206028780007BD
:1021F00003D5206840F4604020602068A96820F082
:10220000F000084320602878C0072DD03049686866
:102210000839012812D0022813D0032811D00968E8
:10222000890700292DDA216821F00301014321608B
:10223000FFF7FEF9814641F2883A0EE0096889030A
:10224000EFE709688901ECE7FFF7F2F9A0EB090174
:10225000514502D90320BDE8F0872068696800F085
:102260000C00B0EB810FEFD1D8F80010404601F020
:102270000701B14207D90770006800F00700B042BB
:1022800001D00120E7E72878400705D52068E968F4
:1022900020F4E050084320602878000706D5206825
:1022A000296920F4604040EAC100206000F03EF857
:1022B0002168084AC1F30311515CC840064908600F
:1022C00006480068FFF7DCF90020C4E7003C024044
:1022D000083802402C8000081C0000201400002058
:1022E00001480068704700001C00002004480549B0
:1022F00000680968044AC1F38221515CC8407047F4
:102300001C000020083802403C80000804480549B1
:1023100000680968044AC1F34231515CC840704703
:102320001C000020083802403C800008154810B509
:10233000006810F00C02144813D01449042A0FD07E
:10234000082A0ED10F4C241F2268236802F03F0296
:102350005B0207D52068C0F38810A0FB010106E0EE
:10236000084610BD2168C1F38811A1FB00010023BC
:10237000FDF7FAFF2168C1F30141491C4900B0FB98
:10238000F1F010BD083802400024F400001BB70033
:102390002DE9F84F04006ED02078DFF84C93C00789
:1023A000A9F104054AD009F104000168C1F38101D3
:1023B000012908D00068C0F3810002280AD1D9F8A9
:1023C0000000400206D52868800337D560680028E1
:1023D000E1D033E06068B0F5803F10D0B0F5A02FB9
:1023E000286810D020F480302860286820F48020ED
:1023F00028606068A8B1FFF71BF906460DE0286861
:1024000040F48030F4E740F480202860F7E700BF14
:10241000FFF70EF9801B642873D828688003F7D56E
:102420000CE0FFF705F9064605E000BFFFF700F9ED
:10243000801B6428F0D828688003F7D42078DFF860
:10244000AC8280074FF0000A3ED5A748001D016806
:1024500011F00C0F08D00068C0F3810002280BD1E6
:10246000D9F80000400207D42868800716D5E06834
:10247000012800D112E033E1E068B8B10120C8F8CA
:102480000000FFF7D5F8064605E000BFFFF7D0F8DB
:10249000801B0228C0D828688007F7D528682169E2
:1024A00020F0F80040EAC10028600DE0C8F800A064
:1024B000FFF7BEF8064604E0FFF7BAF8801B0228D3
:1024C0001FD828688007F7D42078000722D5864FC8
:1024D00087486169703771B101210160FFF7A8F881
:1024E000064604E0FFF7A4F8801B022809D83868E4
:1024F0008007F7D50EE0C0F800A0FFF799F8064670
:1025000005E082E0FFF794F8801B02287DD8386848
:102510008007F7D42078400768D5DFF8CCB10027D2
:102520000BF13C0BDBF80000C0000BD4DBF8001013
:1025300041F08051CBF80010DBF80000012700F0DB
:10254000805000906B4E3068C00510D4306840F465
:1025500080703060FFF76CF8009005E0FFF768F8D6
:102560000099401A022850D83068C005F6D55E4E52
:10257000A0686C3601280FD00528306810D020F0F4
:1025800001003060306820F004003060A068B8B10D
:10259000FFF74EF800900FE0306840F00100F4E7DC
:1025A00040F004003060F7E7FFF742F80099411A65
:1025B00041F28830814266D830688007F4D50EE059
:1025C000FFF736F8009007E0FFF732F80099411A5C
:1025D00041F28830814256D830688007F4D42FB158
:1025E000DBF8001021F08051CBF80010A069C8B3CF
:1025F0003D49091D0968C1F3810102294AD0022819
:10260000504607D0C8F8600000E03CE0FFF710F843
:1026100004463BE04746C8F86000FFF709F8064665
:1026200005E000BFFFF704F8801B02282BD82868BC
:102630008001F7D4D4E907010843A16A2E4A49086A
:1026400002EB0141626A41EA8211084394F82C10BE
:1026500040EA0161C9F8001001203866FEF7E8FF82
:10266000044606E03EE000BFFEF7E2FF001B022842
:1026700009D828688001F7D534E000BFFEF7D8FFFD
:10268000001B022802D90320BDE8F88F28688001CA
:10269000F4D427E00128F7D0D9F80000E26900F46B
:1026A000800191421CD1226A00F03F01914217D172
:1026B00047F6C071626A0140B1EB821F10D1A26A75
:1026C0004FF0FF3300F4403103EB5202B1EB024F05
:1026D00006D194F82C1000F07060B0EB016F01D0BF
:1026E0000120D1E70020CFE7043802400000474234
:1026F000800E4742007000400000FFFF10B5401EF2
:10270000B0F1807F01D3012010BD4FF0E024606163
:102710000F21601702F07DFE0020A06107202061DC
:10272000002010BD70B590F83C20012A32D0012461
:1027300080F83C40022280F83D2003685A689D687A
:1027400022F070060A6832435A60134B02689A42BC
:1027500014D0B2F1804F11D0104B9A420ED0104BD2
:102760009A420BD00F4B9A4208D00F4B9A4205D099
:102770000E4B9A4202D00E4B9A4204D1496825F082
:1027800080031943916080F83D40002180F83C109F
:10279000084670BD022070BD0000014000040040EA
:1027A00000080040000C00400004014000400140CF
:1027B0000018004010B586B0044614216846FDF7A5
:1027C0007CFE0E492068884215D10D480021026820
:1027D00042F008020260006800F0080005904FF423
:1027E000805000900220CDE90101CDE90310694637
:1027F0000448FEF71FFE06B010BD000000080040B0
:1028000030380240000C024070B5044690F83C009D
:1028100000260D4601280FD0012084F83C006AB143
:10282000042A1DD0082A2FD00C2A3FD001260020D0
:1028300084F83C00304670BD022070BD206800F076
:10284000DBFE2068816941F00801816120688169AF
:1028500021F004018161206881692A69114311E036
:10286000206800F0F9FE2068816941F4006181610F
:102870002068816921F480618161206881692A6909
:1028800041EA02218161D2E7206800F01BFF206845
:10289000C16941F00801C1612068C16921F00401EA
:1028A000C1612068C1692A69114311E0206800F004
:1028B0003DFF2068C16941F40061C1612068C169C0
:1028C00021F48061C1612068C1692A6941EA02215D
:1028D000C161ACE710B5040003D094F83D0010B11D
:1028E00007E0012010BD002084F83C00204600F0E5
:1028F0001FF8022084F83D00211D206800F010FE22
:10290000012084F8460084F83E0084F83F0084F8F3
:10291000400084F8410084F8420084F8430084F8C1
:10292000440084F8450084F83D00002010BD0000FC
:1029300008B500680649884208D10648016841F098
:1029400004010160006800F00400009008BD000070
:10295000000800404038024070B5040004D094F8EC
:102960004100002510B106E0012070BD84F8405000
:10297000204600F023F8242084F841002068C16834
:1029800021F40051C160204600F0F8FE2068016982
:1029900021F4904101612068416921F02A014161DF
:1029A0002068C16841F40051C1606564202084F84A
:1029B000410084F842006563002070BD2DE9F04FAE
:1029C00087B0064614216846FDF777FD4A4B31680B
:1029D00000244A480225032207274FF000694FF4DC
:1029E000806A4FF4403B994246D1444914310B6808
:1029F00043F010030B60096801F0100105910168B4
:102A000041F002010160016801F0020105910168D5
:102A100041F0010101600068CDE9024200F00100CF
:102A200005908020CDE9000590466946049734481A
:102A3000FEF700FD2802CDE90005CDE90248694610
:102A400004973048FEF7F6FC304D2F48E5E80209C0
:102A50004020A5E811042D4845F81449AC61C5E9AA
:102A6000074B6C62FEF76AFC08B1FDF710FFB56317
:102A7000AE6307B0BDE8F08F254B9942F9D11F49ED
:102A800010310B6843F480230B60096801F4802146
:102A90000591016841F0040101600068CDE902423E
:102AA00000F0040005904FF44060CDE90005694650
:102AB00004971848FEF7BEFC144D1748603528608F
:102AC000C5E90194C5E9034A80156C61C5E9064072
:102AD000C5E908B42846FEF731FC08B1FDF7D7FE7A
:102AE000F563002205212720AE63FEF713FE2720A1
:102AF000FEF702FEBDE70000001001403038024042
:102B00000004024000000240B864024004050020B6
:102B1000004800400008024028600240FEE7000034
:102B2000F0B500230A24302537261F4611E000BFE8
:102B3000B4EB107F02D905EB107C01E006EB107CB2
:102B400001F813C001EB430C00015B1C8CF8017011
:102B5000DBB29342ECD3F0BD2DE9F0410446B1F86D
:102B600001000D4646BA0879497900F00F0041EAA4
:102B700000272068012824D12878102100096060EE
:102B8000F2EE090ABAEE090A304604F0AFF884ED15
:102B9000070A0C21F3EE0C0ABBEE0C0A384604F0CF
:102BA000A5F884ED090AA87900EE100AB8EE400AEB
:102BB00084ED0D0AE87900EE100AB8EE400A84EDC3
:102BC0000E0A2068022824D12878102100096060AC
:102BD000F2EE090ABAEE090A304604F087F884EDED
:102BE000070A0C21F3EE0C0ABBEE0C0A384604F07F
:102BF0007DF884ED090AA87900EE100AB8EE400AC3
:102C000084ED0D0AE87900EE100AB8EE400A84ED72
:102C10000E0A2068032824D128781021000960605A
:102C2000F2EE090ABAEE090A304604F05FF884EDC4
:102C3000070A0C21F3EE0C0ABBEE0C0A384604F02E
:102C400055F884ED090AA87900EE100AB8EE400A9A
:102C500084ED0D0AE87900EE100AB8EE400A84ED22
:102C60000E0A2068042824D1287810210009606009
:102C7000F2EE090ABAEE090A304604F037F884ED9C
:102C8000070A0C21F3EE0C0ABBEE0C0A384604F0DE
:102C90002DF884ED090AA87900EE100AB8EE400A72
:102CA00084ED0D0AE87900EE100AB8EE400A84EDD2
:102CB0000E0ABDE8F0810000F0B50C462DED048B46
:102CC000F0EE609AF0EE400A83B0B0EE428AF0EE89
:102CD000618AB0EE419A0546BAEE090A02F01AFE80
:102CE000F2EE090A02F03AFE1020B2EE091AFAEEEC
:102CF000090A03F0EBF907460C20B2EE041AFAEECB
:102D0000040AB0EE690A03F0E1F9DFED262A06466F
:102D10000C209FED231AF0EE620AB0EE490A03F090
:102D2000D5F903460C20B1EE041AF0EE620AB0EEBB
:102D3000680A03F0CBF902460C20B3EE0C1AFBEE46
:102D40000C0AB0EE480A03F0C1F917490C600024E0
:102D50008C60CC6008240C61390A8DF800108DF865
:102D6000017031098DF80210310141EA13218DF80B
:102D700003108DF8043011098DF80510110141EA96
:102D800010218DF806108DF8070001236A460649C8
:102D90002846FDF7A3FD03B0BDEC048BF0BD000099
:102DA0000000FA4300000000A84400200F4810B5BE
:102DB0000D4901600321416000214FF41022816020
:102DC000C0E903124FF40012426101764176817628
:102DD000C17601774177FDF7DEFF002803D0BDE81B
:102DE0001040FDF754BD10BD00640040DC0300201E
:102DF000104810B50E4901600321416000214FF4D5
:102E000010228160C0E903124FF400124261017682
:102E1000012242768176C17601774177FDF7BBFFCB
:102E2000002803D0BDE81040FDF731BD10BD000003
:102E30000068004004040020114808B5016841F40E
:102E400000110160016801F400110091016841F472
:102E5000800101600068002200F4800000900521DC
:102E60000C20FEF757FC0C20FEF746FC0022052143
:102E70004620FEF74FFCBDE808404620FEF73CBC6C
:102E80003038024010B596B01C2211496846FDF753
:102E9000E2FA0021684603F08FFB0E4C0C491C221D
:102EA00020601C3107A8FDF7D6FA002107A803F01F
:102EB00083FB074960601C2238310EA8FDF7CBFA6E
:102EC00000210EA803F078FBA06016B010BD000032
:102ED000D07F00080000002030B587B0142168467C
:102EE000FDF7EBFA20480024016841F0020101607F
:102EF000016801F002010591016841F001010160E2
:102F0000016801F001010591016841F008010160CB
:102F1000016801F008010591016841F004010160B8
:102F2000016801F004010591016841F08001016030
:102F300000680E4D00F0800001220590D102284665
:102F4000FEF770FB002229152846FEF76BFB4FF4B5
:102F5000406000900120CDE90104694628460394B1
:102F6000FEF768FA07B030BD30380240001C02405E
:102F700010B58AB0002407941C2168460894FDF718
:102F80009CFA16481449C0E900144FF6FF71C0E9D5
:102F9000024104618461FFF79DFC08B1FDF777FCF5
:102FA000079407A90D480894FFF7BCFB08B1FDF78B
:102FB0006EFC6020CDE900040294002269460748B7
:102FC0000494FFF721FC08B1FDF761FC0348FFF70B
:102FD000F1FB0AB010BD0000000800402C040020E6
:102FE0000C4810B50A4901604FF4E13141600021FD
:102FF00081600C22C160C0E904128161C161FFF7E8
:10300000ABFC002803D0BDE81040FDF740BC10BD6C
:1030100000100140740400200C4810B50A490160FA
:103020000B494160002181600C22C160C0E904129B
:103030008161C161FFF790FC002803D0BDE810401A
:10304000FDF725BC10BD000000480040BC04002076
:10305000A086010010B500220F49104801F05DF86C
:1030600008B1FDF714FC0E490C4801F06EFA08B1E6
:10307000FDF70DFC0B49094800F028FE08B1FDF7EB
:1030800006FC064801F0E4FA002803D0BDE8104031
:10309000FDF7FDBB10BD000094000020404D002056
:1030A00050010020E4000020FEE7FEE70148FEF7A3
:1030B000ADBC00003C6400202DE9F04103680D46E2
:1030C00004461E6C03EB4511D1F8080B94F806E09A
:1030D0004FF400474FF0200C04F29C42BEF1010F68
:1030E00009D0DFF898E0764539D1020432D500BF27
:1030F000C1F8087B3FE0224B5FEA007E04D59E4288
:1031000039D90004F4D436E05FEA806E02D5C1F804
:1031100008CB30E010F0280F2DD19E4201D90004D9
:10312000E6D405EBC50004EB8000D1F8101BD0F805
:103130007432C1F31201591AC0F8681200F5157003
:10314000ADB903691BB1C2681144C1600FE0012130
:1031500020680AE080060AD5C1F808CB07E035B937
:10316000D4F8640218B90021184601F0EBFDE9B269
:103170002046FEF735FB0020BDE8F0810A31544FB0
:103180000A30544F2DE9F84F0E4601EBC60100EB13
:10319000810481460568D4E909101434884202D9B3
:1031A0000120BDE8F88F081AA168814200D20846C4
:1031B000C01C870805EB46181BE000BFA0EB010A06
:1031C000A068504500D282460AF10300870899F8AA
:1031D000060000901FFA8AF3F2B22846E16802F076
:1031E000EBF8E16801EB0A00E060616901EB0A00BD
:1031F0006061D8F8180980B2B84205D3D4E9040157
:10320000814201D20028D9D1D4E90401884208D8EA
:1032100006F00F0101208840D5F834188143C5F825
:1032200034180020BDE70000A0B1D0ED101AC0EDA9
:10323000111A90ED0F1A80ED101AC0ED060A80EDFC
:10324000070A30EEC00A80ED0F0A017829B1012982
:103250003BD078E09FED3D0A7047D0ED010A60EE6B
:10326000801AC0ED091AD0ED0A0A90ED022A42EE4A
:10327000000A30EE410AC0ED0A0A90ED0D2A80EDF9
:103280000E2A90ED0C2A80ED0D2A80ED0C0A90EDAF
:10329000031A21EE001A80ED0B1A90ED050AF4EEE8
:1032A000C00AF1EE10FA09DCB1EE400AF4EEC00AF1
:1032B000F1EE10FA02D390ED0A0A01E080ED0A0A5D
:1032C00031EE800A30EE010A2BE070EE410A90EDFB
:1032D000012A20EE822A80ED092AD0ED020A60EE52
:1032E000800AC0ED0A0AD0ED0D2A72EE200AC0ED68
:1032F0000E2AD0ED0C2AC0ED0D2AF0EE002A01EEC8
:10330000620A30EE210A80ED0C0A90ED031A21EEDC
:10331000000A80ED0B0A30EE800AD0ED080A30EE8C
:10332000200A80ED080AD0ED040AB4EEE00AF1EEBE
:1033300010FA06DCF1EE600AB4EEE00AF1EE10FAE3
:1033400001D2C0ED080A90ED080A704700000000A5
:10335000002819D09FED0D0A80ED110A80ED100AAA
:1033600080ED0F0A80ED0E0A80ED0D0A80ED0C0A4B
:1033700080ED0B0A80ED0A0A80ED090A80ED080A4B
:1033800080ED060A80ED070A70470000000000008B
:10339000002828D0002A26D0017092ED001A80ED76
:1033A000011A92ED011A80ED021A92ED021A80EDD7
:1033B000031A80ED040A9FED0C0AC0ED050A80EDAA
:1033C0000E0A80ED0D0A80ED0C0A80ED080A80EDF2
:1033D0000B0A80ED0A0A80ED090A80ED110A80EDE2
:1033E000100A80ED0F0A70470000000030B5144B42
:1033F0001C68656945F0400565611B68DC6844F040
:103400001004DC600F4B1C68256825F00105256061
:103410001C682568ED07F7D11D680B4CAC601C6873
:10342000E06018680161186842601868016841F43A
:10343000802101601868016841F00101016030BD20
:10344000BC04002064050020044800400178407856
:1034500041EA00207047FFF7FDFD012003F0A0F8CE
:10346000FBE710B5FEF7EAF803F096FE012803D05B
:10347000BDE8104003F022BE10BD000030B593B08F
:1034800030216846FDF719F814210CA8FDF715F84E
:103490001D480025016841F080510160006800F07E
:1034A000805011901948016841F480410160006822
:1034B000022400F48040119001200090000401904B
:1034C0008001CDE9064006200890A820CDE9090436
:1034D00007200B906846FEF75BFF08B172B6FEE767
:1034E0000CA90F2081E831004FF4A0500F904FF449
:1034F0008050109005210CA8FEF758FE002801D03E
:1035000072B6FEE713B030BD403802400070004094
:103510000248016841F470010160704788ED00E0E5
:10352000F0B50268294C2A4D2A4E2B4F2B4B4FF0F9
:10353000804CA04209D0604507D0A84205D0B042D7
:1035400003D0B84201D0984204D122F0700E4A68EC
:1035500042EA0E02A0421BD0604519D0A84217D003
:10356000B04215D0B84213D0984211D01C4DA84299
:103570000ED01C4DA8420BD01B4DA84208D01B4DAD
:10358000A84205D01A4DA84202D01A4DA84203D134
:1035900022F44075CA682A434D6922F080022A430A
:1035A00002608A68C2620A688262A04201D09842C0
:1035B00001D109690163012141610169C90703D092
:1035C000016921F001010161F0BD0000000001402E
:1035D0000004004000080040000C004000040140CE
:1035E00000400140004401400048014000180040F4
:1035F000001C004000200040F0B5036A026A22F07F
:103600000102026242688469124E24F073050C685C
:103610002C4323F002058B682B430D4DA84201D0AB
:10362000B04205D123F00807CB683B4323F00403E5
:10363000A84201D0B04205D14D6922F44072154331
:103640008A692A4342608461496841630362F0BD2C
:103650000000014000040140F0B5026A036A23F053
:1036600010030362436884690D6824F4E64444EA65
:1036700005248D6822F0200242EA05120F4D104EFB
:10368000A84201D0B04206D1CF6822F0800242EABF
:10369000071222F04002A84201D0B04207D14D6982
:1036A00023F4406343EA85038D6943EA850343605D
:1036B0008461496881630262F0BD0000000001403E
:1036C00000040140F0B5026A036A23F480730362C8
:1036D0004368C46922F4007224F073050C68124E2A
:1036E0002C438D6842EA05220E4DA84201D0B0421B
:1036F00006D1CF6822F4006242EA072222F48062F7
:10370000A84201D0B04207D14D6923F4405343EAA7
:1037100005138D6943EA05134360C4614968C163B9
:103720000262F0BD000001400004014030B5046AAF
:10373000026A22F4805202624268C3690D6823F46F
:10374000E64343EA05238D6824F4005444EA053433
:10375000084DA84202D0084DA84204D14D6922F478
:10376000804242EA85124260C36149680164046292
:1037700030BD0000000001400004014070B5044667
:1037800000680169E26821F4405111430161216937
:10379000A068E26908436169114308432168CA6867
:1037A00049F20C639A430243CA6020684169A269E6
:1037B00021F440711143416131492068884202D0AF
:1037C0003049884202D1FEF7A1FD01E0FEF78EFDEF
:1037D000E2690023192164253226B2F5004F6268A0
:1037E00028D0A0FB0101930F9200FCF7BDFD01461C
:1037F000B0FBF5F06FF01802504301EB800006EBD0
:103800000010B0FBF5F000F0F002B1FBF5F002EBB8
:103810000012B1FBF5F06FF01803584301EB800084
:1038200006EB0010B0FBF5F000F00F00216810442B
:10383000886070BDA0FB010192185B41FCF794FD0C
:103840000146B0FBF5F00201B1FBF5F06FF0180393
:10385000584301EB800006EBC000B0FBF5F000F030
:10386000F80002EB4002B1FBF5F0584301EB800099
:1038700006EBC000B0FBF5F000F00700D6E7000053
:103880000010014000140140264818B40068016887
:10389000890604D501684068009018BC7047224929
:1038A0000968C906F9D501684068204A0090106887
:1038B00001684FF024030C031D49046824F001043F
:1038C000046016D410684468C4F12404A4B20C80C7
:1038D00043601068016841F40021016010680168CC
:1038E00041F001010160122CD7D1124901F11600FB
:1038F00015E014686068C0F1240080B2088063603D
:103900000D498B6A23F400238B6211680A6842F028
:1039100001020A601228C0D1064901F13A0018BC20
:1039200003F0A6B8BC040020004800406405002055
:10393000920000206C4C0020006002402DE9F04114
:103940000C46D0F8D412D0F8C82200EB8101D1F88F
:10395000C01229B304F00F0606EB860300EB8305C3
:103960000027AB694BB106EBC60602EB8602D269B3
:10397000B3FBF2F602FB1632A2B1C1F81472D0F812
:10398000D42200EB8200D0F8C40203692BB1D1F835
:103990000802224601F5047198470020BDE8F08135
:1039A0000320FBE700231A462146AF6100F0AEFD7D
:1039B000F3E770B50546D0F8D40205EB8000D0F8E7
:1039C000C04294B1284600F080FCC4F80C02D5F83F
:1039D000D412D4F8040205EB8101D1F8C412CA68EC
:1039E00004F503719047002070BD032070BD0000F6
:1039F00070B5224D0446297800F0ABFB28780026EC
:103A000000F00F0000EB800004EB800086846978F2
:103A1000204600F09EFB687800F00F0000EB80006D
:103A200004EB8000A0F86461A978204600F091FBC7
:103A3000A87800F00F0000EB800004EB8000868483
:103A4000C684D4F8D40204EB8000D0F8C01299B137
:103A5000D0F8C40240688047D4F8D40204EB800058
:103A6000D0F8C00200F075FFD4F8D40204EB800057
:103A7000C0F8C062C4F8BC62002070BDFC00002029
:103A800010B5D0F8D41200EB8100D0F8C04284B158
:103A9000D0F8C41259B194F80002FF2807D08B68FF
:103AA00094F8012221469847FF2084F80002002064
:103AB00010BD032010BD00000A210180004870479E
:103AC0000001002070B5064682210C4800F0D1FAB2
:103AD00005460121094800F0CCFA04468121074837
:103AE00000F0C7FA0DB11021A971402104B1A180E5
:103AF00000B1818043203080004870BD0C0100205F
:103B000070B5064682210D4800F0B3FA0546012142
:103B10000A4800F0AEFA04468121084800F0A9FAEC
:103B20000DB11021A9714FF4007104B1A18000B151
:103B3000818043203080014870BD00000C010020CE
:103B400070B5064682210C4800F093FA0546012123
:103B5000094800F08EFA04468121074800F089FAEE
:103B60000DB11021A971402104B1A18000B1818063
:103B700043203080004870BD0C0100202DE9F04743
:103B800004464FF40775284600F0E4FE06004FF0A7
:103B9000000863D02946FCF790FCD4F8D4023C4DD1
:103BA00004EB80004FF01009C0F8C062C4F8BC629A
:103BB000207C4FF4007A0127F0B3402302222978B9
:103BC000204600F0EEFB2878402300F00F0000EBC9
:103BD000800004EB8000878402226978204600F090
:103BE000E0FB6878082300F00F0000EB800004EB96
:103BF00080000322A0F86471A978204601F00F012B
:103C000001EB810104EB8101A1F82690A97800F075
:103C1000C8FBA87800F00F0000EB800004EB8000E8
:103C20008784C6F80482D4F8D402474604EB8000A7
:103C3000D0F8C402006800E018E006F5017680477D
:103C40003761776132687AB1207CF8B140236978B6
:103C5000204600F0B2FB0020BDE8F087D4F8D41273
:103C600004EB8101C1F8C0820220F5E7534602222D
:103C70002978204600F095FB2878534600F00F0085
:103C800000EB800004EB80008784A5E75346DEE765
:103C9000FC00002010B5D0F8D41200EB8101D1F85F
:103CA000C01259B1027C084C002AD1F8042207D076
:103CB0004023617800F081FB002010BD032010BD7F
:103CC0004FF40073F5E70000FC00002039B1D0F894
:103CD000D42200EB8200C0F8C412002070470320F9
:103CE0007047D0F8D42200EB8200D0F8C00218B19F
:103CF000C0F804120020704703207047D0F8D43277
:103D000000EB8300D0F8C00228B1C0F81022C0F840
:103D1000081200207047032070472DE9FC41064639
:103D2000D0F8D4020C4606EB80000021D0F8C07217
:103D30008DF80010ADF804100D4637B1217811F060
:103D400060022FD0202A4BD102E00320BDE8FC8185
:103D5000E288F2B109060DD5D0F8C402637839467D
:103D6000D0F808C01846E047E288072A00D90722A1
:103D700039462DE0607887F80002E088402800D3BB
:103D80004020C2B287F801223946304600F058F888
:103D90002BE0D0F8C40263780022866821461846DA
:103DA000B04722E0607830B101281ED00A2809D03F
:103DB0000B2815D110E096F89C02032810D102229E
:103DC00001A905E096F89C02032809D10122694661
:103DD000304600F04FF808E096F89C02032804D023
:103DE0002146304600F021F803252846AEE710B5FD
:103DF000D0F8B82200245268904700B1032420462E
:103E000010BD0020704700207047134610B50A46C9
:103E1000002100F0D2FA002010BD134610B50A466A
:103E2000002100F073FB002010BD10B50446802176
:103E300000F04DFB2046BDE81040002100F047BBDC
:103E400010B50323C0F89432C0F858211346C0F8C7
:103E50005C210A46002100F0B0FA002010BD10B528
:103E60000521C0F8941200231A46194600F0A5FA5D
:103E7000002010BD10B50223C0F8943282611346B1
:103E8000C2610A46002100F041FB002010BD10B5C0
:103E90000421C0F8941200231A46194600F036FB9C
:103EA000002010BD10B50A46024903A000F005F934
:103EB000004810BD1C50002043444320436F6E66F1
:103EC000696700001220088000487047B400002095
:103ED00010B50A46024903A000F0EFF8004810BDF3
:103EE0001C50002043444320496E74657266616330
:103EF000650000000420088000487047B0000020E2
:103F000010B50A46024903A000F0D7F8004810BDDA
:103F10001C50002053544D6963726F656C65637467
:103F2000726F6E696373000010B50A46024903A000
:103F300000F0C3F8004810BD1C50002053544D330E
:103F400032205669727475616C20436F6D506F72C8
:103F50007400000010B51A2008800A480168001D8E
:103F60000468001D0068081809D008220649FEF7F9
:103F7000D7FD0549042210312046FEF7D1FD024845
:103F8000801E10BD107AFF1FCA000020F8B504463D
:103F90000020ADF8000048880D46010A08295FD2CC
:103FA000DFE801F05E0409175E5E3C45D4F8B41208
:103FB000207C0A6819E0207C02260028D4F8B80288
:103FC00005D0C16A684688470146467039E0816A73
:103FD000F8E7C0B2062843D2DFE800F0030A101465
:103FE000181CD4F8B402426805E0694690471CE00A
:103FF000D4F8B402826892B3207CF6E7D4F8B40215
:10400000C268F8E7D4F8B4020269F4E7D4F8B4025D
:104010004269F0E7D4F8B4028269ECE7207CF0B999
:10402000D4F8B802416B68468847014609E0207C15
:10403000A8B9D4F8B802016B684688470146072042
:104040004870EA888AB1BDF8000040B1824200D9C8
:104050000246ADF800202046FFF70CFFF8BDFFE751
:1040600029462046FFF7E1FEF8E72046FFF70FFF5D
:10407000F4E778B50E4642880178002504468A4266
:1040800012D9ADF800100AE0694600F00FF8417847
:10409000052904D181780546B14205D00025618803
:1040A000BDF800209142EFD8284678BD0A880378F1
:1040B0001A440A8001780844704770B5002300282C
:1040C0001ED00025044602E06D1CEDB2641C26786B
:1040D000002EF9D1022404EB450414801278CA544E
:1040E0005B1C0322CA5400245B1C06E0CA545B1C00
:1040F000DAB28C54521CD3B2401C0278002AF5D19B
:1041000070BD01004FF0000004D0012901D0022948
:1041100001D0032070470120704778B10023C0F818
:10412000B832C0F8C432C0F8D03209B1C0F8B41205
:10413000012180F89C12027000F0CCB80320704777
:1041400010B5D0F8C802FDF78DFBBDE81040FFF7B1
:10415000D8BF10B5D0F8C802FDF75FFBBDE810402E
:10416000FFF7CFBF2DE9F04117460446002521B1E6
:1041700094F89C02032842D04CE0D4F8941204F145
:104180001400022935D1D0E902639E4206D9F21A01
:10419000826039462046FFF740FE0FE0B34214D15B
:1041A0004068984211D3D4F8981288420DD2002268
:1041B00011462046FFF731FEC4F8985200231A46F4
:1041C0001946204600F0F9F813E094F89C02032801
:1041D00008D1D4F8B802C16821B1C4F8D452C1687A
:1041E000204688478021204600F071F92046FFF7DD
:1041F00036FE94F8A00268B184F8A0520AE0D4F820
:10420000B802426932B1C4F8D4524269204690479C
:10421000002800D10020BDE8F08170B513460446A7
:10422000002221B194F89C02032830D03AE0D4F85F
:10423000941204F5AA70032934D1D0E902518D42B9
:104240000AD96A1A82600846824200D30246194699
:104250002046FFF7DAFD25E094F8AA0210F01F00CF
:1042600003D0012802D0022800D0002294F89C023A
:10427000032808D1D4F8B802016921B1C4F8D422C6
:104280000169204688472046FFF701FE0AE0D4F87E
:10429000B802836933B1C4F8D422826920469047BA
:1042A000002800D1002070BD0020704710B5002408
:1042B000012180F89C12D0F8B82222B1526801790D
:1042C000904700B10324204610BDD0F8C802FDF786
:1042D000F6BA000010B5017839BB15490222C1F8C1
:1042E000E004C0F8C8124FF0A04008600420087134
:1042F000CA71002088714A728872C8720873887304
:10430000C8730846FDF738FE08B1FCF7C0FA8021F3
:104310000748FDF732FA402200210548FDF731FA3F
:10432000802201210248FDF72CFA002010BD000078
:104330003C6400200A0601F07F01D0F8C80201EBBE
:10434000C10100EB810001D5807D704790F85602D5
:10435000704710B5D0F8D42200EB8202D2F8B82210
:1043600022B190F89C32032B02D004E0032010BD50
:10437000126A02B19047002010BD10B5D0F8D422C7
:1043800000EB8202D2F8B82222B190F89C32032BC3
:1043900002D004E0032010BD526A02B19047002011
:1043A00010BD10B51C461346D0F8C8022246FDF7D2
:1043B0008FFABDE81040FFF7A4BE10B5D0F8C802D0
:1043C000FDF7B5FABDE81040FFF79BBE2DE9F041BF
:1043D00000260125044680F89C52C4F89462666069
:1043E000C4F8A46280F8A062D0F8B80230B1426884
:1043F00022B100212046904700B10326002240232D
:1044000011462046FFF7CDFF4027A4F864513B46F4
:10441000002280212046C4F86071FFF7C2FFA58406
:1044200030462762BDE8F08190F89C12042903D140
:1044300090F89D1280F89C120020704710B590F8FB
:104440009C12032905D1D0F8B81211B1C96901B184
:104450008847002010BD01740020704710B5D0F8C7
:10446000C802FDF74FFEBDE81040FFF74ABE70B529
:10447000044600F2AA20054600F051F80120C4F8D5
:104480009402B4F8B002C4F8980294F8AA0210F0AA
:104490001F010AD001290ED0022912D000F080019C
:1044A0002046BDE8704000F012B829462046BDE81D
:1044B000704000F0CFB829462046BDE8704000F0BB
:1044C0000FBA29462046BDE8704000F059B910B532
:1044D000D0F8C802FDF747FABDE81040FFF711BE5B
:1044E00010B5D0F8C802FDF727FEBDE81040FFF771
:1044F00008BE90F89C12042903D090F89C1280F812
:104500009D12042180F89C120020704710B5D0F84D
:10451000C802FDF761FABDE81040FFF7F2BD70B5C3
:10452000054611F8010B2870087868704C1C20466D
:10453000FEF78CFF6880A41C2046FEF787FFA8804A
:10454000A01CFEF783FFE88070BD38B5044600204C
:10455000ADF80000A1B1C4F8B812D4F8D40204EB4D
:104560008000D0F8B802C16A19B168468847C4F81B
:10457000D002D4F8D802401CC4F8D802002038BDBC
:10458000032038BD02460020D2F8B832002B02D0FA
:104590001B681046184770472DE9F04188462B4E9E
:1045A0008978002504463170012906D94146204604
:1045B000FFF73BFC0320BDE8F08194F89C02022742
:1045C00002280CD003281DD041462046FFF72DFCC1
:1045D00031782046FFF70BFC03252846EBE789B32B
:1045E00020466160FFF7CEFF050004D0414620461B
:1045F000FFF71BFC1DE02046FFF749FC032084F871
:104600009C02EAE7C1B1606888421BD0C1B2204673
:10461000FFF7EDFB317820466160FFF7B3FF05003F
:1046200010D041462046FFF700FC21792046FFF7D5
:10463000DEFB84F89C72D0E784F89C7220466160AF
:10464000FFF7D5FB2046FFF722FCC6E7F800002065
:10465000FFF746BF2DE9F0410A78002512F060020D
:104660000CD0202A01D0402A7DD1D0F8D42200EBF2
:104670008202D2F8B8229268904731E04B7800224B
:1046800001260A2B6FD2DFE803F041666E586E08F0
:10469000056E2D29FFF77AFC67E004468888D8B9B3
:1046A000C888C8B94888802816D200F07F0794F8D7
:1046B0009C02032810D084F89E7239462046FFF7EA
:1046C000CDFE2046FFF7E3FB1FB1022084F89C02D9
:1046D0004BE084F89C6248E0204644E0FFF75CFF32
:1046E000054642E0CB88012B3DD190F89C32012B4E
:1046F00004D0022B02D0032B35D104E082600122CA
:1047000000F1080116E00122011D13E090F89C223F
:10471000012A03D0022A01D0032A24D1CA88022AFE
:1047200021D1C660D0F8A41209B10321C1600222D0
:1047300000F10C01FFF79EFB17E04A88012A02D026
:10474000022A03D00FE0C0F8A46216E08988090AA3
:1047500080F8A01211E090F89C32012B08D0022BB7
:1047600006D0032B04D0FFF760FB2846BDE8F0819C
:1047700049880129F9D1C0F8A422FFF788FBF4E7A2
:104780002DE9F041054608780C790E464FF00008F7
:1047900010F060000BD0202801D040286AD12146BB
:1047A0002846FFF72EFBFF2800D0D8B395E070789D
:1047B000C8B3012824D003285CD195F89C020228B4
:1047C00002D0032856D10CE0002C53D0802C51D0BD
:1047D00021462846FFF77BFE80212846FFF777FE1B
:1047E0007BE0708840B93CB1802C05D0C88818B9EE
:1047F00021462846FFF76BFE2846FFF748FB6CE092
:1048000095F89C020228DFD0032863D1708880BB12
:10481000600603D021462846FFF792FC2846FFF7A2
:1048200036FBBCE700E00AE0C5F8D402D5F8B802D0
:104830008268F2B131462846904780464DE095F8AF
:104840009C020027022802D0032843D113E00CB1B8
:10485000802C3FD1200604F07F0000EB800005EBA8
:10486000800101D5143101E001F5AA7102220F6027
:104870002CE032E02EE0200604F00F0000EB800078
:1048800005EB800009D5808C20B304F07F0000EB9D
:10489000800005EB800614360AE0B0F86401C8B168
:1048A00004F07F0000EB800005EB800606F5AA7699
:1048B0004CB1802C07D021462846FFF73BFD10B1B4
:1048C0000120306000E03760022231462846FFF7C1
:1048D000D1FA02E02846FFF7A8FA4046BDE8F08189
:1048E00070B50546087800240E4610F0600003D02D
:1048F000202801D0402827D195F89C02012803D018
:10490000022801D003281FD1B088C1B201291AD8CA
:10491000C1B22846FFF777FAFF280CD058B9D5F86E
:10492000B8128A683AB1C5F8D4028A683146284676
:104930009047044600E00324F088204307D128462E
:10494000FFF7A5FA03E031462846FFF76EFA204646
:1049500070BD7047004870471C62002070B50A782F
:10496000012302F00F054E78AB401B4CD0F81C58C9
:10497000012E17D045EA0343C0F81C3800EB421063
:10498000D0F8002B12040BD4D0F8002B0B89097936
:10499000C3F30A031A4344EA81410A43C0F8002BD7
:1049A000002070BD9BB21D43C0F81C5800EB4210A4
:1049B000D0F800391B04F3D4D0F800390D890979F7
:1049C000C5F30A0589042B4341EA82510B43234373
:1049D000C0F80039E4E7000000800010D0F80019AA
:1049E0006FF30A01C0F80019D0F8041841F480717F
:1049F000C0F804180020704770B50D460446C2F395
:104A0000072104981E4601291BD0E06840F04000B1
:104A1000E060204600F032F8C6F307210029A16BC0
:104A200026D021F48031A163C5F30741012907D1C4
:104A3000A16841F00601A160A16841F02001A160D8
:104A400070BDA16B21F48031A163E1680A4A114075
:104A5000E160E16821F44011E160C0B2012803D1B6
:104A6000E06840F48010E060204600F007F8DBE7E3
:104A700041F48031D7E70000BFFFBDFF08B500213A
:104A80004FF070620091009B5B1C009393420CD826
:104A90000369002BF7DA0091016941F0010101611E
:104AA0000099491C0091914201D9032008BD016978
:104AB000C907F5D1002008BD30B54C780A7801232C
:104AC00000EB4212012C2CD0D2F8004B002C0BDA58
:104AD000D2F8004B44F00064C2F8004BD2F8004B0F
:104AE00044F08044C2F8004BD0F83C580C7804F0F5
:104AF0000F0403FA04F425EA0444C0F83C48D0F853
:104B00001C48097801F00F018B4024EA0341C0F8EA
:104B10001C18D2F8000B19490840C2F8000B0020FD
:104B200030BDD2F80049002C0BDAD2F8004944F02D
:104B30000064C2F80049D2F8004944F08044C2F849
:104B40000049D0F83C480D7805F00F0503FA05F54B
:104B5000ADB2AC43C0F83C48D0F81C48097801F02D
:104B60000F018B4099B28C43C0F81C48D2F8000961
:104B700003490840C2F80009D1E700000078F3EFCC
:104B8000007833ECD0F8001E21F00301C0F8001EBD
:104B9000D0F8041821F00201C0F804180020704772
:104BA000D0F8001E21F00301C0F8001ED0F8041850
:104BB00041F00201C0F80418002070472DE9F04FC1
:104BC00000250E46044617462846294604EB800277
:104BD000C2F80411401C0F28F8D3C3F307405FEA62
:104BE0000009204616D0806B20F40012A263A06B4F
:104BF00040F40022A263084688462146C4F8000E0D
:104C0000C7F30720012817D00846D1F8001841F053
:104C1000030118E0D0F8040840F00202C4F80428A8
:104C2000A06B40F40012A263A06B20F40022A263E8
:104C3000A06B20F48022DDE7300E0846D1F8001882
:104C400001D041F00101C0F80018102100F087FAEE
:104C500000B10125204600F066FA00B1012540466A
:104C6000C4F81088C4F81488C4F81C8800214FF0D8
:104C7000006B4FF0904E4FF67F3AF2B215E000BF56
:104C800004EB4113D3F800C9BCF1000F06DA11B1EF
:104C9000C3F800E904E0C4F800B901E0C3F8000972
:104CA000C3F81009C3F808A9491C8A42E8D80021B2
:104CB00015E000BF04EB4113D3F800CBBCF1000FAB
:104CC00006DA11B1C3F800EB04E0C4F800BB01E060
:104CD000C3F8000BC3F8100BC3F808AB491C8A4299
:104CE000E8D8D4F8101821F48072C4F81028A06114
:104CF0006FF080406061C6F3074018B9A06940F0CA
:104D00001000A061A0690A490843A061C7F30740E9
:104D100018B1A06940F00800A061B9F1010F03D1FA
:104D2000A06904490843A0612846BDE8F08F00004F
:104D300000383C8004000040816821F0010181605E
:104D40000020704710B5036C134CA34203D9D0F870
:104D5000003B002B1EDB0023C0F8103BD0F8103BBB
:104D600043F40023C0F8103BD0F8103B43F0180385
:104D7000C0F8103BD0F8103B43F0C043C0F8103BE4
:104D8000012907D1C0F8142BD0F8001B41F0802175
:104D9000C0F8001B002010BD0A30544F4A780B7831
:104DA000012A00EB43100BD0D0F8002B22F40012A4
:104DB000C0F8002B0979032914D0022912D017E07A
:104DC000D0F8002922F40012C0F80029097903293B
:104DD00001D002290CD1D0F8001941F08051C0F85F
:104DE000001905E0D0F8001B41F08051C0F8001B0D
:104DF000002070470A784B78D1B200EB4110012BAC
:104E000012D0D0F8001B002906DB2AB1D0F8001B15
:104E100021F08041C0F8001BD0F8001B41F40011C4
:104E2000C0F8001B00207047D0F80019002906DBED
:104E30002AB1D0F8001921F08041C0F80019D0F84B
:104E4000001941F40011C0F80019EBE7F8B50C782F
:104E50004F78894DE3B26FF0604600EB4313012FAA
:104E600029D0D3F8107B6FF31207C3F8107BD3F867
:104E7000107B2F40C3F8107B002C0C697DD0002CD8
:104E80007CD08D682C44641EB4FBF5F4A4B2654359
:104E90000D62D3F8105B06EAC4442543C3F8105BE7
:104EA000D3F8104B0D6AC5F312052C43C3F8104B11
:104EB000012A7DD0C7E00F6927B3D3F810796FF3CB
:104EC0001207C3F81079D3F810792F40C3F810797E
:104ED00044B30F698D682F447F1EB7FBF5F506EAD2
:104EE000C545D3F810693543C3F81059D3F81059A4
:104EF0000E69C6F312063543C3F810590D79012D1A
:104F00001CD027E0D3F810692E40C3F81069D3F8FD
:104F1000105945F40025C3F81059D3F810596FF310
:104F2000120515E00E698D68AE4200D90D61D0F80A
:104F3000105945F40026C0F81069D7E7D3F8105986
:104F400025F0C045C3F81059D3F8105945F0005565
:104F5000C3F81059012A1AD000EB4413D3F80049C2
:104F600044F00444C3F800490C79012C32D00A699A
:104F70007AB3D0F83428097801E040E052E001F03B
:104F80000F03012199400A43C0F8342871E0CA692F
:104F90001AB100EB4413C3F814290979012910D17F
:104FA000D0F80818C90500EB4411D1F8002900E039
:104FB00045E002D442F0005201E042F08052C1F8D4
:104FC000002900EB4410D0F8001941F00441C0F86A
:104FD00000194EE0D0F80848E405D3F8004902D49F
:104FE00044F0005401E044F08054C3F800490092BA
:104FF0000A8A93B20A78C96800F0DEF939E00CB188
:105000008C680C618C680C62D0F8105BC4F31204DD
:105010002543C0F8105BD0F8104B44F40024C0F8CE
:10502000104B45E7D3F8104B8D68C5F312052C43A0
:10503000C3F8104BD3F8104B44F4002436E7CA6889
:105040000AB1C3F8142B097901290CD1D0F808084A
:10505000C005D3F8000B02D440F0005001E040F04E
:105060008050C3F8000BD3F8000B40F00440C3F8A5
:10507000000B0020F8BD0000FFFF07E038B500225C
:10508000009213464D780A7842F2107400EB4212F7
:10509000012D19D0D2F8005B002D3CDAD2F8005B6C
:1050A00045F00065C2F8005B0A7800EB4212D2F8C6
:1050B000005B45F08045C2F8005B009A521C0092EC
:1050C000A24221D9012326E0D2F80059002D22DA8C
:1050D000D2F8005945F00065C2F800590A7800EB93
:1050E0004212D2F8005945F08045C2F80059009AA2
:1050F000521C0092A242E5D80A7800EB4212D2F884
:105100000029002AF3DB06E00A7800EB4212D2F80D
:10511000002B002AD1DB184638BD816841F001011F
:1051200081600020704708B500214FF07062009147
:10513000009B5B1C009393420AD80369002BF7DAAB
:105140000091102101610099491C0091914201D9FF
:10515000032008BD0169C906F5D4002008BD18B5B3
:1051600000224FF070630092009C641C00949C42EB
:105170000CD80469002CF7DA0092202242EA81114F
:1051800001610099491C0091994201D9032018BD81
:1051900001698906F5D4002018BDD0F8080810F080
:1051A000060004D0022803D0062801D00F20704743
:1051B00002207047406900F001007047D0F81818CD
:1051C000D0F81C08084080B27047D0F81818D0F802
:1051D0001C080840000C704710B5D0F81038D0F803
:1051E000342801F00F0400EB4110E24002F001020C
:1051F000D0F8080943EAC212104010BD00EB41117B
:10520000D1F8081BD0F8140808407047416980693C
:105210000840704730B503460846940802F0030181
:10522000002203F5805303E01D6840F8045B521C24
:10523000A242F9D300290BD01C680022D50024FA21
:1052400005F3491E521C090400F8013B090CF5D175
:1052500030BD70B50446C068002520F0C040E06055
:10526000012901D079B120E0E06840F00050E06011
:105270000A20FCF7CDF860690A3510F0010F10D153
:10528000C82DF5D30DE0E06840F08040E0600A20D2
:10529000FCF7BEF860690A3510F0010F01D0C82D87
:1052A000F5D3C82D01D0002070BD012070BDD0F80D
:1052B000002822F4FE62C0F80028D0F800284FF43D
:1052C000FE6303EA01110A43C0F80028002070477A
:1052D000022A3ED1264A274B0A449A4201D20F2184
:1052E00038E0254A254B0A449A4201D20E2131E08A
:1052F000234A244B0A449A4201D20D212AE0224A31
:10530000224B0A449A4201D20C2123E0204A214B2D
:105310000A449A4201D20B211CE01F4A1F4B0A4447
:105320009A4201D20A2115E01D4A1E4B0A449A42B4
:105330000FD31D4A1D4B0A449A4201D2082109E0AD
:105340001B4A11441B4A914201D2072102E0062167
:1053500000E00921C26822F47052C260C2684FF4B2
:10536000705303EA81210A43C260002070470000A5
:10537000405327FF00350C00401E1BFF40420F002A
:1053800000DC0BFF804F1200808CF9FE20D613004A
:1053900060B6E5FE60E3160000D3CEFE40771B004A
:1053A000C05BB3FEC091210000CA91FE2075380099
:1053B000E05459FEE09C410010B5029C74B9DB1C1E
:1053C0009C0800EB0230002300F5805004E000BF91
:1053D00051F8042B02605B1CA342F9D3002010BDDE
:1053E000FEE703B401984100009850EAC12018BFBD
:1053F00004204A0D18BF40F0010040F2FF72B2EBEA
:10540000515F08BF40F00200012808BF052002B02C
:1054100070470907090E002804DB00F1E02080F83E
:105420000014704700F00F0000F1E02080F8141D18
:10543000704700000000000070B59B482DED020B86
:105440002DED068B079D25F00044A04218DC9748FF
:10545000844202DC0AD1069840B19DED060BBDECFA
:10546000068B02B0BDE8704000F0D6BC002DCCBF6A
:105470009FED8F0B9FED900BBDEC068B02B070BDC6
:105480008F48A04215DD8F48A042D8BF4FF0FF34AF
:1054900058DD9DED060B51EC100BFFF7A2FF042821
:1054A00008BF00F0DDFC9DED060BBDEC068B02B0E5
:1054B00070BD9DED060B51EC100B00F0EBFDCDE93E
:1054C000060181489FED828BA0423CDD8248A042CC
:1054D0001FDD00249FED82AB9DED060B53EC1A2BD4
:1054E00051EC100B01F06CFF9DED060B41EC190B1C
:1054F00053EC1A2B51EC100B02F0C2F953EC182BA1
:1055000002F0CAFB53EC192B02F00EF8CDE90601AC
:1055100049E09DED060B012453EC182B51EC100BC8
:1055200001F04EFF9DED060B41EC190B53EC182BCF
:1055300051EC100B02F0B0FB53EC192B01F0F4FF0F
:10554000CDE906012FE06848A0421FDD02249FED4F
:10555000689B9DED060B53EC192B51EC100B02F0E0
:105560008FF953EC182B01F02BFF9DED060B41EC4E
:10557000180B53EC192B51EC100B02F08DFB53EC74
:10558000182B01F0D1FFCDE906010CE09DED060BD3
:10559000032453EC102B9FED580B51EC100B01F032
:1055A000C3FFCDE906019DED060B53EC102B51EC2A
:1055B000100B02F065F941EC180B53EC182B02F0BC
:1055C0005FF941EC190B4E480621B0EE490AF0EEA6
:1055D000690A784400F0A4FB53EC182B51EC100B33
:1055E00002F04EF941EC180B4648B0EE490AF0EED5
:1055F000690A0521784400F093FB53EC192B51EC18
:10560000100B02F03DF941EC100B51EC180B53EC70
:10561000102B002C0EDA01F0D3FE9DED061B53EC8F
:10562000112B02F02DF99DED061B53EC112B02F00E
:105630005BFA35E001F0C4FE9DED061B53EC112B27
:1056400002F01EF941EC100B2F48784400EBC40027
:1056500090ED001B51EC100B53EC112B02F01CFBD6
:105660009DED061B53EC112B02F016FB41EC100BC9
:105670002648784400EBC40090ED001B51EC100B61
:1056800053EC112B02F030FA41EC100B002DA2BFAD
:10569000BDEC068B02B070BD51EC100B01F052FE58
:1056A00041EC100B01E70000000010440000F07F07
:1056B000182D4454FB21F93F182D4454FB21F9BF08
:1056C0000000DC3F0000203E0000F33F000000002F
:1056D000000000000000F03F0000E63F0000000076
:1056E00000000000000000400080034000000000B7
:1056F000000000000000F83F000000000000F0BFC4
:10570000E22A0000982A0000222A0000DA2900007C
:1057100070B56B4E2DED040B2DED028B82B0DDF8D4
:105720001CC0DDE905235C422CF000411C4341EA2A
:10573000D474049D22F00040B44205D86C422C433E
:1057400040EAD474B4420BD99DED061B9DED040BC9
:1057500002B0BDEC028B04B0BDE8704000F066BB47
:10576000ACF14054A4F17F641C430BD0022404EA42
:10577000AC7444EAD27405439FED538B9FED542BD8
:1057800007D015E09DED040B51EC100B00F078FBF9
:1057900042E0002C11BF012C9DED040B02B0BDECCA
:1057A000028B04BF04B070BD022C38D0032C3BD058
:1057B0000B439FED491B9FED4A0B0AD0B14218D114
:1057C000B04209D121F0804120F08040079105903E
:1057D0000FE0002A15DA10E0434B7B44002C08BF91
:1057E00093ED000B0DD0012C10D0022C17D0032C00
:1057F0001AD0B0421DD1002A03DAB0EE410AF0EE11
:10580000610A02B0BDEC028B04B070BD93ED000BD9
:1058100051EC100B01F096FD41EC100BF1E7B0EEEE
:10582000480AF0EE680AECE7B0EE420AF0EE620ACF
:10583000E7E7401A00153C28C8BF8DED000B19DCC6
:10584000BCF1000FBEBF10F13C0F9FED290B8DED99
:10585000000B0FDB9DED060B53EC102B9DED040BA5
:1058600051EC100B01F060FE00F014FC00F008FB9E
:10587000CDE90001002C08BF9DED000BC1D0012C2B
:1058800010D0022C9FED1C0B53EC102B9DED000B48
:1058900051EC100B0DD002F0FFF953EC182B02F075
:1058A000FBF9B9E7019880F0004001909DED000BF5
:1058B000A7E702F0F1F953EC182B02F015F9ABE76A
:1058C0000000F07F00000000182D4454FB21094027
:1058D000182D4454FB2109C0182D4454FB21F9BF55
:1058E000182D4454FB21F93F0A2900000000000054
:1058F0000000000000000000075C143326A6A13C55
:105900002DED020B019820F0004001909DED000B61
:1059100002B0704710B52DED028BB0EE608AF0EE4C
:10592000408A18EE101A18EE900A02F0D7FA00F02A
:105930007040B0F1005F0CD018EE100A20F000406B
:10594000C0F1FF40C00F02BFB0EE480ABDEC028BB1
:1059500010BDB0EE680ABDEC028B10BD10B52DED88
:10596000028BB0EE608AF0EE408A18EE101A18EE44
:10597000900A02F0B3FA00F07040B0F1004F0CD082
:1059800018EE100A20F00040C0F1FF40C00F02BF27
:10599000B0EE480ABDEC028B10BDB0EE680ABDEC5B
:1059A000028B10BD0000000070B52DED040B2DED35
:1059B000048B8CB09DED100B8DED000B9DED120B4B
:1059C0008DED020B119820F00045139820F0004453
:1059D000AC420ADD9DED120B28468DED000B9DEDCE
:1059E000100B25468DED020B0446281B01950394F0
:1059F000B0F1707F10DD9DED020B53EC102B9DED8F
:105A0000000B51EC100B01F0DBFC41EC100B0CB067
:105A1000BDEC048B04B070BDB748002685423EDD66
:105A2000B648A84233DC9DED021B9DED000B00F053
:105A3000FDF98DED040B0098002818BF012000EB44
:105A40004501AF4811F5001F01D98542DFDB0299FE
:105A5000002918BF012101EB440111F5001F01D9F4
:105A60008442D4DB0099C5F31300084304BF9DEDC5
:105A7000000B8DED040B84F07F60029980F0E04014
:105A8000084304BF9DED020B8DED040BBFE7A5F1AC
:105A90001655A4F116544FF41676019503949FED14
:105AA0009A8BB4F10C5F32DAB4F5801F27DA10EE6E
:105AB000100A204308BF9DED000BA8D08DED0A8B86
:105AC00093480B909DED0A0B53EC102B9DED020BB0
:105AD00051EC100B01F0D4FECDE902019DED0A0B53
