:020000040800F2
:10000000A0510020E9020008C7290008E1240008E7
:10001000C529000843050008D5320008000000008B
:10002000000000000000000000000000290200089D
:10003000190800080000000085020008D12C000803
:100040000303000803030008030300080303000878
:100050000303000803030008030300080303000868
:100060000303000803030008030300080303000858
:10007000A5050008030300080303000803030008A4
:100080000303000803030008030300080303000838
:1000900045050008030300080303000803030008E4
:1000A0000303000803030008030300080303000818
:1000B0000303000803030008030300080303000808
:1000C00003030008030300080303000803030008F8
:1000D000030300081532000803030008213200085A
:1000E00003030008030300080303000803030008D8
:1000F00003030008030300080303000803030008C8
:1001000003030008030300080303000803030008B7
:1001100003030008030300080303000803030008A7
:100120000303000803030008030300080303000897
:100130000303000803030008030300080303000887
:100140005105000803030008030300080303000827
:100150000303000803030008B105000803030008B7
:100160000303000803030008030300080303000857
:100170000303000803030008030300080000000055
:10018000030300080303000800F002F800F03CF845
:100190000AA090E8000C82448344AAF10107DA45E2
:1001A00001D100F031F8AFF2090EBAE80F0013F0F8
:1001B000010F18BFFB1A43F0010318472045000048
:1001C00040450000103A24BF78C878C1FAD85207D9
:1001D00024BF30C830C144BF04680C6070470000C1
:1001E0000023002400250026103A28BF78C1FBD840
:1001F000520728BF30C148BF0B6070471FB504F0DD
:100200002CFA1FBD10B510BD00F066F91146FFF7BE
:10021000F5FF03F0ADF900F084F903B4FFF7F2FF46
:1002200003BC00F087F900002C4B19680868B0E89F
:10023000F04F80F30988BFF36F8F4FF0000080F319
:10024000118870470000000008480068006880F3CB
:1002500008884FF0000080F3148862B661B6BFF3DF
:100260004F8FBFF36F8F00DF00BF00BF08ED00E0CE
:10027000DFF80C00016841F470010160704700BFB5
:1002800088ED00E0EFF30980BFF36F8F134B1A681E
:100290001EF0100F08BF20ED108A20E9F04F10600B
:1002A00009B44FF0500080F31188BFF34F8FBFF3B4
:1002B0006F8F03F08DFE4FF0000080F3118809BCB2
:1002C00019680868B0E8F04F1EF0100F08BFB0ECD6
:1002D000108A80F30988BFF36F8F70471C000020DD
:1002E000EFF3058070470000094880470948004740
:1002F000FEE7FEE7FEE7FEE7FEE7FEE7FEE7FEE7D6
:10030000FEE7FEE704480549054A064B7047000032
:100310007D2D000889010008A04B0020A05100207D
:10032000A04D0020A04D002053EA020C00F069808F
:100330002DE9F04B4FF00006002B1FBFB3FA83F5F9
:1003400003FA05F424FA05F65E4012BF1643B2FA2A
:1003500082F502FA05F4C5F120051EBF22FA05FC5C
:1003600044EA0C04203556EA044C4FEA144418BF02
:10037000641C4FF000084FF00009904271EB030C31
:1003800039D3002919BFB1FA81F701FA07F6B0FA9B
:1003900080F700FA07F6C7F120071EBF20FA07FC16
:1003A00046EA0C062037B6FBF4FCA7EB0507103F26
:1003B00007F01F0BCBF120060CFA0BFB2CFA06F60C
:1003C00044BFB3460026202FA4BF5E464FF0000B6B
:1003D0005BEA060C08BF4FF0010B19EB0B09ABFBF6
:1003E000027C48EB0608C01B06FB02CC0BFB03CCCF
:1003F00071EB0C01C1E70B46024641464846BDE899
:10040000F08B13B54FF000004FF00001AFF3008008
:10041000BDE81C40704710B5203AC0F00B80B1E831
:100420001850203AA0E81850B1E81850A0E8185029
:10043000BFF4F5AF5FEA027C24BFB1E81850A0E832
:10044000185044BF18C918C0BDE810405FEA827C4C
:1004500024BF51F8043B40F8043B08BF7047D20763
:1004600028BF31F8023B48BF11F8012B28BF20F804
:10047000023B48BF00F8012B70474FF0000200B567
:10048000134694469646203922BFA0E80C50A0E8B7
:100490000C50B1F12001BFF4F7AF090728BFA0E865
:1004A0000C5048BF0CC05DF804EB890028BF40F831
:1004B000042B08BF704748BF20F8022B11F0804F73
:1004C00018BF00F8012B7047704770477047000055
:1004D000004870473C4B00207546FFF7F9FFAE46D9
:1004E00005006946534620F00700854618B020B540
:1004F000FFF708FFBDE820404FF000064FF000076F
:100500004FF000084FF0000B21F00701AC46ACE8BB
:10051000C009ACE8C009ACE8C009ACE8C0098D4628
:10052000704710B50446AFF300802046BDE8104088
:10053000FFF773BE01491820ABBEFEE7260002009C
:100540007047FEE7014800F0DCBA0000E40200203A
:10055000014800F0D6BA00000C03002038B50E4C5C
:1005600040F2FF1525600025A560E560082525619E
:100570000A4C050A25706070080AA070E170100A24
:1005800020716271180AA071E3716B46224602491C
:10059000034800F056F938BD804300208500002054
:1005A0000C030020014800F0D1BE00006C040020C4
:1005B000014800F0CBBE00000C04002001681823A5
:1005C000CAB2103AB2FBF3F2054B6FF30901032AEA
:1005D0009B5CC36500D9091D816508467047000012
:1005E0009C46000810B5014600208B698A6A4FF0CE
:1005F000C07453B1B3F5005F15D072B1012A0CD0AD
:10060000022A0AD0032A09D104E01AB1012A06D02D
:10061000022A03D1C96AC90100D5012010BDC96AE7
:10062000A142FAD010BD002AF7D0012AF2D0022A46
:10063000F3D0032AF3D010BD70B500244FF47A75BF
:1006400001210C4803F050FB284603F02FF802214B
:10065000084803F049FB284603F028F80321054821
:1006600003F042FB284603F021F8641C022CE7DB70
:1006700070BD00000C03002070B52E4C2E4D94ED83
:100680001A0AD4ED130A284630EE600A85ED090AED
:1006900094ED380AD4ED330A30EE600A85ED170A7E
:1006A00094ED560AD4ED510A30EE600A85ED250A24
:1006B00002F08AF905F1380002F086F905F17000C0
:1006C00002F082F9D5ED0C0AC4ED160A95ED1A0A6E
:1006D00084ED340A95ED281AE03584ED521AD4EDF4
:1006E000081A284670EEE10AC5ED090AD4ED260A7B
:1006F00030EE600A85ED170A94ED440A31EE400AA7
:1007000085ED250A02F060F905F1380002F05CF988
:1007100005F1700002F058F995ED0C0A84ED1C0A01
:1007200095ED1A0A84ED3A0A95ED280A84ED580AE7
:1007300070BD000018420020B048002010B5B1EE96
:100740000C1A2DED048BDFED2E8A9FED2E8A9FED86
:100750002E9AB0EE682AF0EE681AF0EE480AB0EE73
:10076000490A2A4802F0D8FF2848B0EE682AF0EE7D
:10077000681AB1EE0C1AF0EE480AB0EE490A3830A9
:1007800002F0CAFF2148B0EE682AF0EE681AB1EE16
:100790000C1AF0EE480AB0EE490A703002F0BCFFC5
:1007A0009FED1B9A1948B2EE042AF0EE681AB0EEDB
:1007B000481AF0EE480AB0EE490AE03002F0ACFF09
:1007C000B2EE042AF0EE681AB0EE481AF0EE480ACB
:1007D000B0EE490A0F4802F09FFFF0EE681AB0EE43
:1007E000481AF0EE480AB0EE490ABDEC048BB2EEAE
:1007F000042A0848BDE81040383002F08DBF0000E0
:1008000000007A4400000000CDCC8C3FB0480020AE
:100810006666E63FC8490020704772B6FEE790F86A
:100820002020012A07D0022A05D0416A41F4802104
:10083000416201207047006842690A43426100201A
:100840007047F0B590F820500468A468012D05D0D9
:10085000022D03D0416A41F480214DE014F0406F35
:1008600001D1E50045D5C4F301640125A5401D6013
:100870008D684FF4C0739DB1CE6835434E6845EA2C
:10088000C605066803EB0417F5514FF4C2750768F7
:1008900005EB04150E697E51097D012905D009E09B
:1008A0000E88CD6845EA4655EBE701684E5946F497
:1008B00080764E511179D2F805504FF4C67641EA50
:1008C0000521056806EB0416A9511178D2F801201C
:1008D0004FF4C47541EA0221026805EB0415515139
:1008E000006803EB0411425842F00102425000201C
:1008F000F0BD416A41F4001141620120F0BD0000E9
:1009000010B590F82020012A07D0022A05D0416AAC
:1009100041F480214162012010BD3B48D0F8002203
:1009200042F00102C0F80022D0F8002222F47C52EA
:10093000C0F80022D0F800224B6A42EA0322C0F835
:1009400000220A7D02F01F0301229A40D0F81C32D7
:100950009343C0F81C32CB69B3B9D0F80C3293433F
:10096000C0F80C328C894B6864F31F434C6900EB70
:10097000C404C4F840320C890B6864F31F434C690B
:1009800000EBC404C4F84432CB69012B16D1D0F873
:100990000C321343C0F80C320C884B6864F31F43CD
:1009A0004C6900EBC404C4F840320C89CB6864F392
:1009B0001F434C6900EBC404C4F844328B69002B1C
:1009C000D0F804320ED01343C0F804320B69002B68
:1009D000D0F8143208D01343C0F81432096A012940
:1009E00004D008E09343EFE79343F5E7D0F81C12F7
:1009F0001143C0F81C12D0F8001221F00101C0F818
:100A00000012002010BD000000640040704770B567
:100A100090F82040012C05D0022C03D0416A41F40B
:100A2000802128E0046809B32469A40720D04FF48A
:100A3000D874056804EB01142D5915F00405956070
:100A400005682D591AD0ED08556005682C5904F039
:100A50000204D4604FF4DA74056804EB01142E59D3
:100A600006F00F06082E0CD308250DE0E468DCE73D
:100A7000416A41F400114162012070BD6D0D1560A5
:100A8000E3E72D5905F00F05156105682D59C5F3EC
:100A90000725956105682C59240C54614FF4DC72CC
:100AA000046802EB0112A4581C700468A458240ABC
:100AB0005C700468A458240C9C700468A258120E40
:100AC000DA704FF4DE72046802EB0112A4581C7154
:100AD0000468A458240A5C710468A458240C9C710E
:100AE0000468A258120EDA71006829B1016941F058
:100AF00020010161002070BDC16841F02001C1608A
:100B0000F8E72DE9F05F0546006800244669D0F853
:100B100004908768D0F80CB0D0F810A0D0F81880F6
:100B2000F10748D0F90714D001218160B80703D537
:100B3000284600F0AAFB0CE0780702D54FF40064C9
:100B400007E0380702D54FF4805402E0284600F051
:100B50009BFBF80516D529684FF480708860B805AE
:100B600003D5284600F093FB0CE0780502D544F449
:100B7000005407E0380502D544F4804402E02846DA
:100B800000F084FBF80316D529684FF480308860A4
:100B9000B80303D5284600F07CFB0CE0780302D5AF
:100BA00044F4004407E0380302D544F4803402E002
:100BB000284600F06DFB300707D55FEACB6004D50F
:100BC0002968102044F40074C86070074FF00807CB
:100BD00007D55FEA0B7004D52868C760284600F087
:100BE00093F9B00706D52868C068800702D0284668
:100BF00000F08CF9700607D55FEACA6004D5296851
:100C0000102044F480640861B00607D55FEA0A70DA
:100C100004D528680761284600F006FBF00606D5D3
:100C200028680069800702D0284600F0FEFAB00369
:100C300008D55FEAC96005D52968102048602846B4
:100C400000F0F4FAF00307D55FEA097004D52868CC
:100C50004760284600F01EFB300446D55FEA497025
:100C600040D5F00504D55FEAC87001D044F0010416
:100C7000B00504D55FEA887001D544F00204700520
:100C800004D55FEA487001D544F00404300529D545
:100C900018F0700F26D008F07000402815D006DC40
:100CA000102809D020280AD0302816D10AE0502870
:100CB0000ED0602811D10EE044F008040DE044F09D
:100CC00010040AE044F0200407E044F0400404E08B
:100CD00044F0800401E044F480742868816921F0C4
:100CE00070018161296804204860002C05D0686A81
:100CF000204368622846FFF789FEBDE8F09F70B583
:100D0000040003D094F8200010B104E0012070BD6D
:100D1000204600F081F82068016841F0010101607F
:100D200000F046FD0546052604E000F041FD401BAD
:100D30000A2811D820684068C007F6D020680168EA
:100D400021F00201016000F033FD05460BE000F0E8
:100D50002FFD401B0A2806D9606A40F4003060620B
:100D600084F82060D2E7206840688007EFD4207EB6
:100D70000128206801683DD021F080010160607E7B
:100D800001282068016838D021F040010160A07E70
:100D900001282068016833D021F020010160E07E45
:100DA0000128206801682ED041F010010160207FE9
:100DB00001282068016829D021F008010160607FC6
:100DC00001282068016824D021F004010160D4E9E1
:100DD00002010843D4E90412114308436168491E23
:100DE00008432168C86100206062012084F8200067
:100DF000002070BD41F08001C0E741F04001C5E72F
:100E000041F02001CAE721F01001CFE741F00801CD
:100E1000D4E741F00401D9E7F0B587B004461421C6
:100E20006846FFF72AFB334B3348DFF8C4E0196804
:100E3000D4F800C0304A03250226092710300024C8
:100E4000491CF4451DD11960012907D1016841F001
:100E500000710160006800F000700590106840F0BB
:100E6000080010601068CDE9005600F00800CDE9D8
:100E7000047069462148CDE9024500F0A1FB07B0A6
:100E8000F0BDDFF87CE0F445F9D1D0F800C04CF0BB
:100E9000806CC0F800C0D0F800C001290CF0806C54
:100EA000CDF814C0196007D1016841F000710160EC
:100EB000006800F000700590106840F002001060BB
:100EC000106802AB00F0020005906020CDE900063A
:100ED00083E8B00069460B4800F072FB0022052150
:100EE000402000F0D7FC402000F0C6FCC7E700001F
:100EF000006400400800002030380240000C02402E
:100F0000006800400004024070470000F0B504464D
:100F10002DED068B95B00068B84988422BD112ABF5
:100F200004AA00212046FFF772FD0498B449A0F5F9
:100F30004070013802D001281DD110E0BDF84800F2
:100F400040BA0880BDF84A0040BA4880BDF84C005D
:100F500040BA8880BDF84E0040BAC8800BE0BDF8AA
:100F6000480040BA0881BDF84A0040BA8872BDF80E
:100F70004C0040BA0873A349206888423DD102ABB7
:100F80000BAA0021A048FFF742FDA54D0B989F4EEC
:100F90009F4FDFEDA08A9FEDA09ADFEDA09AF3EEC0
:100FA00009AAB1EE00AA05F15804112829D0122887
:100FB0007CD0132879D0A0F5007005381DD1049895
:100FC0009849401EC0B2087000EB8002A4F14801AD
:100FD00001EB420031F812300381BDF808305BBAF2
:100FE00021F81230BDF80A1049BA4180BDF80C1042
:100FF00049BA81809DF80E10817115B0BDEC068B49
:10100000F0BD286802A9401C28609DF8080000F087
:101010000F0020608248583001F072FA94ED078A80
:1010200088EE2A0A84ED0A0A94ED0F0A38EE400A87
:1010300010EE100AB04205DDD4E91001401E41F166
:10104000FF3108E010EE100AB84206D9D4E91001C9
:10105000401C41F10001C4E9100128680A2802DCA3
:101060000020C4E91000D4E9100103F083FA00EE77
:10107000100AF0EE480A40EE280A80EE890A30EEA7
:10108000290A20EE0A0A84ED130AD4ED140A70EE40
:10109000600AC4ED080A84ED0F8A84ED140A01F099
:1010A000F3FD84ED150AA8E700E052E0686802A9A4
:1010B000401C68609DF8080000F00F00A0675848C9
:1010C000D03001F01DFA94ED258A88EE2A0A84EDCD
:1010D000280A94ED2D0A38EE400A10EE100AB042AC
:1010E00005DDF4E92E01401E41F1FF3108E010EE6C
:1010F000100AB84206D9F4E92E01401C41F1000162
:1011000064E82E0168680A2802DC0020C4E92E0089
:10111000F4E92E0103F02EFA00EE100AF0EE480A70
:1011200040EE280A80EE890A30EE290A20EE0A0AEB
:1011300084ED030AD4ED040A70EE600A44ED080A57
:1011400004ED018A84ED040A01F09EFD84ED050A98
:1011500053E7A86802A9401CA8609DF8080000F0A9
:101160000F00C4F8F0002648903801F0C9F994ED5A
:10117000438A88EE2A0A84ED460A94ED4B0A38EE3B
:10118000400A10EE100AB04205DDD4E94C01401EC1
:1011900041F1FF3108E010EE100AB84206D9D4E957
:1011A0004C01401C41F10001C4E94C01A8680A2827
:1011B00002DC0020C4E94C00D4E94C0103F0DAF968
:1011C00000EE100AF0EE480A40EE280A80EE890A86
:1011D00030EE290A20EE0A0A84ED4F0AD4ED500AB7
:1011E00070EE600AC4ED440A84ED4B8A84ED500A27
:1011F00001F04AFD84ED510AFFE600000064004062
:1012000098430020006800400C03002000409C46EA
:1012100000409CC600A00C470000C8420000E0420D
:10122000C0410020840000207047704770470000D4
:1012300070B5044690F82000012804D0606A40F49C
:101240000020606218E0022084F820002068016815
:1012500021F00101016000F0ABFA05460EE000BF8D
:1012600000F0A6FA401B0A2808D9606A40F4003052
:101270006062052084F82000012070BD206840686D
:10128000C007EDD1606270BD70477047704770470E
:101290007047704770472DE9F0410446876D00F0B4
:1012A00087FA064694F835000025022806D08020EB
:1012B000606584F834500120BDE8F0812068016841
:1012C00021F0160101602068416921F0800141612F
:1012D000206C08B9A06C20B12068016821F00801D9
:1012E00001602068016821F0010101600CE000F05C
:1012F0005FFA801B052807D920206065032084F849
:10130000350084F83450D7E720680068C007EED174
:1013100094F85C103F208840B860012084F83500C4
:1013200084F834500020C7E790F83510022903D024
:101330008021416501207047052180F83510006843
:10134000016821F001010160002070472DE9F84398
:1013500004464FF00009CDF8009063484FF4165151
:10136000A56D0068B0FBF1F72E6894F85C100820BA
:1013700000FA01F131420FD021680A6852070BD5FB
:101380000A6822F004020A6094F85C108840A860A1
:10139000606D40F00100606594F85C104FF001084A
:1013A00008FA01F0304208D021684969090604D5DD
:1013B000A860606D40F00200606594F85C10042045
:1013C0008840304208D021680968890704D5A860A0
:1013D000606D40F00400606594F85C101020884057
:1013E000304218D021680968090714D5A860206820
:1013F0000168490304D50068000308D5A16C07E023
:101400000168C90503D4016821F008010160216C5D
:1014100009B12046884794F85C102020884030426B
:1014200031D021680968C9062DD5A86094F8350027
:1014300005282068016806D0490347D500680003E5
:101440001DD4616C1CE021F0160101602068416927
:1014500021F080014161206C08B9A06C20B12068A6
:10146000016821F00801016094F85C103F20884079
:10147000A86084F8358084F83490216D1FE0E16B1A
:1014800009B120468847606D00282BD0606DC007E9
:1014900014D0052084F835002068016821F001018E
:1014A00001600098401C0090B84203D82068006892
:1014B000C007F6D184F8358084F83490E16C0029B7
:1014C00010D001B02046BDE8F04308470168C905C7
:1014D000D5D4016821F01001016084F8358084F8CA
:1014E0003490CCE7BDE8F883180000202DE9F041E6
:1014F000044600F05DF906465CB1022084F8350030
:10150000002584F834502068016821F00101016051
:101510000DE00120BDE8F08100F04AF9801B0528AC
:1015200005D920206065032084F83500F2E72068A3
:101530000068C007F0D12268116820480140D4E952
:1015400001031843D4E9033633431843636918434E
:10155000A3691843E3691843236A18430843616A7F
:10156000042903D1D4E90B13194308431060206800
:101570004069666A20F0070130460E4301270428BF
:101580000CD1A06A0643E06A40B12046FFF72AF872
:1015900020B14020606584F83570BAE72068466164
:1015A0002046FFF70BF894F85C203F2191408160C2
:1015B000656584F835700020ACE700003F8010F0CE
:1015C0002DE9F84FDFF8BCA10022012503264FF0DA
:1015D0000F090AF1040BAAF1040E00BF0B6805FA0B
:1015E00002F42340A34270D10F7907F00307012FC3
:1015F00001D0022F16D187684FEA420806FA08FC8C
:1016000027EA0C07D1F80CC00CFA08FC4CEA070CCE
:10161000C0F808C04768A7430C79C4F3001494408D
:101620003C4344600C79E443A4070AD0C4684FEA01
:10163000420C06FA0CF7BC438F6807FA0CF72743F5
:10164000C7600C7904F00304022C12D1D40800EB1B
:10165000840CDCF820405707FF0E09FA07F824EA4B
:101660000804D1F8108008FA07F848EA0408CCF812
:10167000208004684FEA420C06FA0CF7BC430F794D
:1016800007F0030707FA0CF7274307604C6814F4C8
:10169000403F70D03C4C276847F48047276024685F
:1016A00022F0030704F480440094384C07EB040C48
:1016B000DCF8084897074FEA177809FA08F7BC439F
:1016C000334FB84202D1002724E054E0314FB842F2
:1016D00001D101271EE0304FB84201D1022719E0A5
:1016E0002E4FB84201D1032714E02D4FB84201D14B
:1016F00004270FE02B4FB84201D105270AE02A4FFB
:10170000B84201D1062705E0284FB84201D107278A
:1017100000E0082707FA08F72743CCF80878DAF83A
:1017200000405746D1F804C09C435FEACC2C00D55A
:101730001C433C60DBF800405F46D1F804C09C438A
:101740005FEA8C2C00D51C433C60DEF800407746F5
:10175000D1F804C09C435FEA8C3C00D51C433C603C
:10176000084F083F3C68D1F804C09C435FEACC3C7A
:1017700000D51C433C60521C102AFFF42FAFBDE87B
:10178000F88F0000083C014044380240003001401E
:10179000000002400004024000080240000C024029
:1017A000001002400014024000180240001C0240D9
:1017B00001488068704700000C00002002488168E2
:1017C00002781144816070470C0000200B4810B56E
:1017D000016841F400710160016841F480610160B9
:1017E000016841F480710160032000F073F80F205C
:1017F00000F006F800F024F8002010BD003C024084
:1018000070B50D4D04464FF47A712878B1FBF0F0B5
:101810000A490968B1FBF0F000F010FB48B9102C40
:1018200007D200222146501E00F034F800206C60E0
:1018300070BD012070BD00000C00002018000020C9
:101840000C4882B0016841F480410160006800F4F6
:10185000804000900748001F016841F080510160FE
:101860000068002200F0805000900F21901E02B00E
:1018700000F010B844380240002809DB00F01F02D5
:10188000012191404009800000F1E020C0F80011E2
:1018900070470000F0B40E4B1B680C46C3F30223E4
:1018A000C3F10705042D00D90425191D072901D20C
:1018B000002300E0DB1E012606FA05F1491E214047
:1018C00099409E40761E16403143F0BC01F003BDA6
:1018D0000CED00E0064900F0070208684FF6FF0330
:1018E000184040EA0220034A104308607047000095
:1018F0000CED00E00000FA052DE9F0470E4605006A
:1019000065D0DFF81481D8F80000F7B200F00700C6
:10191000B04207D288F80070D8F8000000F0070045
:10192000B04254D128683D4C810712D5400703D5F9
:10193000206840F4E05020602878000703D5206834
:1019400040F4604020602068A96820F0F00008435F
:1019500020602878C0072DD03049686808390128F0
:1019600012D0022813D0032811D009688907002952
:101970002DDA216821F0030101432160FFF718FFF0
:10198000814641F2883A0EE009688903EFE7096869
:101990008901ECE7FFF70CFFA0EB0901514502D9E3
:1019A0000320BDE8F0872068696800F00C00B0EB08
:1019B000810FEFD1D8F80010404601F00701B14285
:1019C00007D90770006800F00700B04201D001207D
:1019D000E7E72878400705D52068E96820F4E0505B
:1019E000084320602878000706D52068296920F47C
:1019F000604040EAC100206000F038F82168084AE1
:101A0000C1F30311515CC8400649086006480068EC
:101A1000FFF7F6FE0020C4E7003C02400838024011
:101A2000A4460008180000201000002004480549C2
:101A300000680968044AC1F38221515CC8407047BC
:101A40001800002008380240B44600080448054940
:101A500000680968044AC1F34231515CC8407047CC
:101A60001800002008380240B4460008154810B598
:101A7000006810F00C02144813D01449042A0FD047
:101A8000082A0ED10F4C241F2268236802F03F025F
:101A90005B0207D52068C0F38810A0FB010106E0B7
:101AA000084610BD2168C1F38811A1FB0001002385
:101AB000FEF73AFC2168C1F30141491C4900B0FB23
:101AC000F1F010BD083802400024F400001BB700FC
:101AD0002DE9F84F04006ED02078DFF84C93C00752
:101AE000A9F104054AD009F104000168C1F381019C
:101AF000012908D00068C0F3810002280AD1D9F872
:101B00000000400206D52868800337D560680028A9
:101B1000E1D033E06068B0F5803F10D0B0F5A02F81
:101B2000286810D020F480302860286820F48020B5
:101B300028606068A8B1FFF73BFE06460DE0286804
:101B400040F48030F4E740F480202860F7E700BFDD
:101B5000FFF72EFE801B642873D828688003F7D512
:101B60000CE0FFF725FE064605E000BFFFF720FE6C
:101B7000801B6428F0D828688003F7D42078DFF829
:101B8000AC8280074FF0000A3ED5A748001D0168CF
:101B900011F00C0F08D00068C0F3810002280BD1AF
:101BA000D9F80000400207D42868800716D5E068FD
:101BB000012800D112E033E1E068B8B10120C8F893
:101BC0000000FFF7F5FD064605E000BFFFF7F0FD5A
:101BD000801B0228C0D828688007F7D528682169AB
:101BE00020F0F80040EAC10028600DE0C8F800A02D
:101BF000FFF7DEFD064604E0FFF7DAFD801B022852
:101C00001FD828688007F7D42078000722D5864F90
:101C100087486169703771B101210160FFF7C8FD24
:101C2000064604E0FFF7C4FD801B022809D8386887
:101C30008007F7D50EE0C0F800A0FFF7B9FD064613
:101C400005E082E0FFF7B4FD801B02287DD83868EC
:101C50008007F7D42078400768D5DFF8CCB100279B
:101C60000BF13C0BDBF80000C0000BD4DBF80010DC
:101C700041F08051CBF80010DBF80000012700F0A4
:101C8000805000906B4E3068C00510D4306840F42E
:101C900080703060FFF78CFD009005E0FFF788FD55
:101CA0000099401A022850D83068C005F6D55E4E1B
:101CB000A0686C3601280FD00528306810D020F0BD
:101CC00001003060306820F004003060A068B8B1D6
:101CD000FFF76EFD00900FE0306840F00100F4E780
:101CE00040F004003060F7E7FFF762FD0099411A09
:101CF00041F28830814266D830688007F4D50EE022
:101D0000FFF756FD009007E0FFF752FD0099411ADA
:101D100041F28830814256D830688007F4D42FB120
:101D2000DBF8001021F08051CBF80010A069C8B397
:101D30003D49091D0968C1F3810102294AD00228E1
:101D4000504607D0C8F8600000E03CE0FFF730FDE7
:101D500004463BE04746C8F86000FFF729FD064609
:101D600005E000BFFFF724FD801B02282BD8286860
:101D70008001F7D4D4E907010843A16A2E4A490833
:101D800002EB0141626A41EA8211084394F82C1087
:101D900040EA0161C9F8001001203866FFF708FD2C
:101DA000044606E03EE000BFFFF702FD001B0228EC
:101DB00009D828688001F7D534E000BFFFF7F8FCA8
:101DC000001B022802D90320BDE8F88F2868800193
:101DD000F4D427E00128F7D0D9F80000E26900F434
:101DE000800191421CD1226A00F03F01914217D13B
:101DF00047F6C071626A0140B1EB821F10D1A26A3E
:101E00004FF0FF3300F4403103EB5202B1EB024FCD
:101E100006D194F82C1000F07060B0EB016F01D087
:101E20000120D1E70020CFE70438024000004742FC
:101E3000800E4742007000400000FFFF10B5401EBA
:101E4000B0F1807F01D3012010BD4FF0E02460612C
:101E50000F21601701F03FFA0020A06107202061E8
:101E6000002010BD70B590F83C20012A32D001242A
:101E700080F83C40022280F83D2003685A689D6843
:101E800022F070060A6832435A60134B02689A4285
:101E900014D0B2F1804F11D0104B9A420ED0104B9B
:101EA0009A420BD00F4B9A4208D00F4B9A4205D062
:101EB0000E4B9A4202D00E4B9A4204D1496825F04B
:101EC00080031943916080F83D40002180F83C1068
:101ED000084670BD022070BD0000014000040040B3
:101EE00000080040000C0040000401400040014098
:101EF0000018004010B586B0044614216846FEF76D
:101F0000BCFA0E492068884215D10D4800210268AC
:101F100042F008020260006800F0080005904FF4EB
:101F2000805000900220CDE90101CDE903106946FF
:101F30000448FFF745FB06B010BD00000008004054
:101F400030380240000C024070B5044690F83C0066
:101F500000260D4601280FD0012084F83C006AB10C
:101F6000042A1DD0082A2FD00C2A3FD00126002099
:101F700084F83C00304670BD022070BD206800F03F
:101F800071FF2068816941F00801816120688169E1
:101F900021F004018161206881692A69114311E0FF
:101FA000206800F08FFF2068816941F40061816141
:101FB0002068816921F480618161206881692A69D2
:101FC00041EA02218161D2E7206800F0B1FF206878
:101FD000C16941F00801C1612068C16921F00401B3
:101FE000C1612068C1692A69114311E0206800F0CD
:101FF000D3FF2068C16941F40061C1612068C169F3
:1020000021F48061C1612068C1692A6941EA022125
:10201000C161ACE710B5040003D094F83D0010B1E5
:1020200007E0012010BD002084F83C00204600F0AD
:102030001FF8022084F83D00211D206800F0A6FE54
:10204000012084F8460084F83E0084F83F0084F8BC
:10205000400084F8410084F8420084F8430084F88A
:10206000440084F8450084F83D00002010BD0000C5
:1020700008B500680649884208D10648016841F061
:1020800004010160006800F00400009008BD000039
:10209000000800404038024070477047F8B50168BA
:1020A00004460868CA684B6910F00F0F4FF000052E
:1020B00059D003F0010602F49077374365D0C10789
:1020C00005D0D10503D5616C41F001016164410780
:1020D00005D5D90703D0616C41F002016164810725
:1020E00005D5D90703D0616C41F004016164010793
:1020F00007D502F02001314303D0616C41F00801A3
:102100006164616C00293AD0800604D5900602D53E
:10211000204600F098FF20684069616CC0F3801091
:10212000090700D460B3204600F066FF20684069CC
:10213000400621D52068143050E8001F21F04001EE
:1021400040E80012002AF5D1E06BA8B16E490165A4
:10215000E06BFFF7E9F8002811D0E06B016D01B0EA
:10216000BDE8F040084783060FD593060DD52046FD
:10217000BDE8F84000F067BF2046FFF78EFFF8BDCE
:102180002046FFF78AFF6564F8BD266B2023012EE9
:102190007DD1C6067BD5D60679D5086848680090FB
:1021A00048694FF00206400641D5E16B0868406877
:1021B0000004000CE8D0A28D8242E5D9E085C86910
:1021C000B0F5807F2DD020680C3050E8001F21F43E
:1021D000807140E80012002AF5D12068143050E8E0
:1021E000001F21F0010140E80012002AF5D120680B
:1021F000143050E8001F21F0400140E80012002A8E
:10220000F5D184F84230256320680C3050E8001F77
:1022100021F0100140E80012002AF5D1E06BFFF731
:102220003AF86663A08DE18D401A81B22AE0A08D54
:10223000E18D401A81B2E08D0028A5D00029A3D0FD
:1022400022680C3252E8000F20F4907042E8000738
:10225000002FF5D12068143050E8002F22F0010241
:1022600040E80027002FF5D184F84230256320682C
:102270000C3050E8002F22F0100240E80023002B21
:10228000F5D166632046FFF707FFF8BDFFE70506B7
:102290002BD5150629D594F841002128F5D1A06841
:1022A000B0F5805F01D12069B0B1206A411C216284
:1022B000216800784860E08C401E0004000CE08437
:1022C000E3D12068C16821F08001C1602068C16845
:1022D00041F04001C160D8E7206A0088C0F30800DF
:1022E0004860206A801C2062E5E74006CDD5500694
:1022F000CBD5CA68204622F04002CA6084F841303B
:1023000000F0EDF8C1E70000E92F000870B5040007
:1023100004D094F84100002510B106E0012070BD02
:1023200084F84050204600F023F8242084F841002F
:102330002068C16821F40051C160204600F0E4FE2D
:102340002068016921F4904101612068416921F010
:102350002A0141612068C16841F40051C16065648F
:10236000202084F8410084F842006563002070BD9D
:102370002DE9F04F87B0064614216846FEF77DF838
:102380004D4B316800244D480225032207274FF0AA
:1023900000694FF4806A4FF4403B99424AD1474963
:1023A00014310B6843F010030B60096801F0100151
:1023B0000591016841F002010160016801F002012C
:1023C0000591016841F0010101600068CDE9024218
:1023D00000F0010005908020CDE900059046694697
:1023E00004973748FFF7ECF82802CDE90005CDE95E
:1023F0000248694604973348FFF7E2F8334D324804
:10240000E5E802094020A5E81104304845F81449E0
:10241000AC61C5E9074B6C62FFF768F808B1FEF7DD
:10242000FCF9B563002205212520AE63FFF732FADF
:1024300025203BE0264B99423AD1204910310B68C8
:1024400043F480230B60096801F480210591016841
:1024500041F0040101600068CDE9024200F004008F
:1024600005904FF44060CDE900056946049719488E
:10247000FFF7A6F8154D184860352860C5E90194A6
:10248000C5E9034A80156C61C5E90640C5E908B491
:102490002846FFF72BF808B1FEF7BFF9F5630022D5
:1024A00005212720AE63FFF7F5F92720FFF7E4F9B0
:1024B00007B0BDE8F08F0000001001403038024046
:1024C0000004024000000240B86402400C040020F6
:1024D00000480040000802402860024070477047F2
:1024E000FEE7000010B5054801F090F801F0C8F8CB
:1024F000BDE81040014801F065B80000B443002079
:102500002DE9F04104462DED028B0D46B1F8010096
:1025100046BA0879497900F00F0041EA00279FED9B
:10252000548ADFED548A2068012824D128781021AC
:1025300000096060F0EE480AB0EE680A304601F02B
:1025400007FC84ED070A0C21F3EE0C0ABBEE0C0A23
:10255000384601F0FDFB84ED090AA87900EE100A67
:10256000B8EE400A84ED0D0AE87900EE100AB8EEE4
:10257000400A84ED0E0A2068022824D12878102110
:1025800000096060F0EE480AB0EE680A304601F0DB
:10259000DFFB84ED070A0C21F3EE0C0ABBEE0C0AFC
:1025A000384601F0D5FB84ED090AA87900EE100A3F
:1025B000B8EE400A84ED0D0AE87900EE100AB8EE94
:1025C000400A84ED0E0A2068032824D128781021BF
:1025D00000096060F0EE480AB0EE680A304601F08B
:1025E000B7FB84ED070A0C21F3EE0C0ABBEE0C0AD4
:1025F000384601F0ADFB84ED090AA87900EE100A17
:10260000B8EE400A84ED0D0AE87900EE100AB8EE43
:10261000400A84ED0E0A2068042824D1287810216D
:1026200000096060F0EE480AB0EE680A304601F03A
:102630008FFB84ED070A0C21F3EE0C0ABBEE0C0AAB
:10264000384601F085FB84ED090AA87900EE100AEE
:10265000B8EE400A84ED0D0AE87900EE100AB8EEF3
:10266000400A84ED0E0ABDEC028BBDE8F08100004B
:1026700000A08C4600A08CC6F0B50C462DED068B54
:10268000F0EE60AAF0EE400A89B09FED368AB0EE17
:10269000429AF0EE619AB0EE41AA0546B0EE480AC1
:1026A00000F033FEDFED308AF0EE680A00F051FEF4
:1026B0001020B0EE681AF0EE480A00F0ABFE0746B4
:1026C0000C20B2EE041AFAEE040AB0EE6A0A00F028
:1026D000A1FEDFED272A06460C209FED241AF0EE1E
:1026E000620AB0EE4A0A00F095FE03460C20B1EEF5
:1026F000041AF0EE620AB0EE690A00F08BFE0246A0
:102700000C20B3EE0C1AFBEE0C0AB0EE490A00F0F6
:1027100081FE00210491059108210691390A8DF866
:1027200000108DF8017031098DF80210310141EA75
:1027300013218DF803108DF8043011098DF8051060
:10274000110141EA10218DF806108DF8070002945E
:1027500001236A4602A92846FEF773F809B0BDECCA
:10276000068BF0BD00A08CC600A08C460000FA438A
:10277000000000000F4810B50D49016003214160C1
:1027800000214FF410228160C0E903124FF40012BF
:102790004261017641768176C17601774177FEF715
:1027A000AEFA002803D0BDE81040FEF736B810BDE1
:1027B00000640040E40200200F4810B50D4901609C
:1027C0000321416000214FF410228160C0E903120F
:1027D0004FF400124261017641768176C17601772D
:1027E0004177FEF78CFA002803D0BDE81040FEF7D1
:1027F00014B810BD006800400C030020114808B553
:10280000016841F400110160016801F400110091B8
:10281000016841F4800101600068002200F480003A
:10282000009005210C20FFF735F80C20FFF724F865
:10283000002205214620FFF72DF8BDE8084046207C
:10284000FFF71AB83038024010B58EB01C220B4981
:102850006846FDF7E0FD0021684600F033FF084CB4
:1028600006491C2220601C3107A8FDF7D4FD002179
:1028700007A800F027FF60600EB010BD6446000896
:1028800000000020154808B5016841F00201016010
:10289000016801F002010091016841F0010101604D
:1028A000016801F001010091016841F00801016037
:1028B000016801F008010091016841F00401016024
:1028C000016801F004010091016841F0800101609C
:1028D000006800F08000009008BD00003038024021
:1028E00010B58AB0002407941C2168460894FDF7AF
:1028F000C4FD16481449C0E900144FF6FF71C0E941
:10290000024104618461FFF785FB08B1FDF785FF93
:10291000079407A90D480894FFF7A4FA08B1FDF73A
:102920007CFF6020CDE9000402940022694607483C
:102930000494FFF709FB08B1FDF76FFF0348FFF7A9
:10294000D9FA0AB010BD000000080040340300208E
:102950000C4810B50A4901604FF4E1314160002193
:1029600081600C22C160C0E904128161C161FFF77E
:10297000CDFC002803D0BDE81040FDF74EBF10BDD0
:10298000001001407C0300200C4810B50A4901608A
:102990000B494160002181600C22C160C0E9041232
:1029A0008161C161FFF7B2FC002803D0BDE810408F
:1029B000FDF733BF10BD000000480040C4030020F5
:1029C000A0860100FEE7FEE790ED090A80ED030A0C
:1029D000D0ED040A70EE800AC0ED040A90ED0A1AE8
:1029E00070EE411AC0ED051A80ED0A0A90ED0B1A3F
:1029F000F4EEC10AF1EE10FA06DCB1EE411AF4EE83
:102A0000C10AF1EE10FA01D280ED041AD0ED000AED
:102A100060EE800AC0ED060A90ED010A90ED041AFE
:102A200020EE010A80ED070A90ED021A30EE800ACE
:102A300021EE211A80ED081A30EE010A80ED0C0A11
:102A4000D0ED0D0AB4EEE00AF1EE10FA06DCF1EE7C
:102A5000600AB4EEE00AF1EE10FA01D2C0ED0C0A01
:102A600070470000A0B1D0ED101AC0ED111A90ED22
:102A70000F1A80ED101AC0ED060A80ED070A30EE3D
:102A8000C00A80ED0F0A017829B101293BD078E016
:102A90009FED3D0A7047D0ED010A60EE801AC0ED4F
:102AA000091AD0ED0A0A90ED022A42EE000A30EE31
:102AB000410AC0ED0A0A90ED0D2A80ED0E2A90ED34
:102AC0000C2A80ED0D2A80ED0C0A90ED031A21EE00
:102AD000001A80ED0B1A90ED050AF4EEC00AF1EE33
:102AE00010FA09DCB1EE400AF4EEC00AF1EE10FA79
:102AF00002D390ED0A0A01E080ED0A0A31EE800A65
:102B000030EE010A2BE070EE410A90ED012A20EE32
:102B1000822A80ED092AD0ED020A60EE800AC0ED1B
:102B20000A0AD0ED0D2A72EE200AC0ED0E2AD0ED71
:102B30000C2AC0ED0D2AF0EE002A01EE620A30EEFA
:102B4000210A80ED0C0A90ED031A21EE000A80EDB7
:102B50000B0A30EE800AD0ED080A30EE200A80ED34
:102B6000080AD0ED040AB4EEE00AF1EE10FA06DC31
:102B7000F1EE600AB4EEE00AF1EE10FA01D2C0ED17
:102B8000080A90ED080A704700000000002819D0DC
:102B90009FED0D0A80ED110A80ED100A80ED0F0AFD
:102BA00080ED0E0A80ED0D0A80ED0C0A80ED0B0A17
:102BB00080ED0A0A80ED090A80ED080A80ED060A18
:102BC00080ED070A7047000000000000002828D0B0
:102BD000002A26D0017092ED001A80ED011A92EDC4
:102BE000011A80ED021A92ED021A80ED031A80EDAF
:102BF000040A9FED0C0AC0ED050A80ED0E0A80ED77
:102C00000D0A80ED0C0A80ED080A80ED0B0A80EDBC
:102C10000A0A80ED090A80ED110A80ED100A80EDA4
:102C20000F0A70470000000030B5144B1C6865693E
:102C300045F0400565611B68DC6844F01004DC6009
:102C40000F4B1C68256825F0010525601C68256868
:102C5000ED07F7D11D680B4CAC601C68E06018688C
:102C60000161186842601868016841F480210160C0
:102C70001868016841F00101016030BDC403002003
:102C80006C04002004480040DFED0D0A0D480CE004
:102C9000B5EEC00AF1EE10FA01D230EE200A10EEC5
:102CA000101A814201DD30EE600A10EE101A8142E6
:102CB000EEDCB5EEC00AF1EE10FAE9D37047000081
:102CC0000000B4430000B443012000F0EFFCFBE738
:102CD00010B5FEF773FD01F091FA012803D0BDE8AD
:102CE000104001F01DBA10BD30B593B030216846D8
:102CF000FDF7C3FB14210CA8FDF7BFFB1D48002501
:102D0000016841F080510160006800F0805011902E
:102D10001948016841F4804101600068022400F410
:102D20008040119001200090000401908001CDE9C5
:102D3000064006200890A820CDE9090404200B9045
:102D40006846FEF7C5FE08B172B6FEE70CA90F2073
:102D500081E831004FF4A0500F904FF48050109054
:102D600005210CA8FEF7C8FD002801D072B6FEE7C9
:102D700013B030BD40380240007000400248016886
:102D800041F470010160704788ED00E0F0B5026821
:102D9000294C2A4D2A4E2B4F2B4B4FF0804CA042F2
:102DA00009D0604507D0A84205D0B04203D0B84250
:102DB00001D0984204D122F0700E4A6842EA0E0215
:102DC000A0421BD0604519D0A84217D0B04215D000
:102DD000B84213D0984211D01C4DA8420ED01C4DC1
:102DE000A8420BD01B4DA84208D01B4DA84205D0CD
:102DF0001A4DA84202D01A4DA84203D122F44075C0
:102E0000CA682A434D6922F080022A4302608A6818
:102E1000C2620A688262A04201D0984201D1096967
:102E20000163012141610169C90703D0016921F0F2
:102E300001010161F0BD00000000014000040040FC
:102E400000080040000C0040000401400040014028
:102E5000004401400048014000180040001C0040B0
:102E600000200040F0B5036A026A22F0010202620B
:102E700042688469124E24F073050C682C4323F0D9
:102E800002058B682B430D4DA84201D0B04205D1FD
:102E900023F00807CB683B4323F00403A84201D08A
:102EA000B04205D14D6922F4407215438A692A4324
:102EB00042608461496841630362F0BD00000140E3
:102EC00000040140F0B5026A036A23F010030362B4
:102ED000436884690D6824F4E64444EA05248D6857
:102EE00022F0200242EA05120F4D104EA84201D0F6
:102EF000B04206D1CF6822F0800242EA071222F0E7
:102F00004002A84201D0B04207D14D6923F440638A
:102F100043EA85038D6943EA850343608461496818
:102F200081630262F0BD0000000001400004014026
:102F3000F0B5026A036A23F4807303624368C469CC
:102F400022F4007224F073050C68124E2C438D6835
:102F500042EA05220E4DA84201D0B04206D1CF6808
:102F600022F4006242EA072222F48062A84201D0E1
:102F7000B04207D14D6923F4405343EA05138D69EC
:102F800043EA05134360C4614968C1630262F0BD4E
:102F9000000001400004014030B5046A026A22F4D6
:102FA000805202624268C3690D6823F4E64343EA33
:102FB00005238D6824F4005444EA0534084DA842E2
:102FC00002D0084DA84204D14D6922F4804242EA61
:102FD00085124260C36149680164046230BD00002B
:102FE000000001400004014010B5806B0021C18544
:102FF000C184FFF752F810BD01680C3151E8002F71
:1030000022F4907241E80023002BF5D101681431BD
:1030100051E8002F22F0010241E80023002BF5D1F6
:10302000016B012909D101680C3151E8002F22F010
:10303000100241E80023002BF5D1202180F8421036
:1030400000210163704708B590F84210222901D091
:10305000022008BD82684FF480539A4201D1016971
:1030600021B1816A9A421BD04AB10AE00268816AA2
:103070005268C2F308020A80816A891C08E002696A
:1030800072B10268526802F07F020A70816A491CBC
:103090008162C18D491E0904090CC18503D01BE062
:1030A00002685268F1E70168CA6822F02002CA602B
:1030B0000168CA6822F48072CA6001684A6922F015
:1030C00001024A61202180F8421000214163026B15
:1030D000012A03D0FFF702FA002008BD016301684E
:1030E0000C3151E8002F22F0100241E80023002BA0
:1030F000F5D101680A68D20602D50A6849680091CC
:10310000818DFEF7C9FFE7E770B5044600680169E5
:10311000E26821F44051114301612169A068E2692C
:1031200008436169114308432168CA6849F20C6386
:103130009A430243CA6020684169A26921F4407140
:103140001143416131492068884202D030498842A8
:1031500002D1FEF77BFC01E0FEF768FCE269002388
:10316000192164253226B2F5004F626828D0A0FBF1
:103170000101930F9200FDF7D7F80146B0FBF5F07F
:103180006FF01802504301EB800006EB0010B0FB1B
:10319000F5F000F0F002B1FBF5F002EB0012B1FB2C
:1031A000F5F06FF01803584301EB800006EB0010B8
:1031B000B0FBF5F000F00F0021681044886070BD8E
:1031C000A0FB010192185B41FDF7AEF80146B0FB90
:1031D000F5F00201B1FBF5F06FF01803584301EB75
:1031E000800006EBC000B0FBF5F000F0F80002EB49
:1031F0004002B1FBF5F0584301EB800006EBC00044
:10320000B0FBF5F000F00700D6E700000010014029
:10321000001401400148FEF741BF00007C0300207C
:10322000264818B400680168890604D5016840681A
:10323000009018BC704722490968C906F9D5016891
:103240004068204A0090106801684FF024030C0386
:103250001D49046824F00104046016D41068446811
:10326000C4F12404A4B20C8043601068016841F4E6
:10327000002101601068016841F001010160122C19
:10328000D7D1124901F1160015E014686068C0F149
:10329000240080B2088063600D498B6A23F4002308
:1032A0008B6211680A6842F001020A601228C0D1DC
:1032B000064901F13A0018BC00F068BCC4030020C4
:1032C000004800406C0400208E0000204C48002084
:1032D00000600240FEE70907090E002804DB00F148
:1032E000E02080F80014704700F00F0000F1E020AB
:1032F00080F8141D70472DED020B019820F000405E
:1033000001909DED000B02B0704710B52DED028BC2
:10331000B0EE608AF0EE408A18EE101A18EE900AAD
:1033200001F0FCF800F07040B0F1005F0CD018EE36
:10333000100A20F00040C0F1FF40C00F02BFB0EE05
:10334000480ABDEC028B10BDB0EE680ABDEC028BE2
:1033500010BD10B52DED028BB0EE608AF0EE408A04
:1033600018EE101A18EE900A01F0D8F800F070402C
:10337000B0F1004F0CD018EE100A20F00040C0F160
:10338000FF40C00F02BFB0EE480ABDEC028B10BD7B
:10339000B0EE680ABDEC028B10BD000000B58BB02A
:1033A00000200121CDE906010891009001900290D2
:1033B00003900590049069460C48FDF7A1FA0B486C
:1033C000FDF736FF02210948FDF729FA0E20099082
:1033D000059069460648FDF793FA0548FDF728FF72
:1033E00002210348FDF71BFA0BB000BDE4020020E8
:1033F0000C030020B4EEE00AF1EE10FA02D2B0EEB7
:10340000600A7047B4EEC10AF1EE10FAF9DDB0EED1
:10341000410A704771EE601AB4EEE00AF1EE10FA5C
:1034200002D2B0EE600A06E0B4EEC10AF1EE10FA84
:1034300001DDB0EE410A0121814001EE101A30EEAB
:10344000600AB8EEC12A82EE211A21EE000ABDEE12
:10345000C00A10EE100A704700487047F84100207B
:1034600010B5394806212DED028BB0F902209FEDF1
:10347000371A92FBF1F2A2F26112524200EE102AC8
:10348000DFED330AB8EEC00AFFF7B4FF314C9FED11
:10349000321ADFED320A84ED1A0AB0F9022092FBEB
:1034A000F1F2A2F22512524200EE102AB8EEC00A42
:1034B000FFF7A0FF84ED380AB0F902009FED281A4B
:1034C00090FBF1F0A0F22F10404200EE100ADFED69
:1034D000250AB8EEC00AFFF78DFF84ED560AFDF706
:1034E000CBF89FED218A94ED1C2A0121F0EE481AB9
:1034F000B0EE481AF0EE480AB0EE480A1B48FFF753
:10350000BBF894ED3A2AF0EE481AB0EE481AF0EE05
:10351000480AB0EE480A02211448FFF7ADF894EDCE
:10352000582AF0EE481AB0EE481AF0EE480AB0EE0B
:10353000480A03210D48FFF79FF8BDEC028B0220DB
:10354000BDE8104000F0B2B8984300200080B043BE
:103550000080A14318420020008092430000834372
:103560000080974300808743000000000C03002088
:10357000FEF72CF9FFF7B8FBFFF784F9FFF73EF9E8
:10358000FFF7F8F8FFF718F9FFF7AAF9FFF7FCF9CA
:10359000FFF7DEF9002205211420FEF77BF9142045
:1035A000FEF76AF9FFF7FAFE00F0E8FAFFF74CF9C8
:1035B00000F083F8FEE701460020842900D0C81CF3
:1035C0007047000010B500281CD040F23444241885
:1035D0000ED0D4ED150A94ED140A201DFFF742FA1F
:1035E00084ED170ABDEEC00A10EE100AA4F86000C0
:1035F000054800231A46B0F99404BDE81040194666
:10360000FCF7ACBF10BD0000B443002000280BD075
:10361000D0F8341400F58060B1F9021000EE101AF1
:10362000B8EEC00A80ED210A704700003EB5104A8E
:10363000044607CA8DE80700FFF70EFFC4F83404FC
:1036400004F58760DFED0B0A9FED0B0A6A46002147
:103650000546FFF7BBFA2846FFF798FA0748FFF739
:10366000D5FF04F5806494ED210A84ED220A3EBD65
:10367000BC46000800007A4500C05A46B44300200A
:1036800008484221B0F9000090FBF1F000EB800007
:10369000800000EE100A0448B8EEC00A80ED220A4D
:1036A0007047000098430020B447002010B500B9CF
:1036B000012000F029FC002010BD10B500F04AFCEC
:1036C000002010BD7FB50D4604464169B0F90800E1
:1036D00081B1A16971B1FFF76EFFD4E905128DE8E0
:1036E0000700D4E900102B46226900F05CFD03902E
:1036F00004B070BDFFF75FFF03A9CDE90001208A88
:103700002B4682B2D4E9001000F020FD012801D040
:103710000020EDE70398EBE7C0ED0B1A80ED0D2AD2
:1037200080EC030A704700002DE9F041184C0F4669
:103730000546E6682068001D00F01EFB38B92068C9
:1037400090F82C1001208840216981432161681C78
:1037500007D137B12168BDE8F0410E48091D00F0DE
:103760004FBB20683544B5424560216805D2A06B47
:10377000BDE8F041091D00F02BBB606B091D00F096
:1037800027FBA06A854200D2A562BDE8F081000057
:103790001C000020A80500202DE9F041054600F09E
:1037A0003BFB2E4CA068401CA06020682C4F10B141
:1037B000606940B32DE02560A068012829D100266A
:1037C00006EB860007EB800000F0F4FA761C072E6B
:1037D000F6D323488C3000F0EDFA2148A03000F0F9
:1037E000E9FA1F48B43000F0E5FA1D48C83000F08F
:1037F000E1FA1B48DC3000F0DDFA19488C306063D8
:103800001430A06305E02068E96AC06A884200D8E5
:103810002560606A401C6062E96A01202269884074
:103820001043206101EB810007EB8000291D00F0AF
:10383000E7FA00F011FB606900280CD02068E96A03
:10384000C06A884207D207494FF080500860BFF332
:103850004F8FBFF36F8FBDE8F08100001C00002088
:10386000CC04002004ED00E010B5044690F85100AF
:1038700058B101280CD002280FD0502080F31188B5
:10388000BFF34F8FBFF36F8FFEE7206B00F0F8FAA6
:103890002046BDE8104000F0F3BA10BD10484FF4C8
:1038A0007051420706D0C01D0D4920F00700411A93
:1038B000C1F570510B4A00230144C2E900030839E5
:1038C000183A21F0070111604B600B600B1AC0E938
:1038D000001393604FF00040536050617047000048
:1038E000BC05002070000020144E154CA6F1C8073E
:1038F0004FF08058DFF84C9012E000BF00F08CFAD7
:10390000F068C568281D00F037FAA068401EA06066
:103910006068401E606000F09FFA2846FFF7A4FF31
:1039200060680028EAD138680128F9D9C9F8008010
:10393000BFF34F8FBFF36F8FF2E7000094050020B5
:103940001C00002004ED00E02DE9F0479A46DDE977
:10395000098481466FF00303206B03EB820210445D
:10396000089E20F00707780707D0502080F31188C1
:10397000BFF34F8FBFF36F8FFEE7002561B10020CB
:1039800023180A5C83F834200A5C12B1401C10280A
:10399000F6D384F8435001E084F83450072E00D366
:1039A0000626E662C4E91165201D00F00EFA04F156
:1039B000180000F00AFA2461C6F107006462A061F1
:1039C000E56484F8505052464946384600F0C0F845
:1039D0002060B8F1000F01D0C8F80040BDE8F087C2
:1039E00030B5114900E011460A688242FBD34B68AA
:1039F0005C18844203D14068184448600846436814
:103A00001C18944209D1084C183C2468A24209D0E1
:103A100052681A4442600A6812680260814200D00B
:103A2000086030BD0460F9E7700000200648416B73
:103A3000096829B1416BC968C968496881627047E2
:103A40004FF0FF31FAE700001C00002008484068F2
:103A5000401C4FF0500080F3118804D0BFF34F8F0B
:103A6000BFF36F8FFEE7BFF34F8FBFF36F8FFEE79C
:103A7000780000202DE9F0410546002700F0A0FA6B
:103A8000324E306808B9FFF709FF706905424ED120
:103A9000C5B3083568070ED005F00700C0F108006F
:103AA0000544680707D0502080F31188BFF34F8F7B
:103AB000BFF36F8FFEE72DB37068854237D8234878
:103AC000183001460C6801E020460C466168A942A6
:103AD00002D221680029F7D131688C4227D00768CB
:103AE0002168016060680837411B10290FD96019EF
:103AF000420708D0502080F31188BFF34F8FBFF3E7
:103B00006F8FFEE713E041606560FFF769FF616852
:103B10007068401A7060B268904200D2B0607069FC
:103B200001430020C4E90001F068401CF06000F08F
:103B3000D9FB780707D0502080F31188BFF34F8F4F
:103B4000BFF36F8FFEE73846BDE8F08158000020D4
:103B500010B5031F4FF080741C601B1F21F0010182
:103B60001960191F044B0B6014390A60091F6FF0AC
:103B7000020244380A6010BD4D3A0008024924226E
:103B8000A1F12400FFF750B8864800202DE9F0414C
:103B90000C462DED028B00287ED09FED518B002529
:103BA000002C79D00178427841EA0221C1F30A0160
:103BB000218042788378D20842EA4312C2F30A078E
:103BC00067808278C378920942EA8302037942EAE5
:103BD0008322C2F30A06A68002794379520842EA98
:103BE000C312C2F30A03E3804279C2F30112A27244
:103BF00042799209E272827990F807C042EA0C2277
:103C0000A281027A90F809C042EA0C22E281827A0B
:103C100090F80BC042EA0C222282027BA274427B03
:103C2000E274827B90F80FC042EA0C22A282027CEE
:103C3000407CA1F580612180A7F5806742EA0022DF
:103C40006780A6F58066A680A3F58063E380A2F571
:103C500080622281084600F0B3FB41EC100BFFF7B5
:103C60004AFB53EC182B51EC100B00F0C1FB00D2B7
:103C70002580B4F9020000F0A3FB41EC100BFFF724
:103C80003AFB53EC182B51EC100B00F0B1FB00D2B7
:103C90006580B4F9040000E01DE000F091FB41EC08
:103CA000100BFFF728FB53EC182B51EC100B00F016
:103CB0009FFB00D2A580B4F9060000F081FB41EC27
:103CC000100BFFF718FB53EC182B51EC100B00F006
:103CD0008FFB00D2E580BDEC028BBDE8F0810000D7
:103CE000000000000000344000B589B001230291BB
:103CF00000210491059108210691FF218DF8001003
:103D00008DF801108DF804108DF802108DF8051053
:103D10008DF803108DF80610FC218DF807106A4607
:103D200002A9FCF78EFD09B000BD0000FCF784FC81
:103D3000FCF704FD0548FFF779FC00BFFFF790FB97
:103D4000FEF7D0FB0220FFF7B1FCF7E7B4430020F9
:103D500001EE100A70EEC00A0120B8EEC11A8840C8
:103D6000401E21EE201A00EE900AF8EEE01AC1EE95
:103D7000210A30EE800A7047D0E9013201699A6069
:103D8000D0E901235A604A68824201D182684A60C0
:103D9000002202610868401E086008687047000041
:103DA000034B036003F154000860802010607047EB
:103DB0009000002000F108014FF0FF32C0E901122D
:103DC000C1600161002101607047002101617047FD
:103DD00030B50B685A1C02D000F1080202E00269FB
:103DE00004E02246546825689D42FAD953684B6026
:103DF00099608A60516008610168491C016030BDAA
:103E000042684A6093688B6093685960916008616A
:103E10000168491C01607047502080F31188BFF38E
:103E20004F8FBFF36F8F0A494868401C48600128D4
:103E30000CD10848006810F0FF0F07D0502080F325
:103E40001188BFF34F8FBFF36F8FFEE770470000FD
:103E50007800002004ED00E00849486828B1401EC1
:103E6000486001D180F311887047502080F3118899
:103E7000BFF34F8FBFF36F8FFEE700007800002085
:103E800070B500282AD0164DA0F108046068696951
:103E9000084207D1502080F31188BFF34F8FBFF342
:103EA0006F8FFEE722683AB1502080F31188BFF38C
:103EB0004F8FBFF36F8FFEE78843606000F080F89C
:103EC00060686968084468602046FFF789FD2869D2
:103ED000401C2861BDE8704000F004BA70BD0000CD
:103EE000580000204FF0E020002101618161054968
:103EF0004FF47A720968B1FBF2F1491E4161072162
:103F0000016170471800002010B5020014D00F485E
:103F1000006B38B1502080F31188BFF34F8FBFF38F
:103F20006F8FFEE700F04CF800211046FFF7FCFB16
:103F300000F0D8F9002807D105494FF080500860FB
:103F4000BFF34F8FBFF36F8F10BD00001C00002028
:103F500004ED00E010B586B00024039405AA04A97E
:103F600003A80494FFF71CFFDDE903010094CDE9E9
:103F7000011000230EA11048059A00F014F90F4912
:103F80000028C86211D0502080F31188BFF34F8FF2
:103F9000BFF36F8F4FF0FF30886201204861CC6023
:103FA00006B0BDE8104000F041B806B010BD0000FA
:103FB00049444C4500000000E93800081C0000207E
:103FC0000248016B491C0163704700001C0000207F
:103FD0001448016B11B10121C16170470021C16119
:103FE0000169B1FA81F1C1F11F0101EB81020E49B2
:103FF00051F822306BB101EB820101F108034A68EC
:1040000052684A609A4201D152684A60D1680160A0
:104010007047502080F31188BFF34F8FBFF36F8F2D
:10402000FEE700001C000020CC0400201CB537482F
:104030000168374A914207D1502080F31188BFF3BD
:104040004F8FBFF36F8FFEE700683149491E8842EA
:1040500007D1502080F31188BFF34F8FBFF36F8FCC
:10406000FEE72C4908780190FF20087008788DF849
:1040700000009DF800009DF8002000F0F000904244
:1040800007D0502080F31188BFF34F8FBFF36F8F9D
:10409000FEE79DF80000204C00F050002070072043
:1040A000A06005E09DF8002052008DF80020401E21
:1040B0009DF800201206F5D4A060032807D05020F8
:1040C00080F31188BFF34F8FBFF36F8FFEE74FF47C
:1040D0004070A060019808700C482030016841F4DD
:1040E00070010160016841F070410160FFF7FAFE64
:1040F00000206060FCF7BCF80848016841F04041CE
:104100000160FCF7A1F800201CBD000000ED00E0FC
:1041100071C20F4100E400E07800002034EF00E0BD
:1041200010B5502080F31188BFF34F8FBFF36F8F0E
:1041300000F072F818B104494FF080500860002078
:1041400080F3118810BD000004ED00E02DE9FF5F51
:104150008346DDE90E87994616468A469000FFF7AA
:1041600089FC05001CD05420FFF784FC040014D007
:104170000020256384F85100CDE90240CDE9008795
:104180004B46324651465846FFF7DEFB2046FFF7C6
:1041900003FB012004B0BDE8F09F2846FFF770FE46
:1041A0004FF0FF30F6E7F0B585B0DDE90B640A9D0E
:1041B000A6B1DCB1542700972663022684F851602B
:1041C000002604AFCDE90246CDE90057FFF7BCFB5E
:1041D0002046FFF7E1FA049805B0F0BD502080F3C7
:1041E0001188BFF34F8FBFF36F8FFEE7502080F32E
:1041F0001188BFF34F8FBFF36F8FFEE7054841690A
:1042000019B1006B18B100207047012070470220DF
:10421000704700001C0000202DE9F0412F4C0026C3
:10422000206B28B1A069401CA0613046BDE8F08138
:10423000E5686D1CE56013D1606B006838B15020F3
:1042400080F31188BFF34F8FBFF36F8FFEE7606B72
:10425000A16B6163A063206A401C2062FFF7E6FB4C
:10426000A06ADFF87C80854209D3606B0068A0B14A
:10427000606BC068C7687868854211D2A062206808
:10428000C06A00EB800158F82100012800D90126FE
:10429000E0690028C9D00126C7E74FF0FF30EDE7FD
:1042A000381DFFF769FDB86A18B107F11800FFF76C
:1042B00063FDF96A0120226988401043206101EB07
:1042C000810108EB8100391DFFF79AFDF86A21682A
:1042D000C96A8842C9D30126C7E700001C00002034
:1042E000CC0400202DE9F0472C4D00242746286BF4
:1042F00038B1FFF791FD286B401E2863286B40B151
:1043000046E0502080F31188BFF34F8FBFF36F8FCB
:10431000FEE7A968224E0120D1B3A6F1B409804678
:104320003068E8B1F068C46804F11800FFF724FDB4
:10433000201DFFF721FDE06A2A6908FA00F1114308
:10434000296100EB800109EB8100211DFFF758FD79
:10435000E06A2968C96A8842E2D3C5F81C80DFE7B1
:104360000CB1FFF763FBAC6944B14646FFF754FF5D
:1043700000B1EE61641EF9D10020A861E86938B18E
:104380000849012738070860BFF34F8FBFF36F8FCD
:10439000FFF762FD3846BDE8F08700001C000020F2
:1043A0008005002004ED00E0491058BFC1F14041F4
:1043B0005B1058BFC3F140438B42EFF3008070475E
:1043C00010F0004248BF4042B0FA80F310FA03F107
:1043D0000AD0C3F11D0303F580634FEA415002EB9D
:1043E000035202EBD12170474FF0000070470000EC
:1043F00051EA030C17D41CF5801F58BFBCF5801F71
:1044000000F10680994218BF704708BF904270477C
:1044100007D711F5801F58BF13F5801F19D4994293
:104420007047894270471CF5801F08D5BCF5801F76
:10443000F7D58B4218BF704708BF824270474FF4D0
:10444000001C1CEB410F38BF1CEB430F01D28B4209
:10445000704770B500F008F8922449004FF0005101
:104460004FF08053FFF7A0BF0EF1020E2EF0030EA7
:104470005EF8046B364205D4012A43EB030515F5BB
:10448000001F12D8012841EB010C1CF5001F0CD8AD
:104490000ED14FEAD17C15F5001F0CEB4C0C0CF142
:1044A000020C08BF4CEBD37C04E04FF0080C01E099
:1044B0004FEAD37C0CEB4C0526FA05F606F007060E
:1044C000B6F1040C06D20EEB860CBDE870404CF041
:1044D000010C6047DFE80CF0090B02024FF00041CD
:1044E0004FF00000A1F5002170BD194610460128CB
:1044F00051EB010418BFD4F5001484BF002001F073
:10450000004170BD00EE100A00EE901AB4EE600A91
:10451000F1EE10FA78BF704700F00DB810B5FFF754
:10452000F1FFEFF3008020F0104038BF40F0004072
:1045300080F3008810BDBDE8104010B500F047F8CA
:104540000000000900F007B84FF0404010F1004FA4
:10455000EFF300807047401058BFC0F14040491051
:1045600058BFC1F140418142EFF3008070474FF0E6
:104570007E5209E011F0004204D54042C1F1000131
:1045800038BF491E42F07E520B0002F1706212BF2A
:1045900020235FEA00017047B1FA81FCA3EB0C0312
:1045A00001FA0CF120FA03FC02EBC352C3F1200321
:1045B00041EA0C0110FA03FC5CEA416C42EB112069
:1045C00018BF5FF0806C28BF20F0010070470EF12B
:1045D000020E2EF0030E5EF8044B244204D44FEA80
:1045E0004102B2F17F4F11D84FEA4003B3F17F4F40
:1045F0000CD80ED14FEAD07CB2F17F4F0CEB4C0CB3
:104600000CF1020C08BF4CEBD17C04E04FF0080C1D
:1046100001E04FEAD17C0CEB4C0324FA03F404F0E4
:104620000704B4F1040C06D20EEB840CBDE8104074
:104630004CF0010C6047DFE80CF0070802024FF075
:104640000040A0F5800010BD0846420018BFD2F11E
:10465000807288BF00F0004010BD4FF04070E1EE66
:10466000100A7047D0460008C92C0008000000005E
:1046700000000000800000000000000000000000BA
:10468000C84600082D3D00080100000000000000A1
:1046900000040000000000000000000000061016EA
:1046A00000061016000000000000000001020304D4
:1046B0000607080900000000010203040000804111
:1046C0009A99194000000000746F705461736B0078
:1046D00064656661756C745461736B00FC46000818
:1046E0000000002090000000C40100088C47000872
:1046F0009000002010510000E001000800000000C0
:104700000000000000000000010000001000000098
:10471000000000000024F400000000000000000081
:104720000000000000000000000000000000000089
:104730000000000000000000000000000000000079
:104740000000000000000000000000000000000069
:104750000000000000000000000000000000000059
:104760000000000000000000000000000000000049
:104770000000000000000000AAAAAAAA0000000091
:0C4780000000000000000000000000002D
:040000050800018965
:00000001FF
