:020000040800F2
:10000000188E0020D5030008F34D0008654800084D
:10001000F14D0008571E0008097300080000000099
:1000200000000000000000000000000015030008B0
:10003000B12100080000000071030008AB51000866
:10004000EF030008EF030008EF030008EF030008C8
:10005000EF030008EF030008EF030008EF030008B8
:10006000EF030008EF030008EF030008EF030008A8
:10007000AD1F0008EF030008EF030008EF030008BE
:10008000EF030008EF030008EF030008EF03000888
:10009000C51E0008EF030008EF030008EF03000887
:1000A000EF030008EF030008EF030008EF03000868
:1000B000EF030008EF030008EF030008EF03000858
:1000C000EF030008EF030008EF030008EF03000848
:1000D000EF030008A5570008EF030008B157000818
:1000E000EF030008EF030008EF030008EF03000828
:1000F000EF030008EF030008EF030008EF03000818
:10010000EF030008EF030008EF030008EF03000807
:10011000EF030008EF030008EF030008EF030008F7
:10012000EF030008EF030008EF030008EF030008E7
:10013000EF030008EF030008EF030008EF030008D7
:10014000D11E0008EF030008EF030008F54D00087A
:10015000EF030008EF030008B91F0008EF030008D1
:10016000EF030008EF030008EF030008EF030008A7
:10017000EF030008EF030008EF0300080000000091
:10018000EF030008EF03000800F002F800F0B2F8F7
:100190000AA090E8000C82448344AAF10107DA45E2
:1001A00001D100F0A7F8AFF2090EBAE80F0013F082
:1001B000010F18BFFB1A43F001031847E0A6000027
:1001C00000A700000A444FF0000C10F8013B13F0A8
:1001D000070408BF10F8014B1D1108BF10F8015BA0
:1001E000641E05D010F8016B641E01F8016BF9D193
:1001F00013F0080F1EBF10F8014BAD1C0C1B09D1EA
:100200006D1E58BF01F801CBFAD505E014F8016B5B
:1002100001F8016B6D1EF9D59142D6D370470000ED
:100220000023002400250026103A28BF78C1FBD8FF
:10023000520728BF30C148BF0B6070476E2900F0DD
:100240007982702900F0BB8366290AF0FE81652956
:100250000AF0FB8167290AF0F88161290AF0F78129
:1002600003681B0A28BF41F08001692900F026823B
:10027000642900F02382752900F020826F2900F0A4
:100280004883782900F08783E92900F0E382E42994
:1002900000F0E082F52900F0DD82EF2900F04583CF
:1002A000F82900F086830368DB0928BF41F080014C
:1002B000632901F08D80732901F09280E32901F018
:1002C0009D80F32901F0A280002070471FB50AF03D
:1002D000B2F901F0F1F804000020002109F05AFB06
:1002E000401C60600020002109F03EFBE0601FBD63
:1002F00010B510BD01F0B2F81146FFF7E7FF08F0A6
:10030000D7FA01F08FF903B4FFF7F2FF03BC01F055
:10031000D3F900002C4B19680868B0E8F04F80F35F
:100320000988BFF36F8F4FF0000080F3118870478A
:100330000000000008480068006880F308884FF05B
:10034000000080F3148862B661B6BFF34F8FBFF32D
:100350006F8F00DF00BF00BF08ED00E0DFF80C008A
:10036000016841F470010160704700BF88ED00E052
:10037000EFF30980BFF36F8F134B1A681EF0100F55
:1003800008BF20ED108A20E9F04F106009B44FF04B
:10039000500080F31188BFF34F8FBFF36F8F09F0C8
:1003A000F7F84FF0000080F3118809BC196808685D
:1003B000B0E8F04F1EF0100F08BFB0EC108A80F3C9
:1003C0000988BFF36F8F704720000020EFF305808E
:1003D000704700000948804709480047FEE7FEE7EC
:1003E000FEE7FEE7FEE7FEE7FEE7FEE7FEE7FEE7E5
:1003F00004480549054A064B704700005952000859
:1004000089010008186E0020188E0020187E002038
:10041000187E002053EA020C00F069802DE9F04BB1
:100420004FF00006002B1FBFB3FA83F503FA05F463
:1004300024FA05F65E4012BF1643B2FA82F502FABC
:1004400005F4C5F120051EBF22FA05FC44EA0C04A0
:10045000203556EA044C4FEA144418BF641C4FF090
:1004600000084FF00009904271EB030C39D30029CA
:1004700019BFB1FA81F701FA07F6B0FA80F700FA6E
:1004800007F6C7F120071EBF20FA07FC46EA0C0654
:100490002037B6FBF4FCA7EB0507103F07F01F0B56
:1004A000CBF120060CFA0BFB2CFA06F644BFB34640
:1004B0000026202FA4BF5E464FF0000B5BEA060C1F
:1004C00008BF4FF0010B19EB0B09ABFB027C48EBAB
:1004D0000608C01B06FB02CC0BFB03CC71EB0C0126
:1004E000C1E70B46024641464846BDE8F08B13B5CE
:1004F0004FF000004FF00001AFF30080BDE81C405A
:10050000704700001CB50C46064B7B4469460090C2
:10051000204600F028F904460020694600F036F92C
:1005200020461CBD7F02000010B5203AC0F00B80B1
:10053000B1E81850203AA0E81850B1E81850A0E8E7
:100540001850BFF4F5AF5FEA027C24BFB1E8185041
:10055000A0E8185044BF18C918C0BDE810405FEAB1
:10056000827C24BF51F8043B40F8043B08BF70472D
:10057000D20728BF31F8023B48BF11F8012B28BF32
:1005800020F8023B48BF00F8012B70474FF00002F3
:1005900000B5134694469646203922BFA0E80C5079
:1005A000A0E80C50B1F12001BFF4F7AF090728BF54
:1005B000A0E80C5048BF0CC05DF804EB890028BFD0
:1005C00040F8042B08BF704748BF20F8022B11F0F9
:1005D000804F18BF00F8012B704770477047704775
:1005E00010B500F0BBFA006810BD10B5044600F06D
:1005F000B5FA046010BD70B5044685690068C1068F
:1006000001D5302600E02026C00707D070BDD4E910
:10061000012130469047206A401C20626D1EF6D5AD
:1006200070BD70B5044685690078C00707D170BDFC
:10063000D4E9012120209047206A401C20626D1ED1
:10064000F6D570BD09684A0501D540B27047C905A5
:10065000FCD500B2704709684A0501D5C0B27047A1
:10066000C905FCD580B2704770B50C460546012A15
:1006700005D02878800600D5EA69002302E001232E
:1006800005E05B1C934202D2E05C0028F9D1A86926
:10069000E618C01AA861286A184428622846FFF79D
:1006A000AAFF04E0D5E9012114F8010B9047B442F8
:1006B000F8D32846FFF7B5FF70BD00002DE9F041E3
:1006C0000646002410687529314616A510D0FFF79C
:1006D000B9FF002802DA404213A507E031688A0713
:1006E00001D512A502E0490704D511A5012401E0B6
:1006F000FFF7B1FF00210A2206F1240709E0B0FB51
:10070000F2FCB0FBF2F302FB1C00303078541846C8
:10071000491C0028F3D123462A463046BDE8F04163
:1007200000F065BA000000002D0000002B00000062
:100730002000000011680268006A530501D50870A6
:100740000AE0D30501D5088006E0130603D5C217D9
:10075000C1E9000200E008600120704701694A1CFD
:1007600002610878704700B58FB0CDE901310021F2
:10077000059105497944CDE903101146684600F01A
:1007800029F90FB000BD0000E5FFFFFF0A6802F87D
:10079000010B0A60704700002DE9FF5F15468A468D
:1007A0000446DFF8AC80F8440027D8E900103E4644
:1007B000CDE9001010E03AF816106A4602A800F0E1
:1007C00029FE411C07D02178890603D5E269391832
:1007D00091420DD80744761C2078800602D5E06946
:1007E000B84205DDAE42E6DB3AF816000028E2D159
:1007F000A069C01BA0612046FFF7FDFED8E90010EC
:10080000CDE90010002017E03AF818106A4602A857
:1008100000F000FEB0F1FF3F81460BD000250DF146
:10082000080B05E0D4E901211BF8050090476D1C79
:100830004D45F7D308F10100B0428046E4DB206A61
:10084000384420622046FFF7ECFEBDE8FF9F000021
:10085000C69F00002DE9F0418046D21D22F007021C
:100860000025D2E90002F52915A614D0011E72F167
:10087000000106DA0023D0EB030063EB020211A6AD
:1008800008E0D8F800108B0701D50FA602E0490751
:1008900001D50EA601251146002408F1240704E025
:1008A00000F060F930323A55641C50EA0102F7D189
:1008B0002B46324621464046BDE8F04100F097B94C
:1008C000000000002D0000002B00000020000000B0
:1008D00030B4002100F1240408E002F00705D2083A
:1008E000303542EA4372DB086554491C52EA03057D
:1008F000F3D10468002310A2250707D5A40600D46D
:1009000021B1C46901230DA2641EC46130BC00F092
:100910006EB910B5044621461068FFF79CFE0246EA
:100920002046BDE810400023D2E7D21D22F0070187
:10093000D1E90023CCE700000000000030000000F7
:10094000F0B40D460188090502D5214C7C4402E033
:100950001F4C7C440E34002100F1240608E002F014
:100960000F071209E75D42EA03721B097754491C1D
:1009700052EA0307F3D102780023120704D5702D41
:1009800006D009B1022311342246F0BC00F02FB981
:1009900001231034F8E770B504460D46214610686F
:1009A000FFF759FE024629462046BDE87040002365
:1009B000C6E7D21D22F00703D3E90023C0E703688E
:1009C000126843F0200303600823C3610023B7E7E4
:1009D000289E00002DE9F05F894604464FF0000A8A
:1009E000DFF874B1FB44C0F820A02046E1688847D6
:1009F000002874D0252806D0D4E901219047206A28
:100A0000401C2062F1E700265F462046E1688847E7
:100A10002028054607DB312D05D2781910F8200C67
:100A200008B10643F1E7B00701D526F00406C4F883
:100A30001CA00027C4F818A02A2D09D0284607F0CA
:100A4000B3F938B304EB8708303DC8F8185019E003
:100A500059F8041B204604EB87029161E16888473E
:100A6000012F054618D1E069002820DA26F020067B
:100A70001DE0D8F8180000EB800005EB400030388E
:100A8000C8F818002046E1688847054607F08CF949
:100A90000028EED1012F0AD02E2D08D12046E16882
:100AA00088477F1C0546022F46F02006C4DBA0695C
:100AB000002803DA404246F00106A061F00701D0A9
:100AC00026F010066C2D0BD0682D09D04C2D39D096
:100AD0006A2D35D0742D35D07A2D33D016E038E01C
:100AE000E1682F4620468847B842054609D16C2F59
:100AF00026D04FF48060E1680643204688470546CB
:100B000004E06C2F1AD04FF4807006430DB3A5F1AA
:100B10004100192802D8203546F400664A46294685
:100B2000204626604E46FFF789FB80B101280BD096
:100B3000F61D26F0070000F1080956E74020E4E71B
:100B40008020D8E70020D6E706F104094DE72846C3
:100B500052E7206ABDE8F09FB89D0000004870474A
:100B6000B86D002030B5B0F10A024FEA900E71F175
:100B700000034EEA817EB0EB0E0061EB91014FEA7B
:100B8000101E4EEA017E10EB0E0041EB11114FEAF0
:100B9000102E4EEA016E10EB0E0041EB11214FEAD0
:100BA000104E4EEA014E10EB0E0041EB1141401881
:100BB00041F100014FEAD00040EA41704FEAD10113
:100BC00010EB80054FEA810444EA907444EB010481
:100BD0006D1944EB0404521BA3414FF0000348BFBE
:100BE0000A3200D530BD401C41F1000130BD2DE975
:100BF000F0470D4699469246044600F124080168E4
:100C0000880604D5E06921F01001216000E0012090
:100C1000A84201DD471B00E00027A1697A1902EB19
:100C20000900081AA0612078C00602D42046FFF708
:100C3000E2FC002608E0D4E901211AF806009047FA
:100C4000206A401C761C20624E45F4DB2078C006EA
:100C50000AD52046FFF7CFFC06E0D4E90121302079
:100C60009047206A401C2062381EA7F10107F4DC7F
:100C700007E0D4E9012118F805009047206A401CDC
:100C80002062281EA5F10105F3DC2046FFF7C9FC10
:100C90002078000602D50220BDE8F0870120FBE79E
:100CA00070472DE9FF4F0C461E464FF0FF378BB0C3
:100CB000D2E90001DDF860800A908A46C1F30A5546
:100CC00005B93D46002108464FF00000BAF1000F7B
:100CD00000F4400005DA00EB80004FF4400101EA27
:100CE00050004FEA9059B9F1010F00DDB9460A985A
:100CF00050EA4A000ED044F61050A5F2FF354543A5
:100D00002F14B8F1000F1ED07542291E1EDDC9F147
:100D100000021CE0B8F1010F4FF0000001D03021BB
:100D200003E0F24305E02154401CB042FBDB3046B7
:100D30000022002121540B99C1F80880C1E900204C
:100D40000FB0BDE8F08FBD1B6D1CDEE74A4600DA30
:100D5000694206A800F0F4FB06AB93E8070003AB7A
:100D600083E8070050460A9900F0ADFC8DE80700C3
:100D7000A0F500501F3800900398002D0ADD42F2C4
:100D80001F014A460844002303A90390684600F067
:100D900016FF09E0A0F500504A461F38002303A9BA
:100DA0000390684600F020FF8DE807000004000C67
:100DB00003D04FF0FF30410800E01046B8F1000FBB
:100DC00003D00022009215461EE0751E05D4FFF7E1
:100DD000C9FE303262556D1EF9D5B3460122084373
:100DE00002D000227F1C04E02078302801D10022AC
:100DF0007F1E002A099784D01DE0112D07DAFFF726
:100E0000B1FE303262556D1C50EA0102F5D1084343
:100E100002D00098C8B10EE00021681E05E0235CF6
:100E2000625C63542254401E491C8142F7DBAB468E
:100E3000A81B401E0990002004F80B000B98099A8B
:100E4000C0F80880C0E9002B7AE711264FF00008AF
:100E500057E72DE9F04F88460446D21D22F00701DE
:100E600091B0D1E90001CDE90A0106F04EFA02463F
:100E70000B98C00F01D02D2007E02068810701D515
:100E80002B2002E0202101EAC000032A099001D0B2
:100E9000072A05DB03464146204600F011FB0BE123
:100EA0002078800601D5E06900E00620B8F1650FE2
:100EB000814606D0B8F1660F18D0B8F1670F70D12F
:100EC00031E00020B9F1110F009001DB112301E0A6
:100ED00009F101030AAA01A90CA8FFF7E2FEDDE966
:100EE0000C70002609F10105834647E001204B46BE
:100EF00000904FF000470AAA01A90CA8FFF7D1FE05
:100F0000DDE90DB00C995D46002610B909F101002C
:100F10000D18B9EB050003D4C0F1FF3609F1010546
:100F2000A5EB09002BE0B9F1010F01DA4FF001093F
:100F30000020B9F1110F0090484601DD112300E0B7
:100F400003460AAA01A90CA8FFF7ABFEDDE90C7065
:100F50004D4600268346207800070AD4AB4500DAC8
:100F60005D4601A8012D04DD411911F8011C30294D
:100F700007D04F4502DA17F1040F04DA0120824648
:100F80000FE06D1EEEE7002F02DCED1B3E4403E098
:100F9000781CA84200DD7D1CB81B00F1010A4FF04F
:100FA00000472078000703D4AA4501DB4FF0FF3A41
:100FB0000021B7F1004F0DF143088DF8431024D004
:100FC00002202B23002F01DA7F422D230A21021E4B
:100FD000A0F1010000DC5FB197FBF1FC97FBF1F29F
:100FE00001FB1C7C17460CF1300C08F801CDEEE734
:100FF000A8F1010003702188090501D5452100E011
:101000006521A0F1010800F8011C09980FA9A1EBC6
:101010000807FF1D00B10120411901EBEA70A16929
:101020003844081A401EA0612078C00602D4204629
:10103000FFF7E1FA099828B1D4E901219047206A25
:10104000401C20622078C00622D52046FFF7D3FA44
:101050001EE0002E04DBB34502DD01A8805D00E048
:101060003020D4E901219047206A401C2062761C80
:10107000AAF101005FEA000A0AD100F01DFAC06877
:101080000168405CD4E901219047206A401C20623D
:10109000281EA5F10105DCDC07E0D4E9012118F8E0
:1010A000010B9047206A401C2062381EA7F10107FF
:1010B000F3DC2046FFF7B5FA032011B041E600004B
:1010C0002DE9F04F04460D46D21D22F0070089B0ED
:1010D000D0E900974846394606F017F90246F80F5E
:1010E00001D02D2307E02068810701D52B2302E0E2
:1010F000202101EAC0038DF820300BB1012000E06F
:101100000020032A824601D0072A04DB2946204614
:1011100000F0D6F93FE12078800601D40D2500E0EB
:10112000E569C7F30A560D2D49DA00214FEA175B2E
:1011300008464FF00000002F00F4400007DA00EBF3
:1011400080004FF4400100EBD07001EA600081158F
:10115000012901DD4FF0FF3100224FEA850CBCF17F
:10116000180F06D31346ACF118004FF08052C2405E
:1011700003E04FF4801323FA0CF30CF10C0CBCF1D8
:10118000200F04D3ACF1200C09FA0CF001E007FAAF
:101190000CF000294FF0004801DD18B90FE00ED126
:1011A00040450CD319EB02095F4121B9404502D1FA
:1011B0009F4329EA0209BBEB175F00D0761C208809
:1011C000000502D57B48784402E07A487844193813
:1011D00008AA302302F80A30037C0AF10101002E2C
:1011E0000AF1020A53546A4602DC4FF0300101E072
:1011F0004FF031014FF001088DF8001002D0A6F237
:10120000FF3603E059EA470100D06B4E002D02DCA7
:101210002178090704D54FF002082E218DF801101E
:10122000C44600210BE0C7F303433F01C35C491CE4
:101230006D1E02F80830052908F1010801DA002DB9
:10124000F1DC00210CE000EB1973491C1B786D1ECA
:10125000082902F808304FEA091908F1010801DAF3
:10126000002DF0DC21688B0602D516E0A8F10108FC
:10127000E04505DD02EB080313F8013C302BF5D007
:10128000B8F1000F09DD02EB080313F8013C2E2B27
:1012900003D1090701D4A8F10108002D05DD3E2185
:1012A00002F808106D1E08F10108407C002E02F8BB
:1012B000080008F1010804DA2D20764202F808003F
:1012C00002E02B2002F808000A214FF47A708642CF
:1012D00008F101080BDB96FBF0F3303302F808301D
:1012E00096FBF0F308F1010800FB136601E0642EA1
:1012F0000CDB642096FBF0F3303302F8083096FBE9
:10130000F0F308F1010800FB136601E00A2E06DB8A
:1013100096FBF1F0303002F8080008F1010896FB66
:10132000F1F001FB1060303002F80800A16908F10B
:10133000010808EB050202EB0A00081AA0612078F8
:10134000C00602D42046FFF756F9216A08AE01EB29
:101350000A00206204E0D4E9012116F8010B90474D
:10136000BAF1010AF7D22078C00602D52046FFF76D
:1013700042F96E4609E016F8010B3E280FD0D4E979
:1013800001219047206A401C2062B8F10108F2D286
:101390002046FFF746F909B00320BDE8F08F206A28
:1013A0002844206203E0D4E90121302090476D1EDB
:1013B000EBD3F8E70996000002FCFFFF10B5436984
:1013C00013B1AFF3008001E0FFF74EF9012010BD2B
:1013D000127800F124010A7000224A700122EDE720
:1013E00011684FF0FF32E9E710B5436913B1AFF36D
:1013F000008001E0FFF7D0F9012010BD128800F154
:10140000240182840022C2840122EDE711684FF09A
:10141000FF32E9E770B516460C46054600F044F881
:10142000036893F80101012806D0FF2C0FD8185D3E
:1014300068B101202C7070BDD3F8070132462146F7
:1014400003F2071303442846BDE8704018474FF0E5
:10145000FF3070BD00487047B86D00207546FFF73B
:10146000F9FFAE4605006946534620F00700854661
:1014700018B020B5FEF7BCFFBDE820404FF00006D5
:101480004FF000074FF000084FF0000B21F007016C
:10149000AC46ACE8C009ACE8C009ACE8C009ACE8AF
:1014A000C0098D467047000010B500F005F8001D1A
:1014B00010BD00BFE184000000487047D86D0020D7
:1014C0002DE9F0411F46044603260168072A01F46E
:1014D000006004DB08B116A505E016A503E008B11D
:1014E00015A500E015A521F010002060A069C01E20
:1014F000A0610FB1401EA0612046FFF77CF84FB1FC
:10150000D4E9012138469047206A401C2062C01C63
:10151000206206E0206AFAE7D4E9012115F8010B00
:101520009047761EF8D22046FFF77BF8BDE8F081A1
:101530004E414E006E616E00494E4600696E660077
:101540002DE9F047814616468AB0354878440DC8E3
:101550008DE80D0032487844801C03AC0DC884E847
:101560000D0041F69B300844372190FBF1F290FBCF
:10157000F1F5A5F1800501FB12041B3C02D5644284
:10158000012000E00020DFF898A080460027FA4400
:10159000AAF1BE0A0EE0E0070AD03246684607EB21
:1015A000470101230AEB810100F01EFB8DE80700D3
:1015B00064107F1C002CEED1194F7F44AE3F19E020
:1015C000E80715D007EB04100DF1180A90E80E009B
:1015D0008AE80E00C068F04201D19819089032469E
:1015E000012306A903A800F0FFFA03AB83E8070074
:1015F0006D10641C002DE3D14FF0010332466946A3
:10160000B8F1000F03A802D000F0D9FA01E000F011
:10161000EBFAC9E90001C9F808200AB0BDE8F08773
:101620001493000010B50446AFF300802046BDE8D7
:101630001040FEF768BE00004FF0013C50F8042B4C
:1016400051F8043B9A4221D1A2EB0C03934313EAD5
:10165000CC1317D150F8042B51F8043B9A4215D102
:10166000A2EB0C03934313EACC130BD150F8042BD9
:1016700051F8043B9A4209D1A2EB0C03934313EABD
:10168000CC13DBD04FF00000704700BFD01A01BA76
:10169000B1FA81F101F0180122FA01F0CB40C1F159
:1016A0002001DBB2C0B2C01A2CFA01F3D11A914367
:1016B00011EAC311E6D1704701491820ABBEFEE71D
:1016C0002600020070475FEA400C08BF91F0000F4F
:1016D0004FEA8C234FEAC12243EA51514FEA1C5092
:1016E00018BF00F5F0404FEA300018BF41F000414C
:1016F0005FEA6C5C00F02980BCF1FF3F08BF40F05E
:1017000080407047130C06BF12044FF0100C4FF0CE
:10171000000C130E04BF12020CF1080C130F04BFCF
:1017200012010CF1040C930F04BF92000CF1020C97
:10173000D30F04BF52000CF1010C11464FF0000210
:10174000A0F11F00A0EB0C00704711F0004F08BF84
:10175000704731F000413FF4D5AF0B0C06BF0904D0
:101760004FF0100C4FF0000C0B0E04BF09020CF1EF
:10177000080C0B0F04BF09010CF1040C8B0F04BF04
:1017800089000CF1020CCB0F04BF49000CF1010CD5
:10179000CCF12003A0EB0C0022FA03F302FA0CF2C6
:1017A00041EA030100F10100704720F07F4C80EA1C
:1017B000030023F07F47ACEB070303F57C5300F0F5
:1017C000004003F1FF032DE980494FEA154B09B4AE
:1017D0004FEA144325EA0B4E24EA03480FF204268D
:1017E00006EB132749083E785FEA320203FB0667DF
:1017F000C7F5000707FB06F64FEA54374FEAD6460F
:1018000006F1020607FB066CCCF1005C4FEA1C47B0
:101810002CEA074C07FB06F40CFB06F504EB154617
:101820004FEA961634BF00204FF000404FEAD13700
:1018300006FB07FC4FEA1C4C0CFB0BF7D21B03FB0F
:101840000CF761EB07010CFB0EF7B0EB074072EBF6
:1018500017420CFB08F734BFA2EB0742B2EB07427A
:1018600061EB17414FEA0C444FEA910706FB07FC76
:101870004FEA1C4C0CFB0BF7B0EBC74072EB573236
:1018800003FB0CF734BFA2EBC742B2EBC74261EBDC
:1018900057310CFB0EF7B0EBC70072EB57720CFB25
:1018A00008F734BFA2EBC702B2EBC70261EB577176
:1018B000039F4FEA816141EA921104EBCC044FEAA5
:1018C000D1374FEA826206FB07FC42EA90124FEAE8
:1018D00080604FEA1C4C0CFB0BF7D21B03FB0CF790
:1018E00061EB07010CFB0EF7B0EB074072EB174200
:1018F0000CFB08F734BFA2EB0742B2EB074261EBE7
:1019000017414FEA8C554FEA910704EB9C2406FBE4
:1019100007FC4FEA1C4C0CFB0BF7B0EBC74072EB1B
:10192000573203FB0CF734BFA2EBC742B2EBC742FE
:1019300061EB57310CFB0EF7B0EBC70072EB57723F
:101940000CFB08F734BFA2EBC702B2EBC70261EB96
:10195000577115EB4C254FEA816141EA92114FEA2C
:1019600082624FEAD13742EA901206FB07FC44F14B
:1019700000044FEA80604FEA1C4C0CFB0BF7D21BB3
:1019800003FB0CF761EB07010CFB0EF7B0EB074014
:1019900072EB17420CFB08F734BFA2EB0742B2EB25
:1019A000074261EB174115EB1C154FEA813141EA03
:1019B00092414FEA823242EA90424FEA80304FEA47
:1019C0000C7644F1000448EA03434EEA0B484FF01A
:1019D000000EB2EB080C71EB030724BF62463946D8
:1019E0004EEB0E0E4FF0000B0018524149414BEBED
:1019F0000B0BB2EB080C71EB03077BF1000B24BF60
:101A0000624639464EEB0E0E4FF0000B0018524165
:101A100049414BEB0B0BB2EB080C71EB03077BF16D
:101A2000000B24BF624639464EEB0E0E51EA020708
:101A300018BF46F0010616EB0E7655F1000254F180
:101A4000000103D5BDE88901BDE80088BDE8890132
:101A5000BDE80048B619524141EB0101A3F1010371
:101A6000704780807F7E7D7C7B7A7978777676750B
:101A70007473727171706F6E6E6D6C6C6B6A6A6983
:101A80006868676666656464636362616160605F1D
:101A90005F5E5E5D5D5C5C5B5B5A5A595958585796
:101AA00057565655555554545353525252515150FE
:101AB00050504F4F4F4E4E4D4D4D4C4C4C4B4B4B51
:101AC0004A4A4A4949494848484747474746464697
:101AD00045454544444444434343434242424241D2
:101AE0004141002B9C4630D477002BD01CB54FEAE7
:101AF000370703B44FF010004FF01001BAF1000F98
:101B000006D0BCF1000FDCBF40F0080040F0080137
:101B10004FF000000FBCBDE810400BF1010BBBF112
:101B2000010F08BF5FEA170722BF12F1010211F18E
:101B300001014FF0004143F1000300F0004043EA8F
:101B400000007047F9D35708D0E746EA064613F17C
:101B5000400F4FEA16461FDD13F1200FDFBF16437B
:101B60000A46002120335B42BED0C3F1200746EA7B
:101B7000064602FA07F74FEA164646EA0706C3F199
:101B8000200722FA03F201FA07F721FA03F14FF0D6
:101B9000000342EA0702A7E746EA020646EA0646CB
:101BA0004FEA164646EA0106BCBF46EA0646360C30
:101BB0004FF000034FF000024FF0000194E72DE9D1
:101BC000804C9A46934670B491E8380007C831EAD1
:101BD000400C48BF34EA430C03D5FFF7E6FDFFF79E
:101BE00080FFF0BCBDE8008C2DE9804C9A469346FE
:101BF00070B491E8380007C810F0804F08BF13F0A8
:101C0000804F03D100F005F8FFF76BFFF0BCBDE893
:101C1000008C20F07F4780EA030023F07F4C07EB25
:101C20000C03A3F57C5300F00040A3F1FE0392F0F7
:101C3000000F00F0B38095F0000F00F077802DE9E1
:101C400001494FEA11404FEA144621EA004800FBDF
:101C500006FC24EA064708FB06F607FB08F800FB2B
:101C600007F718EB06484CEB164C4FEA124B18EBF3
:101C700007484FEA15464CEB174022EA0B4E0BFB88
:101C800006FC25EA06470EFB06F607FB0EFE0BFBDD
:101C900007F71EEB064E4CEB164C4FF000061EEB02
:101CA000074E4CEB174B18EB0B0840F1000018EBFC
:101CB0000E0B58EB000840F100008F1A4FF00001A6
:101CC0003CBFC943661B14BFB5EB040C00213CBFED
:101CD000C943F61B4FEA17444EEA8E0E27EA044525
:101CE0004FEA1C4704FB07622CEA074C05FB07F789
:101CF0000CFB05F604FB0CFC16EB074642EB174207
:101D000016EB0C4642EB1C421BEB060658EB02029C
:101D1000414146EA9E0601D5BDE80189B619524106
:101D200041EB0101A3F10103BDE801894FEA14452C
:101D30004FEA114724EA054621EA074C05FB07F460
:101D400006FB07F70CFB06F105FB0CFC11EB07414A
:101D500044EB17444FEA124711EB0C4144EB1C448F
:101D600022EA074C05FB07F206FB07F70CFB06F619
:101D700005FB0CFC16EB074642EB174216EB0C4634
:101D800042EB1C456A1854F1000148BF7047B61970
:101D9000524141EB0101A3F10103704795F0000F9F
:101DA00037D04FEA11424FEA144721EA024624EAAB
:101DB000074C02FB07F106FB07F70CFB06F402FBDE
:101DC0000CFC14EB074441EB17414FEA154714EBA9
:101DD0000C4441EB1C4125EA074C02FB07F506FBCE
:101DE00007F70CFB06F602FB0CFC16EB074645EB6F
:101DF000174516EB0C4645EB1C42121951F1000138
:101E000048BF7047B619524141EB0101A3F10103EC
:101E100070474FEA14454FEA114724EA054621EA84
:101E2000074C05FB07F106FB07F70CFB06F24FF02A
:101E3000000605FB0CFC12EB074241EB174112EBCD
:101E40000C4251EB1C4148BF7047921841EB010115
:101E5000A3F101037047FEE7F0B5059CE57BA67B87
:101E6000A77A46EA0525667B94F806C046EA05256A
:101E7000267B94F802E046EA0525E67A47EA06263C
:101E8000677A47EA0626277A47EA0626E7794CEA80
:101E9000072794F805C04CEA072794F804C04CEAD9
:101EA000072794F803C04EEA0C2C94F801E024783C
:101EB0004EEA0C2C44EA0C2404600F6016601D608E
:101EC000F0BD0000014800F0FABA0000EC03002069
:101ED000014800F0F4BA000014040020002070470C
:101EE0000020704710B500220449054803F09AFE0F
:101EF0000449034803F089FE002010BDB45E0020B1
:101F0000D84F0020B456002038B50D46044601468F
:101F1000084803F07AFE074803F050FE064B1020F5
:101F200028601A1F111F081F0094FFF795FF00205B
:101F300038BD0000D84F0020384F002000207047E7
:101F400014489FED130A164C164D2DED028B80EDB3
:101F5000000A9FED110A9FED118A80ED010A80EDC4
:101F6000028A012006F090FDA07A0328F9D1207B97
:101F70000328F6D1286D18B985ED008A85ED018A10
:101F8000094806F05DF8022006F07EFDE9E7000052
:101F90000000A0432C4F0020000070430000000010
:101FA000504600203C4F0020EC030020014800F088
:101FB000E1BD000074050020014800F0DBBD000019
:101FC0001405002001681823CAB2103AB2FBF3F2DC
:101FD000054B6FF30901032A9B5CC36500D9091DFA
:101FE0008165084670470000A8A6000810B50146A4
:101FF00000208B698A6A4FF0C07453B1B3F5005F5B
:1020000015D072B1012A0CD0022A0AD0032A09D1B4
:1020100004E01AB1012A06D0022A03D1C96AC90113
:1020200000D5012010BDC96AA142FAD010BD002A16
:10203000F7D0012AF2D0022AF3D0032AF3D010BD40
:1020400030B50468256825F4802525600468636040
:102050008368402B036803D099600068C26030BD7C
:102060009A600068C16030BD70B500242DED048B0E
:102070004FF496750121414807F053F8284606F0C1
:1020800003FD02213D4807F04CF8284606F0FCFC11
:1020900003213A4807F045F8284606F0F5FC641C91
:1020A000032CE7DB9FED370A9FED351AF0EE400A6F
:1020B00005F0EEFFDFED341A9FED342A344CC0EE0C
:1020C000210A9FED341A20EE820A84ED1A0A9FED50
:1020D000320AF0EE400A05F0DBFFC0EE210A9FED68
:1020E0002F1A20EE820A84ED380A9FED2D0AF0EEB9
:1020F000400A05F0CDFFC0EE210A9FED2A8ADFEDF0
:102100002A8A9FED2A9AF0EE481AB0EE681A012149
:102110001A4820EE820AB8EE002AF0EE490A84ED51
:10212000560A94ED1A0A02F06BFC022006F0ACFC91
:1021300094ED380AB8EE002AF0EE481AB0EE681AAC
:10214000F0EE490A02210D4802F05AFC022006F086
:102150009BFC94ED560AB8EE002AF0EE481AB0EE59
:10216000681AF0EE490A0321044802F049FCBDEC6C
:10217000048B0220BDE8704006F086BC14040020E9
:102180000000E2420000A64200003443DB0F49C0D9
:10219000A044002000003143000013430000294305
:1021A00000000B43666646400000864200000000C7
:1021B000704772B6FEE710EE102A10EE901A027009
:1021C000130A4370130C8370120EC27001710A0A55
:1021D00042710A0C8271090EC171704790F820207B
:1021E000012A07D0022A05D0416A41F480214162C8
:1021F00001207047006842690A434261002070472D
:10220000F0B590F820500468A468012D05D0022D87
:1022100003D0416A41F480214DE014F0406F01D1B8
:10222000E50045D5C4F301640125A5401D608D6816
:102230004FF4C0739DB1CE6835434E6845EAC6057C
:10224000066803EB0417F5514FF4C275076805EBF8
:1022500004150E697E51097D012905D009E00E881B
:10226000CD6845EA4655EBE701684E5946F480765D
:102270004E511179D2F805504FF4C67641EA052146
:10228000056806EB0416A9511178D2F801204FF425
:10229000C47541EA0221026805EB0415515100683A
:1022A00003EB0411425842F0010242500020F0BDFD
:1022B000416A41F4001141620120F0BD10B590F86F
:1022C0002020012A07D0022A05D0416A41F480214A
:1022D0004162012010BD3B48D0F8002242F00102CB
:1022E000C0F80022D0F8002222F47C52C0F800226C
:1022F000D0F800224B6A42EA0322C0F800220A7D8D
:1023000002F01F0301229A40D0F81C329343C0F818
:102310001C32CB69B3B9D0F80C329343C0F80C32FD
:102320008C894B6864F31F434C6900EBC404C4F808
:1023300040320C890B6864F31F434C6900EBC40402
:10234000C4F84432CB69012B16D1D0F80C321343B8
:10235000C0F80C320C884B6864F31F434C6900EBE7
:10236000C404C4F840320C89CB6864F31F434C6941
:1023700000EBC404C4F844328B69002BD0F804325B
:102380000ED01343C0F804320B69002BD0F814327E
:1023900008D01343C0F81432096A012904D008E0B8
:1023A0009343EFE79343F5E7D0F81C121143C0F8CD
:1023B0001C12D0F8001221F00101C0F80012002018
:1023C00010BD000000640040704770B590F82040D8
:1023D000012C05D0022C03D0416A41F4802128E071
:1023E000046809B32469A40720D04FF4D8740568A1
:1023F00004EB01142D5915F00405956005682D595D
:102400001AD0ED08556005682C5904F00204D46018
:102410004FF4DA74056804EB01142E5906F00F0628
:10242000082E0CD308250DE0E468DCE7416A41F48E
:1024300000114162012070BD6D0D1560E3E72D595B
:1024400005F00F05156105682D59C5F30725956140
:1024500005682C59240C54614FF4DC72046802EBBB
:102460000112A4581C700468A458240A5C70046803
:10247000A458240C9C700468A258120EDA704FF411
:10248000DE72046802EB0112A4581C710468A4589F
:10249000240A5C710468A458240C9C710468A25836
:1024A000120EDA71006829B1016941F02001016161
:1024B000002070BDC16841F02001C160F8E72DE93E
:1024C000F05F0546006800244669D0F804908768EC
:1024D000D0F80CB0D0F810A0D0F81880F10748D090
:1024E000F90714D001218160B80703D5284600F010
:1024F000E0FA0CE0780702D54FF4006407E03807F3
:1025000002D54FF4805402E0284600F0D1FAF805D5
:1025100016D529684FF480708860B80503D5284621
:1025200000F0C9FA0CE0780502D544F4005407E045
:10253000380502D544F4804402E0284600F0BAFA97
:10254000F80316D529684FF480308860B80303D5A6
:10255000284600F0B2FA0CE0780302D544F40044B7
:1025600007E0380302D544F4803402E0284600F046
:10257000A3FA300707D55FEACB6004D5296810209D
:1025800044F40074C86070074FF0080707D55FEA8D
:102590000B7004D52868C760284600F093F9B0078F
:1025A00006D52868C068800702D0284600F08CF95C
:1025B000700607D55FEACA6004D52968102044F484
:1025C00080640861B00607D55FEA0A7004D5286800
:1025D0000761284600F03CFAF00606D52868006935
:1025E000800702D0284600F034FAB00308D55FEA2D
:1025F000C96005D5296810204860284600F02AFAED
:10260000F00307D55FEA097004D5286847602846BB
:1026100000F054FA300446D55FEA497040D5F00521
:1026200004D55FEAC87001D044F00104B00504D5B8
:102630005FEA887001D544F00204700504D55FEAB2
:10264000487001D544F00404300529D518F0700F06
:1026500026D008F07000402815D006DC102809D0DC
:1026600020280AD0302816D10AE050280ED0602841
:1026700011D10EE044F008040DE044F010040AE02B
:1026800044F0200407E044F0400404E044F08004F7
:1026900001E044F480742868816921F0700181614F
:1026A000296804204860002C05D0686A20436862CD
:1026B0002846FFF789FEBDE8F09F70B5040003D0FF
:1026C00094F8200010B104E0012070BD204600F015
:1026D00081F82068016841F00101016000F0CCFC44
:1026E0000546052604E000F0C7FC401B0A2811D867
:1026F00020684068C007F6D02068016821F0020118
:10270000016000F0B9FC05460BE000F0B5FC401B91
:102710000A2806D9606A40F40030606284F82060BC
:10272000D2E7206840688007EFD4207E0128206827
:1027300001683DD021F080010160607E01282068A1
:10274000016838D021F040010160A07E0128206896
:10275000016833D021F020010160E07E012820686B
:1027600001682ED041F010010160207F012820680F
:10277000016829D021F008010160607F01282068EC
:10278000016824D021F004010160D4E9020108436A
:10279000D4E90412114308436168491E08432168C3
:1027A000C86100206062012084F82000002070BD14
:1027B00041F08001C0E741F04001C5E741F0200150
:1027C000CAE721F01001CFE741F00801D4E741F05A
:1027D0000401D9E7F0B587B0044614216846FDF737
:1027E000D5FE334B3348DFF8C4E01968D4F800C095
:1027F000304A03250226092710300024491CF445DD
:102800001DD11960012907D1016841F000710160F3
:10281000006800F000700590106840F0080010603B
:102820001068CDE9005600F00800CDE90470694653
:102830002148CDE9024500F021FB07B0F0BDDFF8EB
:102840007CE0F445F9D1D0F800C04CF0806CC0F8C1
:1028500000C0D0F800C001290CF0806CCDF814C085
:10286000196007D1016841F000710160006800F053
:1028700000700590106840F002001060106802AB14
:1028800000F0020005906020CDE9000683E8B0006A
:1028900069460B4800F0F2FA00220521402000F0C2
:1028A0005DFC402000F04CFCC7E7000000640040E5
:1028B0000C00002030380240000C0240006800404C
:1028C000000402407047000010B504462DED028B55
:1028D00094B000685649884244D10BAB0DAA002140
:1028E0002046FFF772FD0D98A0F50070053805D061
:1028F0005049FC281BD0FD2834D129E04E49042042
:1029000008704E480246038D02F128011386BDF877
:102910002C2052BA0285BDF82E0040BA4880BDF87E
:10292000300040BA88809DF8320088711AE0BDF806
:102930002C0040BA0880BDF82E0040BA4880BDF88F
:10294000300040BA8880BDF8320040BAC88009E043
:10295000BDF82C0040BA08819DF82E0088729DF8C1
:102960002F0008733649206888422CD102AB04AA94
:1029700000213448FFF729FD304804991038DFED75
:10298000328A9FED328A00F1580411291FD0122992
:1029900035D0132917D18168491C81609DF8080042
:1029A00002A900F00F00C4F8F00004F1F00001F0FB
:1029B00077FF94ED430A84ED4B0AC0EE280A20EE1F
:1029C000880A84ED510A14B0BDEC028B10BD016879
:1029D000491C01609DF8080002A900F00F0020606A
:1029E0001648483001F05CFF94ED070A84ED0F0AA9
:1029F000C0EE280A20EE880A84ED150AE3E7416854
:102A0000491C41609DF8080002A900F00F00A06772
:102A10000A48C03001F044FF94ED250A84ED2D0AE8
:102A2000C0EE280A20EE880A84ED330ACBE70000C6
:102A300000640040504600209400002058440020CC
:102A40000068004014040020DB0F494000003443BC
:102A5000704770477047000070B5044690F820003A
:102A6000012804D0606A40F40020606218E002206F
:102A700084F820002068016821F00101016000F065
:102A8000FBFA05460EE000BF00F0F6FA401B0A28EC
:102A900008D9606A40F400306062052084F82000A4
:102AA000012070BD20684068C007EDD1606270BD34
:102AB00070477047704770477047704770472DE9FF
:102AC000F0410446876D00F0D7FA064694F83500C9
:102AD0000025022806D08020606584F8345001204B
:102AE000BDE8F0812068016821F0160101602068CE
:102AF000416921F080014161206C08B9A06C20B1CE
:102B00002068016821F0080101602068016821F057
:102B1000010101600CE000F0AFFA801B052807D925
:102B200020206065032084F8350084F83450D7E70E
:102B300020680068C007EED194F85C103F20884000
:102B4000B860012084F8350084F834500020C7E7CD
:102B500090F83510022903D080214165012070478B
:102B6000052180F835100068016821F0010101603D
:102B7000002070472DE9F84304464FF00009CDF8D6
:102B8000009063484FF41651A56D0068B0FBF1F753
:102B90002E6894F85C10082000FA01F131420FD041
:102BA00021680A6852070BD50A6822F004020A60FD
:102BB00094F85C108840A860606D40F0010060658A
:102BC00094F85C104FF0010808FA01F0304208D088
:102BD00021684969090604D5A860606D40F00200CB
:102BE000606594F85C1004208840304208D0216869
:102BF0000968890704D5A860606D40F0040060652D
:102C000094F85C1010208840304218D02168096880
:102C1000090714D5A86020680168490304D5006835
:102C2000000308D5A16C07E00168C90503D4016859
:102C300021F008010160216C09B12046884794F811
:102C40005C1020208840304231D021680968C906D4
:102C50002DD5A86094F8350005282068016806D0B5
:102C6000490347D5006800031DD4616C1CE021F0C6
:102C7000160101602068416921F080014161206CEA
:102C800008B9A06C20B12068016821F0080101603A
:102C900094F85C103F208840A86084F8358084F860
:102CA0003490216D1FE0E16B09B120468847606DCB
:102CB00000282BD0606DC00714D0052084F83500A3
:102CC0002068016821F0010101600098401C00901B
:102CD000B84203D820680068C007F6D184F8358070
:102CE00084F83490E16C002910D001B02046BDE892
:102CF000F04308470168C905D5D4016821F01001E7
:102D0000016084F8358084F83490CCE7BDE8F8831E
:102D10001C0000202DE9F041044600F0ADF9064604
:102D20005CB1022084F83500002584F83450206816
:102D3000016821F0010101600DE00120BDE8F08192
:102D400000F09AF9801B052805D920206065032032
:102D500084F83500F2E720680068C007F0D12268E7
:102D6000116820480140D4E901031843D4E903362F
:102D70003343184363691843A3691843E36918434D
:102D8000236A18430843616A042903D1D4E90B1369
:102D900019430843106020684069666A20F0070103
:102DA00030460E43012704280CD1A06A0643E06A8E
:102DB00040B12046FFF71AF920B14020606584F841
:102DC0003570BAE7206846612046FFF7FBF894F8B3
:102DD0005C203F2191408160656584F8357000205A
:102DE000ACE700003F8010F02DE9F0410446866D0D
:102DF00090F83400002501280DD0012084F834001B
:102E000094F835700020012F07D084F83400022593
:102E10002846BDE8F0810220FBE7022784F83570E0
:102E200060652046FFF70CF994F85C103F2088405D
:102E3000B0602068016841F016010160206C20B18B
:102E40002068016841F0080101602068016841F0D4
:102E500001010160DCE7000070B5044600F00CF9E8
:102E60000546601C02D004480078044400F004F9D0
:102E7000401BA042FAD370BD100000202DE9F84F8E
:102E8000DFF8BCA10022012503264FF00F090AF14B
:102E9000040BAAF1040E00BF0B6805FA02F42340EC
:102EA000A34270D10F7907F00307012F01D0022F41
:102EB00016D187684FEA420806FA08FC27EA0C0791
:102EC000D1F80CC00CFA08FC4CEA070CC0F808C09A
:102ED0004768A7430C79C4F3001494403C43446012
:102EE0000C79E443A4070AD0C4684FEA420C06FAFE
:102EF0000CF7BC438F6807FA0CF72743C7600C79BF
:102F000004F00304022C12D1D40800EB840CDCF88A
:102F100020405707FF0E09FA07F824EA0804D1F801
:102F2000108008FA07F848EA0408CCF82080046802
:102F30004FEA420C06FA0CF7BC430F7907F003077F
:102F400007FA0CF7274307604C6814F4403F70D031
:102F50003C4C276847F480472760246822F0030729
:102F600004F480440094384C07EB040CDCF8084867
:102F700097074FEA177809FA08F7BC43334FB8426E
:102F800002D1002724E054E0314FB84201D101279B
:102F90001EE0304FB84201D1022719E02E4FB8424F
:102FA00001D1032714E02D4FB84201D104270FE0CF
:102FB0002B4FB84201D105270AE02A4FB84201D170
:102FC000062705E0284FB84201D1072700E008276F
:102FD00007FA08F72743CCF80878DAF80040574694
:102FE000D1F804C09C435FEACC2C00D51C433C6064
:102FF000DBF800405F46D1F804C09C435FEA8C2CAC
:1030000000D51C433C60DEF800407746D1F804C090
:103010009C435FEA8C3C00D51C433C60084F083F52
:103020003C68D1F804C09C435FEACC3C00D51C430B
:103030003C60521C102AFFF42FAFBDE8F88F00004F
:10304000083C01404438024000300140000002408A
:103050000004024000080240000C02400010024040
:103060000014024000180240001C02400AB18161B5
:1030700070470904FBE700000148806870470000C2
:103080001000002002488168027811448160704776
:10309000100000200B4810B5016841F40071016078
:1030A000016841F480610160016841F48071016050
:1030B000032000F073F80F2000F006F800F024F869
:1030C000002010BD003C024070B50D4D04464FF489
:1030D0007A712878B1FBF0F00A490968B1FBF0F089
:1030E00001F030F848B9102C07D200222146501EBA
:1030F00000F034F800206C6070BD012070BD00004D
:10310000100000201C0000200C4882B0016841F42F
:1031100080410160006800F4804000900748001F73
:10312000016841F0805101600068002200F0805089
:1031300000900F21901E02B000F010B844380240F9
:10314000002809DB00F01F020121914040098000A6
:1031500000F1E020C0F8001170470000F0B40E4B01
:103160001B680C46C3F30223C3F10705042D00D9E5
:103170000425191D072901D2002300E0DB1E0126CA
:1031800006FA05F1491E214099409E40761E1640E0
:103190003143F0BC04F0D1B80CED00E0064900F07A
:1031A000070208684FF6FF03184040EA0220034A6E
:1031B00010430860704700000CED00E00000FA05C5
:1031C00070470068416200207047F0B50368586A94
:1031D00039B19C6A4FF4827600EB144400204D1EF6
:1031E0000AE040EA024098620FE006EB8007DF59F0
:1031F000401C04EB1744C0B2A842F6D344EA024094
:103200004FF4807202EB810158500020F0BDD0F8DD
:10321000E00402F0DDBF01EBC10200EB8202D0F856
:10322000E004126A02F032BF01EBC10200EB82023D
:10323000D0F8E004D2F8602202F083BFD0F8E004B6
:1032400002F0C8BF0A0601F00F0101EBC10100EB5B
:10325000810101D5143101E001F51571006803F019
:10326000A1BE70B504460B0601F00F0000EBC001D3
:1032700004EB81014FF001024FF0000502D54A75C1
:10328000143103E081F8555201F51571087094F876
:103290009404012808D084F89424206803F0A0FB4B
:1032A00084F89454002070BD022070BD70B50446AF
:1032B00001F00F002279904201D9012070BD0B0668
:1032C00001F00F0101EBC10104EB81014FF001029C
:1032D0004FF0000502D54A75143103E081F85552CC
:1032E00001F515718D70087094F89404012808D0C8
:1032F00084F89424206803F0E5FC84F894540020BA
:1033000070BD022070BD01F00F0101EBC10100EBA7
:103310008100D0F8680270472DE9F04104460F069D
:1033200001F00F0000EBC00104EB81014FF001063A
:103330004FF0000502D54E75143103E081F8555267
:1033400001F5157108708A600B714A7802B14883E3
:10335000022B00D14D7194F89404012809D084F80F
:103360009464206803F08EFA284684F89454BDE8EB
:10337000F0810220FBE710B501F00F0404EBC4015B
:1033800000EB8101C1E998230023C1F8683281F87C
:10339000553281F85442837901F51571012B00D122
:1033A000CA618279006803F0E5FC002010BD70B5A9
:1033B00004460D4601F00F002179884201D9012011
:1033C00070BD29064FF000064FF0010206D500EB54
:1033D000C00104EB81014A75143107E005EBC5011A
:1033E00004EB810181F8556201F515718A7008704E
:1033F00094F89404012807D084F89424206803F0FA
:103400008DFC280702D007E0022070BDA17904F2EC
:103410009C42206803F02AFC84F89464002070BD6C
:1034200010B501F00F0404EBC40100EB8101C1E908
:10343000082300238B6201234B7501F8144F837915
:10344000012B00D1CA618279006803F093FC00204F
:1034500010BD00002DE9FC5F05680446284603F016
:103460003DFE00287DD1206803F064FE002878D05E
:10347000D5F80808C0F30D20C4F8D404206803F080
:1034800059FE800704D52068416901F002014161BD
:10349000206803F04FFEC10604F29C40009034D532
:1034A0002068816921F0100181612F6A07F00F0007
:1034B00000EBC00004EB8006C7F3434006F5157629
:1034C000022802D0062811D01AE047F6F070074211
:1034D00016D0C7F30A1217462846F16803F02EFEED
:1034E000F0683844F0607069384408E008222846E3
:1034F000009903F023FE7069C7F30A110844706154
:103500002068816941F010018161206803F012FE9A
:1035100000034FF0080B4FF0000A4FF001097CD573
:103520000026206803F0E5FD074674E0F80770D038
:10353000F1B2206803F0F6FD8046C00707D005EB26
:103540004611C1F8089B3146204601F059FC5FEA5C
:10355000087024D505EB4611C1F808BB2068016C42
:1035600000E023E200EB46100191D0F8082BFB4B62
:10357000994205D9110403D54FF40041C0F8081B46
:10358000204600F0F6FAF5490198884207D9A0795B
:10359000012804D120680121009A03F067FB5FEA4B
:1035A000C86004D505EB46111020C1F8080B5FEA8E
:1035B00088701DD56869000605D5D5F8040840F463
:1035C0008061C5F8041806EBC60004EB800090F893
:1035D000571200F51570012905D180F803A0F1B24A
:1035E000204600F0E9F905EB46110220C1F8080B6E
:1035F0005FEA886004D505EB46102021C0F8081B5F
:103600005FEA884005D505EB46104FF40051C0F83D
:10361000081B7F08761C002F88D1206803F08AFDE4
:1036200040036ED5206803F05DFD0746002666E086
:10363000F80762D0F1B2206803F062FD8046C0074F
:1036400023D006F00F01D5F8342809FA01F18A4396
:10365000C5F8342805EB4611C1F80899A07901286E
:103660000FD106EBC60004EB8000D0E9072111441E
:10367000016236B9606A20B920680121009A03F01E
:10368000F5FAF1B22046FFF7C6FD5FEA087003D5F0
:1036900005EB4611C1F808B95FEAC86004D505EB2F
:1036A00046111020C1F808095FEA486004D505EB0F
:1036B00046104021C0F808195FEA887016D53146D7
:1036C000284603F0E0FC06EBC60004EB8000C17D59
:1036D0001430012905D180F803A0F1B2204600F092
:1036E00067F905EB46110220C1F808095FEA086096
:1036F00003D53146204601F0E9FB7F08761C002FF8
:1037000096D1206803F016FD002811DAD5F80408D8
:1037100020F00101C5F8041894F8CC0401282BD03E
:10372000204600F00BFA2068416901F00041416138
:10373000206803F0FFFC00050BD5D5F80808C0078A
:1037400002D0204600F03EFA2068416901F4006191
:103750004161206803F0EEFCC00467D5D5F8040889
:1037600020F00100C5F804081021206803F08BFC4C
:1037700000214FF67F3220E084F8CCA400212046BF
:10378000FFF71EFDCFE700BF05EB4110C0F8082989
:10379000D0F8003923F40013C0F80039C0F8082B22
:1037A000D0F8003B23F40013C0F8003BD0F8003BF6
:1037B00043F00063C0F8003B491C20798842E3D8FD
:1037C000D5F81C0840F00111C5F81C18E07B002852
:1037D00028460DD0D0F8840840F00B01C5F88418B5
:1037E000D5F8440840F00B012846C5F844180DE010
:1037F000D0F8140842F22B010843C5F81408D5F894
:10380000100840F00B012846C5F81018D0F8000841
:1038100020F4FE61C5F80018A1792068009A03F031
:1038200025FA2068416901F480514161206803F064
:1038300081FC800415D5206803F064F8206803F04B
:1038400040FCE07100F070FA0146E279206803F074
:10385000D3FC204600F05CF92068416901F4005176
:103860004161206803F066FC000707D5204600F0A0
:1038700069F92068416901F008014161206803F09D
:1038800059FC000616D5A86920F08001A96101261F
:103890000DE000BF06EBC60004EB800090F8570275
:1038A000012803D1F1B22046FFF7CCFC761C207929
:1038B000B042EFD8206803F03DFCC0021FD50126BE
:1038C0004F4614E005EB4610D0F8001906EBC60091
:1038D00004EB8002107E012808D1002906DAF0B23C
:1038E00040F08001D7752046FFF7ACFC761C2079AC
:1038F000B042E7D82068416901F480114161206835
:1039000003F018FC800234D501204A4629E000BFAC
:1039100005EB4011D1F8001B00EBC00304EB83035F
:1039200093F85862012E1BD1002919DA94F8D46457
:1039300001F4803106F00106B14211D183F857221B
:10394000A96941F08003AB616969090608D4D5F81B
:10395000040840F40070C5F8040805E00A30544F2C
:10396000401C21798142D3D82068416901F40011BB
:103970004161206803F0DEFB400007D52046FFF7D9
:1039800046FC2068416901F080414161206803F0F4
:10399000D1FB40070AD520684568680702D5204654
:1039A000FFF74CFC2068416829434160BDE8FC9F5B
:1039B000D0F8E00402F061BCD0F8E00402F071BC81
:1039C000F8B5040005D094F895042668002510B1D8
:1039D00006E00120F8BD84F89454204600F056F823
:1039E000032084F89504B6F1A04F00D1A57120689A
:1039F00003F036F9207C8DF8000094E80F0002F007
:103A00008FFF0226B8BB0021206803F0B6FB90BBF5
:103A1000002001270DE000BF00EBC00104EB810195
:103A20004F750875C8850D76CD610D62401CC0B21A
:103A30004D6221798142EFD8002011E000EBC001F6
:103A400004EB810181F8555281F8540281F85852F3
:103A5000C1F85C52C1F86052401CC0B2C1F8645257
:103A600021798142EAD8207C8DF8000094E80F008B
:103A700003F038F810B184F89564AAE7657484F807
:103A80009574206803F020F80020F8BD10B586B0CA
:103A9000044614216846FCF779FD2068B0F1A04F78
:103AA0002FD119480021026842F00102026000682B
:103AB00000F0010005904FF4C05000900220CDE9C5
:103AC0000101032003900A20049069460F48FFF784
:103AD000D5F90D48001D016841F0800101600A48D8
:103AE0001430016841F4804101600068002200F454
:103AF0008040059005214320FFF730FB4320FFF76E
:103B00001FFB06B010BD000030380240000002402C
:103B100070B50446C079012570B1022801D0FEF7C6
:103B200048FB2946D4F8E00402F029FCD4F8E0046C
:103B3000BDE8704002F0DEBB0025F2E7D0F8E004FB
:103B400002F006BCD0F8E00402F00CBC10B504464C
:103B500090F8940401280AD0012084F89404617438
:103B6000206803F038FB002084F8940410BD022084
:103B700010BDD0F8E02400F29C41104602F00BBCCE
:103B800010B50446006894F89414012909D0012165
:103B900084F89414C168490609D5617B012902D0D3
:103BA00005E0022010BD816B41F480318163206803
:103BB00003F047FA206802F079FF002084F89404AB
:103BC00010BD000010B50446D0F8E00402F025FC5A
:103BD0002068D0F8001E41F00101C0F8001EE07A14
:103BE000002804D00248016841F00601016010BDC0
:103BF00010ED00E02DE9F0470E46050065D0DFF836
:103C00001481D8F80000F7B200F00700B04207D2E4
:103C100088F80070D8F8000000F00700B04254D1D6
:103C200028683D4C810712D5400703D5206840F431
:103C3000E05020602878000703D5206840F46040F9
:103C400020602068A96820F0F000084320602878F0
:103C5000C0072DD0304968680839012812D00228E1
:103C600013D0032811D00968890700292DDA2168AB
:103C700021F0030101432160FFF7FEF9814641F283
:103C8000883A0EE009688903EFE709688901ECE7E3
:103C9000FFF7F2F9A0EB0901514502D90320BDE875
:103CA000F0872068696800F00C00B0EB810FEFD15D
:103CB000D8F80010404601F00701B14207D907705B
:103CC000006800F00700B04201D00120E7E7287843
:103CD000400705D52068E96820F4E05008432060DB
:103CE0002878000706D52068296920F4604040EA5A
:103CF000C100206000F03EF82168084AC1F30311BA
:103D0000515CC8400649086006480068FFF7DCF9C6
:103D10000020C4E7003C024008380240B0A600087A
:103D20001C000020140000200148006870470000BB
:103D30001C0000200448054900680968044AC1F3D2
:103D40008221515CC84070471C00002008380240A6
:103D5000C0A600080448054900680968044AC1F380
:103D60004231515CC84070471C00002008380240B6
:103D7000C0A60008154810B5006810F00C021448E1
:103D800013D01449042A0FD0082A0ED10F4C241F37
:103D90002268236802F03F025B0207D52068C0F367
:103DA0008810A0FB010106E0084610BD2168C1F3A0
:103DB0008811A1FB00010023FCF72CFB2168C1F353
:103DC0000141491C4900B0FBF1F010BD0838024028
:103DD0000024F400001BB7002DE9F84F04006ED05A
:103DE0002078DFF84C93C007A9F104054AD009F107
:103DF00004000168C1F38101012908D00068C0F303
:103E0000810002280AD1D9F80000400206D52868AE
:103E1000800337D560680028E1D033E06068B0F5F2
:103E2000803F10D0B0F5A02F286810D020F480304B
:103E30002860286820F4802028606068A8B1FFF717
:103E40001BF906460DE0286840F48030F4E740F4A2
:103E500080202860F7E700BFFFF70EF9801B642879
:103E600073D828688003F7D50CE0FFF705F90646FC
:103E700005E000BFFFF700F9801B6428F0D8286830
:103E80008003F7D42078DFF8AC8280074FF0000A77
:103E90003ED5A748001D016811F00C0F08D000683E
:103EA000C0F3810002280BD1D9F80000400207D4EA
:103EB0002868800716D5E068012800D112E033E1B8
:103EC000E068B8B10120C8F80000FFF7D5F8064651
:103ED00005E000BFFFF7D0F8801B0228C0D8286893
:103EE0008007F7D52868216920F0F80040EAC10072
:103EF00028600DE0C8F800A0FFF7BEF8064604E011
:103F0000FFF7BAF8801B02281FD828688007F7D46B
:103F10002078000722D5864F87486169703771B1D4
:103F200001210160FFF7A8F8064604E0FFF7A4F8B6
:103F3000801B022809D838688007F7D50EE0C0F842
:103F400000A0FFF799F8064605E082E0FFF794F835
:103F5000801B02287DD838688007F7D42078400776
:103F600068D5DFF8CCB100270BF13C0BDBF8000083
:103F7000C0000BD4DBF8001041F08051CBF80010EA
:103F8000DBF80000012700F0805000906B4E306895
:103F9000C00510D4306840F480703060FFF76CF8D2
:103FA000009005E0FFF768F80099401A022850D801
:103FB0003068C005F6D55E4EA0686C3601280FD07B
:103FC0000528306810D020F001003060306820F003
:103FD00004003060A068B8B1FFF74EF800900FE021
:103FE000306840F00100F4E740F004003060F7E78B
:103FF000FFF742F80099411A41F28830814266D8B1
:1040000030688007F4D50EE0FFF736F8009007E03F
:10401000FFF732F80099411A41F28830814256D8B0
:1040200030688007F4D42FB1DBF8001021F0805104
:10403000CBF80010A069C8B33D49091D0968C1F358
:10404000810102294AD00228504607D0C8F86000F2
:1040500000E03CE0FFF710F804463BE04746C8F8B4
:104060006000FFF709F8064605E000BFFFF704F817
:10407000801B02282BD828688001F7D4D4E90701D7
:104080000843A16A2E4A490802EB0141626A41EAEB
:104090008211084394F82C1040EA0161C9F800101D
:1040A00001203866FEF7E8FF044606E03EE000BF68
:1040B000FEF7E2FF001B022809D828688001F7D527
:1040C00034E000BFFEF7D8FF001B022802D903200E
:1040D000BDE8F88F28688001F4D427E00128F7D0E4
:1040E000D9F80000E26900F4800191421CD1226AF3
:1040F00000F03F01914217D147F6C071626A01405A
:10410000B1EB821F10D1A26A4FF0FF3300F44031AF
:1041100003EB5202B1EB024F06D194F82C1000F0E1
:104120007060B0EB016F01D00120D1E70020CFE734
:104130000438024000004742800E474200700040B1
:104140000000FFFF10B5401EB0F1807F01D30120B9
:1041500010BD4FF0E02460610F21601703F0EDF80F
:104160000020A06107202061002010BD70B590F8EC
:104170003C20012A32D0012480F83C40022280F801
:104180003D2003685A689D6822F070060A68324331
:104190005A60134B02689A4214D0B2F1804F11D08A
:1041A000104B9A420ED0104B9A420BD00F4B9A42B2
:1041B00008D00F4B9A4205D00E4B9A4202D00E4BBC
:1041C0009A4204D1496825F080031943916080F830
:1041D0003D40002180F83C10084670BD022070BDB3
:1041E000000001400004004000080040000C0040B6
:1041F00000040140004001400018004010B586B0A6
:10420000044614216846FCF7C1F90E49206888422B
:1042100015D10D480021026842F0080202600068D2
:1042200000F0080005904FF4805000900220CDE986
:104230000101CDE9031069460448FEF71FFE06B0F0
:1042400010BD00000008004030380240000C024061
:1042500070B5044690F83C0000260D4601280FD0AA
:10426000012084F83C006AB1042A1DD0082A2FD00E
:104270000C2A3FD00126002084F83C00304670BD57
:10428000022070BD206801F05BF82068816941F070
:10429000080181612068816921F004018161206841
:1042A00081692A69114311E0206801F079F82068DA
:1042B000816941F4006181612068816921F4806134
:1042C0008161206881692A6941EA02218161D2E71E
:1042D000206801F09BF82068C16941F00801C161C4
:1042E0002068C16921F00401C1612068C1692A699F
:1042F000114311E0206801F0BDF82068C16941F464
:104300000061C1612068C16921F48061C1612068D8
:10431000C1692A6941EA0221C161ACE710B5040014
:1043200003D094F83D0010B107E0012010BD00203B
:1043300084F83C00204600F01FF8022084F83D007D
:10434000211D206800F090FF012084F8460084F8C9
:104350003E0084F83F0084F8400084F8410084F86F
:10436000420084F8430084F8440084F8450084F84F
:104370003D00002010BD000008B5006806498842D5
:1043800008D10648016841F004010160006800F0AE
:104390000400009008BD00000008004040380240C2
:1043A00070477047F8B5016804460868CA684B69E9
:1043B00010F00F0F4FF0000559D003F0010602F482
:1043C0009077374365D0C10705D0D10503D5616C1F
:1043D00041F001016164410705D5D90703D0616C43
:1043E00041F002016164810705D5D90703D0616CF2
:1043F00041F004016164010707D502F02001314357
:1044000003D0616C41F008016164616C00293AD00D
:10441000800604D5900602D5204601F0DBF820681E
:104420004069616CC0F38010090700D460B3204676
:1044300001F09BF820684069400621D520681430BF
:1044400050E8001F21F0400140E80012002AF5D199
:10445000E06BA8B16E490165E06BFEF779FB0028BF
:1044600011D0E06B016D01B0BDE8F0400847830654
:104470000FD593060DD52046BDE8F84001F0AAB847
:104480002046FFF78EFFF8BD2046FFF78AFF6564E0
:10449000F8BD266B2023012E7DD1C6067BD5D6061E
:1044A00079D508684868009048694FF002064006D0
:1044B00041D5E16B086840680004000CE8D0A28D8B
:1044C0008242E5D9E085C869B0F5807F2DD02068AB
:1044D0000C3050E8001F21F4807140E80012002ADF
:1044E000F5D12068143050E8001F21F0010140E8A8
:1044F0000012002AF5D12068143050E8001F21F086
:10450000400140E80012002AF5D184F842302563CA
:1045100020680C3050E8001F21F0100140E8001224
:10452000002AF5D1E06BFEF7CAFA6663A08DE18D33
:10453000401A81B22AE0A08DE18D401A81B2E08D4F
:104540000028A5D00029A3D022680C3252E8000F21
:1045500020F4907042E80007002FF5D12068143055
:1045600050E8002F22F0010240E80027002FF5D18B
:1045700084F84230256320680C3050E8002F22F088
:10458000100240E80023002BF5D166632046FFF7B8
:1045900007FFF8BDFFE705062BD5150629D594F8CA
:1045A00041002128F5D1A068B0F5805F01D12069D4
:1045B000B0B1206A411C2162216800784860E08C1B
:1045C000401E0004000CE084E3D12068C16821F0A3
:1045D0008001C1602068C16841F04001C160D8E736
:1045E000206A0088C0F308004860206A801C2062AE
:1045F000E5E74006CDD55006CBD5CA68204622F067
:104600004002CA6084F8413000F02AF9C1E7000096
:10461000C554000870B5040004D094F8410000258A
:1046200010B106E0012070BD84F84050204600F033
:1046300023F8242084F841002068C16821F4005147
:10464000C160204601F028F82068016921F49041FA
:1046500001612068416921F02A0141612068C16837
:1046600041F40051C1606564202084F8410084F861
:1046700042006563002070BD2DE9F04F87B006460B
:1046800014216846FBF782FF4D4B316800244D48EA
:104690000225032207274FF000694FF4806A4FF488
:1046A000403B99424AD1474914310B6843F010030B
:1046B0000B60096801F010010591016841F00201E9
:1046C0000160016801F002010591016841F00101FA
:1046D00001600068CDE9024200F0010005908020F1
:1046E000CDE900059046694604973748FEF7C6FBBA
:1046F0002802CDE90005CDE9024869460497334810
:10470000FEF7BCFB334D3248E5E802094020A5E83E
:104710001104304845F81449AC61C5E9074B6C6297
:10472000FEF7F8FA08B1FDF744FDB5630022052154
:104730002520AE63FEF712FD25203BE0264B994273
:104740003AD1204910310B6843F480230B6009688B
:1047500001F480210591016841F0040101600068C5
:10476000CDE9024200F0040005904FF44060CDE92D
:104770000005694604971948FEF780FB154D184857
:1047800060352860C5E90194C5E9034A80156C616C
:10479000C5E90640C5E908B42846FEF7BBFA08B1EA
:1047A000FDF707FDF563002205212720AE63FEF724
:1047B000D5FC2720FEF7C4FC07B0BDE8F08F000051
:1047C0000010014030380240000402400000024066
:1047D000B864024014050020004800400008024070
:1047E000286002407047000070B5044690F8410010
:1047F000202801D0022070BD49B342B32162A284B7
:10480000E28400206064212384F84130A56B114BC1
:10481000EB63A56B104B2B64A56B104BEB64A36B88
:104820001865256813462A1DA06BFEF7DDFA21687E
:104830006FF0400008602068143050E8001F41F01D
:10484000800140E80012002AF5D1002070BD01204F
:1048500070BD00001F55000861550008D5540008C0
:1048600070477047FEE70000F0B500230A243025AA
:1048700037261F4611E000BFB4EB107F02D905EBCD
:10488000107C01E006EB107C01F813C001EB430C37
:1048900000015B1C8CF80170DBB29342ECD3F0BDDD
:1048A0002DE9F0410446B1F801000D4646BA0879F9
:1048B000497900F00F0041EA00272068012824D13F
:1048C0002878102100096060F2EE090ABAEE090AA0
:1048D000304604F01DFD84ED070A0C21F3EE0C0AAE
:1048E000BBEE0C0A384604F013FD84ED090AA879E2
:1048F00000EE100AB8EE400A84ED0D0AE87900EEE9
:10490000100AB8EE400A84ED0E0A2068022824D16D
:104910002878102100096060F2EE090ABAEE090A4F
:10492000304604F0F5FC84ED070A0C21F3EE0C0A86
:10493000BBEE0C0A384604F0EBFC84ED090AA879BA
:1049400000EE100AB8EE400A84ED0D0AE87900EE98
:10495000100AB8EE400A84ED0E0A2068032824D11C
:104960002878102100096060F2EE090ABAEE090AFF
:10497000304604F0CDFC84ED070A0C21F3EE0C0A5E
:10498000BBEE0C0A384604F0C3FC84ED090AA87992
:1049900000EE100AB8EE400A84ED0D0AE87900EE48
:1049A000100AB8EE400A84ED0E0A2068042824D1CB
:1049B0002878102100096060F2EE090ABAEE090AAF
:1049C000304604F0A5FC84ED070A0C21F3EE0C0A36
:1049D000BBEE0C0A384604F09BFC84ED090AA8796A
:1049E00000EE100AB8EE400A84ED0D0AE87900EEF8
:1049F000100AB8EE400A84ED0E0ABDE8F08100000E
:104A0000F0B50C462DED048BF0EE609AF0EE400A06
:104A100083B0B0EE428AF0EE618AB0EE419A05466C
:104A2000BAEE090A02F00AFFF2EE090A02F02AFFC2
:104A30001020B2EE091AFAEE090A03F039FB074614
:104A40000C20B2EE041AFAEE040AB0EE690A03F082
:104A50002FFBDFED262A06460C209FED231AF0EEF1
:104A6000620AB0EE490A03F023FB03460C20B1EEC4
:104A7000041AF0EE620AB0EE680A03F019FB02466F
:104A80000C20B3EE0C1AFBEE0C0AB0EE480A03F051
:104A90000FFB17490C6000248C60CC6008240C616B
:104AA000390A8DF800108DF8017031098DF8021067
:104AB000310141EA13218DF803108DF804301109FA
:104AC0008DF80510110141EA10218DF806108DF8BE
:104AD000070001236A4606492846FDF791FB03B00B
:104AE000BDEC048BF0BD00000000FA4300000000A4
:104AF000384600200F4810B50D4901600321416080
:104B000000214FF410228160C0E903124FF400121B
:104B10004261017641768176C17601774177FDF772
:104B2000CCFD002803D0BDE81040FDF742BB10BD0E
:104B300000640040EC030020104810B50E490160ED
:104B40000321416000214FF410228160C0E903126B
:104B50004FF4001242610176012242768176C176DD
:104B600001774177FDF7A9FD002803D0BDE810408B
:104B7000FDF71FBB10BD00000068004014040020BA
:104B8000114808B5016841F400110160016801F4A1
:104B900000110091016841F4800101600068002269
:104BA00000F48000009005210C20FEF7D7FA0C20BD
:104BB000FEF7C6FA002205214620FEF7CFFABDE82F
:104BC00008404620FEF7BCBA3038024010B596B017
:104BD0001C2211496846FBF7A7FC0021684603F038
:104BE0005FFF0E4C0C491C2220601C3107A8FBF70C
:104BF0009BFC002107A803F053FF074960601C22BB
:104C000038310EA8FBF790FC00210EA803F048FFF6
:104C1000A06016B010BD000054A6000800000020DF
:104C200030B587B014216846FBF7B0FC204800245B
:104C3000016841F002010160016801F00201059183
:104C4000016841F001010160016801F00101059175
:104C5000016841F008010160016801F00801059157
:104C6000016841F004010160016801F0040105914F
:104C7000016841F08001016000680E4D00F0800085
:104C800001220590D1022846FEF7F0F900222915ED
:104C90002846FEF7EBF94FF4406000900120CDE983
:104CA0000104694628460394FEF7E8F807B030BDD2
:104CB00030380240001C024010B58AB0002407942E
:104CC0001C2168460894FBF761FC16481449C0E9AA
:104CD00000144FF6FF71C0E9024104618461FFF7DF
:104CE0001DFB08B1FDF765FA079407A90D48089464
:104CF000FFF73CFA08B1FDF75CFA6020CDE900044B
:104D000002940022694607480494FFF7A1FA08B10B
:104D1000FDF74FFA0348FFF771FA0AB010BD000023
:104D2000000800403C0400200C4810B50A4901600E
:104D30004FF4E1314160002181600C22C160C0E983
:104D400004128161C161FFF765FC002803D0BDE852
:104D50001040FDF72EBA10BD001001408404002061
:104D60000C4810B50A4901600B494160002181607F
:104D70000C22C160C0E904128161C161FFF74AFCE5
:104D8000002803D0BDE81040FDF713BA10BD0000A5
:104D900000480040CC040020A086010010B500228D
:104DA0000F49104801F04DF908B1FDF702FA0E491C
:104DB0000C4801F05EFB08B1FDF7FBF90B4909480F
:104DC00000F018FF08B1FDF7F4F9064801F0D4FB34
:104DD000002803D0BDE81040FDF7EBB910BD00007E
:104DE000A4000020D84F002060010020F400002023
:104DF000FEE7FEE70148FEF72DBB0000D468002067
:104E00002DE9F04103680D4604461E6C03EB451185
:104E1000D1F8080B94F806E04FF400474FF0200C4F
:104E200004F29C42BEF1010F09D0DFF898E076450C
:104E300039D1020432D500BFC1F8087B3FE0224BD4
:104E40005FEA007E04D59E4239D90004F4D436E0EE
:104E50005FEA806E02D5C1F808CB30E010F0280F71
:104E60002DD19E4201D90004E6D405EBC50004EB28
:104E70008000D1F8101BD0F87432C1F31201591A16
:104E8000C0F8681200F51570ADB903691BB1C268AE
:104E90001144C1600FE0012120680AE080060AD5B4
:104EA000C1F808CB07E035B9D4F8640218B900217D
:104EB000184601F0DBFEE9B22046FEF7B5F9002006
:104EC000BDE8F0810A31544F0A30544F2DE9F84FB4
:104ED0000E4601EBC60100EB810481460568D4E96A
:104EE00009101434884202D90120BDE8F88F081A4D
:104EF000A168814200D20846C01C870805EB46180D
:104F00001BE000BFA0EB010AA068504500D282461A
:104F10000AF10300870899F8060000901FFA8AF347
:104F2000F2B22846E16802F0DBF9E16801EB0A0021
:104F3000E060616901EB0A006061D8F8180980B28D
:104F4000B84205D3D4E90401814201D20028D9D165
:104F5000D4E90401884208D806F00F0101208840F6
:104F6000D5F834188143C5F834180020BDE7000097
:104F7000A0B1D0ED101AC0ED111A90ED0F1A80ED0E
:104F8000101AC0ED060A80ED070A30EEC00A80ED67
:104F90000F0A017829B101293BD078E09FED3D0A45
:104FA0007047D0ED010A60EE801AC0ED091AD0ED0D
:104FB0000A0A90ED022A42EE000A30EE410AC0EDE4
:104FC0000A0A90ED0D2A80ED0E2A90ED0C2A80ED54
:104FD0000D2A80ED0C0A90ED031A21EE001A80EDE7
:104FE0000B1A90ED050AF4EEC00AF1EE10FA09DC96
:104FF000B1EE400AF4EEC00AF1EE10FA02D390EDE1
:105000000A0A01E080ED0A0A31EE800A30EE010A58
:105010002BE070EE410A90ED012A20EE822A80ED0D
:10502000092AD0ED020A60EE800AC0ED0A0AD0ED2E
:105030000D2A72EE200AC0ED0E2AD0ED0C2AC0ED2A
:105040000D2AF0EE002A01EE620A30EE210A80ED10
:105050000C0A90ED031A21EE000A80ED0B0A30EEE7
:10506000800AD0ED080A30EE200A80ED080AD0ED63
:10507000040AB4EEE00AF1EE10FA06DCF1EE600A82
:10508000B4EEE00AF1EE10FA01D2C0ED080A90ED9C
:10509000080A704700000000002819D09FED0D0A93
:1050A00080ED110A80ED100A80ED0F0A80ED0E0AE6
:1050B00080ED0D0A80ED0C0A80ED0B0A80ED0A0AE6
:1050C00080ED090A80ED080A80ED060A80ED070AE6
:1050D0007047000000000000002828D0002A26D0D9
:1050E000017092ED001A80ED011A92ED011A80ED27
:1050F000021A92ED021A80ED031A80ED040A9FED68
:105100000C0AC0ED050A80ED0E0A80ED0D0A80ED57
:105110000C0A80ED080A80ED0B0A80ED0A0A80ED8A
:10512000090A80ED110A80ED100A80ED0F0A704720
:105130000000000030B5144B1C68656945F040055F
:1051400065611B68DC6844F01004DC600F4B1C6870
:10515000256825F0010525601C682568ED07F7D155
:105160001D680B4CAC601C68E06018680161186831
:1051700042601868016841F4802101601868016884
:1051800041F00101016030BDCC0400207405002015
:10519000044800400178407841EA00207047FFF75A
:1051A000FDFD012003F070FCFBE710B5FDF76AFF81
:1051B00004F004FB012803D0BDE8104004F090BACD
:1051C00010BD000030B593B030216846FBF7DEF922
:1051D00014210CA8FBF7DAF91D480025016841F0FD
:1051E00080510160006800F08050119019480168FA
:1051F00041F4804101600068022400F48040119075
:1052000001200090000401908001CDE906400620B5
:105210000890A820CDE9090407200B906846FEF706
:10522000DBFD08B172B6FEE70CA90F2081E8310062
:105230004FF4A0500F904FF48050109005210CA80F
:10524000FEF7D8FC002801D072B6FEE713B030BDDF
:1052500040380240007000400248016841F470018B
:105260000160704788ED00E0F0B50268294C2A4DD6
:105270002A4E2B4F2B4B4FF0804CA04209D060455B
:1052800007D0A84205D0B04203D0B84201D098421E
:1052900004D122F0700E4A6842EA0E02A0421BD0EE
:1052A000604519D0A84217D0B04215D0B84213D0EB
:1052B000984211D01C4DA8420ED01C4DA8420BD0D4
:1052C0001B4DA84208D01B4DA84205D01A4DA8423C
:1052D00002D01A4DA84203D122F44075CA682A436D
:1052E0004D6922F080022A4302608A68C2620A681D
:1052F0008262A04201D0984201D109690163012173
:1053000041610169C90703D0016921F0010101610F
:10531000F0BD000000000140000400400008004013
:10532000000C0040000401400040014000440140E6
:105330000048014000180040001C004000200040D0
:10534000F0B5036A026A22F00102026242688469CF
:10535000124E24F073050C682C4323F002058B6871
:105360002B430D4DA84201D0B04205D123F00807D0
:10537000CB683B4323F00403A84201D0B04205D1DF
:105380004D6922F4407215438A692A434260846160
:10539000496841630362F0BD000001400004014020
:1053A000F0B5026A036A23F010030362436884695C
:1053B0000D6824F4E64444EA05248D6822F02002B6
:1053C00042EA05120F4D104EA84201D0B04206D15C
:1053D000CF6822F0800242EA071222F04002A8427F
:1053E00001D0B04207D14D6923F4406343EA8503FD
:1053F0008D6943EA85034360846149688163026281
:10540000F0BD00000000014000040140F0B5026A58
:10541000036A23F4807303624368C46922F4007250
:1054200024F073050C68124E2C438D6842EA052265
:105430000E4DA84201D0B04206D1CF6822F40062DE
:1054400042EA072222F48062A84201D0B04207D18A
:105450004D6923F4405343EA05138D6943EA05136C
:105460004360C4614968C1630262F0BD000001404D
:105470000004014030B5046A026A22F480520262DC
:105480004268C3690D6823F4E64343EA05238D6847
:1054900024F4005444EA0534084DA84202D0084DD3
:1054A000A84204D14D6922F4804242EA851242604A
:1054B000C36149680164046230BD0000000001401E
:1054C0000004014010B5806B0021C185C184FEF746
:1054D00068FF10BD70B5846B2068406994F8411076
:1054E000C0F3C0100025212904D118B1E58420465D
:1054F00000F062F82068406994F84210C0F3801010
:10550000222904D118B1E585204600F02EF8606C00
:1055100040F0100060642046FEF743FF70BD10B5F8
:105520000146806B09680968C90516D40021C18449
:105530000168143151E8002F22F0800241E8002375
:10554000002BF5D101680C3151E8002F42F04002E8
:1055500041E80023002BF5D110BDFFF781F910BD04
:1055600010B5806BFFF77DF910BD01680C3151E873
:10557000002F22F4907241E80023002BF5D101683E
:10558000143151E8002F22F0010241E80023002BE2
:10559000F5D1016B012909D101680C3151E8002FC7
:1055A00022F0100241E80023002BF5D1202180F8E1
:1055B000421000210163704701680C3151E8002F4F
:1055C00022F0C00241E80023002BF5D1202180F811
:1055D0004110704708B590F84210222901D00220EE
:1055E00008BD82684FF480539A4201D1016921B10C
:1055F000816A9A421BD04AB10AE00268816A526805
:10560000C2F308020A80816A891C08E0026972B14B
:105610000268526802F07F020A70816A491C816246
:10562000C18D491E0904090CC18503D01BE0026825
:105630005268F1E70168CA6822F02002CA60016876
:10564000CA6822F48072CA6001684A6922F00102C5
:105650004A61202180F8421000214163026B012A37
:1056600003D0FFF7BFF8002008BD016301680C31CB
:1056700051E8002F22F0100241E80023002BF5D161
:1056800001680A68D20602D50A6849680091818DCE
:10569000FEF786FEE7E7000070B504460068016982
:1056A000E26821F44051114301612169A068E26977
:1056B00008436169114308432168CA6849F20C63D1
:1056C0009A430243CA6020684169A26921F440718B
:1056D0001143416131492068884202D030498842F3
:1056E00002D1FEF737FB01E0FEF724FBE26900235D
:1056F000192164253226B2F5004F626828D0A0FB3C
:105700000101930F9200FAF785FE0146B0FBF5F018
:105710006FF01802504301EB800006EB0010B0FB65
:10572000F5F000F0F002B1FBF5F002EB0012B1FB76
:10573000F5F06FF01803584301EB800006EB001002
:10574000B0FBF5F000F00F0021681044886070BDD8
:10575000A0FB010192185B41FAF75CFE0146B0FB29
:10576000F5F00201B1FBF5F06FF01803584301EBBF
:10577000800006EBC000B0FBF5F000F0F80002EB93
:105780004002B1FBF5F0584301EB800006EBC0008E
:10579000B0FBF5F000F00700D6E700000010014074
:1057A000001401400148FEF7FDBD00008404002004
:1057B000264818B400680168890604D50168406865
:1057C000009018BC704722490968C906F9D50168DC
:1057D0004068204A0090106801684FF024030C03D1
:1057E0001D49046824F00104046016D4106844685C
:1057F000C4F12404A4B20C8043601068016841F431
:10580000002101601068016841F001010160122C63
:10581000D7D1124901F1160015E014686068C0F193
:10582000240080B2088063600D498B6A23F4002352
:105830008B6211680A6842F001020A601228C0D126
:10584000064901F13A0018BC03F086BBCC040020E5
:1058500000480040740500209E000020FC4D002000
:10586000006002402DE9F0410C46D0F8D412D0F887
:10587000C82200EB8101D1F8C01229B304F00F0651
:1058800006EB860300EB83050027AB694BB106EB03
:10589000C60602EB8602D269B3FBF2F602FB1632B1
:1058A000A2B1C1F81472D0F8D42200EB8200D0F873
:1058B000C40203692BB1D1F80802224601F5047134
:1058C00098470020BDE8F0810320FBE700231A463B
:1058D0002146AF6100F0AEFDF3E770B50546D0F8A4
:1058E000D40205EB8000D0F8C04294B1284600F005
:1058F00080FCC4F80C02D5F8D412D4F8040205EBED
:105900008101D1F8C412CA6804F5037190470020E0
:1059100070BD032070BD000070B5224D044629788B
:1059200000F0ABFB2878002600F00F0000EB8000B1
:1059300004EB800086846978204600F09EFB68783E
:1059400000F00F0000EB800004EB8000A0F8646121
:10595000A978204600F091FBA87800F00F0000EB3A
:10596000800004EB80008684C684D4F8D40204EB63
:105970008000D0F8C01299B1D0F8C40240688047C6
:10598000D4F8D40204EB8000D0F8C00200F075FF18
:10599000D4F8D40204EB8000C0F8C062C4F8BC6242
:1059A000002070BD0C01002010B5D0F8D41200EB1F
:1059B0008100D0F8C04284B1D0F8C41259B194F833
:1059C0000002FF2807D08B6894F8012221469847EF
:1059D000FF2084F80002002010BD032010BD00004D
:1059E0000A210180004870471001002070B506466A
:1059F00082210C4800F0D1FA05460121094800F047
:105A0000CCFA04468121074800F0C7FA0DB11021F5
:105A1000A971402104B1A18000B181804320308070
:105A2000004870BD1C01002070B5064682210D485B
:105A300000F0B3FA054601210A4800F0AEFA044628
:105A40008121084800F0A9FA0DB11021A9714FF485
:105A5000007104B1A18000B18180432030800148F1
:105A600070BD00001C01002070B5064682210C4864
:105A700000F093FA05460121094800F08EFA044629
:105A80008121074800F089FA0DB11021A971402148
:105A900004B1A18000B1818043203080004870BDF6
:105AA0001C0100202DE9F04704464FF407752846F5
:105AB00000F0E4FE06004FF0000863D02946FAF734
:105AC00065FDD4F8D4023C4D04EB80004FF0100982
:105AD000C0F8C062C4F8BC62207C4FF4007A012791
