:020000040800F2
:10000000E84D0020E902000843290008AD2300085C
:1000100041290008B3050008753100080000000000
:10002000000000000000000000000000290200089D
:10003000EF0700080000000085020008712B00088F
:100040000303000803030008030300080303000878
:100050000303000803030008F10700080303000876
:1000600003030008F7070008FD0700080303000862
:100070004507000803030008030300080303000802
:100080000303000803030008030300080303000838
:10009000E50500080303000803030008030800083F
:1000A0000303000803030008030300080303000818
:1000B0000303000803030008030300080303000808
:1000C00003030008030300080303000803030008F8
:1000D00003030008B530000803030008C13000081E
:1000E00003030008030300080303000803030008D8
:1000F00003030008030300080303000803030008C8
:1001000003030008030300080303000803030008B7
:1001100003030008030300080303000803030008A7
:100120000303000803030008030300080303000897
:100130000303000803030008030300080303000887
:10014000F105000803030008030300080303000887
:100150000303000803030008510700080303000815
:100160000303000803030008030300080303000857
:100170000303000803030008030300080000000055
:10018000030300080303000800F002F800F03CF845
:100190000AA090E8000C82448344AAF10107DA45E2
:1001A00001D100F031F8AFF2090EBAE80F0013F0F8
:1001B000010F18BFFB1A43F001031847545B0000FE
:1001C000745B0000103A24BF78C878C1FAD852078F
:1001D00024BF30C830C144BF04680C6070470000C1
:1001E0000023002400250026103A28BF78C1FBD840
:1001F000520728BF30C148BF0B6070471FB505F0DC
:10020000D3FC1FBD10B510BD00F09EF91146FFF7DD
:10021000F5FF03F07FFD00F0BCF903B4FFF7F2FF38
:1002200003BC00F0BFF900002C4B19680868B0E867
:10023000F04F80F30988BFF36F8F4FF0000080F319
:10024000118870470000000008480068006880F3CB
:1002500008884FF0000080F3148862B661B6BFF3DF
:100260004F8FBFF36F8F00DF00BF00BF08ED00E0CE
:10027000DFF80C00016841F470010160704700BFB5
:1002800088ED00E0EFF30980BFF36F8F134B1A681E
:100290001EF0100F08BF20ED108A20E9F04F10600B
:1002A00009B44FF0500080F31188BFF34F8FBFF3B4
:1002B0006F8F04F0BDFC4FF0000080F3118809BC83
:1002C00019680868B0E8F04F1EF0100F08BFB0ECD6
:1002D000108A80F30988BFF36F8F704720000020D9
:1002E000EFF3058070470000094880470948004740
:1002F000FEE7FEE7FEE7FEE7FEE7FEE7FEE7FEE7D6
:10030000FEE7FEE704480549054A064B7047000032
:100310001D2C000889010008E8470020E84D002056
:10032000E8490020E849002053EA020C00F0698007
:100330002DE9F04B4FF00006002B1FBFB3FA83F5F9
:1003400003FA05F424FA05F65E4012BF1643B2FA2A
:1003500082F502FA05F4C5F120051EBF22FA05FC5C
:1003600044EA0C04203556EA044C4FEA144418BF02
:10037000641C4FF000084FF00009904271EB030C31
:1003800039D3002919BFB1FA81F701FA07F6B0FA9B
:1003900080F700FA07F6C7F120071EBF20FA07FC16
:1003A00046EA0C062037B6FBF4FCA7EB0507103F26
:1003B00007F01F0BCBF120060CFA0BFB2CFA06F60C
:1003C00044BFB3460026202FA4BF5E464FF0000B6B
:1003D0005BEA060C08BF4FF0010B19EB0B09ABFBF6
:1003E000027C48EB0608C01B06FB02CC0BFB03CCCF
:1003F00071EB0C01C1E70B46024641464846BDE899
:10040000F08B13B54FF000004FF00001AFF3008008
:10041000BDE81C40704710B5203AC0F00B80B1E831
:100420001850203AA0E81850B1E81850A0E8185029
:10043000BFF4F5AF5FEA027C24BFB1E81850A0E832
:10044000185044BF18C918C0BDE810405FEA827C4C
:1004500024BF51F8043B40F8043B08BF7047D20763
:1004600028BF31F8023B48BF11F8012B28BF20F804
:10047000023B48BF00F8012B704702F0FF0343EA3C
:10048000032242EA024200F037B84FF0000200B502
:10049000134694469646203922BFA0E80C50A0E8A7
:1004A0000C50B1F12001BFF4F7AF090728BFA0E855
:1004B0000C5048BF0CC05DF804EB890028BF40F821
:1004C000042B08BF704748BF20F8022B11F0804F63
:1004D00018BF00F8012B704770477047704710B580
:1004E00000F02AF8006810BD10B5044600F024F8AA
:1004F000046010BD4FF000020429C0F0128010F01B
:10050000030C3FF4C4AFCCF1040CBCF1020F18BFD4
:1005100000F8012BA8BF20F8022BA1EB0C01FFF77C
:10052000B6BF5FEAC17C24BF00F8012B00F8012BA5
:1005300048BF00F8012B70470048704788470020EB
:1005400000487047884700207546FFF7F9FFAE4620
:1005500005006946534620F00700854618B020B5CF
:10056000FFF7D0FEBDE820404FF000064FF0000737
:100570004FF000084FF0000B21F00701AC46ACE84B
:10058000C009ACE8C009ACE8C009ACE8C0098D46B8
:10059000704710B50446AFF300802046BDE8104018
:1005A000FFF73BBE01491820ABBEFEE72600020064
:1005B0007047FEE730B5D3789478957944EA032301
:1005C000547844EA0323147844EA0323D47945EAAF
:1005D00004245579127945EA042442EA042203608E
:1005E0000A6030BD014800F08CBA00000003002012
:1005F000014800F086BA00002803002038B50E4CF0
:100600004FF4007525600025A560E560082525618B
:100610000A4C050A25706070080AA070E170100A83
:1006200020716271180AA071E3716B46224602497B
:10063000034800F0FDF838BD8842002092000020F9
:100640000003002038B50E4C40F2FF152560002550
:10065000A560E560082525610A4C050A25706070D3
:10066000080AA070E170100A20716271180AA07166
:10067000E3716B4622460249034800F0D9F838BDC1
:10068000704200208A00002028030020114808B58D
:1006900040F20131016000218160C16008210161E7
:1006A0000D490E480A88130A037042704A88130ADB
:1006B0008370C2708A88130A03714271C9886B46BD
:1006C0000A0A8271C17102460249054800F0B0F879
:1006D00008BD0000A0420020284700209A0000200A
:1006E0000003002038B5124840F2023108220160B0
:1006F00000218160C0E903120E4A0F4813891C0AC9
:1007000004704370937A8370D27AC2700B4A6B463E
:1007100092ED0D0A0171BCEEC00A10EE102A427172
:100720008171C17102460249054800F081F838BD67
:10073000B842002028470020A2000020D046002018
:1007400000030020014800F0F9BC0000D0040020A4
:10075000014800F0F3BC0000700400200168182379
:10076000CAB2103AB2FBF3F2054B6FF30901032A48
:100770009B5CC36500D9091D816508467047000070
:10078000105C000810B5014600208B698A6A4FF0A2
:10079000C07453B1B3F5005F15D072B1012A0CD00B
:1007A000022A0AD0032A09D104E01AB1012A06D08C
:1007B000022A03D1C96AC90100D5012010BDC96A46
:1007C000A142FAD010BD002AF7D0012AF2D0022AA5
:1007D000F3D0032AF3D010BD022003F09FFDFFF7F2
:1007E00055FF022003F09AFDFFF77CFFF4E7704706
:1007F000012000F0DFBD082000F0DCBD102000F07B
:10080000D9BD202000F0D6BD72B6FEE790F82020BA
:10081000012A07D0022A05D0416A41F480214162B1
:1008200001207047006842690A4342610020704716
:10083000F0B590F820500468A468012D05D0022D71
:1008400003D0416A41F4802157E014F0406F01D198
:10085000E5004FD5C4F301640125A5401D608D68F6
:100860004FF4C0739DB1CE6835434E6845EAC60566
:10087000066803EB0417F5514FF4C275076805EBE2
:1008800004150E697E51097D012905D009E00E8805
:10089000CD6845EA4655EBE701684E5946F4807647
:1008A0004E511179D579567941EA056195792D0432
:1008B00045EA062529434FF4C676056806EB04167B
:1008C000A9511178D57841EA0561957852782D04BF
:1008D00045EA022211434FF4C475026805EB041582
:1008E0005151006803EB0411425842F0010242509A
:1008F0000020F0BD416A41F4001141620120F0BDC9
:1009000010B590F82020012A07D0022A05D0416AAC
:1009100041F480214162012010BD3B48D0F8002203
:1009200042F00102C0F80022D0F8002222F47C52EA
:10093000C0F80022D0F800224B6A42EA0322C0F835
:1009400000220A7D02F01F0301229A40D0F81C32D7
:100950009343C0F81C32CB69B3B9D0F80C3293433F
:10096000C0F80C328C894B6864F31F434C6900EB70
:10097000C404C4F840320C890B6864F31F434C690B
:1009800000EBC404C4F84432CB69012B16D1D0F873
:100990000C321343C0F80C320C884B6864F31F43CD
:1009A0004C6900EBC404C4F840320C89CB6864F392
:1009B0001F434C6900EBC404C4F844328B69002B1C
:1009C000D0F804320ED01343C0F804320B69002B68
:1009D000D0F8143208D01343C0F81432096A012940
:1009E00004D008E09343EFE79343F5E7D0F81C12F7
:1009F0001143C0F81C12D0F8001221F00101C0F818
:100A00000012002010BD000000640040704770B567
:100A100090F82040012C05D0022C03D0416A41F40B
:100A2000802128E0046809B32469A40720D04FF48A
:100A3000D874056804EB01142D5915F00405956070
:100A400005682D591AD0ED08556005682C5904F039
:100A50000204D4604FF4DA74056804EB01142E59D3
:100A600006F00F06082E0CD308250DE0E468DCE73D
:100A7000416A41F400114162012070BD6D0D1560A5
:100A8000E3E72D5905F00F05156105682D59C5F3EC
:100A90000725956105682C59240C54614FF4DC72CC
:100AA000046802EB0112A4581C700468A458240ABC
:100AB0005C700468A458240C9C700468A258120E40
:100AC000DA704FF4DE72046802EB0112A4581C7154
:100AD0000468A458240A5C710468A458240C9C710E
:100AE0000468A258120EDA71006829B1016941F058
:100AF00020010161002070BDC16841F02001C1608A
:100B0000F8E72DE9F05F0546006800244669D0F853
:100B100004908768D0F80CB0D0F810A0D0F81880F6
:100B2000F10748D0F90714D001218160B80703D537
:100B3000284600F0A2FA0CE0780702D54FF40064D2
:100B400007E0380702D54FF4805402E0284600F051
:100B500093FAF80516D529684FF480708860B805B7
:100B600003D5284600F08BFA0CE0780502D544F452
:100B7000005407E0380502D544F4804402E02846DA
:100B800000F07CFAF80316D529684FF480308860AD
:100B9000B80303D5284600F074FA0CE0780302D5B8
:100BA00044F4004407E0380302D544F4803402E002
:100BB000284600F065FA300707D55FEACB6004D518
:100BC0002968102044F40074C86070074FF00807CB
:100BD00007D55FEA0B7004D52868C760284600F087
:100BE00099F9B00706D52868C068800702D0284662
:100BF00000F092F9700607D55FEACA6004D529684B
:100C0000102044F480640861B00607D55FEA0A70DA
:100C100004D528680761284600F0FEF9F00606D5DD
:100C200028680069800702D0284600F0F6F9B00372
:100C300008D55FEAC96005D52968102048602846B4
:100C400000F0ECF9F00307D55FEA097004D52868D5
:100C50004760284600F016FA300446D55FEA49702E
:100C600040D5F00504D55FEAC87001D044F0010416
:100C7000B00504D55FEA887001D544F00204700520
:100C800004D55FEA487001D544F00404300529D545
:100C900018F0700F26D008F07000402815D006DC40
:100CA000102809D020280AD0302816D10AE0502870
:100CB0000ED0602811D10EE044F008040DE044F09D
:100CC00010040AE044F0200407E044F0400404E08B
:100CD00044F0800401E044F480742868816921F0C4
:100CE00070018161296804204860002C05D0686A81
:100CF000204368622846FFF789FEBDE8F09F70B583
:100D0000040003D094F8200010B104E0012070BD6D
:100D1000204600F081F82068016841F0010101607F
:100D200000F052FC0546052604E000F04DFC401B97
:100D30000A2811D820684068C007F6D020680168EA
:100D400021F00201016000F03FFC05460BE000F0DD
:100D50003BFC401B0A2806D9606A40F40030606200
:100D600084F82060D2E7206840688007EFD4207EB6
:100D70000128206801683DD021F080010160607E7B
:100D800001282068016838D021F040010160A07E70
:100D900001282068016833D021F020010160E07E45
:100DA0000128206801682ED041F010010160207FE9
:100DB00001282068016829D021F008010160607FC6
:100DC00001282068016824D021F004010160D4E9E1
:100DD00002010843D4E90412114308436168491E23
:100DE00008432168C86100206062012084F8200067
:100DF000002070BD41F08001C0E741F04001C5E72F
:100E000041F02001CAE721F01001CFE741F00801CD
:100E1000D4E741F00401D9E7F0B587B004461421C6
:100E20006846FFF732FB364B3648DFF8D0E01968EA
:100E3000D4F800C0334A03250226092710300024C5
:100E4000491CF44522D11960012907D1016841F0FC
:100E500000710160006800F000700590106840F0BB
:100E6000080010601068CDE9005600F00800CDE9D8
:100E7000047069462448CDE9024500F0A7FA002233
:100E80000521142000F012FC142032E0DFF87CE091
:100E9000F44530D1D0F800C04CF0806CC0F800C0F0
:100EA000D0F800C001290CF0806CCDF814C0196096
:100EB00007D1016841F000710160006800F0007026
:100EC0000590106840F002001060106802AB00F05E
:100ED000020005906020CDE9000683E8B000694675
:100EE0000B4800F073FA00220521402000F0DEFBE1
:100EF000402000F0CDFB07B0F0BD000000640040D2
:100F00000C00002030380240000C02400068004015
:100F1000000402407047000070B506460068394979
:100F2000394D3A4C96B088423AD10CAB0EAA00210A
:100F30003046FFF76CFD0E9840F20322A0F2032129
:100F400090420DD006DCA0F50071013908D00129CE
:100F500026D105E0012903D0B1F5807F20D11AE028
:100F6000401EC0B2287000EB800004EB400134F852
:100F700010200A81BDF8302052BA24F81020BDF8A4
:100F8000320040BA4880BDF8340040BA88809DF8ED
:100F90003600887104E01E490CAA081FFFF70AFBFF
:100FA0001C49306888422AD103AB05AA002130468B
:100FB000FFF72DFD0598A0F50071053905D0012931
:100FC00003D0022901D0032919D1401EC0B2687094
:100FD00000EB800104EB410034F811200281BDF8E0
:100FE0000C2052BA24F81120BDF80E1049BA4180E5
:100FF000BDF8101049BA81809DF81210817116B0A9
:1010000070BD0000006400408800002020420020E5
:10101000204700200068004070477047704700007C
:1010200070B5044690F82000012804D0606A40F4AE
:101030000020606218E0022084F820002068016827
:1010400021F00101016000F0BFFA05460EE000BF8B
:1010500000F0BAFA401B0A2808D9606A40F4003050
:101060006062052084F82000012070BD206840687F
:10107000C007EDD1606270BD704770477047704720
:101080007047704770472DE9F0410446876D00F0C6
:101090009BFA064694F835000025022806D08020E9
:1010A000606584F834500120BDE8F0812068016853
:1010B00021F0160101602068416921F08001416141
:1010C000206C08B9A06C20B12068016821F00801EB
:1010D00001602068016821F0010101600CE000F06E
:1010E00073FA801B052807D920206065032084F847
:1010F000350084F83450D7E720680068C007EED187
:1011000094F85C103F208840B860012084F83500D6
:1011100084F834500020C7E790F83510022903D036
:101120008021416501207047052180F83510006855
:10113000016821F001010160002070472DE9F843AA
:1011400004464FF00009CDF8009063484FF4165163
:10115000A56D0068B0FBF1F72E6894F85C100820CC
:1011600000FA01F131420FD021680A6852070BD50D
:101170000A6822F004020A6094F85C108840A860B3
:10118000606D40F00100606594F85C104FF001085C
:1011900008FA01F0304208D021684969090604D5EF
:1011A000A860606D40F00200606594F85C10042057
:1011B0008840304208D021680968890704D5A860B2
:1011C000606D40F00400606594F85C101020884069
:1011D000304218D021680968090714D5A860206832
:1011E0000168490304D50068000308D5A16C07E035
:1011F0000168C90503D4016821F008010160216C70
:1012000009B12046884794F85C102020884030427D
:1012100031D021680968C9062DD5A86094F8350039
:1012200005282068016806D0490347D500680003F7
:101230001DD4616C1CE021F0160101602068416939
:1012400021F080014161206C08B9A06C20B12068B8
:10125000016821F00801016094F85C103F2088408B
:10126000A86084F8358084F83490216D1FE0E16B2C
:1012700009B120468847606D00282BD0606DC007FB
:1012800014D0052084F835002068016821F00101A0
:1012900001600098401C0090B84203D820680068A4
:1012A000C007F6D184F8358084F83490E16C0029C9
:1012B00010D001B02046BDE8F04308470168C905D9
:1012C000D5D4016821F01001016084F8358084F8DC
:1012D0003490CCE7BDE8F8831C0000202DE9F041F4
:1012E000044600F071F906465CB1022084F835002E
:1012F000002584F834502068016821F00101016064
:101300000DE00120BDE8F08100F05EF9801B0528AA
:1013100005D920206065032084F83500F2E72068B5
:101320000068C007F0D12268116820480140D4E964
:1013300001031843D4E90336334318436369184360
:10134000A3691843E3691843236A18430843616A91
:10135000042903D1D4E90B13194308431060206812
:101360004069666A20F0070130460E4301270428D1
:101370000CD1A06A0643E06A40B12046FFF702FAAA
:1013800020B14020606584F83570BAE72068466176
:101390002046FFF7E3F994F85C203F2191408160FB
:1013A000656584F835700020ACE700003F8010F0E0
:1013B00070470000044910B50A68024202D0086074
:1013C000FFF7F6FF10BD0000143C01402DE9F84F77
:1013D000DFF8BCA10022012503264FF00F090AF116
:1013E000040BAAF1040E00BF0B6805FA02F42340B7
:1013F000A34270D10F7907F00307012F01D0022F0C
:1014000016D187684FEA420806FA08FC27EA0C075B
:10141000D1F80CC00CFA08FC4CEA070CC0F808C064
:101420004768A7430C79C4F3001494403C434460DC
:101430000C79E443A4070AD0C4684FEA420C06FAC8
:101440000CF7BC438F6807FA0CF72743C7600C7989
:1014500004F00304022C12D1D40800EB840CDCF855
:1014600020405707FF0E09FA07F824EA0804D1F8CC
:10147000108008FA07F848EA0408CCF820800468CD
:101480004FEA420C06FA0CF7BC430F7907F003074A
:1014900007FA0CF7274307604C6814F4403F70D0FC
:1014A0003C4C276847F480472760246822F00307F4
:1014B00004F480440094384C07EB040CDCF8084832
:1014C00097074FEA177809FA08F7BC43334FB84239
:1014D00002D1002724E054E0314FB84201D1012766
:1014E0001EE0304FB84201D1022719E02E4FB8421A
:1014F00001D1032714E02D4FB84201D104270FE09A
:101500002B4FB84201D105270AE02A4FB84201D13A
:10151000062705E0284FB84201D1072700E0082739
:1015200007FA08F72743CCF80878DAF8004057465E
:10153000D1F804C09C435FEACC2C00D51C433C602E
:10154000DBF800405F46D1F804C09C435FEA8C2C76
:1015500000D51C433C60DEF800407746D1F804C05B
:101560009C435FEA8C3C00D51C433C60084F083F1D
:101570003C68D1F804C09C435FEACC3C00D51C43D6
:101580003C60521C102AFFF42FAFBDE8F88F00001A
:10159000083C014044380240003001400000024055
:1015A0000004024000080240000C0240001002400B
:1015B0000014024000180240001C02400AB1816180
:1015C00070470904FBE7000001488068704700008D
:1015D0001000002002488168027811448160704741
:1015E000100000200B4810B5016841F40071016043
:1015F000016841F480610160016841F4807101601B
:10160000032000F073F80F2000F006F800F024F833
:10161000002010BD003C024070B50D4D04464FF453
:101620007A712878B1FBF0F00A490968B1FBF0F053
:1016300000F010FB48B9102C07D200222146501EA2
:1016400000F034F800206C6070BD012070BD000017
:10165000100000201C0000200C4882B0016841F4FA
:1016600080410160006800F4804000900748001F3E
:10167000016841F0805101600068002200F0805054
:1016800000900F21901E02B000F010B844380240C4
:10169000002809DB00F01F02012191404009800071
:1016A00000F1E020C0F8001170470000F0B40E4BCC
:1016B0001B680C46C3F30223C3F10705042D00D9B0
:1016C0000425191D072901D2002300E0DB1E012695
:1016D00006FA05F1491E214099409E40761E1640AB
:1016E0003143F0BC01F05FBD0CED00E0064900F0B5
:1016F000070208684FF6FF03184040EA0220034A39
:1017000010430860704700000CED00E00000FA058F
:101710002DE9F0470E46050065D0DFF81481D8F8B2
:101720000000F7B200F00700B04207D288F800705E
:10173000D8F8000000F00700B04254D128683D4CB2
:10174000810712D5400703D5206840F4E05020609F
:101750002878000703D5206840F4604020602068A6
:10176000A96820F0F000084320602878C0072DD039
:10177000304968680839012812D0022813D003289C
:1017800011D00968890700292DDA216821F00301A9
:1017900001432160FFF718FF814641F2883A0EE0CD
:1017A00009688903EFE709688901ECE7FFF70CFF97
:1017B000A0EB0901514502D90320BDE8F08720685C
:1017C000696800F00C00B0EB810FEFD1D8F8001081
:1017D000404601F00701B14207D90770006800F0E8
:1017E0000700B04201D00120E7E72878400705D57F
:1017F0002068E96820F4E05008432060287800075A
:1018000006D52068296920F4604040EAC1002060C4
:1018100000F038F82168084AC1F30311515CC84050
:101820000649086006480068FFF7F6FE0020C4E796
:10183000003C024008380240185C00081C000020F0
:10184000140000200448054900680968044AC1F3EF
:101850008221515CC84070471C00002008380240BB
:10186000285C00080448054900680968044AC1F377
:101870004231515CC84070471C00002008380240CB
:10188000285C0008154810B5006810F00C021448D8
:1018900013D01449042A0FD0082A0ED10F4C241F4C
:1018A0002268236802F03F025B0207D52068C0F37C
:1018B0008810A0FB010106E0084610BD2168C1F3B5
:1018C0008811A1FB00010023FEF72EFD2168C1F362
:1018D0000141491C4900B0FBF1F010BD083802403D
:1018E0000024F400001BB7002DE9F84F04006ED06F
:1018F0002078DFF84C93C007A9F104054AD009F11C
:1019000004000168C1F38101012908D00068C0F317
:10191000810002280AD1D9F80000400206D52868C3
:10192000800337D560680028E1D033E06068B0F507
:10193000803F10D0B0F5A02F286810D020F4803060
:101940002860286820F4802028606068A8B1FFF72C
:101950003BFE06460DE0286840F48030F4E740F492
:1019600080202860F7E700BFFFF72EFE801B642869
:1019700073D828688003F7D50CE0FFF725FE0646EC
:1019800005E000BFFFF720FE801B6428F0D8286820
:101990008003F7D42078DFF8AC8280074FF0000A8C
:1019A0003ED5A748001D016811F00C0F08D0006853
:1019B000C0F3810002280BD1D9F80000400207D4FF
:1019C0002868800716D5E068012800D112E033E1CD
:1019D000E068B8B10120C8F80000FFF7F5FD064641
:1019E00005E000BFFFF7F0FD801B0228C0D8286883
:1019F0008007F7D52868216920F0F80040EAC10087
:101A000028600DE0C8F800A0FFF7DEFD064604E000
:101A1000FFF7DAFD801B02281FD828688007F7D45B
:101A20002078000722D5864F87486169703771B1E9
:101A300001210160FFF7C8FD064604E0FFF7C4FD81
:101A4000801B022809D838688007F7D50EE0C0F857
:101A500000A0FFF7B9FD064605E082E0FFF7B4FD00
:101A6000801B02287DD838688007F7D4207840078B
:101A700068D5DFF8CCB100270BF13C0BDBF8000098
:101A8000C0000BD4DBF8001041F08051CBF80010FF
:101A9000DBF80000012700F0805000906B4E3068AA
:101AA000C00510D4306840F480703060FFF78CFDC2
:101AB000009005E0FFF788FD0099401A022850D8F1
:101AC0003068C005F6D55E4EA0686C3601280FD090
:101AD0000528306810D020F001003060306820F018
:101AE00004003060A068B8B1FFF76EFD00900FE011
:101AF000306840F00100F4E740F004003060F7E7A0
:101B0000FFF762FD0099411A41F28830814266D8A0
:101B100030688007F4D50EE0FFF756FD009007E02F
:101B2000FFF752FD0099411A41F28830814256D8A0
:101B300030688007F4D42FB1DBF8001021F0805119
:101B4000CBF80010A069C8B33D49091D0968C1F36D
:101B5000810102294AD00228504607D0C8F8600007
:101B600000E03CE0FFF730FD04463BE04746C8F8A4
:101B70006000FFF729FD064605E000BFFFF724FDE2
:101B8000801B02282BD828688001F7D4D4E90701EC
:101B90000843A16A2E4A490802EB0141626A41EA00
:101BA0008211084394F82C1040EA0161C9F8001032
:101BB00001203866FFF708FD044606E03EE000BF5E
:101BC000FFF702FD001B022809D828688001F7D51D
:101BD00034E000BFFFF7F8FC001B022802D9032005
:101BE000BDE8F88F28688001F4D427E00128F7D0F9
:101BF000D9F80000E26900F4800191421CD1226A08
:101C000000F03F01914217D147F6C071626A01406E
:101C1000B1EB821F10D1A26A4FF0FF3300F44031C4
:101C200003EB5202B1EB024F06D194F82C1000F0F6
:101C30007060B0EB016F01D00120D1E70020CFE749
:101C40000438024000004742800E474200700040C6
:101C50000000FFFF10B5401EB0F1807F01D30120CE
:101C600010BD4FF0E02460610F21601701F09BFA76
:101C70000020A06107202061002010BD70B590F801
:101C80003C20012A32D0012480F83C40022280F816
:101C90003D2003685A689D6822F070060A68324346
:101CA0005A60134B02689A4214D0B2F1804F11D09F
:101CB000104B9A420ED0104B9A420BD00F4B9A42C7
:101CC00008D00F4B9A4205D00E4B9A4202D00E4BD1
:101CD0009A4204D1496825F080031943916080F845
:101CE0003D40002180F83C10084670BD022070BDC8
:101CF000000001400004004000080040000C0040CB
:101D000000040140004001400018004010B50400EC
:101D100003D094F83D0010B107E0012010BD002071
:101D200084F83C00204600F01FF8022084F83D00B3
:101D3000211D206800F07AFF012084F8460084F815
:101D40003E0084F83F0084F8400084F8410084F8A5
:101D5000420084F8430084F8440084F8450084F885
:101D60003D00002010BD000008B50068064988420B
:101D700008D10648016841F400310160006800F4B0
:101D80000030009008BD000000440140443802408B
:101D900010B586B0044614216846FEF776FB23682A
:101DA000174C002117480222A34210D1036843F0C8
:101DB00008030360006800F008000590D00200905E
:101DC000CDE90121CDE9031269460F4813E00F4C1C
:101DD000A34212D1036843F020030360006800F0BF
:101DE0002000059040200090CDE901210320CDE99D
:101DF000031069460648FFF7E9FA06B010BD000077
:101E00000008004030380240000C0240004401400D
:101E10000014024070B5044690F83C0000260D46C0
:101E200001280FD0012084F83C006AB1042A1DD09B
:101E3000082A2FD00C2A3FD00126002084F83C002D
:101E4000304670BD022070BD206800F05BFF206846
:101E5000816941F0080181612068816921F00401F4
:101E60008161206881692A69114311E0206800F0CE
:101E700079FF2068816941F400618161206881698E
:101E800021F480618161206881692A6941EA022127
:101E90008161D2E7206800F09BFF2068C16941F0B2
:101EA0000801C1612068C16921F00401C161206895
:101EB000C1692A69114311E0206800F0BDFF206864
:101EC000C16941F40061C1612068C16921F4806188
:101ED000C1612068C1692A6941EA0221C161ACE798
:101EE00010B5040003D094F83D0010B107E00120C4
:101EF00010BD002084F83C00204600F01FF80220AE
:101F000084F83D00211D206800F090FE012084F837
:101F1000460084F83E0084F83F0084F8400084F8CE
:101F2000410084F8420084F8430084F8440084F8B7
:101F3000450084F83D00002010BD000008B5006891
:101F40000649884208D10648016841F00401016051
:101F5000006800F00400009008BD00000008004088
:101F60004038024070477047F8B501680446086879
:101F7000CA684B6910F00F0F4FF0000559D003F0FD
:101F8000010602F49077374365D0C10705D0D1052B
:101F900003D5616C41F001016164410705D5D907A2
:101FA00003D0616C41F002016164810705D5D90756
:101FB00003D0616C41F004016164010707D502F0B0
:101FC0002001314303D0616C41F008016164616C10
:101FD00000293AD0800604D5900602D5204600F0AC
:101FE00082FF20684069616CC0F38010090700D44B
:101FF00060B3204600F050FF20684069400621D5BC
:102000002068143050E8001F21F0400140E8001221
:10201000002AF5D1E06BA8B16E490165E06BFFF7CE
:102020007BF8002811D0E06B016D01B0BDE8F040F5
:10203000084783060FD593060DD52046BDE8F84026
:1020400000F051BF2046FFF78EFFF8BD2046FFF796
:102050008AFF6564F8BD266B2023012E7DD1C6065C
:102060007BD5D60679D508684868009048694FF056
:102070000206400641D5E16B086840680004000C88
:10208000E8D0A28D8242E5D9E085C869B0F5807FAD
:102090002DD020680C3050E8001F21F4807140E8FA
:1020A0000012002AF5D12068143050E8001F21F0FA
:1020B000010140E80012002AF5D12068143050E8F0
:1020C000001F21F0400140E80012002AF5D184F8F9
:1020D0004230256320680C3050E8001F21F01001C9
:1020E00040E80012002AF5D1E06BFEF7CCFF6663F2
:1020F000A08DE18D401A81B22AE0A08DE18D401AB9
:1021000081B2E08D0028A5D00029A3D022680C322E
:1021100052E8000F20F4907042E80007002FF5D13C
:102120002068143050E8002F22F0010240E8002718
:10213000002FF5D184F84230256320680C3050E838
:10214000002F22F0100240E80023002BF5D1666337
:102150002046FFF707FFF8BDFFE705062BD515065C
:1021600029D594F841002128F5D1A068B0F5805F09
:1021700001D12069B0B1206A411C21622168007838
:102180004860E08C401E0004000CE084E3D120682D
:10219000C16821F08001C1602068C16841F0400140
:1021A000C160D8E7206A0088C0F308004860206A50
:1021B000801C2062E5E74006CDD55006CBD5CA6825
:1021C000204622F04002CA6084F8413000F0EDF869
:1021D000C1E70000892E000870B5040004D094F80F
:1021E0004100002510B106E0012070BD84F8405088
:1021F000204600F023F8242084F841002068C168BC
:1022000021F40051C160204600F0CEFE2068016933
:1022100021F4904101612068416921F02A01416166
:102220002068C16841F40051C1606564202084F8D1
:10223000410084F842006563002070BD2DE9F04F35
:1022400087B0064614216846FEF71FF94D4B3168EA
:1022500000244D480225032207274FF000694FF460
:10226000806A4FF4403B99424AD1474914310B6888
:1022700043F010030B60096801F01001059101683B
:1022800041F002010160016801F00201059101685D
:1022900041F0010101600068CDE9024200F0010057
:1022A00005908020CDE9000590466946049737489F
:1022B000FFF78CF82802CDE90005CDE90248694610
:1022C00004973348FFF782F8334D3248E5E80209B6
:1022D0004020A5E81104304845F81449AC61C5E92F
:1022E000074B6C62FEF7FAFF08B1FEF78DFAB56393
:1022F000002205212520AE63FFF7D8F925203BE019
:10230000264B99423AD1204910310B6843F480237F
:102310000B60096801F480210591016841F0040116
:1023200001600068CDE9024200F0040005904FF41E
:102330004060CDE90005694604971948FFF746F863
:10234000154D184860352860C5E90194C5E9034A70
:1023500080156C61C5E90640C5E908B42846FEF75A
:10236000BDFF08B1FEF750FAF563002205212720D2
:10237000AE63FFF79BF92720FFF78AF907B0BDE8A6
:10238000F08F00000010014030380240000402408D
:1023900000000240B8640240700400200048004081
:1023A000000802402860024070477047FEE710B501
:1023B000040014D0D4ED150A94ED140A201D00F089
:1023C000C1FAD4ED150AB0EE001A00EE810A84EDD0
:1023D000170ABDEEC00A10EE100AA4F8600010BD86
:1023E00010B504002DED028BB0EE418A3ED084ED95
:1023F000040AC4ED030A30EEC00A9FED1E1ADFED99
:102400001E0A01F063FC84ED050AD4ED000A04F114
:10241000240060EE800AC4ED080AD4ED090A94EDA8
:10242000011A41EE000AC4ED090A94ED020A20EEF9
:10243000080A84ED0A0A94ED070A01F0A9FB94ED5D
:10244000080AD4ED090A04F12C0030EE200AD4ED7C
:102450000A0A30EE200A84ED0B0A94ED060A01F018
:1024600097FB94ED0B0ABDEC028B10BD9FED030AA8
:10247000F9E70000DB0F4940DB0F49C00000000016
:1024800000280FD09FED080A80ED040A80ED030AB2
:1024900080ED050A80ED0A0A80ED090A80ED080A40
:1024A00080ED0B0A704700000000000000280BD0F0
:1024B00080EC031A9FED051A80ED051A80ED041AD1
:1024C000C0ED070A80ED060A70470000000000001A
:1024D00010B5040021D02068D4ED230AB0F9020021
:1024E00000EE100A201DB8EEC00AB1EE401A94EDBD
:1024F000220AFFF775FF84ED250AF0EE400A94EDFD
:10250000240A04F1340000F01DFA84ED280ABDEE1F
:10251000C00A10EE100AA4F8A40010BD0F4810B5B0
:102520000D4901600321416000214FF410228160B8
:10253000C0E903124FF400124261017641768176C0
:10254000C17601774177FEF7DAFB002803D0BDE8BA
:102550001040FEF759B910BD006400400003002090
:102560000F4810B50D4901600321416000214FF46F
:1025700010228160C0E903124FF40012426101761B
:1025800041768176C17601774177FEF7B8FB002866
:1025900003D0BDE81040FEF737B910BD0068004019
:1025A00028030020114808B5016841F400110160BA
:1025B000016801F400110091016841F4800101609B
:1025C0000068002200F48000009005210C20FFF735
:1025D0006DF80C20FFF75CF8002205214620FFF77C
:1025E00065F8BDE808404620FFF752B83038024091
:1025F00010B596B01C2211496846FDF70CFF00216A
:10260000684601F097FE0E4C0C491C2220601C31DC
:1026100007A8FDF700FF002107A801F08BFE07497E
:1026200060601C2238310EA8FDF7F5FE00210EA8CF
:1026300001F080FEA06016B010BD0000BC5B000879
:10264000000000202DE9F04F87B014216846FDF707
:102650001CFF63480025016841F002010160016828
:1026600001F002010591016841F00101016001687A
:1026700001F001010591016841F008010160016864
:1026800001F008010591016841F004010160016851
:1026900001F004010591016841F0800101600168C9
:1026A00001F080010591016841F04001016001687D
:1026B00001F040010591016841F0200101600068CE
:1026C000DFF8209100F020000590012240214846CB
:1026D000FEF774FF0122DFF810A1D6023146504602
:1026E000FEF76CFFDFF804B1012210215846FEF717
:1026F00065FF012211463E48FEF760FFF010009092
:1027000001A91220032781E8A10004200490694652
:102710005846FEF75BFE01244020CDE900040294F8
:10272000694648460394FEF751FE09204FF4041809
:10273000CDE90008694602944846FEF747FE009638
:10274000CDE90145694650460395FEF73FFE10204E
:10275000CDE900040226CDE9024669465846FEF757
:1027600035FE3020CDE90008694602942148FEF785
:102770002DFE8020CDE9000602950520CDE90370ED
:1027800069465846FEF722FECDE9024600946946A6
:1027900017480194FEF71AFE062100220846FEF7AC
:1027A00085FF0620FEF774FF002205210920FEF7B1
:1027B0007DFF0920FEF76CFF002205210A20FEF7AD
:1027C00075FF0A20FEF764FF002205211720FEF79F
:1027D0006DFF1720FEF75CFF07B0BDE8F08F00002B
:1027E0003038024000180240001C02400000024045
:1027F000000402400008024010B588B01C21684661
:10280000FDF743FE144813490024C0E9001441F2C7
:102810008731C0E9024104618461FFF777FA08B1AA
:10282000FDF7F2FF0C48FFF75BFB08B1FDF7ECFF8B
:102830006020CDE900040294002269460648049411
:10284000FFF7E8FA08B1FDF7DFFF0348FFF7A0FA4A
:1028500008B010BD004401409803002010B58AB0B4
:10286000002407941C2168460894FDF70EFE1648C4
:102870001449C0E900144FF6FF71C0E90241046138
:102880008461FFF72DFB08B1FDF7BEFF079407A990
:102890000D480894FFF7F2F908B1FDF7B5FF602085
:1028A000CDE9000402940022694607480494FFF72A
:1028B000B1FA08B1FDF7A8FF0348FFF769FA0AB0BB
:1028C00010BD000000080040500300200C4810B567
:1028D0000A4901604FF4E1314160002181600C221E
:1028E000C160C0E904128161C161FFF775FC002875
:1028F00003D0BDE81040FDF787BF10BD00100140B8
:10290000E00300200C4810B50A4901600B49416002
:10291000002181600C22C160C0E904128161C161A3
:10292000FFF75AFC002803D0BDE81040FDF76CBF4C
:1029300010BD00000048004028040020A0860100CF
:10294000FEE7FEE7A0B1D0ED101AC0ED111A90ED30
:102950000F1A80ED101AC0ED060A80ED070A30EE5E
:10296000C00A80ED0F0A017829B101293BD078E037
:102970009FED3D0A7047D0ED010A60EE801AC0ED70
:10298000091AD0ED0A0A90ED022A42EE000A30EE52
:10299000410AC0ED0A0A90ED0D2A80ED0E2A90ED55
:1029A0000C2A80ED0D2A80ED0C0A90ED031A21EE21
:1029B000001A80ED0B1A90ED050AF4EEC00AF1EE54
:1029C00010FA09DCB1EE400AF4EEC00AF1EE10FA9A
:1029D00002D390ED0A0A01E080ED0A0A31EE800A86
:1029E00030EE010A2BE070EE410A90ED012A20EE54
:1029F000822A80ED092AD0ED020A60EE800AC0ED3D
:102A00000A0AD0ED0D2A72EE200AC0ED0E2AD0ED92
:102A10000C2AC0ED0D2AF0EE002A01EE620A30EE1B
:102A2000210A80ED0C0A90ED031A21EE000A80EDD8
:102A30000B0A30EE800AD0ED080A30EE200A80ED55
:102A4000080AD0ED040AB4EEE00AF1EE10FA06DC52
:102A5000F1EE600AB4EEE00AF1EE10FA01D2C0ED38
:102A6000080A90ED080A704700000000002819D0FD
:102A70009FED0D0A80ED110A80ED100A80ED0F0A1E
:102A800080ED0E0A80ED0D0A80ED0C0A80ED0B0A38
:102A900080ED0A0A80ED090A80ED080A80ED060A39
:102AA00080ED070A7047000000000000002828D0D1
:102AB000002A26D0017092ED001A80ED011A92EDE5
:102AC000011A80ED021A92ED021A80ED031A80EDD0
:102AD000040A9FED0C0AC0ED050A80ED0E0A80ED98
:102AE0000D0A80ED0C0A80ED080A80ED0B0A80EDDE
:102AF0000A0A80ED090A80ED110A80ED100A80EDC6
:102B00000F0A70470000000030B5144B1C6865695F
:102B100045F0400565611B68DC6844F01004DC602A
:102B20000F4B1C68256825F0010525601C68256889
:102B3000ED07F7D11D680B4CAC601C68E0601868AD
:102B40000161186842601868016841F480210160E1
:102B50001868016841F00101016030BD28040020BF
:102B6000D004002004480040012001F0D7FBFBE71F
:102B700010B5FEF72FFD02F071F9012803D0BDE872
:102B8000104002F0FDB810BD30B593B0302168465A
:102B9000FDF77BFC14210CA8FDF777FC1D480025F0
:102BA000016841F080510160006800F08050119090
:102BB0001948016841F4804101600068022400F472
:102BC0008040119001200090000401908001CDE927
:102BD000064006200890A820CDE9090404200B90A7
:102BE0006846FEF781FE08B172B6FEE70CA90F2019
:102BF00081E831004FF4A0500F904FF480501090B6
:102C000005210CA8FEF784FD002801D072B6FEE76E
:102C100013B030BD403802400070004002480168E7
:102C200041F470010160704788ED00E0F0B5026882
:102C3000294C2A4D2A4E2B4F2B4B4FF0804CA04253
:102C400009D0604507D0A84205D0B04203D0B842B1
:102C500001D0984204D122F0700E4A6842EA0E0276
:102C6000A0421BD0604519D0A84217D0B04215D061
:102C7000B84213D0984211D01C4DA8420ED01C4D22
:102C8000A8420BD01B4DA84208D01B4DA84205D02E
:102C90001A4DA84202D01A4DA84203D122F4407521
:102CA000CA682A434D6922F080022A4302608A687A
:102CB000C2620A688262A04201D0984201D10969C9
:102CC0000163012141610169C90703D0016921F054
:102CD00001010161F0BD000000000140000400405E
:102CE00000080040000C004000040140004001408A
:102CF000004401400048014000180040001C004012
:102D000000200040F0B5036A026A22F0010202626C
:102D100042688469124E24F073050C682C4323F03A
:102D200002058B682B430D4DA84201D0B04205D15E
:102D300023F00807CB683B4323F00403A84201D0EB
:102D4000B04205D14D6922F4407215438A692A4385
:102D500042608461496841630362F0BD0000014044
:102D600000040140F0B5026A036A23F01003036215
:102D7000436884690D6824F4E64444EA05248D68B8
:102D800022F0200242EA05120F4D104EA84201D057
:102D9000B04206D1CF6822F0800242EA071222F048
:102DA0004002A84201D0B04207D14D6923F44063EC
:102DB00043EA85038D6943EA85034360846149687A
:102DC00081630262F0BD0000000001400004014088
:102DD000F0B5026A036A23F4807303624368C4692E
:102DE00022F4007224F073050C68124E2C438D6897
:102DF00042EA05220E4DA84201D0B04206D1CF686A
:102E000022F4006242EA072222F48062A84201D042
:102E1000B04207D14D6923F4405343EA05138D694D
:102E200043EA05134360C4614968C1630262F0BDAF
:102E3000000001400004014030B5046A026A22F437
:102E4000805202624268C3690D6823F4E64343EA94
:102E500005238D6824F4005444EA0534084DA84243
:102E600002D0084DA84204D14D6922F4804242EAC2
:102E700085124260C36149680164046230BD00008C
:102E8000000001400004014010B5806B0021C185A5
:102E9000C184FFF768F810BD01680C3151E8002FBC
:102EA00022F4907241E80023002BF5D1016814311F
:102EB00051E8002F22F0010241E80023002BF5D158
:102EC000016B012909D101680C3151E8002F22F072
:102ED000100241E80023002BF5D1202180F8421098
:102EE00000210163704708B590F84210222901D0F3
:102EF000022008BD82684FF480539A4201D10169D3
:102F000021B1816A9A421BD04AB10AE00268816A03
:102F10005268C2F308020A80816A891C08E00269CB
:102F200072B10268526802F07F020A70816A491C1D
:102F30008162C18D491E0904090CC18503D01BE0C3
:102F400002685268F1E70168CA6822F02002CA608C
:102F50000168CA6822F48072CA6001684A6922F076
:102F600001024A61202180F8421000214163026B76
:102F7000012A03D0FFF718FA002008BD0163016899
:102F80000C3151E8002F22F0100241E80023002B01
:102F9000F5D101680A68D20602D50A68496800912D
:102FA000818DFEF7DFFFE7E770B504460068016931
:102FB000E26821F44051114301612169A068E2698E
:102FC00008436169114308432168CA6849F20C63E8
:102FD0009A430243CA6020684169A26921F44071A2
:102FE0001143416131492068884202D0304988420A
:102FF00002D1FEF737FC01E0FEF724FCE269002372
:10300000192164253226B2F5004F626828D0A0FB52
:103010000101930F9200FDF787F90146B0FBF5F02F
:103020006FF01802504301EB800006EB0010B0FB7C
:10303000F5F000F0F002B1FBF5F002EB0012B1FB8D
:10304000F5F06FF01803584301EB800006EB001019
:10305000B0FBF5F000F00F0021681044886070BDEF
:10306000A0FB010192185B41FDF75EF90146B0FB40
:10307000F5F00201B1FBF5F06FF01803584301EBD6
:10308000800006EBC000B0FBF5F000F0F80002EBAA
:103090004002B1FBF5F0584301EB800006EBC000A5
:1030A000B0FBF5F000F00700D6E70000001001408B
:1030B000001401400148FEF757BF0000E003002064
:1030C000264818B400680168890604D5016840687C
:1030D000009018BC704722490968C906F9D50168F3
:1030E0004068204A0090106801684FF024030C03E8
:1030F0001D49046824F00104046016D41068446873
:10310000C4F12404A4B20C8043601068016841F447
:10311000002101601068016841F001010160122C7A
:10312000D7D1124901F1160015E014686068C0F1AA
:10313000240080B2088063600D498B6A23F4002369
:103140008B6211680A6842F001020A601228C0D13D
:10315000064901F13A0018BC01F05ABB28040020CE
:1031600000480040D0040020AA000020284700208A
:1031700000600240FEE703B401984100009850EA65
:10318000C12018BF04204A0D18BF40F0010040F2D2
:10319000FF72B2EB515F08BF40F00200012808BF88
:1031A000052002B070470907090E002804DB00F172
:1031B000E02080F80014704700F00F0000F1E020DC
:1031C00080F8141D7047000070B59B482DED020B70
:1031D0002DED068B079D25F00044A04218DC974892
:1031E000844202DC0AD1069840B19DED060BBDEC8D
:1031F000068B02B0BDE8704000F096BC002DCCBF3D
:103200009FED8F0B9FED900BBDEC068B02B070BD58
:103210008F48A04215DD8F48A042D8BF4FF0FF3441
:1032200058DD9DED060B51EC100BFFF7A4FF0428B1
:1032300008BF00F09DFC9DED060BBDEC068B02B0B7
:1032400070BD9DED060B51EC100B00F013FDCDE9A8
:10325000060181489FED828BA0423CDD8248A0425E
:103260001FDD00249FED82AB9DED060B53EC1A2B66
:1032700051EC100B01F006FF9DED060B41EC190B14
:1032800053EC1A2B51EC100B02F098F953EC182B5D
:1032900002F0A0FB53EC192B01F0A8FFCDE90601C9
:1032A00049E09DED060B012453EC182B51EC100B5B
:1032B00001F0E8FE9DED060B41EC190B53EC182BC9
:1032C00051EC100B02F086FB53EC192B01F08EFF32
:1032D000CDE906012FE06848A0421FDD02249FEDE2
:1032E000689B9DED060B53EC192B51EC100B02F073
:1032F00065F953EC182B01F0C5FE9DED060B41EC72
:10330000180B53EC192B51EC100B02F063FB53EC30
:10331000182B01F06BFFCDE906010CE09DED060BCB
:10332000032453EC102B9FED580B51EC100B01F0C4
:103330005DFFCDE906019DED060B53EC102B51EC22
:10334000100B02F03BF941EC180B53EC182B02F078
:1033500035F941EC190B4E480621B0EE490AF0EE62
:10336000690A784400F064FB53EC182B51EC100B05
:1033700002F024F941EC180B4648B0EE490AF0EE91
:10338000690A0521784400F053FB53EC192B51ECEA
:10339000100B02F013F941EC100B51EC180B53EC2D
:1033A000102B002C0EDA01F06DFE9DED061B53EC88
:1033B000112B02F003F99DED061B53EC112B02F0CB
:1033C00031FA35E001F05EFE9DED061B53EC112B4A
:1033D00002F0F4F841EC100B2F48784400EBC400E5
:1033E00090ED001B51EC100B53EC112B02F0F2FA94
:1033F0009DED061B53EC112B02F0ECFA41EC100B87
:103400002648784400EBC40090ED001B51EC100BF3
:1034100053EC112B02F006FA41EC100B002DA2BF69
:10342000BDEC068B02B070BD51EC100B01F0ECFD51
:1034300041EC100B01E70000000010440000F07F99
:10344000182D4454FB21F93F182D4454FB21F9BF9A
:103450000000DC3F0000203E0000F33F00000000C1
:10346000000000000000F03F0000E63F0000000008
:103470000000000000000040008003400000000049
:10348000000000000000F83F000000000000F0BF56
:103490004A290000002900008A2800004228000074
:1034A00070B56F4E2DED040B2DED048B82B0DDF861
:1034B00024C0DDE907235C422CF000411C4341EAB3
:1034C000D474069D22F00040B44205D86C422C43CF
:1034D00040EAD474B4420BD99DED081B9DED060B58
:1034E00002B0BDEC048B04B0BDE8704000F026BB18
:1034F000ACF14054A4F17F641C430BD0022404EAD5
:10350000AC7444EAD27405439FED578B9FED582B62
:1035100007D015E09DED060B51EC100B00F049FBB8
:1035200042E0002C11BF012C9DED060B02B0BDEC5A
:10353000048B04BF04B070BD022C38D0032C3BD0E8
:103540000B439FED4D1B9FED4E0B0AD0B14218D19E
:10355000B04209D121F0804120F0804009910790CC
:103560000FE0002A15DA10E0474B7B44002C08BF1F
:1035700093ED000B0DD0012C10D0022C17D0032C92
:103580001AD0B0421DD1002A03DAB0EE410AF0EEA3
:10359000610A02B0BDEC048B04B070BD93ED000B6A
:1035A00051EC100B01F030FD41EC100BF1E7B0EEE7
:1035B000480AF0EE680AECE7B0EE420AF0EE620A62
:1035C000E7E7401A00159FED329B3C28C8BF8DED00
:1035D000000B17DCBCF1000FBCBF10F13C0F8DEDF0
:1035E000009B0FDB9DED080B53EC102B9DED060BA4
:1035F00051EC100B01F0FAFD00F03CFB00F0D9FAA1
:10360000CDE90001B4B1012C10D0022C9FED220BAA
:1036100053EC102B9DED000B51EC100B19D002F068
:10362000D9F953EC182B02F0D5F9BDE7019880F0D9
:10363000004001909DED000B53EC192B51EC100B49
:1036400001F02CFF04BF0220FCF74EFF9DED000BA4
:103650009FE702F0BFF953EC182B02F0E3F8A3E761
:103660000000F07F00000000182D4454FB210940A9
:10367000182D4454FB2109C0182D4454FB21F9BFD7
:10368000182D4454FB21F93F722700000000000070
:103690000000000000000000075C143326A6A13CD7
:1036A0002DED020B019820F0004001909DED000BE4
:1036B00002B070470000000070B52DED040B2DED39
:1036C000048B8CB09DED100B8DED000B9DED120B5E
:1036D0008DED020B119820F00045139820F0004466
:1036E000AC420ADD9DED120B28468DED000B9DEDE1
:1036F000100B25468DED020B0446281B0195039403
:10370000B0F1707F10DD9DED020B53EC102B9DEDA1
:10371000000B51EC100B01F0B5FC41EC100B0CB0A0
:10372000BDEC048B04B070BDB748002685423EDD79
:10373000B648A84233DC9DED021B9DED000B00F066
:10374000FDF98DED040B0098002818BF012000EB57
:103750004501AF4811F5001F01D98542DFDB029911
:10376000002918BF012101EB440111F5001F01D907
:103770008442D4DB0099C5F31300084304BF9DEDD8
:10378000000B8DED040B84F07F60029980F0E04027
:10379000084304BF9DED020B8DED040BBFE7A5F1BF
:1037A0001655A4F116544FF41676019503949FED27
:1037B0009A8BB4F10C5F32DAB4F5801F27DA10EE81
:1037C000100A204308BF9DED000BA8D08DED0A8B99
:1037D00093480B909DED0A0B53EC102B9DED020BC3
:1037E00051EC100B01F0EAFECDE902019DED0A0B50
:1037F00053EC102B9DED000B51EC100B01F0DEFE95
:10380000CDE900010D46A6F2FE36039C07E005F166
:10381000165504F11654A6F51676019503949DED00
:10382000020B53EC102B9DED000B51EC100B02F032
:10383000D1F8CDE904019DED020B53EC102B9DED69
:10384000040B51EC100B01F0B7FF41D28DED0A8B48
:103850000B959DED0A0B53EC102B9DED000B51ECDD
:10386000100B02F0B7F89DED0A0B41EC180B53EC6E
:10387000102B9DED000B51EC100B01F003FC53ECF1
:10388000182B01F09BFE9DED020B41EC180B51EC47
:10389000100B01F0B9FB9DED021B53EC112B01F055
:1038A0008DFE53EC182B02F095F89DED0A0B41ECC0
:1038B000180B53EC102B51EC100B01F07FFE53EC66
:1038C000182B02F087F801F051F8CDE9040161E00E
:1038D0009DED000B53EC102B51EC100B01F0D2FBC3
:1038E000CDE900018DED068B07949DED060B53ECA1
:1038F000102B9DED020B51EC100B02F06BF841EC1C
:10390000190B8DED0A8B05F580100B909DED0A0BC0
:1039100053EC102B9DED000B51EC100B02F05AF8FC
:103920009DED021B53EC112B01F048FE9DED0A0B9F
:1039300041EC180B53EC192B51EC100B01F03EFE2F
:1039400053EC182B01F09EFB9DED040B41EC180B82
:1039500051EC100B01F058FB9DED041B53EC112BA7
:1039600001F02CFE53EC182B02F034F89DED060B01
:1039700041EC180B53EC102B9DED0A0B51EC100B86
:1039800001F01CFE53EC182B02F024F800F0EEFFBF
:10399000CDE90401002E08BF9DED040B3FF4BFAE3E
:1039A00006EB11509FED200B40F2FF718DED0A0BDD
:1039B00088420ADB0220FCF797FD0CB0BDEC048BBB
:1039C00004B0BDE8704000F0C3B810EE900A00EB00
:1039D00006500B909DED040B53EC102B9DED0A0B44
:1039E00051EC100B01F0EAFD0D4645EC100B0446BE
:1039F00051EC100BFFF7BFFB042808BF00F0B8F82C
:103A000045EC104B8BE600000000305F0000F07FBB
:103A10000000F87F0000000000000000000000002F
:103A20000000D07F00000000000000000000F03F18
:103A300070B504462DED028B4D1E00EBC500B0EEB7
:103A4000408AF0EE608A90ED000B35F0060017D04A
:103A500053EC182B51EC100B01F0B0FD41EC100BA6
:103A60006D1E04EBC50090ED001B51EC100B53ECE8
:103A7000112B01F007FB41EC100B35F00600E7D1EC
:103A8000022D36D0042D1CD0062D1CBFBDEC028BA0
:103A900070BD53EC182B51EC100B01F08FFD94ED21
:103AA0000A1B53EC112B01F0EDFA53EC182B01F02B
:103AB00085FD94ED081B53EC112B01F0E3FA41EC6A
:103AC000100B53EC182B51EC100B01F077FD94ED1B
:103AD000061B53EC112B01F0D5FA53EC182B01F017
:103AE0006DFD94ED040B53EC102B01F0CBFA41EC7F
:103AF000100B53EC182B51EC100B01F05FFD94ED03
:103B0000021B53EC112B01F0BDFA53EC182B01F002
:103B100055FD94ED001B53EC112B01F0B3FABDECF5
:103B2000028B41EC100B70BD10B553EC102B51EC17
:103B3000100B01F0A7FA41EC100B10BD10B553ECBF
:103B4000112B51EC100B01F09DFA41EC100B10BD44
:103B50009FED050B10B553EC102B51EC100B01F041
:103B60002DFD41EC100B10BD0000000000000070A6
:103B70009FED050B10B553EC102B51EC100B01F021
:103B80001DFD41EC100B10BD0000000000000010F6
:103B9000D0ED000AF4EEC00AF1EE10FA06DCB1EE48
:103BA000400AF4EEC00AF1EE10FA01D280ED000AEC
:103BB000704710B541EC100BFFF706FB51EC100BF2
:103BC00010BD000000B58BB000200121CDE9060139
:103BD000089100900190029003900590049069462E
:103BE0000C48FCF78DFE0B48FDF71AFA0221094834
:103BF000FCF70CFE0E200990059069460648FCF77C
:103C00007FFE0548FDF70CFA02210348FCF7FEFD94
:103C10000BB000BD0003002028030020134800F073
:103C200051F9134CA07A01280DD1E07A0128F9D17D
:103C30000E4800F0E9F800F071FA0C4800F08EF838
:103C4000012000F06BFBA07A0328EBD1E07A032877
:103C5000E8D1064800F0D8F800F01AFB034800F05D
:103C60007DF8012000F05AFBDCE70000D042002084
:103C70002847002082B0CDE9000121F000400190EA
:103C80009DED000B02B051EC100B704700487047DF
:103C900020420020004870472A4200200048704718
:103CA00034420020004870473E42002000487047E0
:103CB00048420020004870475242002000487047A8
:103CC0005C4200200048704766420020B4EEE01AD3
:103CD000F1EE10FA0FD371EE601AB4EEC10AF1EEF4
:103CE00010FA03DC08E000BF30EE610AB4EEC10A4E
:103CF000F1EE10FAF8DC7047B4EEE00AF1EE10FADB
:103D000002D3704730EE210AB4EEE00AF1EE10FA69
:103D1000F8D37047FDF766FCFEF736FFFEF792FC1E
:103D2000FEF740FCFEF7FAFBFEF71AFCFEF796FDE5
:103D3000FEF7E8FDFEF7CAFDFEF75EFDFFF742FF66
:103D400000F05EFDFEF754FC00F0EFFAFEE70146DE
:103D50000020842900D0C81C7047000070B5040002
:103D600035D0201DFEF7B4FB04F1AC00FEF7B0FB2C
:103D700004F5AA70FEF7ACFB04F5FE70FEF7A8FB95
:103D8000134DB5F9A032B5F9F821B5F95011B5F9CF
:103D9000A800FCF757FC04F52970FEF708FB04F5B2
:103DA0004270FEF704FB04F55B70FEF700FB04F5C0
:103DB0007470FEF7FCFAB5F93034B5F9CC23B5F9D7
:103DC0006813B5F90403BDE87040FCF717BC70BD7B
:103DD000D0420020401AB0F5805F03DDA0F5F85016
:103DE000FF3805E010F5805F02DA41F6FF71084404
:103DF00000EE100ADFED030AB8EEC00A20EE200A3A
:103E000070470000DB0F493A10B5040058D06068D5
:103E1000B4F880100088FFF7DDFF84ED230AD4F8A2
:103E2000AC00B4F828110088FFF7D4FF84ED4D0AE8
:103E3000D4F85401B4F8D0110088FFF7CBFF84ED1B
:103E4000770AD4F8FC01B4F878120088FFF7C2FFB3
:103E500084EDA10AD4F8A402B0F9020000EE100A21
:103E6000F8EEC01AC4EDBD1AD4F80803B0F9020088
:103E700000EE100AB8EEC01A84EDD61AD4F86C031E
:103E800031EE811AB0F9020000EE100AF8EEC00A15
:103E9000C4EDEF0AD4F8D00371EE200A04F5806473
:103EA000B0F9020000EE100AB8EEC00A84ED080A6C
:103EB00030EE800AF5EE000A20EE200A84ED0D0AAD
:103EC00010BD00002DE9F04F04462DED068B85B0A6
:103ED000FFF7ECFE6060FFF7EDFEC4F8AC00FFF703
:103EE000EDFEC4F85401FFF7EDFEC4F8FC01FFF746
:103EF000CDFEC4F8A402FFF7CDFEC4F80803FFF717
:103F0000CDFEC4F86C03FFF7CDFE9FED7B8AB0EECB
:103F1000482ADFED7A8AF0EE681A9FED799AB0EEC2
:103F2000491ADFED789AF0EE690A9FED77AAC4F896
:103F3000D00304F10800B0EE4A0A0490FEF7B6FA86
:103F400004F13800F0EE690AB0EE4A0A6F4A002127
:103F50000390FEF7ABFD04F1B000B0EE482AF0EE9E
:103F6000681AB0EE491AF0EE690AB0EE4A0A0290F9
:103F7000FEF79CFA04F1E000F0EE690AB0EE4A0A9E
:103F8000624A00210190FEF791FD04F5AC70B0EE9D
:103F9000482AF0EE681AB0EE491AF0EE690AB0EE5F
:103FA0004A0A0090FEF782FA04F5C470F0EE690A3E
:103FB000B0EE4A0A554A00218346FEF777FD04F524
:103FC0000070B0EE482AF0EE681AB0EE491AF0EE32
:103FD000690AB0EE4A0A8246FEF768FA04F50C70E8
:103FE000F0EE690AB0EE4A0A484A00218146FEF71F
:103FF0005DFD9FED478AF0EE480ADFED468A434AB1
:1040000004F52A70B0EE680A0C3200218046FEF7F3
:104010004DFD3E4A04F54370F0EE480AB0EE680AE2
:104020000C3200210546FEF741FD384A04F55C706C
:10403000F0EE480AB0EE680A0C3200210646FEF7A0
:1040400035FD324A04F57570F0EE480AB0EE680AA4
:104050000C3200210746FEF729FD0498FEF710FAFE
:104060000398FEF703FD0298FEF70AFA0198FEF79F
:10407000FDFC0098FEF704FA5846FEF7F7FC5046A0
:10408000FEF7FEF94846FEF7F1FC4046FEF7EEFC6F
:104090002846FEF7EBFC3046FEF7E8FC3846FEF714
:1040A000E5FC1D48FFF7B0FE94ED230A84ED240AD9
:1040B00094ED4D0A84ED4E0A94ED770A84ED780A6A
:1040C00094EDA10A84EDA20A94EDBD0A84EDBE0A26
:1040D00094EDD60A84EDD70A94EDEF0A84EDF00A48
:1040E00004F5806494ED080A84ED090A05B0BDEC7E
:1040F000068BBDE8F08F0000000048430000000080
:104100000050434800409C460060EA46305C00088E
:1041100000606A4600C05A46D042002070B52DEDBE
:10412000048B9FED520BFFF74FF851EC100B00F092
:1041300077FF504C08EE100A4226B4F906004FF4FF
:10414000C87190FBF6F0484301F0E4F941EC190B1B
:10415000B4F904004FF4C87190FBF6F0484301F045
:10416000D9F941EC100BB0EE491AF0EE691AFFF7DD
:10417000A3FA51EC100B00F053FF3F4D2860B4F947
:10418000060001F0C7F941EC190BB4F9040001F085
:10419000C1F941EC100BB0EE491AF0EE691AFFF7C5
:1041A0007FF951EC100B00F03BFF00EE100AC82124
:1041B00085ED010AB4F908009FED332A90FBF6F073
:1041C000484300EE900AA5F5876000F58061F8EE9F
:1041D000E00ADFED2E2AC5ED020A95ED001A71EE18
:1041E000601A31EE201AF0EEE00AC0EDBE1A10EEB1
:1041F000902AB1EE411A80EDD71AC0EDF01A81ED88
:10420000091A1E499FED1E1ADFED1E1A8A420EDAA8
:1042100070EE010AC0ED240A70EE210AC0ED4E0ACC
:1042200070EE020A30EE220AC0ED780A19E010EEB4
:10423000902A8A4217DD70EE010A70EE880AC0EDFE
:10424000240A70EE210A70EEC80AC0ED4E0A70EE24
:10425000020A30EE220A70EEC80A30EE080AC0EDFB
:10426000780A80EDA20ABDEC048B70BDB6875C565F
:104270000C94E03F28470020084700200000204120
:10428000E4CB964006892740714CB840DB0FC93F0C
:104290001C49DFED1D0AA1F10C0091ED021A80ED21
:1042A000001A91ED030A71EE601A80ED010AC0ED6B
:1042B000020A71EE200AA0F587604439C0EDBE1AEB
:1042C000F1EE600AC0EDD70AC0EDF01AC1ED090A9F
:1042D000DFED0E0A70EE200AC0ED240ADFED0C0AB5
:1042E00070EE200AC0ED4E0ADFED0A0A70EE200AD9
:1042F000C0ED780ADFED080A30EE200A80EDA20A50
:10430000704700001447002000000000E4CB9640F6
:1043100006892740714CB840DB0FC93F10B500B982
:10432000012000F021FC002010BD10B500F042FC7F
:10433000002010BD7FB50D4604464169B0F9080064
:1043400081B1A16971B1FFF702FDD4E905128DE8D1
:104350000700D4E900102B46226900F054FD0390B9
:1043600004B070BDFFF7F3FC03A9CDE90001208A7A
:104370002B4682B2D4E9001000F018FD012801D0CC
:104380000020EDE70398EBE72DE9F0411A4C0F46CA
:104390000546E6682168002081F852002068001D6B
:1043A00000F01BFB38B9206890F82C1001208840E1
:1043B000216981432161681C07D137B12168BDE8BB
:1043C000F0410E48091D00F04BBB20683544B54252
:1043D0004560216805D2A06BBDE8F041091D00F0E1
:1043E00027BB606B091D00F023FBA06A854200D249
:1043F000A562BDE8F0810000200000200C0600202E
:104400002DE9F041054600F037FB2E4CA068401C1A
:10441000A06020682C4F10B1606940B32DE025608A
:10442000A068012829D1002606EB860007EB800052
:1044300000F0F0FA761C072EF6D323488C3000F0FB
:10444000E9FA2148A03000F0E5FA1F48B43000F046
:10445000E1FA1D48C83000F0DDFA1B48DC3000F0FE
:10446000D9FA19488C3060631430A06305E02068E5
:10447000E96AC06A884200D82560606A401C6062B0
:10448000E96A0120226988401043206101EB810024
:1044900007EB8000291D00F0E3FA00F00DFB6069D6
:1044A00000280CD02068E96AC06A884207D2074910
:1044B0004FF080500860BFF34F8FBFF36F8FBDE8A0
:1044C000F0810000200000203005002004ED00E015
:1044D00010B5044690F8510058B101280CD00228BC
:1044E0000FD0502080F31188BFF34F8FBFF36F8F31
:1044F000FEE7206B00F0F4FA2046BDE8104000F023
:10450000EFBA10BD10484FF47051420706D0C01DDD
:104510000D4920F00700411AC1F570510B4A0023E4
:104520000144C2E900030839183A21F0070111607B
:104530004B600B600B1AC0E9001393604FF0004012
:104540005360506170470000200600207400002076
:10455000144E154CA6F1C8074FF08058DFF84C9068
:1045600012E000BF00F088FAF068C568281D00F06E
:1045700034FAA068401EA0606068401E606000F0D1
:104580009BFA2846FFF7A4FF60680028EAD1386844
:104590000128F9D9C9F80080BFF34F8FBFF36F8F9F
:1045A000F2E70000F80500202000002004ED00E004
:1045B0002DE9F05F8846DDE90B94154683469100AE
:1045C0009A460A9EA522206BFBF757FF6FF0030166
:1045D000206B01EB8501084420F00707780707D01E
:1045E000502080F31188BFF34F8FBFF36F8FFEE72A
:1045F0000025B8F1000F0FD05FF00000221818F866
:10460000001082F8341018F8001011B1401C102866
:10461000F4D384F8435001E084F83450072E00D3DB
:104620000626E662C4E91165201D00F0FEF904F1DA
:10463000180000F0FAF92461C6F107006462A06175
:10464000E56484F8505084F8525052465946384632
:1046500000F0C0F82060B9F1000F01D0C9F80040A7
:10466000BDE8F09F30B5114900E011460A6882426A
:10467000FBD34B685C18844203D1406818444860FF
:10468000084643681C18944209D1084C183C246819
:10469000A24209D052681A4442600A681268026055
:1046A000814200D0086030BD0460F9E7740000204A
:1046B0000648416B096829B1416BC968C9684968F6
:1046C000816270474FF0FF31FAE7000020000020C0
:1046D00008484068401C4FF0500080F3118804D017
:1046E000BFF34F8FBFF36F8FFEE7BFF34F8FBFF363
:1046F0006F8FFEE77C0000202DE9F0410546002782
:1047000000F08EFA324E306808B9FFF7FBFE706990
:1047100005424ED1C5B3083568070ED005F0070035
:10472000C0F108000544680707D0502080F31188C5
:10473000BFF34F8FBFF36F8FFEE72DB370688542D5
:1047400037D82348183001460C6801E020460C4653
:104750006168A94202D221680029F7D131688C42F0
:1047600027D007682168016060680837411B10295D
:104770000FD96019420708D0502080F31188BFF389
:104780004F8FBFF36F8FFEE713E041606560FFF767
:1047900069FF61687068401A7060B268904200D228
:1047A000B060706901430020C4E90001F068401C5A
:1047B000F06000F0C7FB780707D0502080F3118825
:1047C000BFF34F8FBFF36F8FFEE73846BDE8F08130
:1047D0005C00002010B5031F4FF080741C601B1F8D
:1047E00021F001011960191F044B0B6014390A6094
:1047F000091F6FF0020244380A6010BDD14600085C
:1048000002492422A1F12400FEF77EB9624700206C
:104810002DE9F0410C462DED028B00287ED09FED56
:10482000518B0025002C79D00178427841EA022191
:10483000C1F30A01218042788378D20842EA431208
:10484000C2F30A0767808278C378920942EA83023A
:10485000037942EA8322C2F30A06A68002794379E9
:10486000520842EAC312C2F30A03E3804279C2F358
:104870000112A27242799209E272827990F807C01D
:1048800042EA0C22A281027A90F809C042EA0C2284
:10489000E281827A90F80BC042EA0C222282027BEB
:1048A000A274427BE274827B90F80FC042EA0C2231
:1048B000A282027C407CA1F580612180A7F58067FF
:1048C00042EA00226780A6F58066A680A3F5806391
:1048D000E380A2F580622281084600F01BFE41ECD5
:1048E000100BFEF7DDFE53EC182B51EC100B00F013
:1048F00029FE00D22580B4F9020000F00BFE41EC45
:10490000100BFEF7CDFE53EC182B51EC100B00F002
:1049100019FE00D26580B4F9040000E01DE000F04B
:10492000F9FD41EC100BFEF7BBFE53EC182B51ECDC
:10493000100B00F007FE00D2A580B4F9060000F0CD
:10494000E9FD41EC100BFEF7ABFE53EC182B51ECDC
:10495000100B00F0F7FD00D2E580BDEC028BBDE846
:10496000F0810000000000000000344000B52DED93
:10497000048B83B041EC190B00F060FF41EC180B85
:1049800018EE100A18EE901A8DED008B002818BF53
:104990000120084320F00040C0F17F6000F1E040BA
:1049A000C00F14D019EE101A19EE900A8DED009B6D
:1049B000002918BF0121084320F00040C0F17F60AA
:1049C00000F1E040C00F04BF0120FBF78DFD51EC6A
:1049D000180B03B0BDEC048B00BDD0E901320169B6
:1049E0009A60D0E901235A604A68824201D1826804
:1049F0004A60002202610868401E0860086870472B
:104A0000034B036003F1540008608020106070477E
:104A1000AC00002000F108014FF0FF32C0E90112A4
:104A2000C160016100210160704700210161704790
:104A300030B50B685A1C02D000F1080202E002698E
:104A400004E02246546825689D42FAD953684B60B9
:104A500099608A60516008610168491C016030BD3D
:104A600042684A6093688B609368596091600861FE
:104A70000168491C01607047502080F31188BFF322
:104A80004F8FBFF36F8F0A494868401C4860012868
:104A90000CD10848006810F0FF0F07D0502080F3B9
:104AA0001188BFF34F8FBFF36F8FFEE77047000091
:104AB0007C00002004ED00E00849486828B1401E51
:104AC000486001D180F311887047502080F311882D
:104AD000BFF34F8FBFF36F8FFEE700007C00002015
:104AE00070B500282AD0164DA0F1080460686969E5
:104AF000084207D1502080F31188BFF34F8FBFF3D6
:104B00006F8FFEE722683AB1502080F31188BFF31F
:104B10004F8FBFF36F8FFEE78843606000F080F82F
:104B200060686968084468602046FFF79BFD286953
:104B3000401C2861BDE8704000F004BA70BD000060
:104B40005C0000204FF0E0200021016181610549F7
:104B50004FF47A720968B1FBF2F1491E41610721F5
:104B6000016170471C00002010B5020014D00F48EE
:104B7000006B38B1502080F31188BFF34F8FBFF323
:104B80006F8FFEE700F04CF800211046FFF7FCFBAA
:104B900000F0D8F9002807D105494FF0805008608F
:104BA000BFF34F8FBFF36F8F10BD000020000020B8
:104BB00004ED00E010B586B00024039405AA04A912
:104BC00003A80494FFF71CFFDDE903010094CDE97D
:104BD000011000230EA11048059A00F014F90F49A6
:104BE0000028C86211D0502080F31188BFF34F8F86
:104BF000BFF36F8F4FF0FF30886201204861CC60B7
:104C000006B0BDE8104000F041B806B010BD00008D
:104C100049444C4500000000514500082000002098
:104C20000248016B491C016370470000200000200E
:104C30001448016B11B10121C16170470021C161AC
:104C40000169B1FA81F1C1F11F0101EB81020E4945
:104C500051F822306BB101EB820101F108034A687F
:104C600052684A609A4201D152684A60D168016034
:104C70007047502080F31188BFF34F8FBFF36F8FC1
:104C8000FEE7000020000020300500201CB537485A
:104C90000168374A914207D1502080F31188BFF351
:104CA0004F8FBFF36F8FFEE700683149491E88427E
:104CB00007D1502080F31188BFF34F8FBFF36F8F60
:104CC000FEE72C4908780190FF20087008788DF8DD
:104CD00000009DF800009DF8002000F0F0009042D8
:104CE00007D0502080F31188BFF34F8FBFF36F8F31
:104CF000FEE79DF80000204C00F0500020700720D7
:104D0000A06005E09DF8002052008DF80020401EB4
:104D10009DF800201206F5D4A060032807D050208B
:104D200080F31188BFF34F8FBFF36F8FFEE74FF40F
:104D30004070A060019808700C482030016841F470
:104D400070010160016841F070410160FFF7FAFEF7
:104D500000206060FBF78CFA0848016841F0404190
:104D60000160FBF771FA00201CBD000000ED00E0BF
:104D700071C20F4100E400E07C00002034EF00E04D
:104D800010B5502080F31188BFF34F8FBFF36F8FA2
:104D900000F072F818B104494FF08050086000200C
:104DA00080F3118810BD000004ED00E02DE9FF5FE5
:104DB0008346DDE90E87994616468A469000FFF73E
:104DC0009BFC05001CD05420FFF796FC040014D077
:104DD0000020256384F85100CDE90240CDE9008729
:104DE0004B46324651465846FFF7E2FB2046FFF756
:104DF00007FB012004B0BDE8F09F2846FFF770FED6
:104E00004FF0FF30F6E7F0B585B0DDE90B640A9DA1
:104E1000A6B1DCB1542700972663022684F85160BE
:104E2000002604AFCDE90246CDE90057FFF7C0FBED
:104E30002046FFF7E5FA049805B0F0BD502080F356
:104E40001188BFF34F8FBFF36F8FFEE7502080F3C1
:104E50001188BFF34F8FBFF36F8FFEE7054841699D
:104E600019B1006B18B10020704701207047022073
:104E700070470000200000202DE9F0412F4C002653
:104E8000206B28B1A069401CA0613046BDE8F081CC
:104E9000E5686D1CE56013D1606B006838B1502087
:104EA00080F31188BFF34F8FBFF36F8FFEE7606B06
:104EB000A16B6163A063206A401C2062FFF7F8FBCE
:104EC000A06ADFF87C80854209D3606B0068A0B1DE
:104ED000606BC068C7687868854211D2A06220689C
:104EE000C06A00EB800158F82100012800D9012692
:104EF000E0690028C9D00126C7E74FF0FF30EDE791
:104F0000381DFFF76AFDB86A18B107F11800FFF7FE
:104F100064FDF96A0120226988401043206101EB99
:104F2000810108EB8100391DFFF79AFDF86A2168BD
:104F3000C96A8842C9D30126C7E7000020000020C3
:104F4000300500202DE9F0472C4D00242746286B22
:104F500038B1FFF791FD286B401E2863286B40B1E4
:104F600046E0502080F31188BFF34F8FBFF36F8F5F
:104F7000FEE7A968224E0120D1B3A6F1B40980460C
:104F80003068E8B1F068C46804F11800FFF725FD47
:104F9000201DFFF722FDE06A2A6908FA00F111439B
:104FA000296100EB800109EB8100211DFFF758FD0D
:104FB000E06A2968C96A8842E2D3C5F81C80DFE745
:104FC0000CB1FFF775FBAC6944B14646FFF754FFDF
:104FD00000B1EE61641EF9D10020A861E86938B122
:104FE0000849012738070860BFF34F8FBFF36F8F61
:104FF000FFF762FD3846BDE8F08700002000002082
:10500000E405002004ED00E081F00041704780F0ED
:105010000040704721F00041704720F00040704789
:1050200021F00042A2F16052B2F5801F01F000436E
:1050300028BFD2F17F6C0BD95FEA001C43EAC202A1
:1050400042EB507018BF704728BF20F00100704736
:10505000B2F5801FBCBF184670474FEA410C1CF5E3
:10506000001F02D2084600F0A4BD70B500F050FB4E
:1050700000000089FFF7F6BF4FF00040A0F5800068
:105080007047000010B591EA030F48BF83F000435A
:1050900000F1A884841A71EB030C05D2121943EBBA
:1050A0000C03001B61EB0C01DFF824E14FEA115403
:1050B000A4EB135C1EEA430F18BF9EEA445F73D053
:1050C00023EA0E03DCF1200E21EA045143F480139D
:1050D00032D322FA0CFE10EB0E0023FA0CFE41EB49
:1050E0000E01CCF1200E03FA0EFE10EB0E0051F172
:1050F0000001B1F5801FCCF1200E32D201EB04513A
:1051000012FA0EF2BDE8104058BF7047401C38BF7D
:105110005FEA420218BF7047002814BF20F0010068
:1051200041F100014FEA410313F5001F38BF7047FA
:10513000A1F1C04100F03ABB012A43EB0302ACF1FC
:10514000200CDCF11F0E32BF4FF0000E23FA0CF3DF
:1051500010EB030041EB0451B4EB115FD0D0A1EB95
:10516000045101F5801149085FEA300001EB045158
:105170000ED350F1000038BF12FA0EFE08D1BDE880
:105180001040C9E7401C38BF5FEA4202CAD1C3E7FA
:10519000BDE810404FEA410313F5001F38BF7047C8
:1051A000A1F1C04100F002BB9EEA445F08D011EAC1
:1051B0005E0FBDE8104004BF01F0004100207047C1
:1051C000BDE8104070B500F0A3FA00BF64FBBE3E1E
:1051D0000000E0FF491058BFC1F140415B1058BFCB
:1051E000C3F140438B42EFF3008070472DE9C0418B
:1051F00030B4DFF8A0C23CEA111418BF3CEA131423
:1052000000F0EC8081EA03051CEA111444EAD5742D
:1052100018BF1CEA131500F0C780A4EB05044FF07B
:10522000004545EAC12145EAC32341EA505143EA1A
:10523000525304F17F74994204F500344FEAC020C0
:105240004FEAC22208BF904200F09C804FEA1365EB
:105250000FF24016765D4FEA134506FB05F7C7F1DE
:10526000807706FB07F74FEAD737A7FB036876423C
:10527000C8F58038A7FB06CE38BFA8F1010807FBA8
:1052800008E64FF0000EA6FB028CE6FB03CEDCF135
:10529000000CCEF1004E38BFAEF1010EA6FB0C584B
:1052A0004FF000074FF00005E6FB0E87A1FB08C694
:1052B000A0FB07CE16EB0E0645F10005E1FB0765E6
:1052C00015F1E04E7EBFA4F580345FEA46066D41DD
:1052D00016F1800745F100054FEA17274FEA0666E9
:1052E00047EA0567A6F1DE46B6F1805F4FEA15256D
:1052F0001FD9384624F0010C05EBC471BCF1FE6FD8
:1053000001EB0C1102D8F0BCBDE8008124425CBF67
:1053100001F5801E9EEAC47F02D4F0BCBDE8008186
:10532000244238D4F0BCA1F1C041BDE8004100F0F6
:105330003DBA4FEAD22242EA43524FEAD323A7FBB7
:1053400002864FEAD02040EA415007FB03661EEA7E
:105350000E0F4FEAD12105FB026658BFA6EB00569F
:10536000B6EB00564FEA520E4EEAC37E18EB0E0E15
:1053700056EB530EBDD518EB02085E417F1C55F16C
:105380000005B6E74FF480154FF000074FF0000618
:105390004FF00008ADE7F0BC4FF0000001F1C04154
:1053A00001F00041BDE8008111EA0C1F0CEA131561
:1053B00000D00CE013EA0C1F00F025804FF0000035
:1053C000F0BC81EA030101F00041BDE80081F0BCBE
:1053D000BDE8004181EA030100F0E8B9F0BCBDE896
:1053E000004170B500F094F9097EFC3E00F007B86A
:1053F00081EA03014FF0000001F00041704781EAAB
:10540000030100F0D3B9F0BCBDE800414FF000004B
:1054100021497047FFFDFBF9F7F5F4F2F0EEEDEBF3
:10542000E9E8E6E4E3E1E0DEDDDBDAD8D7D5D4D3A2
:10543000D1D0CFCDCCCBCAC8C7C6C5C4C2C1C0BFEE
:10544000BEBDBCBBBAB9B8B7B6B5B4B3B2B1B0AFF4
:10545000AEADACABAAA9A8A8A7A6A5A4A3A3A2A1D8
:10546000A09F9F9E9D9C9C9B9A9999989797969593
:1054700095949393929191908F8F8E8E8D8C8C8B2F
:105480008B8A8989888887878685858484838382B7
:10549000828181800000FF070000F87F51EA030C41
:1054A00017D41CF5801F58BFBCF5801F00F1068083
:1054B000994218BF704708BF9042704707D711F54F
:1054C000801F58BF13F5801F19D499427047894235
:1054D00070471CF5801F08D5BCF5801FF7D58B429F
:1054E00018BF704708BF824270474FF4001C1CEB86
:1054F000410F38BF1CEB430F01D28B42704770B590
:1055000000F006F9922449004FF000514FF080530B
:10551000FFF760BE10F0004248BF4042B0FA80F38F
:1055200010FA03F10AD0C3F11D0303F580634FEABB
:10553000415002EB035202EBD12170474FF00000C3
:105540007047000051EA030C17D41CF5801F58BFA8
:10555000BCF5801F00F10680994218BF704708BF54
:105560009042704707D711F5801F58BF13F5801F71
:1055700019D499427047894270471CF5801F08D59D
:10558000BCF5801FF7D58B4218BF704708BF824219
:1055900070474FF4001C1CEB410F38BF1CEB430F4E
:1055A00001D28B42704770B500F0B2F892244900E6
:1055B0004FF000514FF08053FFF70CBEDFF848C1A9
:1055C00070B51CEA111E1EBF1CEA13159EEA0C0FD3
:1055D00095EA0C0F00F06F8081EA030423EA4C1374
:1055E0004EEAD47E21EA4C1141F4801143F4801339
:1055F000AE44A1FB024CA0FB0365AEF17F7E3619E1
:1056000055EB0C05A1FB034C4CF10003A0FB021C65
:1056100016EB0C06654153F10003094218BF46F032
:10562000010613F4007F0BD14FEA03314FEA053036
:10563000340341EA155140EA16506FF003020AE0C4
:105640004FEAC3214FEAC520F40241EA555140EA2E
:1056500056506FF0020202EB2E4201EB025585EA32
:10566000CE710AD05FEA440C18BF24F0004450F118
:10567000000041F1000120EAD47040F2FE7C624556
:1056800000D270BDA84214BF4FF080444FF0404498
:10569000002E08BF0024BEF1806FA8BFA1F1C04159
:1056A000BDE8704080F282804FF0000001F1C041FF
:1056B00001F0004170479EEA0C0F0CEA131518BF69
:1056C00095EA0C0F06D04FF0000081EA030E0EF0B1
:1056D000004170BD00F01CF88900013E00F007B8E1
:1056E00000F009B84FEA430C5FEA5C5C08D081EA3D
:1056F000030100F05BB84FEA410C5FEA5C5CF6D155
:105700004FF00000014970470000FF070000F87FDC
:105710000EF1020E2EF0030E5EF8046B364205D435
:10572000012A43EB030515F5001F12D8012841EBB0
:10573000010C1CF5001F0CD80ED14FEAD17C15F5D9
:10574000001F0CEB4C0C0CF1020C08BF4CEBD37C93
:1057500004E04FF0080C01E04FEAD37C0CEB4C0561
:1057600026FA05F606F00706B6F1040C06D20EEB93
:10577000860CBDE870404CF0010C6047DFE80CF08F
:10578000090B02024FF000414FF00000A1F500218B
:1057900070BD19461046012851EB010418BFD4F51D
:1057A000001484BF002001F0004170BD0808A0F57E
:1057B00000114FEA3101704753EA010C17D41CF570
:1057C000801F58BFBCF5801F00F106808B4218BFB8
:1057D000704708BF8242704707D713F5801F58BF34
:1057E00011F5801F19D48B4270479B4270471CF5FE
:1057F000801F08D5BCF5801FF7D5994218BF7047A8
:1058000008BF904270474FF4001C1CEB430F38BF99
:105810001CEB410F01D2994270470FB40CBC03BC82
:10582000FFF7C1BE91EA030F10B581F000413FF5CB
:1058300031AC83F0004300F0D5B800002DE9F04111
:1058400001F5801CBCF5001FC0F2A9804FEA115C75
:1058500021EA0C510CF1FD0C41F480115FEA5C0C63
:105860000CF5C07C01D34000494130A4890241EAD3
:10587000905187028E0E0A0CA45D04FB04F602FB15
:1058800006F6C6F14046A4FB0662F60D46EA42263D
:1058900006FB06F4A4FB01235242C3F1404338BF88
:1058A0005B1EA6FB02420024E6FB0324D20B42EA65
:1058B0004446A6FB0623A1FB02E2A3FB07E4E3FBAD
:1058C00061426442C2F1404E38BFAEF1010EA6FB08
:1058D00004234FF00002E6FB0E32A2FB0346340025
:1058E000E2FB6264A1FB06E6A4FB07E8E4FB616857
:1058F0007642C8F1405838BFA8F10108A2FB06E47F
:10590000A3FB08E5E2FB6854A1FB05E6A7FB04E85E
:10591000E1FB648618F1200556F10006A809A8F1FC
:105920001B08B10908F03F08B8F10A0F40EA866089
:105930001CD901EB0C51BDE8F08100BFFCF5EEE88D
:10594000E2DDD8D3CFCBC7C3C0BDB9B6B4B1AEAC1E
:10595000A9A7A5A3A19F9D9B9A9896959392908F96
:105960008D8C8B898887868584838281A0FB0068E3
:1059700000FB01F208EB4208B8EB872807D5341882
:1059800058EB0104D5D5401C51F10001D1E7341A80
:1059900078EB0104CDD4401E71F10001C9E75FEA44
:1059A0004C0C5FEA9C5C0DD105D34FF0000001F078
:1059B0000041BDE8F081BDE8F04170B5FFF7A8FEF9
:1059C0006DDBFFBEBDE8F0414FF0000000497047BD
:1059D0000000F87F10B591EA030F48BF83F0004341
:1059E0003FF558AB841A71EB030C07D212198CF0F7
:1059F000004C43EB0C03001B61EB0C01DFF8A4E14E
:105A00004FEA1154A4EB135C1EEA430F18BF9EEA41
:105A1000445F00F0B08023EA6E03524221EA045151
:105A2000C3EB6E0338BF5B1EDCF1200E25D322FAD8
:105A30000CFE10EB0E0043FA0CFE41EB0E01CCF114
:105A4000200E03FA0EFE10EB0E0051F10001CCF116
:105A5000200E29D412FA0EF201EB0451BDE81040D9
:105A600058BF7047401C1CBFB2F1004F7047002860
:105A70000CBF491C20F00100704712EB020E43EBF3
:105A8000030218BF4FF0010E4EEA4202ACF1200CA7
:105A9000DCF11E0E54D943FA0CFE10EB0E0051F14E
:105AA000FF31CCF11E0ED5D50EF1010E12FA0EFE0D
:105AB000404141EB010101EB445C5FEA5C5C10D9C1
:105AC00010EBDE7001EB045138BFBEF1004FBDE8B2
:105AD000104018BF704700280CBF491C20F001007F
